{
  "address": "0x24432a08869578aAf4d1eadA12e1e78f171b1a2b",
  "abi": [
    {
      "inputs": [],
      "stateMutability": "nonpayable",
      "type": "constructor"
    },
    {
      "inputs": [
        {
          "internalType": "address",
          "name": "_address",
          "type": "address"
        },
        {
          "internalType": "address",
          "name": "_aToken",
          "type": "address"
        }
      ],
      "name": "balance",
      "outputs": [
        {
          "internalType": "uint256",
          "name": "",
          "type": "uint256"
        }
      ],
      "stateMutability": "view",
      "type": "function"
    },
    {
      "inputs": [
        {
          "internalType": "address",
          "name": "_address",
          "type": "address"
        },
        {
          "internalType": "address",
          "name": "_aToken",
          "type": "address"
        }
      ],
      "name": "balanceUnderlying",
      "outputs": [
        {
          "internalType": "uint256",
          "name": "",
          "type": "uint256"
        }
      ],
      "stateMutability": "view",
      "type": "function"
    },
    {
      "inputs": [
        {
          "internalType": "uint256",
          "name": "_amount",
          "type": "uint256"
        },
        {
          "internalType": "address",
          "name": "_aToken",
          "type": "address"
        }
      ],
      "name": "calcShares",
      "outputs": [
        {
          "internalType": "uint256",
          "name": "",
          "type": "uint256"
        }
      ],
      "stateMutability": "view",
      "type": "function"
    },
    {
      "inputs": [
        {
          "internalType": "address",
          "name": "_aToken",
          "type": "address"
        },
        {
          "internalType": "address",
          "name": "_claimer",
          "type": "address"
        }
      ],
      "name": "claim",
      "outputs": [
        {
          "internalType": "bool",
          "name": "",
          "type": "bool"
        }
      ],
      "stateMutability": "nonpayable",
      "type": "function"
    },
    {
      "inputs": [
        {
          "internalType": "uint256",
          "name": "_amount",
          "type": "uint256"
        },
        {
          "internalType": "address",
          "name": "_aToken",
          "type": "address"
        },
        {
          "internalType": "address",
          "name": "_uToken",
          "type": "address"
        }
      ],
      "name": "deposit",
      "outputs": [
        {
          "internalType": "uint256",
          "name": "",
          "type": "uint256"
        }
      ],
      "stateMutability": "nonpayable",
      "type": "function"
    },
    {
      "inputs": [
        {
          "internalType": "address",
          "name": "_aToken",
          "type": "address"
        }
      ],
      "name": "exchangeRate",
      "outputs": [
        {
          "internalType": "uint256",
          "name": "",
          "type": "uint256"
        }
      ],
      "stateMutability": "pure",
      "type": "function"
    },
    {
      "inputs": [
        {
          "internalType": "uint16",
          "name": "_code",
          "type": "uint16"
        }
      ],
      "name": "setAaveReferral",
      "outputs": [],
      "stateMutability": "nonpayable",
      "type": "function"
    },
    {
      "inputs": [
        {
          "internalType": "uint256",
          "name": "_amount",
          "type": "uint256"
        },
        {
          "internalType": "address",
          "name": "_aToken",
          "type": "address"
        },
        {
          "internalType": "address",
          "name": "_uToken",
          "type": "address"
        }
      ],
      "name": "withdraw",
      "outputs": [
        {
          "internalType": "uint256",
          "name": "",
          "type": "uint256"
        }
      ],
      "stateMutability": "nonpayable",
      "type": "function"
    }
  ],
  "transactionHash": "0x6cdf347d743c2c9d20e1722d15daaefc377438345d0c06c4564840f5248ed766",
  "args": [],
  "numDeployments": 1,
  "solcInputHash": "f36883ec729d1e04bc40ae905edf2016",
  "bytecode": "0x608060405234801561001057600080fd5b506000805461ffff19169055610dfe8061002b6000396000f3fe608060405234801561001057600080fd5b50600436106100785760003560e01c806321c0b3421461007d5780632b4f4b66146100a85780632e2d2984146100d05780635cbc09d1146100f1578063b203bb9914610104578063b460af9414610117578063dc3b7c8b1461012a578063e71325991461013e575b600080fd5b61009361008b366004610b75565b600092915050565b60405190151581526020015b60405180910390f35b6100ce6100b6366004610bae565b6000805461ffff191661ffff92909216919091179055565b005b6100e36100de366004610bd2565b610151565b60405190815260200161009f565b6100e36100ff366004610b75565b610478565b6100e3610112366004610b75565b61048d565b6100e3610125366004610bd2565b6104fd565b6100e3610138366004610c14565b50600190565b6100e361014c366004610c31565b610854565b600080826001600160a01b03166370a08231306040518263ffffffff1660e01b81526004016101809190610c56565b602060405180830381865afa15801561019d573d6000803e3d6000fd5b505050506040513d601f19601f820116820180604052508101906101c19190610c6a565b90506101d86001600160a01b038416333088610862565b61024e846001600160a01b0316637535d2466040518163ffffffff1660e01b8152600401602060405180830381865afa158015610219573d6000803e3d6000fd5b505050506040513d601f19601f8201168201806040525081019061023d9190610c83565b6001600160a01b03851690876108c0565b6040516370a0823160e01b81526000906001600160a01b038516906370a082319061027d903090600401610c56565b602060405180830381865afa15801561029a573d6000803e3d6000fd5b505050506040513d601f19601f820116820180604052508101906102be9190610c6a565b9050856102cb8383610cb6565b6102d59190610cb6565b156103275760405162461bcd60e51b815260206004820152601d60248201527f4572726f72204465706f7369743a20756e6465722f6f766572666c6f7700000060448201526064015b60405180910390fd5b846001600160a01b0316637535d2466040518163ffffffff1660e01b8152600401602060405180830381865afa158015610365573d6000803e3d6000fd5b505050506040513d601f19601f820116820180604052508101906103899190610c83565b6001600160a01b031663e8eda9df866001600160a01b031663b16a19de6040518163ffffffff1660e01b8152600401602060405180830381865afa1580156103d5573d6000803e3d6000fd5b505050506040513d601f19601f820116820180604052508101906103f99190610c83565b60005460405160e084901b6001600160e01b03191681526001600160a01b039092166004830152602482018a905233604483015261ffff166064820152608401600060405180830381600087803b15801561045357600080fd5b505af1158015610467573d6000803e3d6000fd5b5050505085925050505b9392505050565b600080610485848461048d565b949350505050565b600080826001600160a01b03166370a08231856040518263ffffffff1660e01b81526004016104bc9190610c56565b602060405180830381865afa1580156104d9573d6000803e3d6000fd5b505050506040513d601f19601f820116820180604052508101906104859190610c6a565b600080826001600160a01b03166370a08231336040518263ffffffff1660e01b815260040161052c9190610c56565b602060405180830381865afa158015610549573d6000803e3d6000fd5b505050506040513d601f19601f8201168201806040525081019061056d9190610c6a565b6040516323b872dd60e01b81529091506001600160a01b038516906323b872dd906105a090339030908a90600401610ccd565b6020604051808303816000875af11580156105bf573d6000803e3d6000fd5b505050506040513d601f19601f820116820180604052508101906105e39190610cf1565b151560011461062a5760405162461bcd60e51b81526020600482015260136024820152724572726f723a207472616e7366657246726f6d60681b604482015260640161031e565b6000846001600160a01b0316637535d2466040518163ffffffff1660e01b8152600401602060405180830381865afa15801561066a573d6000803e3d6000fd5b505050506040513d601f19601f8201168201806040525081019061068e9190610c83565b6001600160a01b03166369328dec866001600160a01b031663b16a19de6040518163ffffffff1660e01b8152600401602060405180830381865afa1580156106da573d6000803e3d6000fd5b505050506040513d601f19601f820116820180604052508101906106fe9190610c83565b6040516001600160e01b031960e084901b1681526001600160a01b039091166004820152602481018990523360448201526064016020604051808303816000875af1158015610751573d6000803e3d6000fd5b505050506040513d601f19601f820116820180604052508101906107759190610c6a565b90506000846001600160a01b03166370a08231336040518263ffffffff1660e01b81526004016107a59190610c56565b602060405180830381865afa1580156107c2573d6000803e3d6000fd5b505050506040513d601f19601f820116820180604052508101906107e69190610c6a565b9050816107f38483610cb6565b6107fd9190610cb6565b1561084a5760405162461bcd60e51b815260206004820152601e60248201527f4572726f722057697468647261773a20756e6465722f6f766572666c6f770000604482015260640161031e565b5095945050505050565b600080610485600185610d13565b6108ba846323b872dd60e01b85858560405160240161088393929190610ccd565b60408051601f198184030181529190526020810180516001600160e01b03166001600160e01b031990931692909217909152610972565b50505050565b604051636eb1769f60e11b81523060048201526001600160a01b038381166024830152600091839186169063dd62ed3e90604401602060405180830381865afa158015610911573d6000803e3d6000fd5b505050506040513d601f19601f820116820180604052508101906109359190610c6a565b61093f9190610d35565b6040516001600160a01b0385166024820152604481018290529091506108ba90859063095ea7b360e01b90606401610883565b60006109c7826040518060400160405280602081526020017f5361666545524332303a206c6f772d6c6576656c2063616c6c206661696c6564815250856001600160a01b0316610a499092919063ffffffff16565b805190915015610a4457808060200190518101906109e59190610cf1565b610a445760405162461bcd60e51b815260206004820152602a60248201527f5361666545524332303a204552433230206f7065726174696f6e20646964206e6044820152691bdd081cdd58d8d9595960b21b606482015260840161031e565b505050565b60606104858484600085856001600160a01b0385163b610aab5760405162461bcd60e51b815260206004820152601d60248201527f416464726573733a2063616c6c20746f206e6f6e2d636f6e7472616374000000604482015260640161031e565b600080866001600160a01b03168587604051610ac79190610d79565b60006040518083038185875af1925050503d8060008114610b04576040519150601f19603f3d011682016040523d82523d6000602084013e610b09565b606091505b5091509150610b19828286610b24565b979650505050505050565b60608315610b33575081610471565b825115610b435782518084602001fd5b8160405162461bcd60e51b815260040161031e9190610d95565b6001600160a01b0381168114610b7257600080fd5b50565b60008060408385031215610b8857600080fd5b8235610b9381610b5d565b91506020830135610ba381610b5d565b809150509250929050565b600060208284031215610bc057600080fd5b813561ffff8116811461047157600080fd5b600080600060608486031215610be757600080fd5b833592506020840135610bf981610b5d565b91506040840135610c0981610b5d565b809150509250925092565b600060208284031215610c2657600080fd5b813561047181610b5d565b60008060408385031215610c4457600080fd5b823591506020830135610ba381610b5d565b6001600160a01b0391909116815260200190565b600060208284031215610c7c57600080fd5b5051919050565b600060208284031215610c9557600080fd5b815161047181610b5d565b634e487b7160e01b600052601160045260246000fd5b600082821015610cc857610cc8610ca0565b500390565b6001600160a01b039384168152919092166020820152604081019190915260600190565b600060208284031215610d0357600080fd5b8151801515811461047157600080fd5b600082610d3057634e487b7160e01b600052601260045260246000fd5b500490565b60008219821115610d4857610d48610ca0565b500190565b60005b83811015610d68578181015183820152602001610d50565b838111156108ba5750506000910152565b60008251610d8b818460208701610d4d565b9190910192915050565b6020815260008251806020840152610db4816040850160208701610d4d565b601f01601f1916919091016040019291505056fea2646970667358221220782a7be95952ebb859a01acfece03ec6a8c15a062ad699815fb894a201b0073d64736f6c634300080b0033",
  "devdoc": {
    "kind": "dev",
    "methods": {
      "balance(address,address)": {
        "params": {
          "_aToken": "Address of protocol LP Token eg aUSDC",
          "_address": "Address to request balance from"
        },
        "returns": {
          "_0": "number of shares i.e LP tokens"
        }
      },
      "balanceUnderlying(address,address)": {
        "params": {
          "_aToken": "Address of protocol LP Token eg aUSDC",
          "_address": "Address to request balance from, most likely an Vault"
        },
        "returns": {
          "_0": "number of shares i.e LP tokens"
        }
      },
      "calcShares(uint256,address)": {
        "details": "Aave exchangeRate is 1",
        "params": {
          "_aToken": "Address of protocol LP Token eg aUSDC",
          "_amount": "Amount in underyling token e.g USDC"
        },
        "returns": {
          "_0": "number of shares i.e LP tokens"
        }
      },
      "deposit(uint256,address,address)": {
        "details": "Pulls underlying asset from Vault, deposit them in Aave, send aTokens back.",
        "params": {
          "_aToken": "Address of protocol LP Token eg aUSDC",
          "_amount": "Amount to deposit",
          "_uToken": "Address of underlying Token eg USDC"
        },
        "returns": {
          "_0": "Tokens received and sent to vault"
        }
      },
      "exchangeRate(address)": {
        "details": "Aave exchangeRate is always 1",
        "params": {
          "_aToken": "Address of protocol LP Token eg aUSDC"
        },
        "returns": {
          "_0": "price of LP token"
        }
      },
      "withdraw(uint256,address,address)": {
        "details": "Pulls cTokens from Vault, redeem them from Aave, send underlying back.",
        "params": {
          "_aToken": "Address of protocol LP Token eg aUSDC",
          "_amount": "Amount to withdraw",
          "_uToken": "Address of underlying Token eg USDC"
        },
        "returns": {
          "_0": "Underlying tokens received and sent to vault e.g USDC"
        }
      }
    },
    "version": 1
  },
  "userdoc": {
    "kind": "user",
    "methods": {
      "balance(address,address)": {
        "notice": "Get balance of aToken from address"
      },
      "balanceUnderlying(address,address)": {
        "notice": "Get balance from address in shares i.e LP tokens"
      },
      "calcShares(uint256,address)": {
        "notice": "Calculates how many shares are equal to the amount"
      },
      "deposit(uint256,address,address)": {
        "notice": "Deposit the underlying asset in Aave"
      },
      "exchangeRate(address)": {
        "notice": "Exchange rate of underyling protocol token"
      },
      "withdraw(uint256,address,address)": {
        "notice": "Withdraw the underlying asset from Aave"
      }
    },
    "version": 1
  },
  "storageLayout": {
    "storage": [
      {
        "astId": 10704,
        "contract": "contracts/Providers/AaveProvider.sol:AaveProvider",
        "label": "aaveReferral",
        "offset": 0,
        "slot": "0",
        "type": "t_uint16"
      }
    ],
    "types": {
      "t_uint16": {
        "encoding": "inplace",
        "label": "uint16",
        "numberOfBytes": "2"
      }
    }
  }
}