{
  "address": "0x90c84237fDdf091b1E63f369AF122EB46000bc70",
  "abi": [
    {
      "inputs": [
        {
          "internalType": "address",
          "name": "_dao",
          "type": "address"
        },
        {
          "internalType": "address",
          "name": "_curve3Pool",
          "type": "address"
        },
        {
          "internalType": "address",
          "name": "_uniswapRouter",
          "type": "address"
        },
        {
          "internalType": "address",
          "name": "_uniswapQuoter",
          "type": "address"
        },
        {
          "internalType": "uint24",
          "name": "_poolFee",
          "type": "uint24"
        },
        {
          "internalType": "address",
          "name": "_chainlinkGasPriceOracle",
          "type": "address"
        }
      ],
      "stateMutability": "nonpayable",
      "type": "constructor"
    },
    {
      "anonymous": false,
      "inputs": [
        {
          "indexed": false,
          "internalType": "uint256",
          "name": "protocolNumber",
          "type": "uint256"
        },
        {
          "indexed": false,
          "internalType": "address",
          "name": "protocol",
          "type": "address"
        }
      ],
      "name": "SetProtocolNumber",
      "type": "event"
    },
    {
      "inputs": [
        {
          "internalType": "address",
          "name": "_token",
          "type": "address"
        },
        {
          "internalType": "int128",
          "name": "_index",
          "type": "int128"
        }
      ],
      "name": "addCurveIndex",
      "outputs": [],
      "stateMutability": "nonpayable",
      "type": "function"
    },
    {
      "inputs": [
        {
          "internalType": "string",
          "name": "_name",
          "type": "string"
        },
        {
          "internalType": "uint256",
          "name": "_vaultNumber",
          "type": "uint256"
        },
        {
          "internalType": "address",
          "name": "_provider",
          "type": "address"
        },
        {
          "internalType": "address",
          "name": "_protocolLPToken",
          "type": "address"
        },
        {
          "internalType": "address",
          "name": "_underlying",
          "type": "address"
        },
        {
          "internalType": "address",
          "name": "_govToken",
          "type": "address"
        },
        {
          "internalType": "uint256",
          "name": "_uScale",
          "type": "uint256"
        }
      ],
      "name": "addProtocol",
      "outputs": [
        {
          "internalType": "uint256",
          "name": "",
          "type": "uint256"
        }
      ],
      "stateMutability": "nonpayable",
      "type": "function"
    },
    {
      "inputs": [
        {
          "internalType": "address",
          "name": "_stable",
          "type": "address"
        },
        {
          "internalType": "uint256",
          "name": "_uScale",
          "type": "uint256"
        }
      ],
      "name": "addUnderlyingUScale",
      "outputs": [],
      "stateMutability": "nonpayable",
      "type": "function"
    },
    {
      "inputs": [
        {
          "internalType": "address",
          "name": "_vault",
          "type": "address"
        }
      ],
      "name": "addVault",
      "outputs": [],
      "stateMutability": "nonpayable",
      "type": "function"
    },
    {
      "inputs": [],
      "name": "chainlinkGasPriceOracle",
      "outputs": [
        {
          "internalType": "address",
          "name": "",
          "type": "address"
        }
      ],
      "stateMutability": "view",
      "type": "function"
    },
    {
      "inputs": [
        {
          "internalType": "uint256",
          "name": "_vaultNumber",
          "type": "uint256"
        },
        {
          "internalType": "uint256",
          "name": "_protocolNumber",
          "type": "uint256"
        }
      ],
      "name": "claim",
      "outputs": [
        {
          "internalType": "bool",
          "name": "",
          "type": "bool"
        }
      ],
      "stateMutability": "nonpayable",
      "type": "function"
    },
    {
      "inputs": [
        {
          "internalType": "address",
          "name": "",
          "type": "address"
        }
      ],
      "name": "claimable",
      "outputs": [
        {
          "internalType": "bool",
          "name": "",
          "type": "bool"
        }
      ],
      "stateMutability": "view",
      "type": "function"
    },
    {
      "inputs": [],
      "name": "curve3Pool",
      "outputs": [
        {
          "internalType": "address",
          "name": "",
          "type": "address"
        }
      ],
      "stateMutability": "view",
      "type": "function"
    },
    {
      "inputs": [],
      "name": "curve3PoolFee",
      "outputs": [
        {
          "internalType": "uint256",
          "name": "",
          "type": "uint256"
        }
      ],
      "stateMutability": "view",
      "type": "function"
    },
    {
      "inputs": [
        {
          "internalType": "address",
          "name": "",
          "type": "address"
        }
      ],
      "name": "curveIndex",
      "outputs": [
        {
          "internalType": "int128",
          "name": "",
          "type": "int128"
        }
      ],
      "stateMutability": "view",
      "type": "function"
    },
    {
      "inputs": [
        {
          "internalType": "address",
          "name": "_in",
          "type": "address"
        },
        {
          "internalType": "address",
          "name": "_out",
          "type": "address"
        }
      ],
      "name": "getCurveParams",
      "outputs": [
        {
          "components": [
            {
              "internalType": "int128",
              "name": "indexTokenIn",
              "type": "int128"
            },
            {
              "internalType": "int128",
              "name": "indexTokenOut",
              "type": "int128"
            },
            {
              "internalType": "address",
              "name": "pool",
              "type": "address"
            },
            {
              "internalType": "uint256",
              "name": "poolFee",
              "type": "uint256"
            }
          ],
          "internalType": "struct IController.CurveParams",
          "name": "",
          "type": "tuple"
        }
      ],
      "stateMutability": "view",
      "type": "function"
    },
    {
      "inputs": [],
      "name": "getDao",
      "outputs": [
        {
          "internalType": "address",
          "name": "",
          "type": "address"
        }
      ],
      "stateMutability": "view",
      "type": "function"
    },
    {
      "inputs": [],
      "name": "getGasPrice",
      "outputs": [
        {
          "internalType": "uint256",
          "name": "",
          "type": "uint256"
        }
      ],
      "stateMutability": "nonpayable",
      "type": "function"
    },
    {
      "inputs": [
        {
          "internalType": "uint256",
          "name": "_vaultNumber",
          "type": "uint256"
        },
        {
          "internalType": "uint256",
          "name": "_protocolNum",
          "type": "uint256"
        }
      ],
      "name": "getGovToken",
      "outputs": [
        {
          "internalType": "address",
          "name": "",
          "type": "address"
        }
      ],
      "stateMutability": "view",
      "type": "function"
    },
    {
      "inputs": [
        {
          "internalType": "uint256",
          "name": "_vaultNumber",
          "type": "uint256"
        },
        {
          "internalType": "uint256",
          "name": "_protocolNum",
          "type": "uint256"
        }
      ],
      "name": "getProtocolBlacklist",
      "outputs": [
        {
          "internalType": "bool",
          "name": "",
          "type": "bool"
        }
      ],
      "stateMutability": "view",
      "type": "function"
    },
    {
      "inputs": [
        {
          "internalType": "uint256",
          "name": "_vaultNumber",
          "type": "uint256"
        },
        {
          "internalType": "uint256",
          "name": "_protocolNum",
          "type": "uint256"
        }
      ],
      "name": "getProtocolInfo",
      "outputs": [
        {
          "components": [
            {
              "internalType": "address",
              "name": "LPToken",
              "type": "address"
            },
            {
              "internalType": "address",
              "name": "provider",
              "type": "address"
            },
            {
              "internalType": "address",
              "name": "underlying",
              "type": "address"
            },
            {
              "internalType": "uint256",
              "name": "uScale",
              "type": "uint256"
            }
          ],
          "internalType": "struct IController.ProtocolInfoS",
          "name": "",
          "type": "tuple"
        }
      ],
      "stateMutability": "view",
      "type": "function"
    },
    {
      "inputs": [],
      "name": "getUniswapParams",
      "outputs": [
        {
          "components": [
            {
              "internalType": "address",
              "name": "router",
              "type": "address"
            },
            {
              "internalType": "address",
              "name": "quoter",
              "type": "address"
            },
            {
              "internalType": "uint24",
              "name": "poolFee",
              "type": "uint24"
            }
          ],
          "internalType": "struct IController.UniswapParams",
          "name": "",
          "type": "tuple"
        }
      ],
      "stateMutability": "view",
      "type": "function"
    },
    {
      "inputs": [],
      "name": "getUniswapPoolFee",
      "outputs": [
        {
          "internalType": "uint24",
          "name": "",
          "type": "uint24"
        }
      ],
      "stateMutability": "view",
      "type": "function"
    },
    {
      "inputs": [],
      "name": "getUniswapQuoter",
      "outputs": [
        {
          "internalType": "address",
          "name": "",
          "type": "address"
        }
      ],
      "stateMutability": "view",
      "type": "function"
    },
    {
      "inputs": [
        {
          "internalType": "uint256",
          "name": "",
          "type": "uint256"
        }
      ],
      "name": "latestProtocolId",
      "outputs": [
        {
          "internalType": "uint256",
          "name": "",
          "type": "uint256"
        }
      ],
      "stateMutability": "view",
      "type": "function"
    },
    {
      "inputs": [
        {
          "internalType": "uint256",
          "name": "",
          "type": "uint256"
        },
        {
          "internalType": "uint256",
          "name": "",
          "type": "uint256"
        }
      ],
      "name": "protocolBlacklist",
      "outputs": [
        {
          "internalType": "bool",
          "name": "",
          "type": "bool"
        }
      ],
      "stateMutability": "view",
      "type": "function"
    },
    {
      "inputs": [
        {
          "internalType": "uint256",
          "name": "",
          "type": "uint256"
        },
        {
          "internalType": "uint256",
          "name": "",
          "type": "uint256"
        }
      ],
      "name": "protocolGovToken",
      "outputs": [
        {
          "internalType": "address",
          "name": "",
          "type": "address"
        }
      ],
      "stateMutability": "view",
      "type": "function"
    },
    {
      "inputs": [
        {
          "internalType": "uint256",
          "name": "",
          "type": "uint256"
        },
        {
          "internalType": "uint256",
          "name": "",
          "type": "uint256"
        }
      ],
      "name": "protocolInfo",
      "outputs": [
        {
          "internalType": "address",
          "name": "LPToken",
          "type": "address"
        },
        {
          "internalType": "address",
          "name": "provider",
          "type": "address"
        },
        {
          "internalType": "address",
          "name": "underlying",
          "type": "address"
        },
        {
          "internalType": "uint256",
          "name": "uScale",
          "type": "uint256"
        }
      ],
      "stateMutability": "view",
      "type": "function"
    },
    {
      "inputs": [
        {
          "internalType": "uint256",
          "name": "",
          "type": "uint256"
        },
        {
          "internalType": "uint256",
          "name": "",
          "type": "uint256"
        }
      ],
      "name": "protocolNames",
      "outputs": [
        {
          "internalType": "string",
          "name": "",
          "type": "string"
        }
      ],
      "stateMutability": "view",
      "type": "function"
    },
    {
      "inputs": [
        {
          "internalType": "address",
          "name": "_provider",
          "type": "address"
        },
        {
          "internalType": "bool",
          "name": "_bool",
          "type": "bool"
        }
      ],
      "name": "setClaimable",
      "outputs": [],
      "stateMutability": "nonpayable",
      "type": "function"
    },
    {
      "inputs": [
        {
          "internalType": "uint24",
          "name": "_poolFee",
          "type": "uint24"
        }
      ],
      "name": "setCurvePoolFee",
      "outputs": [],
      "stateMutability": "nonpayable",
      "type": "function"
    },
    {
      "inputs": [
        {
          "internalType": "address",
          "name": "_dao",
          "type": "address"
        }
      ],
      "name": "setDao",
      "outputs": [],
      "stateMutability": "nonpayable",
      "type": "function"
    },
    {
      "inputs": [
        {
          "internalType": "address",
          "name": "_chainlinkGasPriceOracle",
          "type": "address"
        }
      ],
      "name": "setGasPriceOracle",
      "outputs": [],
      "stateMutability": "nonpayable",
      "type": "function"
    },
    {
      "inputs": [
        {
          "internalType": "uint256",
          "name": "_vaultNumber",
          "type": "uint256"
        },
        {
          "internalType": "uint256",
          "name": "_protocolNum",
          "type": "uint256"
        }
      ],
      "name": "setProtocolBlacklist",
      "outputs": [],
      "stateMutability": "nonpayable",
      "type": "function"
    },
    {
      "inputs": [
        {
          "internalType": "uint24",
          "name": "_poolFee",
          "type": "uint24"
        }
      ],
      "name": "setUniswapPoolFee",
      "outputs": [],
      "stateMutability": "nonpayable",
      "type": "function"
    },
    {
      "inputs": [
        {
          "internalType": "address",
          "name": "_uniswapQuoter",
          "type": "address"
        }
      ],
      "name": "setUniswapQuoter",
      "outputs": [],
      "stateMutability": "nonpayable",
      "type": "function"
    },
    {
      "inputs": [
        {
          "internalType": "address",
          "name": "_uniswapRouter",
          "type": "address"
        }
      ],
      "name": "setUniswapRouter",
      "outputs": [],
      "stateMutability": "nonpayable",
      "type": "function"
    },
    {
      "inputs": [
        {
          "internalType": "address",
          "name": "",
          "type": "address"
        }
      ],
      "name": "underlyingUScale",
      "outputs": [
        {
          "internalType": "uint256",
          "name": "",
          "type": "uint256"
        }
      ],
      "stateMutability": "view",
      "type": "function"
    },
    {
      "inputs": [],
      "name": "uniswapParams",
      "outputs": [
        {
          "internalType": "address",
          "name": "router",
          "type": "address"
        },
        {
          "internalType": "address",
          "name": "quoter",
          "type": "address"
        },
        {
          "internalType": "uint24",
          "name": "poolFee",
          "type": "uint24"
        }
      ],
      "stateMutability": "view",
      "type": "function"
    },
    {
      "inputs": [
        {
          "internalType": "address",
          "name": "",
          "type": "address"
        }
      ],
      "name": "vaultWhitelist",
      "outputs": [
        {
          "internalType": "bool",
          "name": "",
          "type": "bool"
        }
      ],
      "stateMutability": "view",
      "type": "function"
    }
  ],
  "transactionHash": "0xeb151243787c2fb4349bb5c329002e5421d668f17138bb876d07de47a76a3549",
  "args": [
    "0xf39Fd6e51aad88F6F4ce6aB8827279cffFb92266",
    "0xbEbc44782C7dB0a1A60Cb6fe97d0b483032FF1C7",
    "0xE592427A0AEce92De3Edee1F18E0157C05861564",
    "0xb27308f9F90D607463bb33eA1BeBb41C27CE5AB6",
    3000,
    "0x169e633a2d1e6c10dd91238ba11c4a708dfef37c"
  ],
  "numDeployments": 1,
  "solcInputHash": "a4dd9cf6f9a65e85785f63248e1cb35a",
  "bytecode": "0x6080604052600f6005553480156200001657600080fd5b506040516200164c3803806200164c83398101604081905262000039916200016a565b600280546001600160a01b039788166001600160a01b0319918216179091556003805496881696821696909617909555600080549487169486169490941784556001805462ffffff909316600160a01b026001600160b81b031990931693871693909317919091179091556004805491909416921691909117909155600e602052620f42407f6981a11ef3754d9b00d8868549ebf71e3d63f3e9dad47123e19ab5cdda32d36d819055670de0b6b3a76400007f5fe9af5f91cfc98605d0aeb168d7606a1f0945d723f233861d57da8bb2b06d1e5573dac17f958d2ee523a2206206994597c13d831ec79091527fe2ae536833058b4c18f9d3019fc156fe72ab266a5a018446f9e08bfc6ac6db3d55620001f4565b80516001600160a01b03811681146200016557600080fd5b919050565b60008060008060008060c087890312156200018457600080fd5b6200018f876200014d565b95506200019f602088016200014d565b9450620001af604088016200014d565b9350620001bf606088016200014d565b9250608087015162ffffff81168114620001d857600080fd5b9150620001e860a088016200014d565b90509295509295509295565b61144880620002046000396000f3fe608060405234801561001057600080fd5b50600436106101a15760003560e01c8063054c5b03146101a65780630e15034d146101d65780632438cd56146101f7578063256b5a021461027c57806326158136146102915780632fe30df5146102a4578063326465cb146102fb578063384f53451461033157806339daa1b214610365578063402914f514610398578063455259cb146103bb57806359d8480c146103c35780635aec610c146103d657806360867cbd146103e957806363a6b1da1461040c5780636637b8821461041f57806367b4e067146104325780637519313c146104c3578063836efea4146104e35780638d059a7b146104f6578063a0c024a414610509578063a45e08ec146105d7578063a4d0c0a9146105f7578063b0a709751461060a578063b64e50c01461061b578063b70811bc1461062e578063bea9849e1461063f578063c349026314610652578063c48acf7b14610665578063c93ab5dc146106b9578063ca68c24b146106cc578063cb57d92f146106df578063d900d1f7146106ff578063f0f5bc3b14610712578063f78022c11461071b575b600080fd5b6101b96101b436600461108d565b610749565b6040516001600160a01b0390911681526020015b60405180910390f35b6101e96101e43660046110cb565b610773565b6040519081526020016101cd565b61024761020536600461108d565b600660209081526000928352604080842090915290825290208054600182015460028301546003909301546001600160a01b0392831693918316929091169084565b6040516101cd94939291906001600160a01b039485168152928416602084015292166040820152606081019190915260800190565b61028f61028a36600461118e565b61098c565b005b61028f61029f36600461118e565b6109da565b6102b76102b23660046111b0565b610a26565b6040516101cd91908151600f90810b825260208084015190910b908201526040808301516001600160a01b0316908201526060918201519181019190915260800190565b61031e61030936600461118e565b600d60205260009081526040902054600f0b81565b604051600f9190910b81526020016101cd565b6101b961033f36600461108d565b600b6020908152600092835260408084209091529082529020546001600160a01b031681565b61038861037336600461118e565b60086020526000908152604090205460ff1681565b60405190151581526020016101cd565b6103886103a636600461118e565b60096020526000908152604090205460ff1681565b6101e9610a87565b61028f6103d13660046111f4565b610b07565b61028f6103e436600461122b565b610b5c565b600154600160a01b900462ffffff1660405162ffffff90911681526020016101cd565b6003546101b9906001600160a01b031681565b61028f61042d36600461118e565b610ba2565b61048e604080516060810182526000808252602082018190529181019190915250604080516060810182526000546001600160a01b0390811682526001549081166020830152600160a01b900462ffffff169181019190915290565b6040805182516001600160a01b039081168252602080850151909116908201529181015162ffffff16908201526060016101cd565b6104d66104d136600461108d565b610bee565b6040516101cd9190611255565b61028f6104f13660046112aa565b610c93565b6004546101b9906001600160a01b031681565b61059761051736600461108d565b60408051608081018252600080825260208201819052918101829052606081019190915250600091825260066020908152604080842092845291815291819020815160808101835281546001600160a01b039081168252600183015481169482019490945260028201549093169183019190915260030154606082015290565b6040805182516001600160a01b039081168252602080850151821690830152838301511691810191909152606091820151918101919091526080016101cd565b6101e96105e53660046112dc565b600c6020526000908152604090205481565b61028f61060536600461118e565b610cf6565b6001546001600160a01b03166101b9565b61028f6106293660046112f5565b610d42565b6002546001600160a01b03166101b9565b61028f61064d36600461118e565b610d76565b61038861066036600461108d565b610dc2565b60005460015461068e916001600160a01b039081169190811690600160a01b900462ffffff1683565b604080516001600160a01b03948516815293909216602084015262ffffff16908201526060016101cd565b61028f6106c73660046112f5565b610ed0565b61028f6106da36600461108d565b610f1e565b6101e96106ed36600461118e565b600e6020526000908152604090205481565b61038861070d36600461108d565b610f78565b6101e960055481565b61038861072936600461108d565b600a60209081526000928352604080842090915290825290205460ff1681565b6000828152600b602090815260408083208484529091529020546001600160a01b03165b92915050565b6002546000906001600160a01b031633146107a95760405162461bcd60e51b81526004016107a09061131a565b60405180910390fd5b6000878152600c6020908152604080832054600783528184208185529092529091206107d6908b8b610fcd565b5083600b60008a8152602001908152602001600020600083815260200190815260200160002060006101000a8154816001600160a01b0302191690836001600160a01b031602179055506040518060800160405280876001600160a01b03168152602001886001600160a01b03168152602001866001600160a01b0316815260200184815250600660008a8152602001908152602001600020600083815260200190815260200160002060008201518160000160006101000a8154816001600160a01b0302191690836001600160a01b0316021790555060208201518160010160006101000a8154816001600160a01b0302191690836001600160a01b0316021790555060408201518160020160006101000a8154816001600160a01b0302191690836001600160a01b03160217905550606082015181600301559050507f3c84f5cc45a3021c3a36e445562930148f4b7c85d8901a15e8089f6a49904b1881876040516109579291909182526001600160a01b0316602082015260400190565b60405180910390a16000888152600c6020526040812080549161097983611348565b90915550909a9950505050505050505050565b6002546001600160a01b031633146109b65760405162461bcd60e51b81526004016107a09061131a565b6001600160a01b03166000908152600860205260409020805460ff19166001179055565b6002546001600160a01b03163314610a045760405162461bcd60e51b81526004016107a09061131a565b600180546001600160a01b0319166001600160a01b0392909216919091179055565b610a2e611051565b610a36611051565b6001600160a01b039384166000908152600d6020818152604080842054600f90810b86529688168452918152918190205490940b908201526003549093169183019190915250600554606082015290565b6000600460009054906101000a90046001600160a01b03166001600160a01b03166350d25bcd6040518163ffffffff1660e01b81526004016020604051808303816000875af1158015610ade573d6000803e3d6000fd5b505050506040513d601f19601f82011682018060405250810190610b029190611371565b905090565b6002546001600160a01b03163314610b315760405162461bcd60e51b81526004016107a09061131a565b6001600160a01b03919091166000908152600960205260409020805460ff1916911515919091179055565b6002546001600160a01b03163314610b865760405162461bcd60e51b81526004016107a09061131a565b6001600160a01b039091166000908152600e6020526040902055565b6002546001600160a01b03163314610bcc5760405162461bcd60e51b81526004016107a09061131a565b600280546001600160a01b0319166001600160a01b0392909216919091179055565b600760209081526000928352604080842090915290825290208054610c129061138a565b80601f0160208091040260200160405190810160405280929190818152602001828054610c3e9061138a565b8015610c8b5780601f10610c6057610100808354040283529160200191610c8b565b820191906000526020600020905b815481529060010190602001808311610c6e57829003601f168201915b505050505081565b6002546001600160a01b03163314610cbd5760405162461bcd60e51b81526004016107a09061131a565b6001600160a01b03919091166000908152600d6020526040902080546001600160801b0319166001600160801b03909216919091179055565b6002546001600160a01b03163314610d205760405162461bcd60e51b81526004016107a09061131a565b600480546001600160a01b0319166001600160a01b0392909216919091179055565b6002546001600160a01b03163314610d6c5760405162461bcd60e51b81526004016107a09061131a565b62ffffff16600555565b6002546001600160a01b03163314610da05760405162461bcd60e51b81526004016107a09061131a565b600080546001600160a01b0319166001600160a01b0392909216919091179055565b3360009081526008602052604081205460ff161515600114610df65760405162461bcd60e51b81526004016107a0906113c5565b60008381526006602090815260408083208584528252808320600101546001600160a01b03168352600990915290205460ff1615610ec8576000838152600660209081526040808320858452909152908190206001810154905491516310e059a160e11b81526001600160a01b0392831660048201523360248201529116906321c0b342906044016020604051808303816000875af1158015610e9d573d6000803e3d6000fd5b505050506040513d601f19601f82011682018060405250810190610ec191906113f5565b905061076d565b50600061076d565b6002546001600160a01b03163314610efa5760405162461bcd60e51b81526004016107a09061131a565b6001805462ffffff909216600160a01b0262ffffff60a01b19909216919091179055565b3360009081526008602052604090205460ff161515600114610f525760405162461bcd60e51b81526004016107a0906113c5565b6000918252600a602090815260408084209284529190529020805460ff19166001179055565b3360009081526008602052604081205460ff161515600114610fac5760405162461bcd60e51b81526004016107a0906113c5565b506000918252600a6020908152604080842092845291905290205460ff1690565b828054610fd99061138a565b90600052602060002090601f016020900481019282610ffb5760008555611041565b82601f106110145782800160ff19823516178555611041565b82800160010185558215611041579182015b82811115611041578235825591602001919060010190611026565b5061104d929150611078565b5090565b60408051608081018252600080825260208201819052918101829052606081019190915290565b5b8082111561104d5760008155600101611079565b600080604083850312156110a057600080fd5b50508035926020909101359150565b80356001600160a01b03811681146110c657600080fd5b919050565b60008060008060008060008060e0898b0312156110e757600080fd5b88356001600160401b03808211156110fe57600080fd5b818b0191508b601f83011261111257600080fd5b81358181111561112157600080fd5b8c602082850101111561113357600080fd5b60209283019a50985050890135955061114e60408a016110af565b945061115c60608a016110af565b935061116a60808a016110af565b925061117860a08a016110af565b915060c089013590509295985092959890939650565b6000602082840312156111a057600080fd5b6111a9826110af565b9392505050565b600080604083850312156111c357600080fd5b6111cc836110af565b91506111da602084016110af565b90509250929050565b80151581146111f157600080fd5b50565b6000806040838503121561120757600080fd5b611210836110af565b91506020830135611220816111e3565b809150509250929050565b6000806040838503121561123e57600080fd5b611247836110af565b946020939093013593505050565b600060208083528351808285015260005b8181101561128257858101830151858201604001528201611266565b81811115611294576000604083870101525b50601f01601f1916929092016040019392505050565b600080604083850312156112bd57600080fd5b6112c6836110af565b9150602083013580600f0b811461122057600080fd5b6000602082840312156112ee57600080fd5b5035919050565b60006020828403121561130757600080fd5b813562ffffff811681146111a957600080fd5b602080825260149082015273436f6e74726f6c6c65723a206f6e6c792044414f60601b604082015260600190565b600060001982141561136a57634e487b7160e01b600052601160045260246000fd5b5060010190565b60006020828403121561138357600080fd5b5051919050565b600181811c9082168061139e57607f821691505b602082108114156113bf57634e487b7160e01b600052602260045260246000fd5b50919050565b60208082526016908201527510dbdb9d1c9bdb1b195c8e881bdb9b1e4815985d5b1d60521b604082015260600190565b60006020828403121561140757600080fd5b81516111a9816111e356fea26469706673582212203d08cc929ea786c200f9285f782f6708ab898b5600314fb431b4497966bf49bb64736f6c634300080b0033",
  "devdoc": {
    "kind": "dev",
    "methods": {
      "addCurveIndex(address,int128)": {
        "params": {
          "_index": "Curve index as decribed in Swap pool",
          "_token": "Address of Token"
        }
      },
      "addProtocol(string,uint256,address,address,address,address,uint256)": {
        "params": {
          "_govToken": "Address governance token of the protocol",
          "_name": "Name of the protocol vault combination",
          "_protocolLPToken": "Address of protocolToken eg cUSDC",
          "_provider": "Address of the protocol provider",
          "_underlying": "Address of underlying protocol vault eg USDC",
          "_vaultNumber": "Number of the vault"
        }
      },
      "addVault(address)": {
        "params": {
          "_vault": "Vault address to whitelist"
        }
      },
      "claim(uint256,uint256)": {
        "params": {
          "_protocolNumber": "Protocol number linked to protocol vault",
          "_vaultNumber": "Number of the vault"
        }
      },
      "getGasPrice()": {
        "returns": {
          "_0": "gasPrice latest gas price from oracle"
        }
      },
      "getGovToken(uint256,uint256)": {
        "returns": {
          "_0": "gasPrice latest gas price from oracle"
        }
      },
      "getProtocolBlacklist(uint256,uint256)": {
        "params": {
          "_protocolNum": "Protocol number linked to protocol vault",
          "_vaultNumber": "Number of the vault"
        }
      },
      "getProtocolInfo(uint256,uint256)": {
        "params": {
          "_protocolNum": "Protocol number linked to protocol vault",
          "_vaultNumber": "Number of the vault"
        }
      },
      "setClaimable(address,bool)": {
        "params": {
          "_bool": "True of the underlying protocol has claimable tokens",
          "_provider": "Address of the underlying protocol"
        }
      },
      "setCurvePoolFee(uint24)": {
        "params": {
          "_poolFee": "New Pool fee"
        }
      },
      "setDao(address)": {
        "params": {
          "_dao": "DAO address"
        }
      },
      "setGasPriceOracle(address)": {
        "params": {
          "_chainlinkGasPriceOracle": "Contract address"
        }
      },
      "setProtocolBlacklist(uint256,uint256)": {
        "params": {
          "_protocolNum": "Protocol number linked to protocol vault",
          "_vaultNumber": "Number of the vault"
        }
      },
      "setUniswapPoolFee(uint24)": {
        "params": {
          "_poolFee": "New Pool fee"
        }
      },
      "setUniswapQuoter(address)": {
        "params": {
          "_uniswapQuoter": "New Uniswap Quoter address"
        }
      },
      "setUniswapRouter(address)": {
        "params": {
          "_uniswapRouter": "New Uniswap Router address"
        }
      }
    },
    "version": 1
  },
  "userdoc": {
    "kind": "user",
    "methods": {
      "addCurveIndex(address,int128)": {
        "notice": "Set curve pool index for underlying token"
      },
      "addProtocol(string,uint256,address,address,address,address,uint256)": {
        "notice": "Add protocol and vault to Controller"
      },
      "addVault(address)": {
        "notice": "Add protocol and vault to Controller"
      },
      "claim(uint256,uint256)": {
        "notice": "Harvest tokens from underlying protocols"
      },
      "getDao()": {
        "notice": "Getter for dao address"
      },
      "getGasPrice()": {
        "notice": "Gets the gas price from Chainlink oracle"
      },
      "getGovToken(uint256,uint256)": {
        "notice": "Gets the gas price from Chainlink oracle"
      },
      "getProtocolBlacklist(uint256,uint256)": {
        "notice": "Getter for protocol blacklist, given an vaultnumber and protocol number returns true if blacklisted. Can only be called by vault."
      },
      "getProtocolInfo(uint256,uint256)": {
        "notice": "Getter for the ProtocolInfo struct"
      },
      "setClaimable(address,bool)": {
        "notice": "Set if provider have claimable tokens"
      },
      "setCurvePoolFee(uint24)": {
        "notice": "Set the Curve3Pool fee"
      },
      "setDao(address)": {
        "notice": "Setter for DAO address"
      },
      "setGasPriceOracle(address)": {
        "notice": "Setter for the Chainlink Gas price oracle contract address in case it changes"
      },
      "setProtocolBlacklist(uint256,uint256)": {
        "notice": "Setter for protocol blacklist, given an vaultnumber and protocol number puts the protocol on the blacklist. Can only be called by vault."
      },
      "setUniswapPoolFee(uint24)": {
        "notice": "Set the Uniswap Pool fee"
      },
      "setUniswapQuoter(address)": {
        "notice": "Set the Uniswap Factory address"
      },
      "setUniswapRouter(address)": {
        "notice": "Set the Uniswap Router address"
      }
    },
    "version": 1
  },
  "storageLayout": {
    "storage": [
      {
        "astId": 2663,
        "contract": "contracts/Controller.sol:Controller",
        "label": "uniswapParams",
        "offset": 0,
        "slot": "0",
        "type": "t_struct(UniswapParams)5624_storage"
      },
      {
        "astId": 2665,
        "contract": "contracts/Controller.sol:Controller",
        "label": "dao",
        "offset": 0,
        "slot": "2",
        "type": "t_address"
      },
      {
        "astId": 2667,
        "contract": "contracts/Controller.sol:Controller",
        "label": "curve3Pool",
        "offset": 0,
        "slot": "3",
        "type": "t_address"
      },
      {
        "astId": 2669,
        "contract": "contracts/Controller.sol:Controller",
        "label": "chainlinkGasPriceOracle",
        "offset": 0,
        "slot": "4",
        "type": "t_address"
      },
      {
        "astId": 2672,
        "contract": "contracts/Controller.sol:Controller",
        "label": "curve3PoolFee",
        "offset": 0,
        "slot": "5",
        "type": "t_uint256"
      },
      {
        "astId": 2679,
        "contract": "contracts/Controller.sol:Controller",
        "label": "protocolInfo",
        "offset": 0,
        "slot": "6",
        "type": "t_mapping(t_uint256,t_mapping(t_uint256,t_struct(ProtocolInfoS)5617_storage))"
      },
      {
        "astId": 2685,
        "contract": "contracts/Controller.sol:Controller",
        "label": "protocolNames",
        "offset": 0,
        "slot": "7",
        "type": "t_mapping(t_uint256,t_mapping(t_uint256,t_string_storage))"
      },
      {
        "astId": 2689,
        "contract": "contracts/Controller.sol:Controller",
        "label": "vaultWhitelist",
        "offset": 0,
        "slot": "8",
        "type": "t_mapping(t_address,t_bool)"
      },
      {
        "astId": 2693,
        "contract": "contracts/Controller.sol:Controller",
        "label": "claimable",
        "offset": 0,
        "slot": "9",
        "type": "t_mapping(t_address,t_bool)"
      },
      {
        "astId": 2699,
        "contract": "contracts/Controller.sol:Controller",
        "label": "protocolBlacklist",
        "offset": 0,
        "slot": "10",
        "type": "t_mapping(t_uint256,t_mapping(t_uint256,t_bool))"
      },
      {
        "astId": 2705,
        "contract": "contracts/Controller.sol:Controller",
        "label": "protocolGovToken",
        "offset": 0,
        "slot": "11",
        "type": "t_mapping(t_uint256,t_mapping(t_uint256,t_address))"
      },
      {
        "astId": 2709,
        "contract": "contracts/Controller.sol:Controller",
        "label": "latestProtocolId",
        "offset": 0,
        "slot": "12",
        "type": "t_mapping(t_uint256,t_uint256)"
      },
      {
        "astId": 2713,
        "contract": "contracts/Controller.sol:Controller",
        "label": "curveIndex",
        "offset": 0,
        "slot": "13",
        "type": "t_mapping(t_address,t_int128)"
      },
      {
        "astId": 2717,
        "contract": "contracts/Controller.sol:Controller",
        "label": "underlyingUScale",
        "offset": 0,
        "slot": "14",
        "type": "t_mapping(t_address,t_uint256)"
      }
    ],
    "types": {
      "t_address": {
        "encoding": "inplace",
        "label": "address",
        "numberOfBytes": "20"
      },
      "t_bool": {
        "encoding": "inplace",
        "label": "bool",
        "numberOfBytes": "1"
      },
      "t_int128": {
        "encoding": "inplace",
        "label": "int128",
        "numberOfBytes": "16"
      },
      "t_mapping(t_address,t_bool)": {
        "encoding": "mapping",
        "key": "t_address",
        "label": "mapping(address => bool)",
        "numberOfBytes": "32",
        "value": "t_bool"
      },
      "t_mapping(t_address,t_int128)": {
        "encoding": "mapping",
        "key": "t_address",
        "label": "mapping(address => int128)",
        "numberOfBytes": "32",
        "value": "t_int128"
      },
      "t_mapping(t_address,t_uint256)": {
        "encoding": "mapping",
        "key": "t_address",
        "label": "mapping(address => uint256)",
        "numberOfBytes": "32",
        "value": "t_uint256"
      },
      "t_mapping(t_uint256,t_address)": {
        "encoding": "mapping",
        "key": "t_uint256",
        "label": "mapping(uint256 => address)",
        "numberOfBytes": "32",
        "value": "t_address"
      },
      "t_mapping(t_uint256,t_bool)": {
        "encoding": "mapping",
        "key": "t_uint256",
        "label": "mapping(uint256 => bool)",
        "numberOfBytes": "32",
        "value": "t_bool"
      },
      "t_mapping(t_uint256,t_mapping(t_uint256,t_address))": {
        "encoding": "mapping",
        "key": "t_uint256",
        "label": "mapping(uint256 => mapping(uint256 => address))",
        "numberOfBytes": "32",
        "value": "t_mapping(t_uint256,t_address)"
      },
      "t_mapping(t_uint256,t_mapping(t_uint256,t_bool))": {
        "encoding": "mapping",
        "key": "t_uint256",
        "label": "mapping(uint256 => mapping(uint256 => bool))",
        "numberOfBytes": "32",
        "value": "t_mapping(t_uint256,t_bool)"
      },
      "t_mapping(t_uint256,t_mapping(t_uint256,t_string_storage))": {
        "encoding": "mapping",
        "key": "t_uint256",
        "label": "mapping(uint256 => mapping(uint256 => string))",
        "numberOfBytes": "32",
        "value": "t_mapping(t_uint256,t_string_storage)"
      },
      "t_mapping(t_uint256,t_mapping(t_uint256,t_struct(ProtocolInfoS)5617_storage))": {
        "encoding": "mapping",
        "key": "t_uint256",
        "label": "mapping(uint256 => mapping(uint256 => struct IController.ProtocolInfoS))",
        "numberOfBytes": "32",
        "value": "t_mapping(t_uint256,t_struct(ProtocolInfoS)5617_storage)"
      },
      "t_mapping(t_uint256,t_string_storage)": {
        "encoding": "mapping",
        "key": "t_uint256",
        "label": "mapping(uint256 => string)",
        "numberOfBytes": "32",
        "value": "t_string_storage"
      },
      "t_mapping(t_uint256,t_struct(ProtocolInfoS)5617_storage)": {
        "encoding": "mapping",
        "key": "t_uint256",
        "label": "mapping(uint256 => struct IController.ProtocolInfoS)",
        "numberOfBytes": "32",
        "value": "t_struct(ProtocolInfoS)5617_storage"
      },
      "t_mapping(t_uint256,t_uint256)": {
        "encoding": "mapping",
        "key": "t_uint256",
        "label": "mapping(uint256 => uint256)",
        "numberOfBytes": "32",
        "value": "t_uint256"
      },
      "t_string_storage": {
        "encoding": "bytes",
        "label": "string",
        "numberOfBytes": "32"
      },
      "t_struct(ProtocolInfoS)5617_storage": {
        "encoding": "inplace",
        "label": "struct IController.ProtocolInfoS",
        "members": [
          {
            "astId": 5610,
            "contract": "contracts/Controller.sol:Controller",
            "label": "LPToken",
            "offset": 0,
            "slot": "0",
            "type": "t_address"
          },
          {
            "astId": 5612,
            "contract": "contracts/Controller.sol:Controller",
            "label": "provider",
            "offset": 0,
            "slot": "1",
            "type": "t_address"
          },
          {
            "astId": 5614,
            "contract": "contracts/Controller.sol:Controller",
            "label": "underlying",
            "offset": 0,
            "slot": "2",
            "type": "t_address"
          },
          {
            "astId": 5616,
            "contract": "contracts/Controller.sol:Controller",
            "label": "uScale",
            "offset": 0,
            "slot": "3",
            "type": "t_uint256"
          }
        ],
        "numberOfBytes": "128"
      },
      "t_struct(UniswapParams)5624_storage": {
        "encoding": "inplace",
        "label": "struct IController.UniswapParams",
        "members": [
          {
            "astId": 5619,
            "contract": "contracts/Controller.sol:Controller",
            "label": "router",
            "offset": 0,
            "slot": "0",
            "type": "t_address"
          },
          {
            "astId": 5621,
            "contract": "contracts/Controller.sol:Controller",
            "label": "quoter",
            "offset": 0,
            "slot": "1",
            "type": "t_address"
          },
          {
            "astId": 5623,
            "contract": "contracts/Controller.sol:Controller",
            "label": "poolFee",
            "offset": 20,
            "slot": "1",
            "type": "t_uint24"
          }
        ],
        "numberOfBytes": "64"
      },
      "t_uint24": {
        "encoding": "inplace",
        "label": "uint24",
        "numberOfBytes": "3"
      },
      "t_uint256": {
        "encoding": "inplace",
        "label": "uint256",
        "numberOfBytes": "32"
      }
    }
  }
}