{
  "address": "0x103A3b128991781EE2c8db0454cA99d67b257923",
  "abi": [
    {
      "inputs": [
        {
          "internalType": "string",
          "name": "name_",
          "type": "string"
        },
        {
          "internalType": "string",
          "name": "symbol_",
          "type": "string"
        },
        {
          "internalType": "address",
          "name": "_derbyToken",
          "type": "address"
        },
        {
          "internalType": "address",
          "name": "_dao",
          "type": "address"
        },
        {
          "internalType": "address",
          "name": "_guardian",
          "type": "address"
        },
        {
          "internalType": "address",
          "name": "_controller",
          "type": "address"
        }
      ],
      "stateMutability": "nonpayable",
      "type": "constructor"
    },
    {
      "anonymous": false,
      "inputs": [
        {
          "indexed": true,
          "internalType": "address",
          "name": "owner",
          "type": "address"
        },
        {
          "indexed": true,
          "internalType": "address",
          "name": "approved",
          "type": "address"
        },
        {
          "indexed": true,
          "internalType": "uint256",
          "name": "tokenId",
          "type": "uint256"
        }
      ],
      "name": "Approval",
      "type": "event"
    },
    {
      "anonymous": false,
      "inputs": [
        {
          "indexed": true,
          "internalType": "address",
          "name": "owner",
          "type": "address"
        },
        {
          "indexed": true,
          "internalType": "address",
          "name": "operator",
          "type": "address"
        },
        {
          "indexed": false,
          "internalType": "bool",
          "name": "approved",
          "type": "bool"
        }
      ],
      "name": "ApprovalForAll",
      "type": "event"
    },
    {
      "anonymous": false,
      "inputs": [
        {
          "indexed": false,
          "internalType": "uint16",
          "name": "_chain",
          "type": "uint16"
        },
        {
          "indexed": false,
          "internalType": "address",
          "name": "_vault",
          "type": "address"
        },
        {
          "indexed": false,
          "internalType": "int256[]",
          "name": "_deltas",
          "type": "int256[]"
        }
      ],
      "name": "PushProtocolAllocations",
      "type": "event"
    },
    {
      "anonymous": false,
      "inputs": [
        {
          "indexed": false,
          "internalType": "uint256",
          "name": "_vaultNumber",
          "type": "uint256"
        },
        {
          "indexed": false,
          "internalType": "int256[]",
          "name": "_deltas",
          "type": "int256[]"
        }
      ],
      "name": "PushedAllocationsToController",
      "type": "event"
    },
    {
      "anonymous": false,
      "inputs": [
        {
          "indexed": true,
          "internalType": "address",
          "name": "from",
          "type": "address"
        },
        {
          "indexed": true,
          "internalType": "address",
          "name": "to",
          "type": "address"
        },
        {
          "indexed": true,
          "internalType": "uint256",
          "name": "tokenId",
          "type": "uint256"
        }
      ],
      "name": "Transfer",
      "type": "event"
    },
    {
      "inputs": [
        {
          "internalType": "address",
          "name": "to",
          "type": "address"
        },
        {
          "internalType": "uint256",
          "name": "tokenId",
          "type": "uint256"
        }
      ],
      "name": "approve",
      "outputs": [],
      "stateMutability": "nonpayable",
      "type": "function"
    },
    {
      "inputs": [
        {
          "internalType": "address",
          "name": "owner",
          "type": "address"
        }
      ],
      "name": "balanceOf",
      "outputs": [
        {
          "internalType": "uint256",
          "name": "",
          "type": "uint256"
        }
      ],
      "stateMutability": "view",
      "type": "function"
    },
    {
      "inputs": [
        {
          "internalType": "uint256",
          "name": "_basketId",
          "type": "uint256"
        },
        {
          "internalType": "uint256",
          "name": "_chainId",
          "type": "uint256"
        },
        {
          "internalType": "uint256",
          "name": "_protocolId",
          "type": "uint256"
        }
      ],
      "name": "basketAllocationInProtocol",
      "outputs": [
        {
          "internalType": "int256",
          "name": "",
          "type": "int256"
        }
      ],
      "stateMutability": "view",
      "type": "function"
    },
    {
      "inputs": [
        {
          "internalType": "uint256",
          "name": "_basketId",
          "type": "uint256"
        }
      ],
      "name": "basketRedeemedRewards",
      "outputs": [
        {
          "internalType": "int256",
          "name": "",
          "type": "int256"
        }
      ],
      "stateMutability": "view",
      "type": "function"
    },
    {
      "inputs": [
        {
          "internalType": "uint256",
          "name": "_basketId",
          "type": "uint256"
        }
      ],
      "name": "basketTotalAllocatedTokens",
      "outputs": [
        {
          "internalType": "int256",
          "name": "",
          "type": "int256"
        }
      ],
      "stateMutability": "view",
      "type": "function"
    },
    {
      "inputs": [
        {
          "internalType": "uint256",
          "name": "_basketId",
          "type": "uint256"
        }
      ],
      "name": "basketUnredeemedRewards",
      "outputs": [
        {
          "internalType": "int256",
          "name": "",
          "type": "int256"
        }
      ],
      "stateMutability": "view",
      "type": "function"
    },
    {
      "inputs": [
        {
          "internalType": "uint256",
          "name": "",
          "type": "uint256"
        }
      ],
      "name": "chainIds",
      "outputs": [
        {
          "internalType": "uint16",
          "name": "",
          "type": "uint16"
        }
      ],
      "stateMutability": "view",
      "type": "function"
    },
    {
      "inputs": [],
      "name": "controller",
      "outputs": [
        {
          "internalType": "contract IController",
          "name": "",
          "type": "address"
        }
      ],
      "stateMutability": "view",
      "type": "function"
    },
    {
      "inputs": [],
      "name": "derbyToken",
      "outputs": [
        {
          "internalType": "contract IERC20",
          "name": "",
          "type": "address"
        }
      ],
      "stateMutability": "view",
      "type": "function"
    },
    {
      "inputs": [
        {
          "internalType": "uint256",
          "name": "tokenId",
          "type": "uint256"
        }
      ],
      "name": "getApproved",
      "outputs": [
        {
          "internalType": "address",
          "name": "",
          "type": "address"
        }
      ],
      "stateMutability": "view",
      "type": "function"
    },
    {
      "inputs": [],
      "name": "getDao",
      "outputs": [
        {
          "internalType": "address",
          "name": "",
          "type": "address"
        }
      ],
      "stateMutability": "view",
      "type": "function"
    },
    {
      "inputs": [],
      "name": "getGuardian",
      "outputs": [
        {
          "internalType": "address",
          "name": "",
          "type": "address"
        }
      ],
      "stateMutability": "view",
      "type": "function"
    },
    {
      "inputs": [],
      "name": "homeVault",
      "outputs": [
        {
          "internalType": "address",
          "name": "",
          "type": "address"
        }
      ],
      "stateMutability": "view",
      "type": "function"
    },
    {
      "inputs": [
        {
          "internalType": "address",
          "name": "owner",
          "type": "address"
        },
        {
          "internalType": "address",
          "name": "operator",
          "type": "address"
        }
      ],
      "name": "isApprovedForAll",
      "outputs": [
        {
          "internalType": "bool",
          "name": "",
          "type": "bool"
        }
      ],
      "stateMutability": "view",
      "type": "function"
    },
    {
      "inputs": [
        {
          "internalType": "uint256",
          "name": "",
          "type": "uint256"
        }
      ],
      "name": "isXChainRebalancing",
      "outputs": [
        {
          "internalType": "bool",
          "name": "",
          "type": "bool"
        }
      ],
      "stateMutability": "view",
      "type": "function"
    },
    {
      "inputs": [],
      "name": "lastTimeStamp",
      "outputs": [
        {
          "internalType": "uint256",
          "name": "",
          "type": "uint256"
        }
      ],
      "stateMutability": "view",
      "type": "function"
    },
    {
      "inputs": [
        {
          "internalType": "uint256",
          "name": "",
          "type": "uint256"
        }
      ],
      "name": "latestProtocolId",
      "outputs": [
        {
          "internalType": "uint256",
          "name": "",
          "type": "uint256"
        }
      ],
      "stateMutability": "view",
      "type": "function"
    },
    {
      "inputs": [
        {
          "internalType": "uint256",
          "name": "_vaultNumber",
          "type": "uint256"
        }
      ],
      "name": "mintNewBasket",
      "outputs": [
        {
          "internalType": "uint256",
          "name": "",
          "type": "uint256"
        }
      ],
      "stateMutability": "nonpayable",
      "type": "function"
    },
    {
      "inputs": [],
      "name": "name",
      "outputs": [
        {
          "internalType": "string",
          "name": "",
          "type": "string"
        }
      ],
      "stateMutability": "view",
      "type": "function"
    },
    {
      "inputs": [
        {
          "internalType": "uint256",
          "name": "tokenId",
          "type": "uint256"
        }
      ],
      "name": "ownerOf",
      "outputs": [
        {
          "internalType": "address",
          "name": "",
          "type": "address"
        }
      ],
      "stateMutability": "view",
      "type": "function"
    },
    {
      "inputs": [
        {
          "internalType": "uint256",
          "name": "_vaultNumber",
          "type": "uint256"
        }
      ],
      "name": "pushAllocationsToController",
      "outputs": [],
      "stateMutability": "nonpayable",
      "type": "function"
    },
    {
      "inputs": [
        {
          "internalType": "uint256",
          "name": "_vaultNumber",
          "type": "uint256"
        }
      ],
      "name": "pushAllocationsToVaults",
      "outputs": [],
      "stateMutability": "nonpayable",
      "type": "function"
    },
    {
      "inputs": [
        {
          "internalType": "uint256",
          "name": "_basketId",
          "type": "uint256"
        },
        {
          "internalType": "int256[][]",
          "name": "_deltaAllocations",
          "type": "int256[][]"
        }
      ],
      "name": "rebalanceBasket",
      "outputs": [],
      "stateMutability": "nonpayable",
      "type": "function"
    },
    {
      "inputs": [],
      "name": "rebalanceInterval",
      "outputs": [
        {
          "internalType": "uint256",
          "name": "",
          "type": "uint256"
        }
      ],
      "stateMutability": "view",
      "type": "function"
    },
    {
      "inputs": [],
      "name": "rebalanceNeeded",
      "outputs": [
        {
          "internalType": "bool",
          "name": "",
          "type": "bool"
        }
      ],
      "stateMutability": "view",
      "type": "function"
    },
    {
      "inputs": [
        {
          "internalType": "uint256",
          "name": "_basketId",
          "type": "uint256"
        }
      ],
      "name": "redeemRewards",
      "outputs": [],
      "stateMutability": "nonpayable",
      "type": "function"
    },
    {
      "inputs": [
        {
          "internalType": "address",
          "name": "from",
          "type": "address"
        },
        {
          "internalType": "address",
          "name": "to",
          "type": "address"
        },
        {
          "internalType": "uint256",
          "name": "tokenId",
          "type": "uint256"
        }
      ],
      "name": "safeTransferFrom",
      "outputs": [],
      "stateMutability": "nonpayable",
      "type": "function"
    },
    {
      "inputs": [
        {
          "internalType": "address",
          "name": "from",
          "type": "address"
        },
        {
          "internalType": "address",
          "name": "to",
          "type": "address"
        },
        {
          "internalType": "uint256",
          "name": "tokenId",
          "type": "uint256"
        },
        {
          "internalType": "bytes",
          "name": "data",
          "type": "bytes"
        }
      ],
      "name": "safeTransferFrom",
      "outputs": [],
      "stateMutability": "nonpayable",
      "type": "function"
    },
    {
      "inputs": [
        {
          "internalType": "address",
          "name": "operator",
          "type": "address"
        },
        {
          "internalType": "bool",
          "name": "approved",
          "type": "bool"
        }
      ],
      "name": "setApprovalForAll",
      "outputs": [],
      "stateMutability": "nonpayable",
      "type": "function"
    },
    {
      "inputs": [
        {
          "internalType": "uint16[]",
          "name": "_chainIds",
          "type": "uint16[]"
        }
      ],
      "name": "setChainIds",
      "outputs": [],
      "stateMutability": "nonpayable",
      "type": "function"
    },
    {
      "inputs": [
        {
          "internalType": "address",
          "name": "_dao",
          "type": "address"
        }
      ],
      "name": "setDao",
      "outputs": [],
      "stateMutability": "nonpayable",
      "type": "function"
    },
    {
      "inputs": [
        {
          "internalType": "address",
          "name": "_derbyToken",
          "type": "address"
        }
      ],
      "name": "setDerbyToken",
      "outputs": [],
      "stateMutability": "nonpayable",
      "type": "function"
    },
    {
      "inputs": [
        {
          "internalType": "address",
          "name": "_guardian",
          "type": "address"
        }
      ],
      "name": "setGuardian",
      "outputs": [],
      "stateMutability": "nonpayable",
      "type": "function"
    },
    {
      "inputs": [
        {
          "internalType": "address",
          "name": "_homeVault",
          "type": "address"
        }
      ],
      "name": "setHomeVault",
      "outputs": [],
      "stateMutability": "nonpayable",
      "type": "function"
    },
    {
      "inputs": [
        {
          "internalType": "uint16",
          "name": "_chainId",
          "type": "uint16"
        },
        {
          "internalType": "uint256",
          "name": "_latestProtocolId",
          "type": "uint256"
        }
      ],
      "name": "setLatestProtocolId",
      "outputs": [],
      "stateMutability": "nonpayable",
      "type": "function"
    },
    {
      "inputs": [
        {
          "internalType": "uint256",
          "name": "_factor",
          "type": "uint256"
        }
      ],
      "name": "setNegativeRewardFactor",
      "outputs": [],
      "stateMutability": "nonpayable",
      "type": "function"
    },
    {
      "inputs": [
        {
          "internalType": "int256",
          "name": "_threshold",
          "type": "int256"
        }
      ],
      "name": "setNegativeRewardThreshold",
      "outputs": [],
      "stateMutability": "nonpayable",
      "type": "function"
    },
    {
      "inputs": [
        {
          "internalType": "uint256",
          "name": "_timestampInternal",
          "type": "uint256"
        }
      ],
      "name": "setRebalanceInterval",
      "outputs": [],
      "stateMutability": "nonpayable",
      "type": "function"
    },
    {
      "inputs": [
        {
          "internalType": "uint256",
          "name": "_vaultNumber",
          "type": "uint256"
        },
        {
          "internalType": "bool",
          "name": "_state",
          "type": "bool"
        }
      ],
      "name": "setRebalancingState",
      "outputs": [],
      "stateMutability": "nonpayable",
      "type": "function"
    },
    {
      "inputs": [
        {
          "internalType": "uint256",
          "name": "_vaultNumber",
          "type": "uint256"
        },
        {
          "internalType": "uint16",
          "name": "_chainId",
          "type": "uint16"
        },
        {
          "internalType": "address",
          "name": "_address",
          "type": "address"
        }
      ],
      "name": "setVaultAddress",
      "outputs": [],
      "stateMutability": "nonpayable",
      "type": "function"
    },
    {
      "inputs": [
        {
          "internalType": "address",
          "name": "_xProvider",
          "type": "address"
        }
      ],
      "name": "setXProvider",
      "outputs": [],
      "stateMutability": "nonpayable",
      "type": "function"
    },
    {
      "inputs": [
        {
          "internalType": "uint256",
          "name": "_vaultNumber",
          "type": "uint256"
        },
        {
          "internalType": "uint16",
          "name": "_chainId",
          "type": "uint16"
        },
        {
          "internalType": "int256[]",
          "name": "_rewards",
          "type": "int256[]"
        }
      ],
      "name": "settleRewards",
      "outputs": [],
      "stateMutability": "nonpayable",
      "type": "function"
    },
    {
      "inputs": [
        {
          "internalType": "uint256",
          "name": "_vaultNumber",
          "type": "uint256"
        },
        {
          "internalType": "uint16",
          "name": "_chainId",
          "type": "uint16"
        },
        {
          "internalType": "int256[]",
          "name": "_rewards",
          "type": "int256[]"
        }
      ],
      "name": "settleRewardsGuard",
      "outputs": [],
      "stateMutability": "nonpayable",
      "type": "function"
    },
    {
      "inputs": [
        {
          "internalType": "bytes4",
          "name": "interfaceId",
          "type": "bytes4"
        }
      ],
      "name": "supportsInterface",
      "outputs": [
        {
          "internalType": "bool",
          "name": "",
          "type": "bool"
        }
      ],
      "stateMutability": "view",
      "type": "function"
    },
    {
      "inputs": [],
      "name": "symbol",
      "outputs": [
        {
          "internalType": "string",
          "name": "",
          "type": "string"
        }
      ],
      "stateMutability": "view",
      "type": "function"
    },
    {
      "inputs": [
        {
          "internalType": "uint256",
          "name": "tokenId",
          "type": "uint256"
        }
      ],
      "name": "tokenURI",
      "outputs": [
        {
          "internalType": "string",
          "name": "",
          "type": "string"
        }
      ],
      "stateMutability": "view",
      "type": "function"
    },
    {
      "inputs": [
        {
          "internalType": "address",
          "name": "from",
          "type": "address"
        },
        {
          "internalType": "address",
          "name": "to",
          "type": "address"
        },
        {
          "internalType": "uint256",
          "name": "tokenId",
          "type": "uint256"
        }
      ],
      "name": "transferFrom",
      "outputs": [],
      "stateMutability": "nonpayable",
      "type": "function"
    },
    {
      "inputs": [],
      "name": "xProvider",
      "outputs": [
        {
          "internalType": "address",
          "name": "",
          "type": "address"
        }
      ],
      "stateMutability": "view",
      "type": "function"
    }
  ],
  "transactionHash": "0xa8f3086f00d5d509fd08b9ff1c9ead5ee20fa88363a8879df68066181863d9da",
  "args": [
    "DerbyNFT",
    "DRBNFT",
    "0x3D63c50AD04DD5aE394CAB562b7691DD5de7CF6f",
    "0xf39Fd6e51aad88F6F4ce6aB8827279cffFb92266",
    "0xf39Fd6e51aad88F6F4ce6aB8827279cffFb92266",
    "0x90c84237fDdf091b1E63f369AF122EB46000bc70"
  ],
  "numDeployments": 1,
  "solcInputHash": "f987a020c854af057aeb38d6938caa4d",
  "bytecode": "0x60806040523480156200001157600080fd5b5060405162003b2938038062003b2983398101604081905262000034916200025a565b8551869086906200004d906000906020850190620000ca565b50805162000063906001906020840190620000ca565b5050600160065550600c80546001600160a01b039586166001600160a01b031991821617909155600b80549286169282169290921790915560078054938516938216939093179092556008805491909316911617905550504260105560326012556200034a565b828054620000d8906200030d565b90600052602060002090601f016020900481019282620000fc576000855562000147565b82601f106200011757805160ff191683800117855562000147565b8280016001018555821562000147579182015b82811115620001475782518255916020019190600101906200012a565b506200015592915062000159565b5090565b5b808211156200015557600081556001016200015a565b634e487b7160e01b600052604160045260246000fd5b600082601f8301126200019857600080fd5b81516001600160401b0380821115620001b557620001b562000170565b604051601f8301601f19908116603f01168101908282118183101715620001e057620001e062000170565b81604052838152602092508683858801011115620001fd57600080fd5b600091505b8382101562000221578582018301518183018401529082019062000202565b83821115620002335760008385830101525b9695505050505050565b80516001600160a01b03811681146200025557600080fd5b919050565b60008060008060008060c087890312156200027457600080fd5b86516001600160401b03808211156200028c57600080fd5b6200029a8a838b0162000186565b97506020890151915080821115620002b157600080fd5b50620002c089828a0162000186565b955050620002d1604088016200023d565b9350620002e1606088016200023d565b9250620002f1608088016200023d565b91506200030160a088016200023d565b90509295509295509295565b600181811c908216806200032257607f821691505b602082108114156200034457634e487b7160e01b600052602260045260246000fd5b50919050565b6137cf806200035a6000396000f3fe608060405234801561001057600080fd5b50600436106102305760003560e01c806301ffc9a71461023557806306fdde031461025d578063081812fc14610272578063095ea7b3146102925780630a875b49146102a75780630ccb7d5b146102ba57806316d1d916146102cd5780631e6790b0146102e457806321d93090146102f757806323b872dd1461031d5780632e9564701461033057806334354a411461033857806334bb6cad1461034b57806335f11cc21461035e5780633f3b3b271461037157806342842e0e1461037a57806342cb67841461038d5780634558d097146103a057806345b1f60b146103b35780634dfecee2146103c657806358d7c1ee146103d957806358db2d4a146103ec5780635b7dcaed146103ff5780636352211e146104125780636637b88214610425578063707f6d8d1461043857806370a082311461044b578063814361ce1461045e578063837d3c84146104715780638a0dac4a1461048457806395d89b4114610497578063968d238a1461049f578063a22cb465146104b2578063a45e08ec146104c5578063a75b87d2146104e5578063aa0230cd146104f6578063b70811bc14610519578063b88d4fde1461052a578063c2d93ce61461053d578063c87b56dd14610550578063e49749fa14610563578063e985e9c514610576578063eada03dd14610589578063ed8dae231461059c578063ee6a4597146105af578063ee968264146105c2578063f77c4791146105d5578063fdba466e146105e8575b600080fd5b610248610243366004612c72565b6105fb565b60405190151581526020015b60405180910390f35b61026561064d565b6040516102549190612ce7565b610285610280366004612cfa565b6106df565b6040516102549190612d13565b6102a56102a0366004612d43565b610706565b005b6102a56102b5366004612cfa565b610821565b600c54610285906001600160a01b031681565b6102d6600f5481565b604051908152602001610254565b6102a56102f2366004612e53565b610850565b61030a610305366004612cfa565b6108ac565b60405161ffff9091168152602001610254565b6102a561032b366004612ea9565b6108e4565b610248610915565b6102d6610346366004612cfa565b61092e565b6102a5610359366004612ee5565b610985565b6102a561036c366004612cfa565b6109d1565b6102d660105481565b6102a5610388366004612ea9565b610b03565b6102a561039b366004612f00565b610b1e565b6102a56103ae366004612cfa565b610c60565b6102d66103c1366004612cfa565b610c8f565b6102a56103d4366004612fbc565b610ce2565b600a54610285906001600160a01b031681565b6102d66103fa366004612cfa565b610d23565b6102a561040d366004612cfa565b610d99565b610285610420366004612cfa565b610dc8565b6102a5610433366004612ee5565b610dfd565b6102a5610446366004612fe6565b610e49565b6102d6610459366004612ee5565b610e93565b6102a561046c366004613016565b610f19565b6102a561047f366004612ee5565b610f5a565b6102a5610492366004612ee5565b610fa6565b610265610ff2565b6102a56104ad366004612cfa565b611001565b6102a56104c03660046130a2565b611172565b6102d66104d3366004612cfa565b60146020526000908152604090205481565b6008546001600160a01b0316610285565b610248610504366004612cfa565b60166020526000908152604090205460ff1681565b6007546001600160a01b0316610285565b6102a56105383660046130ce565b61117d565b6102a561054b36600461318d565b6111b5565b61026561055e366004612cfa565b611221565b6102d6610571366004612cfa565b611295565b6102486105843660046131c9565b6112e8565b6102a5610597366004612ee5565b611316565b6102d66105aa3660046131fc565b611362565b6102a56105bd366004612cfa565b6113ce565b6102a56105d0366004612e53565b611577565b600b54610285906001600160a01b031681565b600954610285906001600160a01b031681565b60006001600160e01b031982166380ac58cd60e01b148061062c57506001600160e01b03198216635b5e139f60e01b145b8061064757506301ffc9a760e01b6001600160e01b03198316145b92915050565b60606000805461065c90613228565b80601f016020809104026020016040519081016040528092919081815260200182805461068890613228565b80156106d55780601f106106aa576101008083540402835291602001916106d5565b820191906000526020600020905b8154815290600101906020018083116106b857829003601f168201915b5050505050905090565b60006106ea826115a1565b506000908152600460205260409020546001600160a01b031690565b600061071182610dc8565b9050806001600160a01b0316836001600160a01b031614156107845760405162461bcd60e51b815260206004820152602160248201527f4552433732313a20617070726f76616c20746f2063757272656e74206f776e656044820152603960f91b60648201526084015b60405180910390fd5b336001600160a01b03821614806107a057506107a081336112e8565b6108125760405162461bcd60e51b815260206004820152603e60248201527f4552433732313a20617070726f76652063616c6c6572206973206e6f7420746f60448201527f6b656e206f776e6572206e6f7220617070726f76656420666f7220616c6c0000606482015260840161077b565b61081c83836115c9565b505050565b6007546001600160a01b0316331461084b5760405162461bcd60e51b815260040161077b9061325d565b601155565b6009546001600160a01b031633146108a15760405162461bcd60e51b815260206004820152601460248201527323b0b6b29d1037b7363c903c283937bb34b232b960611b604482015260640161077b565b61081c838383611637565b600e81815481106108bc57600080fd5b9060005260206000209060109182820401919006600202915054906101000a900461ffff1681565b6108ee33826116db565b61090a5760405162461bcd60e51b815260040161077b90613285565b61081c83838361173a565b6000600f546010544261092891906132e9565b11905090565b60008161093a81610dc8565b6001600160a01b0316336001600160a01b03161461096a5760405162461bcd60e51b815260040161077b90613300565b60008381526013602052604090206003015491505b50919050565b6007546001600160a01b031633146109af5760405162461bcd60e51b815260040161077b9061325d565b600c80546001600160a01b0319166001600160a01b0392909216919091179055565b806109db81610dc8565b6001600160a01b0316336001600160a01b031614610a0b5760405162461bcd60e51b815260040161077b90613300565b600082815260136020526040812060030154908113610a5f5760405162461bcd60e51b815260206004820152601060248201526f4e6f7468696e6720746f20636c61696d60801b604482015260640161077b565b60008381526013602052604081206004018054839290610a80908490613341565b909155505060008381526013602052604080822060030191909155600a54905163365eed6560e21b8152600481018390523360248201526001600160a01b039091169063d97bb59490604401600060405180830381600087803b158015610ae657600080fd5b505af1158015610afa573d6000803e3d6000fd5b50505050505050565b61081c8383836040518060200160405280600081525061117d565b81610b2881610dc8565b6001600160a01b0316336001600160a01b031614610b585760405162461bcd60e51b815260040161077b90613300565b60026006541415610bab5760405162461bcd60e51b815260206004820152601f60248201527f5265656e7472616e637947756172643a207265656e7472616e742063616c6c00604482015260640161077b565b600260065560008381526013602090815260408083205480845260169092529091205460ff1615610c1e5760405162461bcd60e51b815260206004820181905260248201527f47616d653a207661756c742069732078436861696e526562616c616e63696e67604482015260640161077b565b610c27846118c4565b6000610c34858386611a74565b9050610c408582611c01565b610c4a8582611c9a565b610c548583611d24565b50506001600655505050565b6007546001600160a01b03163314610c8a5760405162461bcd60e51b815260040161077b9061325d565b601255565b600081610c9b81610dc8565b6001600160a01b0316336001600160a01b031614610ccb5760405162461bcd60e51b815260040161077b90613300565b505060009081526013602052604090206004015490565b6008546001600160a01b03163314610d0c5760405162461bcd60e51b815260040161077b90613382565b61ffff909116600090815260146020526040902055565b600d5460009081526013602090815260408083208490558383526015909152812054610d509060016133af565b600d805460009081526013602052604090206001019190915554610d75903390611d92565b600d8054906000610d85836133c7565b91905055506001600d5461064791906132e9565b6007546001600160a01b03163314610dc35760405162461bcd60e51b815260040161077b9061325d565b600f55565b6000818152600260205260408120546001600160a01b0316806106475760405162461bcd60e51b815260040161077b906133e2565b6007546001600160a01b03163314610e275760405162461bcd60e51b815260040161077b9061325d565b600780546001600160a01b0319166001600160a01b0392909216919091179055565b6008546001600160a01b03163314610e735760405162461bcd60e51b815260040161077b90613382565b600091825260166020526040909120805460ff1916911515919091179055565b60006001600160a01b038216610efd5760405162461bcd60e51b815260206004820152602960248201527f4552433732313a2061646472657373207a65726f206973206e6f7420612076616044820152683634b21037bbb732b960b91b606482015260840161077b565b506001600160a01b031660009081526003602052604090205490565b6008546001600160a01b03163314610f435760405162461bcd60e51b815260040161077b90613382565b8051610f5690600e906020840190612b9e565b5050565b6007546001600160a01b03163314610f845760405162461bcd60e51b815260040161077b9061325d565b600980546001600160a01b0319166001600160a01b0392909216919091179055565b6007546001600160a01b03163314610fd05760405162461bcd60e51b815260040161077b9061325d565b600880546001600160a01b0319166001600160a01b0392909216919091179055565b60606001805461065c90613228565b611009610915565b61104b5760405162461bcd60e51b8152602060048201526013602482015272139bc81c9958985b185b98d9481b9959591959606a1b604482015260640161077b565b60008181526016602052604090205460ff16156110a95760405162461bcd60e51b815260206004820152601c60248201527b5661756c7420697320616c726561647920726562616c616e63696e6760201b604482015260640161077b565b6000818152601660205260408120805460ff191660011790556110cb82611dac565b6009546040516301346d9960e11b81529192506001600160a01b031690630268db32906110fe908590859060040161344f565b600060405180830381600087803b15801561111857600080fd5b505af115801561112c573d6000803e3d6000fd5b50504260105550506040517fae2df714d96e28500cfb0ae388d8401e7b4db226d128a36998acc4d86eeb010490611166908490849061344f565b60405180910390a15050565b610f56338383611eb6565b61118733836116db565b6111a35760405162461bcd60e51b815260040161077b90613285565b6111af84848484611f81565b50505050565b6008546001600160a01b031633146111df5760405162461bcd60e51b815260040161077b90613382565b600092835260156020908152604080852061ffff94909416855260019093019052912080546001600160a01b0319166001600160a01b03909216919091179055565b606061122c826115a1565b600061124360408051602081019091526000815290565b90506000815111611263576040518060200160405280600081525061128e565b8061126d84611fb4565b60405160200161127e929190613468565b6040516020818303038152906040525b9392505050565b6000816112a181610dc8565b6001600160a01b0316336001600160a01b0316146112d15760405162461bcd60e51b815260040161077b90613300565b505060009081526013602052604090206002015490565b6001600160a01b03918216600090815260056020908152604080832093909416825291909152205460ff1690565b6007546001600160a01b031633146113405760405162461bcd60e51b815260040161077b9061325d565b600a80546001600160a01b0319166001600160a01b0392909216919091179055565b60008361136e81610dc8565b6001600160a01b0316336001600160a01b03161461139e5760405162461bcd60e51b815260040161077b90613300565b6000858152601360209081526040808320878452600501825280832086845290915290205491505b509392505050565b60008181526016602052604090205460ff166114275760405162461bcd60e51b81526020600482015260186024820152775661756c74206973206e6f7420726562616c616e63696e6760401b604482015260640161077b565b60005b600e5481101561153f576000600e828154811061144957611449613497565b600091825260208220601082040154600f9091166002026101000a900461ffff16915061147684836120b1565b6009549091506001600160a01b031663ca066bf4836114958782612189565b846040518463ffffffff1660e01b81526004016114b4939291906134ad565b600060405180830381600087803b1580156114ce57600080fd5b505af11580156114e2573d6000803e3d6000fd5b505050507f4b3aa4a952c107d9f26dbb9d632aad4e06a1c1113a75ea7d6c1e68770e6d0a76826115128685612189565b83604051611522939291906134ad565b60405180910390a150508080611537906133c7565b91505061142a565b50600081815260156020526040812080549161155a836133c7565b90915550506000908152601660205260409020805460ff19169055565b6008546001600160a01b031633146108a15760405162461bcd60e51b815260040161077b90613382565b6115aa816121b9565b6115c65760405162461bcd60e51b815260040161077b906133e2565b50565b600081815260046020526040902080546001600160a01b0319166001600160a01b03841690811790915581906115fe82610dc8565b6001600160a01b03167f8c5be1e5ebec7d5bd14f71427d1e84f3dd0314c0f7b2291e5b200ac8c7c3b92560405160405180910390a45050565b600083815260156020526040812054905b82518110156116d457600061166986866116636001876132e9565b856121d6565b905083828151811061167d5761167d613497565b6020026020010151816116909190613341565b600087815260156020908152604080832061ffff8a1684526004018252808320878452825280832086845290915290205550806116cc816133c7565b915050611648565b5050505050565b6000806116e783610dc8565b9050806001600160a01b0316846001600160a01b0316148061170e575061170e81856112e8565b806117325750836001600160a01b0316611727846106df565b6001600160a01b0316145b949350505050565b826001600160a01b031661174d82610dc8565b6001600160a01b0316146117b15760405162461bcd60e51b815260206004820152602560248201527f4552433732313a207472616e736665722066726f6d20696e636f72726563742060448201526437bbb732b960d91b606482015260840161077b565b6001600160a01b0382166118135760405162461bcd60e51b8152602060048201526024808201527f4552433732313a207472616e7366657220746f20746865207a65726f206164646044820152637265737360e01b606482015260840161077b565b61181e6000826115c9565b6001600160a01b03831660009081526003602052604081208054600192906118479084906132e9565b90915550506001600160a01b03821660009081526003602052604081208054600192906118759084906133af565b909155505060008181526002602052604080822080546001600160a01b0319166001600160a01b03868116918217909255915184939187169160008051602061377a83398151915291a4505050565b806118ce81610dc8565b6001600160a01b0316336001600160a01b0316146118fe5760405162461bcd60e51b815260040161077b90613300565b600082815260136020526040902060020154611918575050565b6000828152601360208181526040808420805480865260158452918520549487905292909152600190910154909190808211611955575050505050565b60005b600e54811015611a6c576000600e828154811061197757611977613497565b60009182526020808320601083040154600f9092166002026101000a90910461ffff1680835260149091526040822054909250905b81811015611a56576000670de0b6b3a76400006119ce8b8661ffff1685611362565b6119d891906134fa565b9050806119e55750611a44565b60006119f3898689866121d6565b90506000611a038a878b876121d6565b905082611a108383613528565b611a1a9190613567565b60008d81526013602052604081206003018054909190611a3b908490613341565b90915550505050505b80611a4e816133c7565b9150506119ac565b5050508080611a64906133c7565b915050611958565b505050505050565b6000805b82518110156113c657600080600e8381548110611a9757611a97613497565b90600052602060002090601091828204019190066002029054906101000a900461ffff1690506000601460008361ffff16815260200190815260200160002054905080868581518110611aec57611aec613497565b60200260200101515114611b3e5760405162461bcd60e51b8152602060048201526019602482015278092dcecc2d8d2c840c2d8d8dec6c2e8d2dedc40d8cadccee8d603b1b604482015260640161077b565b60005b81811015611bcf576000878681518110611b5d57611b5d613497565b60200260200101518281518110611b7657611b76613497565b602002602001015190508060001415611b8f5750611bbd565b611b998186613341565b9450611bab898561ffff16848461220e565b611bbb8a8561ffff16848461224d565b505b80611bc7816133c7565b915050611b41565b50611bda8386613341565b9450611beb878361ffff16856122ec565b5050508080611bf9906133c7565b915050611a78565b6000811315611c1357611c1381612322565b6000811215610f56576000611c2783611295565b90506000611c358383613341565b90506000611c438284613528565b905080831215611c905760405162461bcd60e51b8152602060048201526018602482015277139bdd08195b9bdd59da081d1bdad95b9cc81b1bd8dad95960421b604482015260640161077b565b6116d48582612482565b81611ca481610dc8565b6001600160a01b0316336001600160a01b031614611cd45760405162461bcd60e51b815260040161077b90613300565b60008381526013602052604081206002018054849290611cf5908490613341565b9091555060009050611d0684611295565b121561081c5760405162461bcd60e51b815260040161077b906135ec565b81611d2e81610dc8565b6001600160a01b0316336001600160a01b031614611d5e5760405162461bcd60e51b815260040161077b90613300565b600082815260156020526040902054611d789060016133af565b600093845260136020526040909320600101929092555050565b610f56828260405180602001604052806000815250612605565b600e546060906001600160401b03811115611dc957611dc9612d7f565b604051908082528060200260200182016040528015611df2578160200160208202803683370190505b50905060005b600e5481101561097f576000600e8281548110611e1757611e17613497565b60009182526020909120601082040154600f9091166002026101000a900461ffff169050611e61848260009182526015602090815260408084209284526002909201905290205490565b838381518110611e7357611e73613497565b602090810291909101810191909152600085815260158252604080822061ffff909416825260029093019091529081205580611eae816133c7565b915050611df8565b816001600160a01b0316836001600160a01b03161415611f145760405162461bcd60e51b815260206004820152601960248201527822a9219b99189d1030b8383937bb32903a379031b0b63632b960391b604482015260640161077b565b6001600160a01b03838116600081815260056020908152604080832094871680845294825291829020805460ff191686151590811790915591519182527f17307eab39ab6107e8899845ad3d59bd9653f200f220920489ca2b5937696c31910160405180910390a3505050565b611f8c84848461173a565b611f9884848484612638565b6111af5760405162461bcd60e51b815260040161077b90613617565b606081611fd85750506040805180820190915260018152600360fc1b602082015290565b8160005b81156120025780611fec816133c7565b9150611ffb9050600a83613669565b9150611fdc565b6000816001600160401b0381111561201c5761201c612d7f565b6040519080825280601f01601f191660200182016040528015612046576020820181803683370190505b5090505b84156117325761205b6001836132e9565b9150612068600a8661367d565b6120739060306133af565b60f81b81838151811061208857612088613497565b60200101906001600160f81b031916908160001a9053506120aa600a86613669565b945061204a565b61ffff8116600090815260146020526040902054606090806001600160401b038111156120e0576120e0612d7f565b604051908082528060200260200182016040528015612109578160200160208202803683370190505b50915060005b8181101561218157600085815260156020908152604080832061ffff88168452600301825280832084845290915290205483828151811061215257612152613497565b60200260200101818152505061216f858561ffff1683600061220e565b80612179816133c7565b91505061210f565b505092915050565b600082815260156020908152604080832061ffff851684526001019091529020546001600160a01b031692915050565b6000908152600260205260409020546001600160a01b0316151590565b600093845260156020908152604080862061ffff95909516865260049094018152838520928552918252828420908452905290205490565b6000848152601560209081526040808320868452600301825280832085845290915281208054839290612242908490613341565b909155505050505050565b8361225781610dc8565b6001600160a01b0316336001600160a01b0316146122875760405162461bcd60e51b815260040161077b90613300565b60008581526013602090815260408083208784526005018252808320868452909152812080548492906122bb908490613341565b90915550600090506122ce868686611362565b12156116d45760405162461bcd60e51b815260040161077b906135ec565b600083815260156020908152604080832085845260020190915281208054839290612318908490613341565b9091555050505050565b600c546040516370a0823160e01b81526000916001600160a01b0316906370a0823190612353903090600401612d13565b602060405180830381865afa158015612370573d6000803e3d6000fd5b505050506040513d601f19601f820116820180604052508101906123949190613691565b600c549091506123af906001600160a01b031633308561273a565b600c546040516370a0823160e01b81526000916001600160a01b0316906370a08231906123e0903090600401612d13565b602060405180830381865afa1580156123fd573d6000803e3d6000fd5b505050506040513d601f19601f820116820180604052508101906124219190613691565b90508261242e83836132e9565b61243891906132e9565b1561081c5760405162461bcd60e51b815260206004820152601a6024820152794572726f72206c6f636b3a20756e6465722f6f766572666c6f7760301b604482015260640161077b565b600061248e83836127a5565b9050600061249c82846132e9565b600c546040516370a0823160e01b81529194508492506000916001600160a01b03909116906370a08231906124d5903090600401612d13565b602060405180830381865afa1580156124f2573d6000803e3d6000fd5b505050506040513d601f19601f820116820180604052508101906125169190613691565b600c54909150612530906001600160a01b0316338461285b565b600c546040516370a0823160e01b81526000916001600160a01b0316906370a0823190612561903090600401612d13565b602060405180830381865afa15801561257e573d6000803e3d6000fd5b505050506040513d601f19601f820116820180604052508101906125a29190613691565b9050826125af82846132e9565b6125b991906132e9565b15611a6c5760405162461bcd60e51b815260206004820152601c60248201527b4572726f7220756e6c6f636b3a20756e6465722f6f766572666c6f7760201b604482015260640161077b565b61260f838361288b565b61261c6000848484612638565b61081c5760405162461bcd60e51b815260040161077b90613617565b600061264c846001600160a01b03166129ab565b1561273257604051630a85bd0160e11b81526001600160a01b0385169063150b7a02906126839033908990889088906004016136aa565b6020604051808303816000875af19250505080156126be575060408051601f3d908101601f191682019092526126bb918101906136e7565b60015b612718573d8080156126ec576040519150601f19603f3d011682016040523d82523d6000602084013e6126f1565b606091505b5080516127105760405162461bcd60e51b815260040161077b90613617565b805181602001fd5b6001600160e01b031916630a85bd0160e11b149050611732565b506001611732565b6040516001600160a01b03808516602483015283166044820152606481018290526111af9085906323b872dd60e01b906084015b60408051601f198184030181529190526020810180516001600160e01b03166001600160e01b0319909316929092179091526129ba565b6000828152601360205260408120600301546011548113156127cb576000915050610647565b60006064601254836127dc90613704565b6127e69190613721565b6127f09190613669565b90508381106127ff5783612801565b805b601254909150612812826064613721565b61281c9190613669565b6000868152601360205260408120600301805490919061283d908490613341565b9091555050600a54600c54611732916001600160a01b039182169116835b6040516001600160a01b03831660248201526044810182905261081c90849063a9059cbb60e01b9060640161276e565b6001600160a01b0382166128e15760405162461bcd60e51b815260206004820181905260248201527f4552433732313a206d696e7420746f20746865207a65726f2061646472657373604482015260640161077b565b6128ea816121b9565b156129365760405162461bcd60e51b815260206004820152601c60248201527b115490cdcc8c4e881d1bdad95b88185b1c9958591e481b5a5b9d195960221b604482015260640161077b565b6001600160a01b038216600090815260036020526040812080546001929061295f9084906133af565b909155505060008181526002602052604080822080546001600160a01b0319166001600160a01b038616908117909155905183929060008051602061377a833981519152908290a45050565b6001600160a01b03163b151590565b6000612a0f826040518060400160405280602081526020017f5361666545524332303a206c6f772d6c6576656c2063616c6c206661696c6564815250856001600160a01b0316612a8c9092919063ffffffff16565b80519091501561081c5780806020019051810190612a2d9190613740565b61081c5760405162461bcd60e51b815260206004820152602a60248201527f5361666545524332303a204552433230206f7065726174696f6e20646964206e6044820152691bdd081cdd58d8d9595960b21b606482015260840161077b565b6060611732848460008585612aa0856129ab565b612aec5760405162461bcd60e51b815260206004820152601d60248201527f416464726573733a2063616c6c20746f206e6f6e2d636f6e7472616374000000604482015260640161077b565b600080866001600160a01b03168587604051612b08919061375d565b60006040518083038185875af1925050503d8060008114612b45576040519150601f19603f3d011682016040523d82523d6000602084013e612b4a565b606091505b5091509150612b5a828286612b65565b979650505050505050565b60608315612b7457508161128e565b825115612b845782518084602001fd5b8160405162461bcd60e51b815260040161077b9190612ce7565b82805482825590600052602060002090600f01601090048101928215612c375791602002820160005b83821115612c0757835183826101000a81548161ffff021916908361ffff1602179055509260200192600201602081600101049283019260010302612bc7565b8015612c355782816101000a81549061ffff0219169055600201602081600101049283019260010302612c07565b505b50612c43929150612c47565b5090565b5b80821115612c435760008155600101612c48565b6001600160e01b0319811681146115c657600080fd5b600060208284031215612c8457600080fd5b813561128e81612c5c565b60005b83811015612caa578181015183820152602001612c92565b838111156111af5750506000910152565b60008151808452612cd3816020860160208601612c8f565b601f01601f19169290920160200192915050565b60208152600061128e6020830184612cbb565b600060208284031215612d0c57600080fd5b5035919050565b6001600160a01b0391909116815260200190565b80356001600160a01b0381168114612d3e57600080fd5b919050565b60008060408385031215612d5657600080fd5b612d5f83612d27565b946020939093013593505050565b803561ffff81168114612d3e57600080fd5b634e487b7160e01b600052604160045260246000fd5b604051601f8201601f191681016001600160401b0381118282101715612dbd57612dbd612d7f565b604052919050565b60006001600160401b03821115612dde57612dde612d7f565b5060051b60200190565b600082601f830112612df957600080fd5b81356020612e0e612e0983612dc5565b612d95565b82815260059290921b84018101918181019086841115612e2d57600080fd5b8286015b84811015612e485780358352918301918301612e31565b509695505050505050565b600080600060608486031215612e6857600080fd5b83359250612e7860208501612d6d565b915060408401356001600160401b03811115612e9357600080fd5b612e9f86828701612de8565b9150509250925092565b600080600060608486031215612ebe57600080fd5b612ec784612d27565b9250612ed560208501612d27565b9150604084013590509250925092565b600060208284031215612ef757600080fd5b61128e82612d27565b60008060408385031215612f1357600080fd5b823591506020808401356001600160401b0380821115612f3257600080fd5b818601915086601f830112612f4657600080fd5b8135612f54612e0982612dc5565b81815260059190911b83018401908481019089831115612f7357600080fd5b8585015b83811015612fab57803585811115612f8f5760008081fd5b612f9d8c89838a0101612de8565b845250918601918601612f77565b508096505050505050509250929050565b60008060408385031215612fcf57600080fd5b612d5f83612d6d565b80151581146115c657600080fd5b60008060408385031215612ff957600080fd5b82359150602083013561300b81612fd8565b809150509250929050565b6000602080838503121561302957600080fd5b82356001600160401b0381111561303f57600080fd5b8301601f8101851361305057600080fd5b803561305e612e0982612dc5565b81815260059190911b8201830190838101908783111561307d57600080fd5b928401925b82841015612b5a5761309384612d6d565b82529284019290840190613082565b600080604083850312156130b557600080fd5b6130be83612d27565b9150602083013561300b81612fd8565b600080600080608085870312156130e457600080fd5b6130ed85612d27565b935060206130fc818701612d27565b93506040860135925060608601356001600160401b038082111561311f57600080fd5b818801915088601f83011261313357600080fd5b81358181111561314557613145612d7f565b613157601f8201601f19168501612d95565b9150808252898482850101111561316d57600080fd5b808484018584013760008482840101525080935050505092959194509250565b6000806000606084860312156131a257600080fd5b833592506131b260208501612d6d565b91506131c060408501612d27565b90509250925092565b600080604083850312156131dc57600080fd5b6131e583612d27565b91506131f360208401612d27565b90509250929050565b60008060006060848603121561321157600080fd5b505081359360208301359350604090920135919050565b600181811c9082168061323c57607f821691505b6020821081141561097f57634e487b7160e01b600052602260045260246000fd5b6020808252600e908201526d47616d653a206f6e6c792044414f60901b604082015260600190565b6020808252602e908201527f4552433732313a2063616c6c6572206973206e6f7420746f6b656e206f776e6560408201526d1c881b9bdc88185c1c1c9bdd995960921b606082015260800190565b634e487b7160e01b600052601160045260246000fd5b6000828210156132fb576132fb6132d3565b500390565b60208082526021908201527f47616d653a204e6f7420746865206f776e6572206f6620746865206261736b656040820152601d60fa1b606082015260800190565b600080821280156001600160ff1b0384900385131615613363576133636132d3565b600160ff1b839003841281161561337c5761337c6132d3565b50500190565b60208082526013908201527223b0b6b29d1037b7363c9023bab0b93234b0b760691b604082015260600190565b600082198211156133c2576133c26132d3565b500190565b60006000198214156133db576133db6132d3565b5060010190565b602080825260189082015277115490cdcc8c4e881a5b9d985b1a59081d1bdad95b88125160421b604082015260600190565b600081518084526020808501945080840160005b8381101561344457815187529582019590820190600101613428565b509495945050505050565b8281526040602082015260006117326040830184613414565b6000835161347a818460208801612c8f565b83519083019061348e818360208801612c8f565b01949350505050565b634e487b7160e01b600052603260045260246000fd5b61ffff841681526001600160a01b03831660208201526060604082018190526000906134db90830184613414565b95945050505050565b634e487b7160e01b600052601260045260246000fd5b600082613509576135096134e4565b600160ff1b821460001984141615613523576135236132d3565b500590565b60008083128015600160ff1b850184121615613546576135466132d3565b6001600160ff1b0384018313811615613561576135616132d3565b50500390565b60006001600160ff1b038184138284138082168684048611161561358d5761358d6132d3565b600160ff1b60008712828116878305891216156135ac576135ac6132d3565b600087129250878205871284841616156135c8576135c86132d3565b878505871281841616156135de576135de6132d3565b505050929093029392505050565b6020808252601190820152704261736b65743a20756e646572666c6f7760781b604082015260600190565b60208082526032908201527f4552433732313a207472616e7366657220746f206e6f6e20455243373231526560408201527131b2b4bb32b91034b6b83632b6b2b73a32b960711b606082015260800190565b600082613678576136786134e4565b500490565b60008261368c5761368c6134e4565b500690565b6000602082840312156136a357600080fd5b5051919050565b6001600160a01b03858116825284166020820152604081018390526080606082018190526000906136dd90830184612cbb565b9695505050505050565b6000602082840312156136f957600080fd5b815161128e81612c5c565b6000600160ff1b82141561371a5761371a6132d3565b5060000390565b600081600019048311821515161561373b5761373b6132d3565b500290565b60006020828403121561375257600080fd5b815161128e81612fd8565b6000825161376f818460208701612c8f565b919091019291505056feddf252ad1be2c89b69c2b068fc378daa952ba7f163c4a11628f55a4df523b3efa264697066735822122083308bf92a5b884676762a622f6cf91199c63603a7370629760707745296f15964736f6c634300080b0033",
  "devdoc": {
    "kind": "dev",
    "methods": {
      "approve(address,uint256)": {
        "details": "See {IERC721-approve}."
      },
      "balanceOf(address)": {
        "details": "See {IERC721-balanceOf}."
      },
      "basketAllocationInProtocol(uint256,uint256,uint256)": {
        "params": {
          "_basketId": "Basket ID (tokenID) in the BasketToken (NFT) contract",
          "_chainId": "number of chainId",
          "_protocolId": "Id of the protocol of which the allocation is queried"
        },
        "returns": {
          "_0": "int256 Number of derby tokens that are allocated towards this specific protocol"
        }
      },
      "basketRedeemedRewards(uint256)": {
        "params": {
          "_basketId": "Basket ID (tokenID) in the BasketToken (NFT) contract."
        },
        "returns": {
          "_0": "int256 Total redeemed rewards."
        }
      },
      "basketTotalAllocatedTokens(uint256)": {
        "params": {
          "_basketId": "Basket ID (tokenID) in the BasketToken (NFT) contract."
        },
        "returns": {
          "_0": "int256 Number of derby tokens that are allocated towards protocols."
        }
      },
      "basketUnredeemedRewards(uint256)": {
        "params": {
          "_basketId": "Basket ID (tokenID) in the BasketToken (NFT) contract."
        },
        "returns": {
          "_0": "int256 Total unredeemed rewards."
        }
      },
      "getApproved(uint256)": {
        "details": "See {IERC721-getApproved}."
      },
      "isApprovedForAll(address,address)": {
        "details": "See {IERC721-isApprovedForAll}."
      },
      "mintNewBasket(uint256)": {
        "details": "The basket NFT is minted for a specific vault, starts with a zero allocation and the tokens are not locked here.",
        "params": {
          "_vaultNumber": "Number of the vault. Same as in Router."
        },
        "returns": {
          "_0": "basketId The basket Id the user has minted."
        }
      },
      "name()": {
        "details": "See {IERC721Metadata-name}."
      },
      "ownerOf(uint256)": {
        "details": "See {IERC721-ownerOf}."
      },
      "pushAllocationsToController(uint256)": {
        "details": "Sends over an array that should match the IDs in chainIds array"
      },
      "pushAllocationsToVaults(uint256)": {
        "details": "Sends over an array where the index is the protocolId"
      },
      "rebalanceBasket(uint256,int256[][])": {
        "details": "First calculates the rewards the basket has built up, then sets the new allocations and communicates the deltas to the vaultFinally it locks or unlocks tokens",
        "params": {
          "_basketId": "Basket ID (tokenID) in the BasketToken (NFT) contract.",
          "_deltaAllocations": "delta allocations set by the user of the basket. Allocations are scaled (so * 1E18)."
        }
      },
      "rebalanceNeeded()": {
        "returns": {
          "_0": "bool True of rebalance is needed, false if not"
        }
      },
      "redeemRewards(uint256)": {
        "details": "makes a call to the vault to make the actual transfer because the vault holds the funds.",
        "params": {
          "_basketId": "Basket ID (tokenID) in the BasketToken (NFT) contract."
        }
      },
      "safeTransferFrom(address,address,uint256)": {
        "details": "See {IERC721-safeTransferFrom}."
      },
      "safeTransferFrom(address,address,uint256,bytes)": {
        "details": "See {IERC721-safeTransferFrom}."
      },
      "setApprovalForAll(address,bool)": {
        "details": "See {IERC721-setApprovalForAll}."
      },
      "setChainIds(uint16[])": {
        "params": {
          "_chainIds": "array of all the used chainIds"
        }
      },
      "setDao(address)": {
        "params": {
          "_dao": "DAO address"
        }
      },
      "setDerbyToken(address)": {
        "params": {
          "_derbyToken": "new address of Derby token"
        }
      },
      "setGuardian(address)": {
        "params": {
          "_guardian": "new address of the guardian"
        }
      },
      "setHomeVault(address)": {
        "params": {
          "_homeVault": "new address of homeVault on this chain"
        }
      },
      "setLatestProtocolId(uint16,uint256)": {
        "params": {
          "_chainId": "number of chain id set in chainIds array",
          "_latestProtocolId": "latest protocol Id aka number of supported protocol vaults, starts at 0"
        }
      },
      "setNegativeRewardFactor(uint256)": {
        "params": {
          "_factor": "percentage of tokens that will be sold / burned"
        }
      },
      "setNegativeRewardThreshold(int256)": {
        "params": {
          "_threshold": "treshold in vaultCurrency e.g USDC, must be negative"
        }
      },
      "setRebalanceInterval(uint256)": {
        "params": {
          "_timestampInternal": "UNIX timestamp"
        }
      },
      "setXProvider(address)": {
        "params": {
          "_xProvider": "new address of xProvider on this chain"
        }
      },
      "supportsInterface(bytes4)": {
        "details": "See {IERC165-supportsInterface}."
      },
      "symbol()": {
        "details": "See {IERC721Metadata-symbol}."
      },
      "tokenURI(uint256)": {
        "details": "See {IERC721Metadata-tokenURI}."
      },
      "transferFrom(address,address,uint256)": {
        "details": "See {IERC721-transferFrom}."
      }
    },
    "version": 1
  },
  "userdoc": {
    "kind": "user",
    "methods": {
      "basketAllocationInProtocol(uint256,uint256,uint256)": {
        "notice": "function to see the allocation of a specific protocol by a basketId. Only the owner of the basket can view this"
      },
      "basketRedeemedRewards(uint256)": {
        "notice": "function to see the total reeemed rewards from the basket. Only the owner of the basket can view this."
      },
      "basketTotalAllocatedTokens(uint256)": {
        "notice": "function to see the total number of allocated tokens. Only the owner of the basket can view this."
      },
      "basketUnredeemedRewards(uint256)": {
        "notice": "function to see the total unredeemed rewards the basket has built up. Only the owner of the basket can view this."
      },
      "getDao()": {
        "notice": "Getter for dao address"
      },
      "getGuardian()": {
        "notice": "Getter for guardian address"
      },
      "mintNewBasket(uint256)": {
        "notice": "Mints a new NFT with a Basket of allocations."
      },
      "pushAllocationsToController(uint256)": {
        "notice": "Step 1 trigger; Game pushes totalDeltaAllocations to xChainControllerTrigger for Dao to push delta allocations to the xChainController"
      },
      "pushAllocationsToVaults(uint256)": {
        "notice": "Step 6 trigger; Game pushes deltaAllocations to vaultsTrigger to push delta allocations in protocols to cross chain vaults"
      },
      "rebalanceBasket(uint256,int256[][])": {
        "notice": "rebalances an existing Basket"
      },
      "rebalanceNeeded()": {
        "notice": "Checks if a rebalance is needed based on the set interval"
      },
      "redeemRewards(uint256)": {
        "notice": "redeem funds from basket in the game."
      },
      "setChainIds(uint16[])": {
        "notice": "Setter for chainId array"
      },
      "setDao(address)": {
        "notice": "Setter for DAO address"
      },
      "setDerbyToken(address)": {
        "notice": "Setter Derby token address"
      },
      "setGuardian(address)": {
        "notice": "Setter for guardian address"
      },
      "setHomeVault(address)": {
        "notice": "Setter for homeVault address"
      },
      "setLatestProtocolId(uint16,uint256)": {
        "notice": "Setter for latest protocol Id for given chainId."
      },
      "setNegativeRewardFactor(uint256)": {
        "notice": "Setter for negativeRewardFactor"
      },
      "setNegativeRewardThreshold(int256)": {
        "notice": "Setter for threshold at which user tokens will be sold / burned"
      },
      "setRebalanceInterval(uint256)": {
        "notice": "Set minimum interval for the rebalance function"
      },
      "setRebalancingState(uint256,bool)": {
        "notice": "Guardian function to set state when vault gets stuck for whatever reason"
      },
      "setVaultAddress(uint256,uint16,address)": {
        "notice": "setter to link a chainId to a vault address for cross chain functions"
      },
      "setXProvider(address)": {
        "notice": "Setter for xProvider address"
      },
      "settleRewards(uint256,uint16,int256[])": {
        "notice": "See settleRewardsInt below"
      },
      "settleRewardsGuard(uint256,uint16,int256[])": {
        "notice": "Step 8: Guardian function"
      }
    },
    "version": 1
  },
  "storageLayout": {
    "storage": [
      {
        "astId": 1071,
        "contract": "contracts/Game.sol:Game",
        "label": "_name",
        "offset": 0,
        "slot": "0",
        "type": "t_string_storage"
      },
      {
        "astId": 1073,
        "contract": "contracts/Game.sol:Game",
        "label": "_symbol",
        "offset": 0,
        "slot": "1",
        "type": "t_string_storage"
      },
      {
        "astId": 1077,
        "contract": "contracts/Game.sol:Game",
        "label": "_owners",
        "offset": 0,
        "slot": "2",
        "type": "t_mapping(t_uint256,t_address)"
      },
      {
        "astId": 1081,
        "contract": "contracts/Game.sol:Game",
        "label": "_balances",
        "offset": 0,
        "slot": "3",
        "type": "t_mapping(t_address,t_uint256)"
      },
      {
        "astId": 1085,
        "contract": "contracts/Game.sol:Game",
        "label": "_tokenApprovals",
        "offset": 0,
        "slot": "4",
        "type": "t_mapping(t_uint256,t_address)"
      },
      {
        "astId": 1091,
        "contract": "contracts/Game.sol:Game",
        "label": "_operatorApprovals",
        "offset": 0,
        "slot": "5",
        "type": "t_mapping(t_address,t_mapping(t_address,t_bool))"
      },
      {
        "astId": 10,
        "contract": "contracts/Game.sol:Game",
        "label": "_status",
        "offset": 0,
        "slot": "6",
        "type": "t_uint256"
      },
      {
        "astId": 3340,
        "contract": "contracts/Game.sol:Game",
        "label": "dao",
        "offset": 0,
        "slot": "7",
        "type": "t_address"
      },
      {
        "astId": 3342,
        "contract": "contracts/Game.sol:Game",
        "label": "guardian",
        "offset": 0,
        "slot": "8",
        "type": "t_address"
      },
      {
        "astId": 3344,
        "contract": "contracts/Game.sol:Game",
        "label": "xProvider",
        "offset": 0,
        "slot": "9",
        "type": "t_address"
      },
      {
        "astId": 3346,
        "contract": "contracts/Game.sol:Game",
        "label": "homeVault",
        "offset": 0,
        "slot": "10",
        "type": "t_address"
      },
      {
        "astId": 3349,
        "contract": "contracts/Game.sol:Game",
        "label": "controller",
        "offset": 0,
        "slot": "11",
        "type": "t_contract(IController)5796"
      },
      {
        "astId": 3352,
        "contract": "contracts/Game.sol:Game",
        "label": "derbyToken",
        "offset": 0,
        "slot": "12",
        "type": "t_contract(IERC20)703"
      },
      {
        "astId": 3354,
        "contract": "contracts/Game.sol:Game",
        "label": "latestBasketId",
        "offset": 0,
        "slot": "13",
        "type": "t_uint256"
      },
      {
        "astId": 3357,
        "contract": "contracts/Game.sol:Game",
        "label": "chainIds",
        "offset": 0,
        "slot": "14",
        "type": "t_array(t_uint16)dyn_storage"
      },
      {
        "astId": 3359,
        "contract": "contracts/Game.sol:Game",
        "label": "rebalanceInterval",
        "offset": 0,
        "slot": "15",
        "type": "t_uint256"
      },
      {
        "astId": 3361,
        "contract": "contracts/Game.sol:Game",
        "label": "lastTimeStamp",
        "offset": 0,
        "slot": "16",
        "type": "t_uint256"
      },
      {
        "astId": 3363,
        "contract": "contracts/Game.sol:Game",
        "label": "negativeRewardThreshold",
        "offset": 0,
        "slot": "17",
        "type": "t_int256"
      },
      {
        "astId": 3365,
        "contract": "contracts/Game.sol:Game",
        "label": "negativeRewardFactor",
        "offset": 0,
        "slot": "18",
        "type": "t_uint256"
      },
      {
        "astId": 3370,
        "contract": "contracts/Game.sol:Game",
        "label": "baskets",
        "offset": 0,
        "slot": "19",
        "type": "t_mapping(t_uint256,t_struct(Basket)3313_storage)"
      },
      {
        "astId": 3374,
        "contract": "contracts/Game.sol:Game",
        "label": "latestProtocolId",
        "offset": 0,
        "slot": "20",
        "type": "t_mapping(t_uint256,t_uint256)"
      },
      {
        "astId": 3379,
        "contract": "contracts/Game.sol:Game",
        "label": "vaults",
        "offset": 0,
        "slot": "21",
        "type": "t_mapping(t_uint256,t_struct(vaultInfo)3338_storage)"
      },
      {
        "astId": 3383,
        "contract": "contracts/Game.sol:Game",
        "label": "isXChainRebalancing",
        "offset": 0,
        "slot": "22",
        "type": "t_mapping(t_uint256,t_bool)"
      }
    ],
    "types": {
      "t_address": {
        "encoding": "inplace",
        "label": "address",
        "numberOfBytes": "20"
      },
      "t_array(t_uint16)dyn_storage": {
        "base": "t_uint16",
        "encoding": "dynamic_array",
        "label": "uint16[]",
        "numberOfBytes": "32"
      },
      "t_bool": {
        "encoding": "inplace",
        "label": "bool",
        "numberOfBytes": "1"
      },
      "t_contract(IController)5796": {
        "encoding": "inplace",
        "label": "contract IController",
        "numberOfBytes": "20"
      },
      "t_contract(IERC20)703": {
        "encoding": "inplace",
        "label": "contract IERC20",
        "numberOfBytes": "20"
      },
      "t_int256": {
        "encoding": "inplace",
        "label": "int256",
        "numberOfBytes": "32"
      },
      "t_mapping(t_address,t_bool)": {
        "encoding": "mapping",
        "key": "t_address",
        "label": "mapping(address => bool)",
        "numberOfBytes": "32",
        "value": "t_bool"
      },
      "t_mapping(t_address,t_mapping(t_address,t_bool))": {
        "encoding": "mapping",
        "key": "t_address",
        "label": "mapping(address => mapping(address => bool))",
        "numberOfBytes": "32",
        "value": "t_mapping(t_address,t_bool)"
      },
      "t_mapping(t_address,t_uint256)": {
        "encoding": "mapping",
        "key": "t_address",
        "label": "mapping(address => uint256)",
        "numberOfBytes": "32",
        "value": "t_uint256"
      },
      "t_mapping(t_uint16,t_address)": {
        "encoding": "mapping",
        "key": "t_uint16",
        "label": "mapping(uint16 => address)",
        "numberOfBytes": "32",
        "value": "t_address"
      },
      "t_mapping(t_uint16,t_mapping(t_uint256,t_mapping(t_uint256,t_int256)))": {
        "encoding": "mapping",
        "key": "t_uint16",
        "label": "mapping(uint16 => mapping(uint256 => mapping(uint256 => int256)))",
        "numberOfBytes": "32",
        "value": "t_mapping(t_uint256,t_mapping(t_uint256,t_int256))"
      },
      "t_mapping(t_uint256,t_address)": {
        "encoding": "mapping",
        "key": "t_uint256",
        "label": "mapping(uint256 => address)",
        "numberOfBytes": "32",
        "value": "t_address"
      },
      "t_mapping(t_uint256,t_bool)": {
        "encoding": "mapping",
        "key": "t_uint256",
        "label": "mapping(uint256 => bool)",
        "numberOfBytes": "32",
        "value": "t_bool"
      },
      "t_mapping(t_uint256,t_int256)": {
        "encoding": "mapping",
        "key": "t_uint256",
        "label": "mapping(uint256 => int256)",
        "numberOfBytes": "32",
        "value": "t_int256"
      },
      "t_mapping(t_uint256,t_mapping(t_uint256,t_int256))": {
        "encoding": "mapping",
        "key": "t_uint256",
        "label": "mapping(uint256 => mapping(uint256 => int256))",
        "numberOfBytes": "32",
        "value": "t_mapping(t_uint256,t_int256)"
      },
      "t_mapping(t_uint256,t_struct(Basket)3313_storage)": {
        "encoding": "mapping",
        "key": "t_uint256",
        "label": "mapping(uint256 => struct Game.Basket)",
        "numberOfBytes": "32",
        "value": "t_struct(Basket)3313_storage"
      },
      "t_mapping(t_uint256,t_struct(vaultInfo)3338_storage)": {
        "encoding": "mapping",
        "key": "t_uint256",
        "label": "mapping(uint256 => struct Game.vaultInfo)",
        "numberOfBytes": "32",
        "value": "t_struct(vaultInfo)3338_storage"
      },
      "t_mapping(t_uint256,t_uint256)": {
        "encoding": "mapping",
        "key": "t_uint256",
        "label": "mapping(uint256 => uint256)",
        "numberOfBytes": "32",
        "value": "t_uint256"
      },
      "t_string_storage": {
        "encoding": "bytes",
        "label": "string",
        "numberOfBytes": "32"
      },
      "t_struct(Basket)3313_storage": {
        "encoding": "inplace",
        "label": "struct Game.Basket",
        "members": [
          {
            "astId": 3298,
            "contract": "contracts/Game.sol:Game",
            "label": "vaultNumber",
            "offset": 0,
            "slot": "0",
            "type": "t_uint256"
          },
          {
            "astId": 3300,
            "contract": "contracts/Game.sol:Game",
            "label": "lastRebalancingPeriod",
            "offset": 0,
            "slot": "1",
            "type": "t_uint256"
          },
          {
            "astId": 3302,
            "contract": "contracts/Game.sol:Game",
            "label": "nrOfAllocatedTokens",
            "offset": 0,
            "slot": "2",
            "type": "t_int256"
          },
          {
            "astId": 3304,
            "contract": "contracts/Game.sol:Game",
            "label": "totalUnRedeemedRewards",
            "offset": 0,
            "slot": "3",
            "type": "t_int256"
          },
          {
            "astId": 3306,
            "contract": "contracts/Game.sol:Game",
            "label": "totalRedeemedRewards",
            "offset": 0,
            "slot": "4",
            "type": "t_int256"
          },
          {
            "astId": 3312,
            "contract": "contracts/Game.sol:Game",
            "label": "allocations",
            "offset": 0,
            "slot": "5",
            "type": "t_mapping(t_uint256,t_mapping(t_uint256,t_int256))"
          }
        ],
        "numberOfBytes": "192"
      },
      "t_struct(vaultInfo)3338_storage": {
        "encoding": "inplace",
        "label": "struct Game.vaultInfo",
        "members": [
          {
            "astId": 3315,
            "contract": "contracts/Game.sol:Game",
            "label": "rebalancingPeriod",
            "offset": 0,
            "slot": "0",
            "type": "t_uint256"
          },
          {
            "astId": 3319,
            "contract": "contracts/Game.sol:Game",
            "label": "vaultAddress",
            "offset": 0,
            "slot": "1",
            "type": "t_mapping(t_uint16,t_address)"
          },
          {
            "astId": 3323,
            "contract": "contracts/Game.sol:Game",
            "label": "deltaAllocationChain",
            "offset": 0,
            "slot": "2",
            "type": "t_mapping(t_uint256,t_int256)"
          },
          {
            "astId": 3329,
            "contract": "contracts/Game.sol:Game",
            "label": "deltaAllocationProtocol",
            "offset": 0,
            "slot": "3",
            "type": "t_mapping(t_uint256,t_mapping(t_uint256,t_int256))"
          },
          {
            "astId": 3337,
            "contract": "contracts/Game.sol:Game",
            "label": "rewardPerLockedToken",
            "offset": 0,
            "slot": "4",
            "type": "t_mapping(t_uint16,t_mapping(t_uint256,t_mapping(t_uint256,t_int256)))"
          }
        ],
        "numberOfBytes": "160"
      },
      "t_uint16": {
        "encoding": "inplace",
        "label": "uint16",
        "numberOfBytes": "2"
      },
      "t_uint256": {
        "encoding": "inplace",
        "label": "uint256",
        "numberOfBytes": "32"
      }
    }
  }
}