{
  "address": "0x124dDf9BdD2DdaD012ef1D5bBd77c00F05C610DA",
  "abi": [
    {
      "inputs": [
        {
          "internalType": "address",
          "name": "_address",
          "type": "address"
        },
        {
          "internalType": "address",
          "name": "_iToken",
          "type": "address"
        }
      ],
      "name": "balance",
      "outputs": [
        {
          "internalType": "uint256",
          "name": "",
          "type": "uint256"
        }
      ],
      "stateMutability": "view",
      "type": "function"
    },
    {
      "inputs": [
        {
          "internalType": "address",
          "name": "_address",
          "type": "address"
        },
        {
          "internalType": "address",
          "name": "_iToken",
          "type": "address"
        }
      ],
      "name": "balanceUnderlying",
      "outputs": [
        {
          "internalType": "uint256",
          "name": "",
          "type": "uint256"
        }
      ],
      "stateMutability": "view",
      "type": "function"
    },
    {
      "inputs": [
        {
          "internalType": "uint256",
          "name": "_amount",
          "type": "uint256"
        },
        {
          "internalType": "address",
          "name": "_iToken",
          "type": "address"
        }
      ],
      "name": "calcShares",
      "outputs": [
        {
          "internalType": "uint256",
          "name": "",
          "type": "uint256"
        }
      ],
      "stateMutability": "view",
      "type": "function"
    },
    {
      "inputs": [
        {
          "internalType": "address",
          "name": "_iToken",
          "type": "address"
        },
        {
          "internalType": "address",
          "name": "_claimer",
          "type": "address"
        }
      ],
      "name": "claim",
      "outputs": [
        {
          "internalType": "bool",
          "name": "",
          "type": "bool"
        }
      ],
      "stateMutability": "nonpayable",
      "type": "function"
    },
    {
      "inputs": [
        {
          "internalType": "uint256",
          "name": "_amount",
          "type": "uint256"
        },
        {
          "internalType": "address",
          "name": "_iToken",
          "type": "address"
        },
        {
          "internalType": "address",
          "name": "_uToken",
          "type": "address"
        }
      ],
      "name": "deposit",
      "outputs": [
        {
          "internalType": "uint256",
          "name": "",
          "type": "uint256"
        }
      ],
      "stateMutability": "nonpayable",
      "type": "function"
    },
    {
      "inputs": [
        {
          "internalType": "address",
          "name": "_iToken",
          "type": "address"
        }
      ],
      "name": "exchangeRate",
      "outputs": [
        {
          "internalType": "uint256",
          "name": "",
          "type": "uint256"
        }
      ],
      "stateMutability": "view",
      "type": "function"
    },
    {
      "inputs": [
        {
          "internalType": "uint256",
          "name": "_amount",
          "type": "uint256"
        },
        {
          "internalType": "address",
          "name": "_iToken",
          "type": "address"
        },
        {
          "internalType": "address",
          "name": "_uToken",
          "type": "address"
        }
      ],
      "name": "withdraw",
      "outputs": [
        {
          "internalType": "uint256",
          "name": "",
          "type": "uint256"
        }
      ],
      "stateMutability": "nonpayable",
      "type": "function"
    }
  ],
  "transactionHash": "0x418252a9565d5192d4aa43e7f0467ac1a824bda33bfcd8e58378b1407df33373",
  "args": [],
  "numDeployments": 1,
  "solcInputHash": "f36883ec729d1e04bc40ae905edf2016",
  "bytecode": "0x608060405234801561001057600080fd5b5061121d806100206000396000f3fe608060405234801561001057600080fd5b506004361061006d5760003560e01c806321c0b342146100725780632e2d29841461009d5780635cbc09d1146100be578063b203bb99146100d1578063b460af94146100e4578063dc3b7c8b146100f7578063e71325991461010a575b600080fd5b610088610080366004610e6d565b600092915050565b60405190151581526020015b60405180910390f35b6100b06100ab366004610ea6565b61011d565b604051908152602001610094565b6100b06100cc366004610e6d565b61047f565b6100b06100df366004610e6d565b610590565b6100b06100f2366004610ea6565b610600565b6100b0610105366004610ee8565b61097e565b6100b0610118366004610f05565b6109e2565b600080826001600160a01b03166370a08231306040518263ffffffff1660e01b815260040161014c9190610f2a565b602060405180830381865afa158015610169573d6000803e3d6000fd5b505050506040513d601f19601f8201168201806040525081019061018d9190610f3e565b90506101a46001600160a01b038416333088610ae0565b6101b86001600160a01b0384168587610b3e565b6040516370a0823160e01b81526000906001600160a01b038516906370a08231906101e7903090600401610f2a565b602060405180830381865afa158015610204573d6000803e3d6000fd5b505050506040513d601f19601f820116820180604052508101906102289190610f3e565b9050856102358383610f6d565b61023f9190610f6d565b156102915760405162461bcd60e51b815260206004820152601d60248201527f4572726f72204465706f7369743a20756e6465722f6f766572666c6f7700000060448201526064015b60405180910390fd5b6040516370a0823160e01b81526000906001600160a01b038716906370a08231906102c0903090600401610f2a565b602060405180830381865afa1580156102dd573d6000803e3d6000fd5b505050506040513d601f19601f820116820180604052508101906103019190610f3e565b604051632befabbf60e01b81526004810189905260016024820152600060448201529091506001600160a01b03871690632befabbf906064016020604051808303816000875af1158015610359573d6000803e3d6000fd5b505050506040513d601f19601f8201168201806040525081019061037d9190610f3e565b506040516370a0823160e01b81526000906001600160a01b038816906370a08231906103ad903090600401610f2a565b602060405180830381865afa1580156103ca573d6000803e3d6000fd5b505050506040513d601f19601f820116820180604052508101906103ee9190610f3e565b905060006103fc8383610f6d565b60405163a9059cbb60e01b81529091506001600160a01b0389169063a9059cbb9061042d9033908590600401610f84565b6020604051808303816000875af115801561044c573d6000803e3d6000fd5b505050506040513d601f19601f820116820180604052508101906104709190610f9d565b509450505050505b9392505050565b60008061048c8484610590565b905060006104998461097e565b90506000846001600160a01b031663fc0c546a6040518163ffffffff1660e01b8152600401602060405180830381865afa1580156104db573d6000803e3d6000fd5b505050506040513d601f19601f820116820180604052508101906104ff9190610fbf565b6001600160a01b031663313ce5676040518163ffffffff1660e01b8152600401602060405180830381865afa15801561053c573d6000803e3d6000fd5b505050506040513d601f19601f820116820180604052508101906105609190610fdc565b60ff16905061057081600a6110e3565b61057a83856110ef565b610584919061110e565b93505050505b92915050565b6040516370a0823160e01b81526000906001600160a01b038316906370a08231906105bf908690600401610f2a565b602060405180830381865afa1580156105dc573d6000803e3d6000fd5b505050506040513d601f19601f820116820180604052508101906104789190610f3e565b600080826001600160a01b03166370a08231336040518263ffffffff1660e01b815260040161062f9190610f2a565b602060405180830381865afa15801561064c573d6000803e3d6000fd5b505050506040513d601f19601f820116820180604052508101906106709190610f3e565b90506000836001600160a01b03166370a08231306040518263ffffffff1660e01b81526004016106a09190610f2a565b602060405180830381865afa1580156106bd573d6000803e3d6000fd5b505050506040513d601f19601f820116820180604052508101906106e19190610f3e565b6040516323b872dd60e01b81529091506001600160a01b038616906323b872dd9061071490339030908b90600401611130565b6020604051808303816000875af1158015610733573d6000803e3d6000fd5b505050506040513d601f19601f820116820180604052508101906107579190610f9d565b151560011461079e5760405162461bcd60e51b81526020600482015260136024820152724572726f723a207472616e7366657246726f6d60681b6044820152606401610288565b6040516345985a8b60e11b8152600481018790526001600160a01b03861690638b30b516906024016020604051808303816000875af11580156107e5573d6000803e3d6000fd5b505050506040513d601f19601f820116820180604052508101906108099190610f3e565b506040516370a0823160e01b81526000906001600160a01b038616906370a0823190610839903090600401610f2a565b602060405180830381865afa158015610856573d6000803e3d6000fd5b505050506040513d601f19601f8201168201806040525081019061087a9190610f3e565b905060006108888383610f6d565b905061089e6001600160a01b0387163383610bde565b6040516370a0823160e01b81526000906001600160a01b038816906370a08231906108cd903390600401610f2a565b602060405180830381865afa1580156108ea573d6000803e3d6000fd5b505050506040513d601f19601f8201168201806040525081019061090e9190610f3e565b90508161091b8683610f6d565b6109259190610f6d565b156109725760405162461bcd60e51b815260206004820152601e60248201527f4572726f722057697468647261773a20756e6465722f6f766572666c6f7700006044820152606401610288565b50979650505050505050565b6000816001600160a01b0316637ff9b5966040518163ffffffff1660e01b8152600401602060405180830381865afa1580156109be573d6000803e3d6000fd5b505050506040513d601f19601f8201168201806040525081019061058a9190610f3e565b600080826001600160a01b031663fc0c546a6040518163ffffffff1660e01b8152600401602060405180830381865afa158015610a23573d6000803e3d6000fd5b505050506040513d601f19601f82011682018060405250810190610a479190610fbf565b6001600160a01b031663313ce5676040518163ffffffff1660e01b8152600401602060405180830381865afa158015610a84573d6000803e3d6000fd5b505050506040513d601f19601f82011682018060405250810190610aa89190610fdc565b60ff1690506000610ab88461097e565b610ac383600a6110e3565b610acd90876110ef565b610ad7919061110e565b95945050505050565b610b38846323b872dd60e01b858585604051602401610b0193929190611130565b60408051601f198184030181529190526020810180516001600160e01b03166001600160e01b031990931692909217909152610c02565b50505050565b604051636eb1769f60e11b81523060048201526001600160a01b038381166024830152600091839186169063dd62ed3e90604401602060405180830381865afa158015610b8f573d6000803e3d6000fd5b505050506040513d601f19601f82011682018060405250810190610bb39190610f3e565b610bbd9190611154565b9050610b388463095ea7b360e01b8584604051602401610b01929190610f84565b610bfd8363a9059cbb60e01b8484604051602401610b01929190610f84565b505050565b6000610c57826040518060400160405280602081526020017f5361666545524332303a206c6f772d6c6576656c2063616c6c206661696c6564815250856001600160a01b0316610cd49092919063ffffffff16565b805190915015610bfd5780806020019051810190610c759190610f9d565b610bfd5760405162461bcd60e51b815260206004820152602a60248201527f5361666545524332303a204552433230206f7065726174696f6e20646964206e6044820152691bdd081cdd58d8d9595960b21b6064820152608401610288565b6060610ce38484600085610ceb565b949350505050565b606082471015610d4c5760405162461bcd60e51b815260206004820152602660248201527f416464726573733a20696e73756666696369656e742062616c616e636520666f6044820152651c8818d85b1b60d21b6064820152608401610288565b6001600160a01b0385163b610da35760405162461bcd60e51b815260206004820152601d60248201527f416464726573733a2063616c6c20746f206e6f6e2d636f6e74726163740000006044820152606401610288565b600080866001600160a01b03168587604051610dbf9190611198565b60006040518083038185875af1925050503d8060008114610dfc576040519150601f19603f3d011682016040523d82523d6000602084013e610e01565b606091505b5091509150610e11828286610e1c565b979650505050505050565b60608315610e2b575081610478565b825115610e3b5782518084602001fd5b8160405162461bcd60e51b815260040161028891906111b4565b6001600160a01b0381168114610e6a57600080fd5b50565b60008060408385031215610e8057600080fd5b8235610e8b81610e55565b91506020830135610e9b81610e55565b809150509250929050565b600080600060608486031215610ebb57600080fd5b833592506020840135610ecd81610e55565b91506040840135610edd81610e55565b809150509250925092565b600060208284031215610efa57600080fd5b813561047881610e55565b60008060408385031215610f1857600080fd5b823591506020830135610e9b81610e55565b6001600160a01b0391909116815260200190565b600060208284031215610f5057600080fd5b5051919050565b634e487b7160e01b600052601160045260246000fd5b600082821015610f7f57610f7f610f57565b500390565b6001600160a01b03929092168252602082015260400190565b600060208284031215610faf57600080fd5b8151801515811461047857600080fd5b600060208284031215610fd157600080fd5b815161047881610e55565b600060208284031215610fee57600080fd5b815160ff8116811461047857600080fd5b600181815b8085111561103a57816000190482111561102057611020610f57565b8085161561102d57918102915b93841c9390800290611004565b509250929050565b6000826110515750600161058a565b8161105e5750600061058a565b8160018114611074576002811461107e5761109a565b600191505061058a565b60ff84111561108f5761108f610f57565b50506001821b61058a565b5060208310610133831016604e8410600b84101617156110bd575081810a61058a565b6110c78383610fff565b80600019048211156110db576110db610f57565b029392505050565b60006104788383611042565b600081600019048311821515161561110957611109610f57565b500290565b60008261112b57634e487b7160e01b600052601260045260246000fd5b500490565b6001600160a01b039384168152919092166020820152604081019190915260600190565b6000821982111561116757611167610f57565b500190565b60005b8381101561118757818101518382015260200161116f565b83811115610b385750506000910152565b600082516111aa81846020870161116c565b9190910192915050565b60208152600082518060208401526111d381604085016020870161116c565b601f01601f1916919091016040019291505056fea26469706673582212204deb651faa9899b41255c3000b97289d7874a6fef071fafec16d62a45b0f83a164736f6c634300080b0033",
  "devdoc": {
    "kind": "dev",
    "methods": {
      "balance(address,address)": {
        "params": {
          "_address": "Address to request balance from",
          "_iToken": "Address of protocol LP Token eg cUSDC"
        },
        "returns": {
          "_0": "number of shares i.e LP tokens"
        }
      },
      "balanceUnderlying(address,address)": {
        "details": "balance = poolvalue * shares / totalsupply",
        "params": {
          "_address": "Address to request balance from, most likely an Vault",
          "_iToken": "Address of protocol LP Token eg cUSDC"
        },
        "returns": {
          "_0": "balance in underlying token"
        }
      },
      "calcShares(uint256,address)": {
        "details": "shares = totalsupply * balance / poolvalue",
        "params": {
          "_amount": "Amount in underyling token e.g USDC",
          "_iToken": "Address of protocol LP Token eg cUSDC"
        },
        "returns": {
          "_0": "number of shares i.e LP tokens"
        }
      },
      "deposit(uint256,address,address)": {
        "details": "Pulls underlying asset from Vault, deposit them in Idle, send tTokens back.",
        "params": {
          "_amount": "Amount to deposit",
          "_iToken": "Address of protocol LP Token eg cUSDC",
          "_uToken": "Address of underlying Token eg USDC"
        },
        "returns": {
          "_0": "Tokens received and sent to vault"
        }
      },
      "exchangeRate(address)": {
        "params": {
          "_iToken": "Address of protocol LP Token eg yUSDC"
        },
        "returns": {
          "_0": "price of LP token"
        }
      },
      "withdraw(uint256,address,address)": {
        "details": "Pulls tTokens from Vault, redeem them from Idle, send underlying back.",
        "params": {
          "_amount": "Amount to withdraw",
          "_iToken": "Address of protocol LP Token eg cUSDC",
          "_uToken": "Address of underlying Token eg USDC"
        },
        "returns": {
          "_0": "Underlying tokens received and sent to vault e.g USDC"
        }
      }
    },
    "version": 1
  },
  "userdoc": {
    "kind": "user",
    "methods": {
      "balance(address,address)": {
        "notice": "Get balance of cToken from address"
      },
      "balanceUnderlying(address,address)": {
        "notice": "Get balance from address in underlying token"
      },
      "calcShares(uint256,address)": {
        "notice": "Calculates how many shares are equal to the amount"
      },
      "deposit(uint256,address,address)": {
        "notice": "Deposit the underlying asset in Idle"
      },
      "exchangeRate(address)": {
        "notice": "Exchange rate of underyling protocol token"
      },
      "withdraw(uint256,address,address)": {
        "notice": "Withdraw the underlying asset from Idle"
      }
    },
    "version": 1
  },
  "storageLayout": {
    "storage": [],
    "types": null
  }
}