{
  "address": "0x20d7B364E8Ed1F4260b5B90C41c2deC3C1F6D367",
  "abi": [
    {
      "inputs": [
        {
          "internalType": "address",
          "name": "_address",
          "type": "address"
        },
        {
          "internalType": "address",
          "name": "_tToken",
          "type": "address"
        }
      ],
      "name": "balance",
      "outputs": [
        {
          "internalType": "uint256",
          "name": "",
          "type": "uint256"
        }
      ],
      "stateMutability": "view",
      "type": "function"
    },
    {
      "inputs": [
        {
          "internalType": "address",
          "name": "_address",
          "type": "address"
        },
        {
          "internalType": "address",
          "name": "_tToken",
          "type": "address"
        }
      ],
      "name": "balanceUnderlying",
      "outputs": [
        {
          "internalType": "uint256",
          "name": "",
          "type": "uint256"
        }
      ],
      "stateMutability": "view",
      "type": "function"
    },
    {
      "inputs": [
        {
          "internalType": "uint256",
          "name": "_amount",
          "type": "uint256"
        },
        {
          "internalType": "address",
          "name": "_tToken",
          "type": "address"
        }
      ],
      "name": "calcShares",
      "outputs": [
        {
          "internalType": "uint256",
          "name": "",
          "type": "uint256"
        }
      ],
      "stateMutability": "view",
      "type": "function"
    },
    {
      "inputs": [
        {
          "internalType": "address",
          "name": "_tToken",
          "type": "address"
        },
        {
          "internalType": "address",
          "name": "_claimer",
          "type": "address"
        }
      ],
      "name": "claim",
      "outputs": [
        {
          "internalType": "bool",
          "name": "",
          "type": "bool"
        }
      ],
      "stateMutability": "nonpayable",
      "type": "function"
    },
    {
      "inputs": [
        {
          "internalType": "uint256",
          "name": "_amount",
          "type": "uint256"
        },
        {
          "internalType": "address",
          "name": "_tToken",
          "type": "address"
        },
        {
          "internalType": "address",
          "name": "_uToken",
          "type": "address"
        }
      ],
      "name": "deposit",
      "outputs": [
        {
          "internalType": "uint256",
          "name": "",
          "type": "uint256"
        }
      ],
      "stateMutability": "nonpayable",
      "type": "function"
    },
    {
      "inputs": [
        {
          "internalType": "address",
          "name": "_tToken",
          "type": "address"
        }
      ],
      "name": "exchangeRate",
      "outputs": [
        {
          "internalType": "uint256",
          "name": "",
          "type": "uint256"
        }
      ],
      "stateMutability": "view",
      "type": "function"
    },
    {
      "inputs": [
        {
          "internalType": "uint256",
          "name": "_amount",
          "type": "uint256"
        },
        {
          "internalType": "address",
          "name": "_tToken",
          "type": "address"
        },
        {
          "internalType": "address",
          "name": "_uToken",
          "type": "address"
        }
      ],
      "name": "withdraw",
      "outputs": [
        {
          "internalType": "uint256",
          "name": "",
          "type": "uint256"
        }
      ],
      "stateMutability": "nonpayable",
      "type": "function"
    }
  ],
  "transactionHash": "0x24821ee526a3464000d911b069655ebdeea2e83b6effedab4ddc5c4d1c3bdbdd",
  "args": [],
  "numDeployments": 1,
  "solcInputHash": "f987a020c854af057aeb38d6938caa4d",
  "bytecode": "0x608060405234801561001057600080fd5b50611081806100206000396000f3fe608060405234801561001057600080fd5b506004361061006d5760003560e01c806321c0b342146100725780632e2d29841461009d5780635cbc09d1146100be578063b203bb99146100d1578063b460af94146100e4578063dc3b7c8b146100f7578063e71325991461010a575b600080fd5b610088610080366004610e11565b600092915050565b60405190151581526020015b60405180910390f35b6100b06100ab366004610e44565b61011d565b604051908152602001610094565b6100b06100cc366004610e11565b61045f565b6100b06100df366004610e11565b610552565b6100b06100f2366004610e44565b6105c2565b6100b0610105366004610e80565b61092e565b6100b0610118366004610e9b565b610a1b565b600080826001600160a01b03166370a08231306040518263ffffffff1660e01b815260040161014c9190610ebe565b602060405180830381865afa158015610169573d6000803e3d6000fd5b505050506040513d601f19601f8201168201806040525081019061018d9190610ed2565b90506101a46001600160a01b038416333088610aed565b6101b86001600160a01b0384168587610b4b565b6040516370a0823160e01b81526000906001600160a01b038516906370a08231906101e7903090600401610ebe565b602060405180830381865afa158015610204573d6000803e3d6000fd5b505050506040513d601f19601f820116820180604052508101906102289190610ed2565b9050856102358383610f01565b61023f9190610f01565b156102915760405162461bcd60e51b815260206004820152601d60248201527f4572726f72204465706f7369743a20756e6465722f6f766572666c6f7700000060448201526064015b60405180910390fd5b6040516370a0823160e01b81526000906001600160a01b038716906370a08231906102c0903090600401610ebe565b602060405180830381865afa1580156102dd573d6000803e3d6000fd5b505050506040513d601f19601f820116820180604052508101906103019190610ed2565b60405163049878f360e01b8152600481018990529091506001600160a01b0387169063049878f390602401600060405180830381600087803b15801561034657600080fd5b505af115801561035a573d6000803e3d6000fd5b50506040516370a0823160e01b8152600092506001600160a01b03891691506370a082319061038d903090600401610ebe565b602060405180830381865afa1580156103aa573d6000803e3d6000fd5b505050506040513d601f19601f820116820180604052508101906103ce9190610ed2565b905060006103dc8383610f01565b60405163a9059cbb60e01b81529091506001600160a01b0389169063a9059cbb9061040d9033908590600401610f18565b6020604051808303816000875af115801561042c573d6000803e3d6000fd5b505050506040513d601f19601f820116820180604052508101906104509190610f31565b509450505050505b9392505050565b60008061046c8484610552565b90506000836001600160a01b03166318160ddd6040518163ffffffff1660e01b8152600401602060405180830381865afa1580156104ae573d6000803e3d6000fd5b505050506040513d601f19601f820116820180604052508101906104d29190610ed2565b82856001600160a01b031663b86150716040518163ffffffff1660e01b8152600401602060405180830381865afa158015610511573d6000803e3d6000fd5b505050506040513d601f19601f820116820180604052508101906105359190610ed2565b61053f9190610f53565b6105499190610f72565b95945050505050565b6040516370a0823160e01b81526000906001600160a01b038316906370a0823190610581908690600401610ebe565b602060405180830381865afa15801561059e573d6000803e3d6000fd5b505050506040513d601f19601f820116820180604052508101906104589190610ed2565b600080826001600160a01b03166370a08231336040518263ffffffff1660e01b81526004016105f19190610ebe565b602060405180830381865afa15801561060e573d6000803e3d6000fd5b505050506040513d601f19601f820116820180604052508101906106329190610ed2565b90506000836001600160a01b03166370a08231306040518263ffffffff1660e01b81526004016106629190610ebe565b602060405180830381865afa15801561067f573d6000803e3d6000fd5b505050506040513d601f19601f820116820180604052508101906106a39190610ed2565b6040516323b872dd60e01b81529091506001600160a01b038616906323b872dd906106d690339030908b90600401610f94565b6020604051808303816000875af11580156106f5573d6000803e3d6000fd5b505050506040513d601f19601f820116820180604052508101906107199190610f31565b15156001146107605760405162461bcd60e51b81526020600482015260136024820152724572726f723a207472616e7366657246726f6d60681b6044820152606401610288565b60405163438292f960e01b8152600481018790526001600160a01b0386169063438292f990602401600060405180830381600087803b1580156107a257600080fd5b505af11580156107b6573d6000803e3d6000fd5b50506040516370a0823160e01b8152600092506001600160a01b03871691506370a08231906107e9903090600401610ebe565b602060405180830381865afa158015610806573d6000803e3d6000fd5b505050506040513d601f19601f8201168201806040525081019061082a9190610ed2565b905060006108388383610f01565b905061084e6001600160a01b0387163383610beb565b6040516370a0823160e01b81526000906001600160a01b038816906370a082319061087d903390600401610ebe565b602060405180830381865afa15801561089a573d6000803e3d6000fd5b505050506040513d601f19601f820116820180604052508101906108be9190610ed2565b9050816108cb8683610f01565b6108d59190610f01565b156109225760405162461bcd60e51b815260206004820152601e60248201527f4572726f722057697468647261773a20756e6465722f6f766572666c6f7700006044820152606401610288565b50979650505050505050565b600080826001600160a01b031663b86150716040518163ffffffff1660e01b8152600401602060405180830381865afa15801561096f573d6000803e3d6000fd5b505050506040513d601f19601f820116820180604052508101906109939190610ed2565b90506000836001600160a01b03166318160ddd6040518163ffffffff1660e01b8152600401602060405180830381865afa1580156109d5573d6000803e3d6000fd5b505050506040513d601f19601f820116820180604052508101906109f99190610ed2565b905080610a0983620f4240610f53565b610a139190610f72565b949350505050565b600080826001600160a01b031663b86150716040518163ffffffff1660e01b8152600401602060405180830381865afa158015610a5c573d6000803e3d6000fd5b505050506040513d601f19601f82011682018060405250810190610a809190610ed2565b84846001600160a01b03166318160ddd6040518163ffffffff1660e01b8152600401602060405180830381865afa158015610abf573d6000803e3d6000fd5b505050506040513d601f19601f82011682018060405250810190610ae39190610ed2565b610a099190610f53565b610b45846323b872dd60e01b858585604051602401610b0e93929190610f94565b60408051601f198184030181529190526020810180516001600160e01b03166001600160e01b031990931692909217909152610c0f565b50505050565b604051636eb1769f60e11b81523060048201526001600160a01b038381166024830152600091839186169063dd62ed3e90604401602060405180830381865afa158015610b9c573d6000803e3d6000fd5b505050506040513d601f19601f82011682018060405250810190610bc09190610ed2565b610bca9190610fb8565b9050610b458463095ea7b360e01b8584604051602401610b0e929190610f18565b610c0a8363a9059cbb60e01b8484604051602401610b0e929190610f18565b505050565b6000610c64826040518060400160405280602081526020017f5361666545524332303a206c6f772d6c6576656c2063616c6c206661696c6564815250856001600160a01b0316610ce19092919063ffffffff16565b805190915015610c0a5780806020019051810190610c829190610f31565b610c0a5760405162461bcd60e51b815260206004820152602a60248201527f5361666545524332303a204552433230206f7065726174696f6e20646964206e6044820152691bdd081cdd58d8d9595960b21b6064820152608401610288565b6060610a138484600085856001600160a01b0385163b610d435760405162461bcd60e51b815260206004820152601d60248201527f416464726573733a2063616c6c20746f206e6f6e2d636f6e74726163740000006044820152606401610288565b600080866001600160a01b03168587604051610d5f9190610ffc565b60006040518083038185875af1925050503d8060008114610d9c576040519150601f19603f3d011682016040523d82523d6000602084013e610da1565b606091505b5091509150610db1828286610dbc565b979650505050505050565b60608315610dcb575081610458565b825115610ddb5782518084602001fd5b8160405162461bcd60e51b81526004016102889190611018565b80356001600160a01b0381168114610e0c57600080fd5b919050565b60008060408385031215610e2457600080fd5b610e2d83610df5565b9150610e3b60208401610df5565b90509250929050565b600080600060608486031215610e5957600080fd5b83359250610e6960208501610df5565b9150610e7760408501610df5565b90509250925092565b600060208284031215610e9257600080fd5b61045882610df5565b60008060408385031215610eae57600080fd5b82359150610e3b60208401610df5565b6001600160a01b0391909116815260200190565b600060208284031215610ee457600080fd5b5051919050565b634e487b7160e01b600052601160045260246000fd5b600082821015610f1357610f13610eeb565b500390565b6001600160a01b03929092168252602082015260400190565b600060208284031215610f4357600080fd5b8151801515811461045857600080fd5b6000816000190483118215151615610f6d57610f6d610eeb565b500290565b600082610f8f57634e487b7160e01b600052601260045260246000fd5b500490565b6001600160a01b039384168152919092166020820152604081019190915260600190565b60008219821115610fcb57610fcb610eeb565b500190565b60005b83811015610feb578181015183820152602001610fd3565b83811115610b455750506000910152565b6000825161100e818460208701610fd0565b9190910192915050565b6020815260008251806020840152611037816040850160208701610fd0565b601f01601f1916919091016040019291505056fea26469706673582212203451300dc8e210b157eb2e11b1b6259254a7515087ded8a82d66d0d461451c2c64736f6c634300080b0033",
  "devdoc": {
    "kind": "dev",
    "methods": {
      "balance(address,address)": {
        "params": {
          "_address": "Address to request balance from",
          "_tToken": "Address of protocol LP Token eg cUSDC"
        },
        "returns": {
          "_0": "number of shares i.e LP tokens"
        }
      },
      "balanceUnderlying(address,address)": {
        "details": "balance = poolvalue * shares / totalsupply",
        "params": {
          "_address": "Address to request balance from, most likely an Vault",
          "_tToken": "Address of protocol LP Token eg cUSDC"
        },
        "returns": {
          "_0": "balance in underlying token"
        }
      },
      "calcShares(uint256,address)": {
        "details": "shares = totalsupply * balance / poolvalue",
        "params": {
          "_amount": "Amount in underyling token e.g USDC",
          "_tToken": "Address of protocol LP Token eg cUSDC"
        },
        "returns": {
          "_0": "number of shares i.e LP tokens"
        }
      },
      "deposit(uint256,address,address)": {
        "details": "Pulls underlying asset from Vault, deposit them in TrueFi, send tTokens back.",
        "params": {
          "_amount": "Amount to deposit",
          "_tToken": "Address of protocol LP Token eg cUSDC",
          "_uToken": "Address of underlying Token eg USDC"
        },
        "returns": {
          "_0": "Tokens received and sent to vault"
        }
      },
      "exchangeRate(address)": {
        "details": "returned price from compound is scaled by 1e18",
        "params": {
          "_tToken": "Address of protocol LP Token eg cUSDC"
        },
        "returns": {
          "_0": "price of LP token"
        }
      },
      "withdraw(uint256,address,address)": {
        "details": "Pulls tTokens from Vault, redeem them from TrueFi, send underlying back.",
        "params": {
          "_amount": "Amount to withdraw",
          "_tToken": "Address of protocol LP Token eg cUSDC",
          "_uToken": "Address of underlying Token eg USDC"
        },
        "returns": {
          "_0": "Underlying tokens received and sent to vault e.g USDC"
        }
      }
    },
    "version": 1
  },
  "userdoc": {
    "kind": "user",
    "methods": {
      "balance(address,address)": {
        "notice": "Get balance of cToken from address"
      },
      "balanceUnderlying(address,address)": {
        "notice": "Get balance from address in underlying token"
      },
      "calcShares(uint256,address)": {
        "notice": "Calculates how many shares are equal to the amount"
      },
      "deposit(uint256,address,address)": {
        "notice": "Deposit the underlying asset in TrueFi"
      },
      "exchangeRate(address)": {
        "notice": "Exchange rate of underyling protocol token"
      },
      "withdraw(uint256,address,address)": {
        "notice": "Withdraw the underlying asset from TrueFi"
      }
    },
    "version": 1
  },
  "storageLayout": {
    "storage": [],
    "types": null
  }
}