{
  "address": "0x707531c9999AaeF9232C8FEfBA31FBa4cB78d84a",
  "abi": [
    {
      "inputs": [
        {
          "internalType": "address",
          "name": "_game",
          "type": "address"
        },
        {
          "internalType": "address",
          "name": "_dao",
          "type": "address"
        },
        {
          "internalType": "address",
          "name": "_guardian",
          "type": "address"
        },
        {
          "internalType": "uint16",
          "name": "_homeChain",
          "type": "uint16"
        }
      ],
      "stateMutability": "nonpayable",
      "type": "constructor"
    },
    {
      "anonymous": false,
      "inputs": [
        {
          "indexed": false,
          "internalType": "address",
          "name": "_vault",
          "type": "address"
        },
        {
          "indexed": false,
          "internalType": "uint16",
          "name": "_chainId",
          "type": "uint16"
        },
        {
          "indexed": false,
          "internalType": "uint256",
          "name": "_amountToSendXChain",
          "type": "uint256"
        },
        {
          "indexed": false,
          "internalType": "uint256",
          "name": "_exchangeRate",
          "type": "uint256"
        }
      ],
      "name": "SendXChainAmount",
      "type": "event"
    },
    {
      "anonymous": false,
      "inputs": [
        {
          "indexed": false,
          "internalType": "address",
          "name": "_vault",
          "type": "address"
        },
        {
          "indexed": false,
          "internalType": "uint16",
          "name": "_chainId",
          "type": "uint16"
        },
        {
          "indexed": false,
          "internalType": "uint256",
          "name": "_amount",
          "type": "uint256"
        },
        {
          "indexed": false,
          "internalType": "address",
          "name": "_asset",
          "type": "address"
        }
      ],
      "name": "SentFundsToVault",
      "type": "event"
    },
    {
      "inputs": [
        {
          "internalType": "uint256",
          "name": "",
          "type": "uint256"
        }
      ],
      "name": "chainIds",
      "outputs": [
        {
          "internalType": "uint16",
          "name": "",
          "type": "uint16"
        }
      ],
      "stateMutability": "view",
      "type": "function"
    },
    {
      "inputs": [],
      "name": "game",
      "outputs": [
        {
          "internalType": "address",
          "name": "",
          "type": "address"
        }
      ],
      "stateMutability": "view",
      "type": "function"
    },
    {
      "inputs": [],
      "name": "getDao",
      "outputs": [
        {
          "internalType": "address",
          "name": "",
          "type": "address"
        }
      ],
      "stateMutability": "view",
      "type": "function"
    },
    {
      "inputs": [],
      "name": "getGuardian",
      "outputs": [
        {
          "internalType": "address",
          "name": "",
          "type": "address"
        }
      ],
      "stateMutability": "view",
      "type": "function"
    },
    {
      "inputs": [
        {
          "internalType": "uint256",
          "name": "_vaultNumber",
          "type": "uint256"
        },
        {
          "internalType": "uint16",
          "name": "_chainId",
          "type": "uint16"
        }
      ],
      "name": "getVaultChainIdOff",
      "outputs": [
        {
          "internalType": "bool",
          "name": "",
          "type": "bool"
        }
      ],
      "stateMutability": "view",
      "type": "function"
    },
    {
      "inputs": [],
      "name": "homeChain",
      "outputs": [
        {
          "internalType": "uint16",
          "name": "",
          "type": "uint16"
        }
      ],
      "stateMutability": "view",
      "type": "function"
    },
    {
      "inputs": [
        {
          "internalType": "uint256",
          "name": "_vaultNumber",
          "type": "uint256"
        }
      ],
      "name": "pushVaultAmounts",
      "outputs": [],
      "stateMutability": "nonpayable",
      "type": "function"
    },
    {
      "inputs": [
        {
          "internalType": "uint256",
          "name": "_vaultNumber",
          "type": "uint256"
        },
        {
          "internalType": "int256[]",
          "name": "_deltas",
          "type": "int256[]"
        }
      ],
      "name": "receiveAllocationsFromGame",
      "outputs": [],
      "stateMutability": "nonpayable",
      "type": "function"
    },
    {
      "inputs": [
        {
          "internalType": "uint256",
          "name": "_vaultNumber",
          "type": "uint256"
        },
        {
          "internalType": "int256[]",
          "name": "_deltas",
          "type": "int256[]"
        }
      ],
      "name": "receiveAllocationsFromGameGuard",
      "outputs": [],
      "stateMutability": "nonpayable",
      "type": "function"
    },
    {
      "inputs": [
        {
          "internalType": "uint256",
          "name": "_vaultNumber",
          "type": "uint256"
        }
      ],
      "name": "resetVaultStagesDao",
      "outputs": [],
      "stateMutability": "nonpayable",
      "type": "function"
    },
    {
      "inputs": [
        {
          "internalType": "uint256",
          "name": "_vaultNumber",
          "type": "uint256"
        }
      ],
      "name": "sendFundsToVault",
      "outputs": [],
      "stateMutability": "nonpayable",
      "type": "function"
    },
    {
      "inputs": [
        {
          "internalType": "uint256",
          "name": "_vaultNumber",
          "type": "uint256"
        },
        {
          "internalType": "uint256",
          "name": "_activeVaults",
          "type": "uint256"
        }
      ],
      "name": "setActiveVaultsGuard",
      "outputs": [],
      "stateMutability": "nonpayable",
      "type": "function"
    },
    {
      "inputs": [
        {
          "internalType": "uint256",
          "name": "_vaultNumber",
          "type": "uint256"
        },
        {
          "internalType": "bool",
          "name": "_state",
          "type": "bool"
        }
      ],
      "name": "setAllocationsReceivedGuard",
      "outputs": [],
      "stateMutability": "nonpayable",
      "type": "function"
    },
    {
      "inputs": [
        {
          "internalType": "uint16[]",
          "name": "_chainIds",
          "type": "uint16[]"
        }
      ],
      "name": "setChainIds",
      "outputs": [],
      "stateMutability": "nonpayable",
      "type": "function"
    },
    {
      "inputs": [
        {
          "internalType": "address",
          "name": "_dao",
          "type": "address"
        }
      ],
      "name": "setDao",
      "outputs": [],
      "stateMutability": "nonpayable",
      "type": "function"
    },
    {
      "inputs": [
        {
          "internalType": "uint256",
          "name": "_vaultNumber",
          "type": "uint256"
        },
        {
          "internalType": "uint256",
          "name": "_fundsReceived",
          "type": "uint256"
        }
      ],
      "name": "setFundsReceivedGuard",
      "outputs": [],
      "stateMutability": "nonpayable",
      "type": "function"
    },
    {
      "inputs": [
        {
          "internalType": "address",
          "name": "_game",
          "type": "address"
        }
      ],
      "name": "setGame",
      "outputs": [],
      "stateMutability": "nonpayable",
      "type": "function"
    },
    {
      "inputs": [
        {
          "internalType": "address",
          "name": "_guardian",
          "type": "address"
        }
      ],
      "name": "setGuardian",
      "outputs": [],
      "stateMutability": "nonpayable",
      "type": "function"
    },
    {
      "inputs": [
        {
          "internalType": "uint16",
          "name": "_homeChainId",
          "type": "uint16"
        }
      ],
      "name": "setHomeChainId",
      "outputs": [],
      "stateMutability": "nonpayable",
      "type": "function"
    },
    {
      "inputs": [
        {
          "internalType": "address",
          "name": "_xProvider",
          "type": "address"
        }
      ],
      "name": "setHomeXProvider",
      "outputs": [],
      "stateMutability": "nonpayable",
      "type": "function"
    },
    {
      "inputs": [
        {
          "internalType": "uint256",
          "name": "_vaultNumber",
          "type": "uint256"
        },
        {
          "internalType": "bool",
          "name": "_state",
          "type": "bool"
        }
      ],
      "name": "setReadyGuard",
      "outputs": [],
      "stateMutability": "nonpayable",
      "type": "function"
    },
    {
      "inputs": [
        {
          "internalType": "uint256",
          "name": "_vaultNumber",
          "type": "uint256"
        },
        {
          "internalType": "uint16",
          "name": "_chainId",
          "type": "uint16"
        },
        {
          "internalType": "uint256",
          "name": "_underlying",
          "type": "uint256"
        },
        {
          "internalType": "uint256",
          "name": "_totalSupply",
          "type": "uint256"
        },
        {
          "internalType": "uint256",
          "name": "_withdrawalRequests",
          "type": "uint256"
        }
      ],
      "name": "setTotalUnderlying",
      "outputs": [],
      "stateMutability": "nonpayable",
      "type": "function"
    },
    {
      "inputs": [
        {
          "internalType": "uint256",
          "name": "_vaultNumber",
          "type": "uint256"
        },
        {
          "internalType": "uint16",
          "name": "_chainId",
          "type": "uint16"
        },
        {
          "internalType": "uint256",
          "name": "_underlying",
          "type": "uint256"
        },
        {
          "internalType": "uint256",
          "name": "_totalSupply",
          "type": "uint256"
        },
        {
          "internalType": "uint256",
          "name": "_withdrawalRequests",
          "type": "uint256"
        }
      ],
      "name": "setTotalUnderlyingGuard",
      "outputs": [],
      "stateMutability": "nonpayable",
      "type": "function"
    },
    {
      "inputs": [
        {
          "internalType": "uint256",
          "name": "_vaultNumber",
          "type": "uint256"
        },
        {
          "internalType": "uint256",
          "name": "_underlyingReceived",
          "type": "uint256"
        }
      ],
      "name": "setUnderlyingReceivedGuard",
      "outputs": [],
      "stateMutability": "nonpayable",
      "type": "function"
    },
    {
      "inputs": [
        {
          "internalType": "uint256",
          "name": "_vaultNumber",
          "type": "uint256"
        },
        {
          "internalType": "uint16",
          "name": "_chainId",
          "type": "uint16"
        },
        {
          "internalType": "address",
          "name": "_address",
          "type": "address"
        },
        {
          "internalType": "address",
          "name": "_underlying",
          "type": "address"
        }
      ],
      "name": "setVaultChainAddress",
      "outputs": [],
      "stateMutability": "nonpayable",
      "type": "function"
    },
    {
      "inputs": [
        {
          "internalType": "uint256",
          "name": "_vaultNumber",
          "type": "uint256"
        }
      ],
      "name": "upFundsReceived",
      "outputs": [],
      "stateMutability": "nonpayable",
      "type": "function"
    },
    {
      "inputs": [
        {
          "internalType": "uint256",
          "name": "",
          "type": "uint256"
        }
      ],
      "name": "vaultStage",
      "outputs": [
        {
          "internalType": "uint256",
          "name": "activeVaults",
          "type": "uint256"
        },
        {
          "internalType": "bool",
          "name": "ready",
          "type": "bool"
        },
        {
          "internalType": "bool",
          "name": "allocationsReceived",
          "type": "bool"
        },
        {
          "internalType": "uint256",
          "name": "underlyingReceived",
          "type": "uint256"
        },
        {
          "internalType": "uint256",
          "name": "fundsReceived",
          "type": "uint256"
        }
      ],
      "stateMutability": "view",
      "type": "function"
    },
    {
      "inputs": [],
      "name": "xProvider",
      "outputs": [
        {
          "internalType": "contract IXProvider",
          "name": "",
          "type": "address"
        }
      ],
      "stateMutability": "view",
      "type": "function"
    },
    {
      "inputs": [],
      "name": "xProviderAddr",
      "outputs": [
        {
          "internalType": "address",
          "name": "",
          "type": "address"
        }
      ],
      "stateMutability": "view",
      "type": "function"
    }
  ],
  "transactionHash": "0x44b34a9c83d0955ce500b2cf1626291334782674c80ead708c5469a69f7eb555",
  "args": [
    "0x103A3b128991781EE2c8db0454cA99d67b257923",
    "0xf39Fd6e51aad88F6F4ce6aB8827279cffFb92266",
    "0xf39Fd6e51aad88F6F4ce6aB8827279cffFb92266",
    100
  ],
  "numDeployments": 1,
  "solcInputHash": "f987a020c854af057aeb38d6938caa4d",
  "bytecode": "0x60806040523480156200001157600080fd5b5060405162002322380380620023228339810160408190526200003491620000a9565b600280546001600160a01b03199081166001600160a01b03968716179091556000805482169486169490941790935560018054909316919093161790556006805461ffff191661ffff9092169190911790556200010e565b80516001600160a01b0381168114620000a457600080fd5b919050565b60008060008060808587031215620000c057600080fd5b620000cb856200008c565b9350620000db602086016200008c565b9250620000eb604086016200008c565b9150606085015161ffff811681146200010357600080fd5b939692955090935050565b612204806200011e6000396000f3fe608060405234801561001057600080fd5b506004361061015f5760003560e01c806321d930901461016457806324b679701461018f57806324ce881f146101a457806327e3a685146101b757806349bc7c28146101ca5780635519f027146101dd578063621e62f2146101f05780636637b882146102035780637468a52b14610216578063814244ab14610224578063814361ce14610237578063819912a21461024a5780638319e1cf1461025d578063888494e2146102805780638a0dac4a14610293578063a75b87d2146102a6578063a9ff3618146102c0578063ab266586146102d3578063b6f57b59146102e6578063b70811bc14610356578063bc9c746e14610367578063c3fe3e281461037a578063cc76aa7a1461038d578063ce1a3286146103a0578063dd692af3146103b3578063e0ba555e146103c6578063f113c5b1146103d9578063f6d53d7b146103ec578063fdba466e146103ff575b600080fd5b61017761017236600461197a565b610412565b60405161ffff90911681526020015b60405180910390f35b6101a261019d3660046119af565b61044a565b005b6101a26101b23660046119dc565b61049f565b6101a26101c536600461197a565b6105a6565b6101a26101d8366004611a22565b6107b0565b6101a26101eb366004611aa6565b6107f2565b6101a26101fe366004611b55565b610826565b6101a26102113660046119af565b61087a565b6006546101779061ffff1681565b6101a2610232366004611b85565b6108c6565b6101a2610245366004611bd2565b610948565b6101a26102583660046119af565b610985565b61027061026b366004611c5e565b6109d1565b6040519015158152602001610186565b6101a261028e366004611aa6565b6109fc565b6101a26102a13660046119af565b610a68565b6001546001600160a01b03165b6040516101869190611c8a565b6101a26102ce366004611b55565b610ab4565b6101a26102e136600461197a565b610b01565b6103276102f436600461197a565b6008602052600090815260409020805460018201546002830154600390930154919260ff80831693610100909304169185565b604051610186959493929190948552921515602085015290151560408401526060830152608082015260a00190565b6000546001600160a01b03166102b3565b6003546102b3906001600160a01b031681565b6002546102b3906001600160a01b031681565b6101a261039b366004611c9e565b610b37565b6101a26103ae366004611c9e565b610b73565b6101a26103c1366004611c9e565b610bb2565b6101a26103d436600461197a565b610bf1565b6101a26103e73660046119dc565b610dc1565b6101a26103fa36600461197a565b610dff565b6004546102b3906001600160a01b031681565b6005818154811061042257600080fd5b9060005260206000209060109182820401919006600202915054906101000a900461ffff1681565b6000546001600160a01b0316331461047d5760405162461bcd60e51b815260040161047490611cc0565b60405180910390fd5b600480546001600160a01b0319166001600160a01b0392909216919091179055565b6004546001600160a01b031633146104c95760405162461bcd60e51b815260040161047490611cef565b6000858152600860205260409020600101548590610100900460ff1661053c5760405162461bcd60e51b815260206004820152602260248201527f416c6c6f636174696f6e73206e6f742072656365697665642066726f6d2067616044820152616d6560f01b6064820152608401610474565b6105468686610e84565b156105915760405162461bcd60e51b815260206004820152601b60248201527a151bdd185b155b99195c9b1e5a5b99c8185b1c9958591e481cd95d602a1b6044820152606401610474565b61059e8686868686610eab565b505050505050565b600081815260086020526040902080546003909101548291146106045760405162461bcd60e51b8152602060048201526016602482015275139bdd08185b1b08199d5b991cc81c9958d95a5d995960521b6044820152606401610474565b60005b6005548110156107a25760006005828154811061062657610626611d26565b90600052602060002090601091828204019190066002029054906101000a900461ffff16905061065684826109d1565b156106615750610790565b600084815260076020908152604080832061ffff85168452600a01909152902054801561078d57600085815260076020908152604080832061ffff861684526008019091528120546001600160a01b0316906106bd8785610f6e565b6004549091506106da906001600160a01b03848116911685610f9d565b6004805460405163839436d360e01b81526001600160a01b039091169163839436d39161070f91859189918991899101611d3c565b600060405180830381600087803b15801561072957600080fd5b505af115801561073d573d6000803e3d6000fd5b5050505061074d87856000611077565b7f6f323bba615785e34a38601fef2e179257caee4ab2508c9d1a4813ee99c4fd99818585856040516107829493929190611d3c565b60405180910390a150505b50505b8061079a81611d81565b915050610607565b506107ac8261109c565b5050565b6000546001600160a01b031633146107da5760405162461bcd60e51b815260040161047490611cc0565b6006805461ffff191661ffff92909216919091179055565b6001546001600160a01b0316331461081c5760405162461bcd60e51b815260040161047490611d9c565b6107ac82826110c8565b6001546001600160a01b031633146108505760405162461bcd60e51b815260040161047490611d9c565b60009182526008602052604090912060010180549115156101000261ff0019909216919091179055565b6000546001600160a01b031633146108a45760405162461bcd60e51b815260040161047490611cc0565b600080546001600160a01b0319166001600160a01b0392909216919091179055565b6000546001600160a01b031633146108f05760405162461bcd60e51b815260040161047490611cc0565b600093845260076020818152604080872061ffff969096168752918501815281862080546001600160a01b03199081166001600160a01b03968716179091556008909501905290932080549092169216919091179055565b6001546001600160a01b031633146109725760405162461bcd60e51b815260040161047490611d9c565b80516107ac9060059060208401906118bc565b6000546001600160a01b031633146109af5760405162461bcd60e51b815260040161047490611cc0565b600280546001600160a01b0319166001600160a01b0392909216919091179055565b600082815260076020908152604080832061ffff8516845260040190915290205460ff165b92915050565b6004546001600160a01b03163314610a265760405162461bcd60e51b815260040161047490611cef565b600082815260086020526040902060010154829060ff16610a595760405162461bcd60e51b815260040161047490611dd0565b610a6383836110c8565b505050565b6000546001600160a01b03163314610a925760405162461bcd60e51b815260040161047490611cc0565b600180546001600160a01b0319166001600160a01b0392909216919091179055565b6001546001600160a01b03163314610ade5760405162461bcd60e51b815260040161047490611d9c565b600091825260086020526040909120600101805460ff1916911515919091179055565b6001546001600160a01b03163314610b2b5760405162461bcd60e51b815260040161047490611d9c565b610b348161109c565b50565b6001546001600160a01b03163314610b615760405162461bcd60e51b815260040161047490611d9c565b60009182526008602052604090912055565b6001546001600160a01b03163314610b9d5760405162461bcd60e51b815260040161047490611d9c565b60009182526008602052604090912060020155565b6001546001600160a01b03163314610bdc5760405162461bcd60e51b815260040161047490611d9c565b60009182526008602052604090912060030155565b60008181526008602052604090208054600290910154829114610c265760405162461bcd60e51b815260040161047490611e02565b60008281526007602052604081208054600390910154909181610c48866111b8565b610c529190611e38565b60008681526007602052604081206002015460045460065493945090926001600160a01b039091169063cf54aaa090610c90908a9061ffff16610f6e565b6040518263ffffffff1660e01b8152600401610cac9190611c8a565b602060405180830381865afa158015610cc9573d6000803e3d6000fd5b505050506040513d601f19601f82011682018060405250810190610ced9190611e4f565b9050600082610cfd83600a611f4c565b610d079086611f58565b610d119190611f8d565b905060005b600554811015610db657600060058281548110610d3557610d35611d26565b90600052602060002090601091828204019190066002029054906101000a900461ffff169050610d658a826109d1565b15610d705750610da4565b6000610d7e8b83898c611204565b9050600080610d8e8d8585611262565b91509150610d9f8d8584848a6112aa565b505050505b80610dae81611d81565b915050610d16565b505050505050505050565b6001546001600160a01b03163314610deb5760405162461bcd60e51b815260040161047490611d9c565b610df88585858585610eab565b5050505050565b6004546001600160a01b03163314610e295760405162461bcd60e51b815260040161047490611cef565b60008181526008602052604090208054600290910154829114610e5e5760405162461bcd60e51b815260040161047490611e02565b6000828152600860205260408120600301805491610e7b83611d81565b91905055505050565b600082815260076020908152604080832061ffff8516845260060190915290205492915050565b600085815260076020818152604080842061ffff891685526006810183528185208890556009810183529084208590558884529190526002018054849290610ef4908490611fa1565b909155505060008581526007602052604081206001018054859290610f1a908490611fa1565b909155505060008581526007602052604081206003018054839290610f40908490611fa1565b90915550506000858152600860205260408120600201805491610f6283611d81565b91905055505050505050565b600082815260076020818152604080842061ffff8616855290920190529020546001600160a01b031692915050565b604051636eb1769f60e11b81523060048201526001600160a01b038381166024830152600091839186169063dd62ed3e90604401602060405180830381865afa158015610fee573d6000803e3d6000fd5b505050506040513d601f19601f820116820180604052508101906110129190611e4f565b61101c9190611fa1565b604080516001600160a01b038616602482015260448082018490528251808303909101815260649091019091526020810180516001600160e01b031663095ea7b360e01b179052909150611071908590611424565b50505050565b600092835260076020908152604080852061ffff9094168552600a9093019052912055565b60009081526008602052604081206001818101805461ffff191690911790556002810182905560030155565b6000805b600554811015611175576000600582815481106110eb576110eb611d26565b90600052602060002090601091828204019190066002029054906101000a900461ffff169050611135858286858151811061112857611128611d26565b60200260200101516114f6565b61113f9084611fa1565b600086815260076020908152604080832061ffff861684526006019091528120559250508061116d81611d81565b9150506110cc565b5060008381526007602090815260408083206001908101849055600890925282206002810192909255908290556111ad9084906115e9565b610a63836000610ade565b600081815260086020526040812080546002909101548391146111ed5760405162461bcd60e51b815260040161047490611e02565b505060009081526007602052604090206001015490565b6000806112118686611647565b600087815260076020908152604080832061ffff8a168452600901909152812054919250846112408488611fb9565b61124a919061203e565b9050611256828261206c565b98975050505050505050565b60008060006112718686610e84565b9050600061127f82866120ad565b9050600080821261129157600061129b565b61129b8684611e38565b91989197509095505050505050565b60006112b68686610f6e565b90506000841315611384576112cc868686611077565b6004805460405163180b113d60e11b81526001600160a01b0390911691633016227a916113029185918a916000918991016120ec565b600060405180830381600087803b15801561131c57600080fd5b505af1158015611330573d6000803e3d6000fd5b5050506000878152600860205260408120600301805492509061135283611d81565b91905055506000805160206121af833981519152818660008560405161137b94939291906120ec565b60405180910390a15b821561059e576004805460405163180b113d60e11b81526001600160a01b0390911691633016227a916113bf9185918a9189918991016120ec565b600060405180830381600087803b1580156113d957600080fd5b505af11580156113ed573d6000803e3d6000fd5b505050506000805160206121af8339815191528186858560405161141494939291906120ec565b60405180910390a1505050505050565b6000611479826040518060400160405280602081526020017f5361666545524332303a206c6f772d6c6576656c2063616c6c206661696c6564815250856001600160a01b031661166e9092919063ffffffff16565b805190915015610a6357808060200190518101906114979190612116565b610a635760405162461bcd60e51b815260206004820152602a60248201527f5361666545524332303a204552433230206f7065726174696f6e20646964206e6044820152691bdd081cdd58d8d9595960b21b6064820152608401610474565b60006115028484611647565b15801561150d575081155b156115265761151e84846001611685565b506000611536565b61153284846000611685565b5060015b6000848152600760205260408120805484929061155490849061206c565b9091555050600084815260076020908152604080832061ffff871684526005019091528120805484929061158990849061206c565b909155505060008481526007602052604081205412156115e25760405162461bcd60e51b8152602060048201526014602482015273416c6c6f636174696f6e20756e646572666c6f7760601b6044820152606401610474565b9392505050565b600082815260086020526040902060010154829060ff1661161c5760405162461bcd60e51b815260040161047490611dd0565b5060009182526008602052604090912060010180549115156101000261ff0019909216919091179055565b600082815260076020908152604080832061ffff8516845260050190915290205492915050565b606061167d8484600085611752565b949350505050565b80151561169284846109d1565b151514610a63576004546001600160a01b0316639951d33d6116b48585610f6e565b6040516001600160e01b031960e084901b1681526001600160a01b03909116600482015261ffff851660248201528315156044820152606401600060405180830381600087803b15801561170757600080fd5b505af115801561171b573d6000803e3d6000fd5b505050600084815260076020908152604080832061ffff871684526004019091529020805483151560ff1990911617905550505050565b6060824710156117b35760405162461bcd60e51b815260206004820152602660248201527f416464726573733a20696e73756666696369656e742062616c616e636520666f6044820152651c8818d85b1b60d21b6064820152608401610474565b6001600160a01b0385163b61180a5760405162461bcd60e51b815260206004820152601d60248201527f416464726573733a2063616c6c20746f206e6f6e2d636f6e74726163740000006044820152606401610474565b600080866001600160a01b03168587604051611826919061215f565b60006040518083038185875af1925050503d8060008114611863576040519150601f19603f3d011682016040523d82523d6000602084013e611868565b606091505b5091509150611878828286611883565b979650505050505050565b606083156118925750816115e2565b8251156118a25782518084602001fd5b8160405162461bcd60e51b8152600401610474919061217b565b82805482825590600052602060002090600f016010900481019282156119555791602002820160005b8382111561192557835183826101000a81548161ffff021916908361ffff16021790555092602001926002016020816001010492830192600103026118e5565b80156119535782816101000a81549061ffff0219169055600201602081600101049283019260010302611925565b505b50611961929150611965565b5090565b5b808211156119615760008155600101611966565b60006020828403121561198c57600080fd5b5035919050565b80356001600160a01b03811681146119aa57600080fd5b919050565b6000602082840312156119c157600080fd5b6115e282611993565b803561ffff811681146119aa57600080fd5b600080600080600060a086880312156119f457600080fd5b85359450611a04602087016119ca565b94979496505050506040830135926060810135926080909101359150565b600060208284031215611a3457600080fd5b6115e2826119ca565b634e487b7160e01b600052604160045260246000fd5b604051601f8201601f191681016001600160401b0381118282101715611a7b57611a7b611a3d565b604052919050565b60006001600160401b03821115611a9c57611a9c611a3d565b5060051b60200190565b60008060408385031215611ab957600080fd5b823591506020808401356001600160401b03811115611ad757600080fd5b8401601f81018613611ae857600080fd5b8035611afb611af682611a83565b611a53565b81815260059190911b82018301908381019088831115611b1a57600080fd5b928401925b82841015611b3857833582529284019290840190611b1f565b80955050505050509250929050565b8015158114610b3457600080fd5b60008060408385031215611b6857600080fd5b823591506020830135611b7a81611b47565b809150509250929050565b60008060008060808587031215611b9b57600080fd5b84359350611bab602086016119ca565b9250611bb960408601611993565b9150611bc760608601611993565b905092959194509250565b60006020808385031215611be557600080fd5b82356001600160401b03811115611bfb57600080fd5b8301601f81018513611c0c57600080fd5b8035611c1a611af682611a83565b81815260059190911b82018301908381019087831115611c3957600080fd5b928401925b8284101561187857611c4f846119ca565b82529284019290840190611c3e565b60008060408385031215611c7157600080fd5b82359150611c81602084016119ca565b90509250929050565b6001600160a01b0391909116815260200190565b60008060408385031215611cb157600080fd5b50508035926020909101359150565b60208082526015908201527478436f6e74726f6c6c65723a206f6e6c792044414f60581b604082015260600190565b6020808252601f908201527f78436f6e74726f6c6c65723a206f6e6c79207850726f76696465724164647200604082015260600190565b634e487b7160e01b600052603260045260246000fd5b6001600160a01b03948516815261ffff9390931660208401526040830191909152909116606082015260800190565b634e487b7160e01b600052601160045260246000fd5b6000600019821415611d9557611d95611d6b565b5060010190565b6020808252601a90820152793c21b7b73a3937b63632b91d1037b7363c9023bab0b93234b0b760311b604082015260600190565b6020808252601890820152774e6f7420616c6c207661756c74732061726520726561647960401b604082015260600190565b6020808252601c908201527b139bdd08185b1b081d5b99195c9b1e5a5b99dcc81c9958d95a5d995960221b604082015260600190565b600082821015611e4a57611e4a611d6b565b500390565b600060208284031215611e6157600080fd5b5051919050565b600181815b80851115611ea3578160001904821115611e8957611e89611d6b565b80851615611e9657918102915b93841c9390800290611e6d565b509250929050565b600082611eba575060016109f6565b81611ec7575060006109f6565b8160018114611edd5760028114611ee757611f03565b60019150506109f6565b60ff841115611ef857611ef8611d6b565b50506001821b6109f6565b5060208310610133831016604e8410600b8410161715611f26575081810a6109f6565b611f308383611e68565b8060001904821115611f4457611f44611d6b565b029392505050565b60006115e28383611eab565b6000816000190483118215151615611f7257611f72611d6b565b500290565b634e487b7160e01b600052601260045260246000fd5b600082611f9c57611f9c611f77565b500490565b60008219821115611fb457611fb4611d6b565b500190565b60006001600160ff1b0381841382841380821686840486111615611fdf57611fdf611d6b565b600160ff1b6000871282811687830589121615611ffe57611ffe611d6b565b6000871292508782058712848416161561201a5761201a611d6b565b8785058712818416161561203057612030611d6b565b505050929093029392505050565b60008261204d5761204d611f77565b600160ff1b82146000198414161561206757612067611d6b565b500590565b600080821280156001600160ff1b038490038513161561208e5761208e611d6b565b600160ff1b83900384128116156120a7576120a7611d6b565b50500190565b60008083128015600160ff1b8501841216156120cb576120cb611d6b565b6001600160ff1b03840183138116156120e6576120e6611d6b565b50500390565b6001600160a01b0394909416845261ffff9290921660208401526040830152606082015260800190565b60006020828403121561212857600080fd5b81516115e281611b47565b60005b8381101561214e578181015183820152602001612136565b838111156110715750506000910152565b60008251612171818460208701612133565b9190910192915050565b602081526000825180602084015261219a816040850160208701612133565b601f01601f1916919091016040019291505056fe568a278f594c7d5fdf5cacdc2887764e3a751a7e347f8c56236a92fc133ea0afa2646970667358221220124a2124ebec8e14c2df8c025d1dad9234db7b0367ed49b8e5edad668f1dc59b64736f6c634300080b0033",
  "devdoc": {
    "kind": "dev",
    "methods": {
      "pushVaultAmounts(uint256)": {
        "params": {
          "_vaultNumber": "Number of vault"
        }
      },
      "receiveAllocationsFromGame(uint256,int256[])": {
        "params": {
          "_deltas": "Delta allocations array received from game, indexes match chainIds[] set in this contract",
          "_vaultNumber": "Number of Vault"
        }
      },
      "resetVaultStagesDao(uint256)": {
        "details": "onlyDao modifier so the dao can reset all stages for a vaultNumber incase something goes wrong"
      },
      "sendFundsToVault(uint256)": {
        "params": {
          "_vaultNumber": "Number of vault"
        }
      },
      "setChainIds(uint16[])": {
        "params": {
          "_chainIds": "array of all the used chainIds"
        }
      },
      "setDao(address)": {
        "params": {
          "_dao": "DAO address"
        }
      },
      "setGame(address)": {
        "params": {
          "_game": "New address of the game"
        }
      },
      "setGuardian(address)": {
        "params": {
          "_guardian": "new address of the guardian"
        }
      },
      "setHomeChainId(uint16)": {
        "params": {
          "_homeChainId": "New home chainId"
        }
      },
      "setHomeXProvider(address)": {
        "params": {
          "_xProvider": "new address of xProvider on this chain"
        }
      },
      "setVaultChainAddress(uint256,uint16,address,address)": {
        "params": {
          "_address": "address of the Vault",
          "_chainId": "Number of chain used",
          "_underlying": "underlying of the Vault eg USDC",
          "_vaultNumber": "number of Vault"
        }
      }
    },
    "version": 1
  },
  "userdoc": {
    "kind": "user",
    "methods": {
      "getDao()": {
        "notice": "Getter for dao address"
      },
      "getGuardian()": {
        "notice": "Getter for guardian address"
      },
      "getVaultChainIdOff(uint256,uint16)": {
        "notice": "Helper to get if vault is active or not"
      },
      "pushVaultAmounts(uint256)": {
        "notice": "Step 3 trigger; xChainController pushes exchangeRate and amount the vaults have to send back to all vaultsCalculates the amounts the vaults on each chainId have to send or receive"
      },
      "receiveAllocationsFromGame(uint256,int256[])": {
        "notice": "Step 1 end; Game pushes totalDeltaAllocations to xChainController"
      },
      "receiveAllocationsFromGameGuard(uint256,int256[])": {
        "notice": "Step 1: Guardian function"
      },
      "resetVaultStagesDao(uint256)": {
        "notice": "Resets all stages in vaultStage struct for a vaultNumber"
      },
      "sendFundsToVault(uint256)": {
        "notice": "Step 5 trigger; Push funds from xChainController to vaultsSend amount to deposit from xController to vault and reset all stages for the vault"
      },
      "setActiveVaultsGuard(uint256,uint256)": {
        "notice": "Guardian setter for number of active vaults for vaultNumber, set in xChainRebalance"
      },
      "setAllocationsReceivedGuard(uint256,bool)": {
        "notice": "Guardian setter for stage 1:"
      },
      "setChainIds(uint16[])": {
        "notice": "Setter for chainId array"
      },
      "setDao(address)": {
        "notice": "Setter for DAO address"
      },
      "setFundsReceivedGuard(uint256,uint256)": {
        "notice": "Step 4: Guardian function"
      },
      "setGame(address)": {
        "notice": "Setter for new game address"
      },
      "setGuardian(address)": {
        "notice": "Setter for guardian address"
      },
      "setHomeChainId(uint16)": {
        "notice": "Setter for homeChain Id"
      },
      "setHomeXProvider(address)": {
        "notice": "Setter for xProvider address"
      },
      "setReadyGuard(uint256,bool)": {
        "notice": "Guardian setter for stage 0:"
      },
      "setTotalUnderlying(uint256,uint16,uint256,uint256,uint256)": {
        "notice": "See setTotalUnderlyingInt below"
      },
      "setTotalUnderlyingGuard(uint256,uint16,uint256,uint256,uint256)": {
        "notice": "Step 2: Guardian function"
      },
      "setUnderlyingReceivedGuard(uint256,uint256)": {
        "notice": "Guardian setter to tick up stage 2:"
      },
      "setVaultChainAddress(uint256,uint16,address,address)": {
        "notice": "Set Vault address and underlying for a particulair chainId"
      },
      "upFundsReceived(uint256)": {
        "notice": "Step 4 end; Push funds from vaults to xChainControllerFundsReceived; funds received from all active vault contracts"
      }
    },
    "version": 1
  },
  "storageLayout": {
    "storage": [
      {
        "astId": 15174,
        "contract": "contracts/XChainController.sol:XChainController",
        "label": "dao",
        "offset": 0,
        "slot": "0",
        "type": "t_address"
      },
      {
        "astId": 15176,
        "contract": "contracts/XChainController.sol:XChainController",
        "label": "guardian",
        "offset": 0,
        "slot": "1",
        "type": "t_address"
      },
      {
        "astId": 15178,
        "contract": "contracts/XChainController.sol:XChainController",
        "label": "game",
        "offset": 0,
        "slot": "2",
        "type": "t_address"
      },
      {
        "astId": 15180,
        "contract": "contracts/XChainController.sol:XChainController",
        "label": "xProviderAddr",
        "offset": 0,
        "slot": "3",
        "type": "t_address"
      },
      {
        "astId": 15183,
        "contract": "contracts/XChainController.sol:XChainController",
        "label": "xProvider",
        "offset": 0,
        "slot": "4",
        "type": "t_contract(IXProvider)6253"
      },
      {
        "astId": 15186,
        "contract": "contracts/XChainController.sol:XChainController",
        "label": "chainIds",
        "offset": 0,
        "slot": "5",
        "type": "t_array(t_uint16)dyn_storage"
      },
      {
        "astId": 15188,
        "contract": "contracts/XChainController.sol:XChainController",
        "label": "homeChain",
        "offset": 0,
        "slot": "6",
        "type": "t_uint16"
      },
      {
        "astId": 15193,
        "contract": "contracts/XChainController.sol:XChainController",
        "label": "vaults",
        "offset": 0,
        "slot": "7",
        "type": "t_mapping(t_uint256,t_struct(vaultInfo)15161_storage)"
      },
      {
        "astId": 15198,
        "contract": "contracts/XChainController.sol:XChainController",
        "label": "vaultStage",
        "offset": 0,
        "slot": "8",
        "type": "t_mapping(t_uint256,t_struct(vaultStages)15172_storage)"
      }
    ],
    "types": {
      "t_address": {
        "encoding": "inplace",
        "label": "address",
        "numberOfBytes": "20"
      },
      "t_array(t_uint16)dyn_storage": {
        "base": "t_uint16",
        "encoding": "dynamic_array",
        "label": "uint16[]",
        "numberOfBytes": "32"
      },
      "t_bool": {
        "encoding": "inplace",
        "label": "bool",
        "numberOfBytes": "1"
      },
      "t_contract(IXProvider)6253": {
        "encoding": "inplace",
        "label": "contract IXProvider",
        "numberOfBytes": "20"
      },
      "t_int256": {
        "encoding": "inplace",
        "label": "int256",
        "numberOfBytes": "32"
      },
      "t_mapping(t_uint16,t_address)": {
        "encoding": "mapping",
        "key": "t_uint16",
        "label": "mapping(uint16 => address)",
        "numberOfBytes": "32",
        "value": "t_address"
      },
      "t_mapping(t_uint16,t_bool)": {
        "encoding": "mapping",
        "key": "t_uint16",
        "label": "mapping(uint16 => bool)",
        "numberOfBytes": "32",
        "value": "t_bool"
      },
      "t_mapping(t_uint16,t_int256)": {
        "encoding": "mapping",
        "key": "t_uint16",
        "label": "mapping(uint16 => int256)",
        "numberOfBytes": "32",
        "value": "t_int256"
      },
      "t_mapping(t_uint16,t_uint256)": {
        "encoding": "mapping",
        "key": "t_uint16",
        "label": "mapping(uint16 => uint256)",
        "numberOfBytes": "32",
        "value": "t_uint256"
      },
      "t_mapping(t_uint256,t_struct(vaultInfo)15161_storage)": {
        "encoding": "mapping",
        "key": "t_uint256",
        "label": "mapping(uint256 => struct XChainController.vaultInfo)",
        "numberOfBytes": "32",
        "value": "t_struct(vaultInfo)15161_storage"
      },
      "t_mapping(t_uint256,t_struct(vaultStages)15172_storage)": {
        "encoding": "mapping",
        "key": "t_uint256",
        "label": "mapping(uint256 => struct XChainController.vaultStages)",
        "numberOfBytes": "32",
        "value": "t_struct(vaultStages)15172_storage"
      },
      "t_struct(vaultInfo)15161_storage": {
        "encoding": "inplace",
        "label": "struct XChainController.vaultInfo",
        "members": [
          {
            "astId": 15126,
            "contract": "contracts/XChainController.sol:XChainController",
            "label": "totalCurrentAllocation",
            "offset": 0,
            "slot": "0",
            "type": "t_int256"
          },
          {
            "astId": 15128,
            "contract": "contracts/XChainController.sol:XChainController",
            "label": "totalUnderlying",
            "offset": 0,
            "slot": "1",
            "type": "t_uint256"
          },
          {
            "astId": 15130,
            "contract": "contracts/XChainController.sol:XChainController",
            "label": "totalSupply",
            "offset": 0,
            "slot": "2",
            "type": "t_uint256"
          },
          {
            "astId": 15132,
            "contract": "contracts/XChainController.sol:XChainController",
            "label": "totalWithdrawalRequests",
            "offset": 0,
            "slot": "3",
            "type": "t_uint256"
          },
          {
            "astId": 15136,
            "contract": "contracts/XChainController.sol:XChainController",
            "label": "chainIdOff",
            "offset": 0,
            "slot": "4",
            "type": "t_mapping(t_uint16,t_bool)"
          },
          {
            "astId": 15140,
            "contract": "contracts/XChainController.sol:XChainController",
            "label": "currentAllocationPerChain",
            "offset": 0,
            "slot": "5",
            "type": "t_mapping(t_uint16,t_int256)"
          },
          {
            "astId": 15144,
            "contract": "contracts/XChainController.sol:XChainController",
            "label": "totalUnderlyingPerChain",
            "offset": 0,
            "slot": "6",
            "type": "t_mapping(t_uint16,t_uint256)"
          },
          {
            "astId": 15148,
            "contract": "contracts/XChainController.sol:XChainController",
            "label": "vaultChainAddress",
            "offset": 0,
            "slot": "7",
            "type": "t_mapping(t_uint16,t_address)"
          },
          {
            "astId": 15152,
            "contract": "contracts/XChainController.sol:XChainController",
            "label": "vaultUnderlyingAddress",
            "offset": 0,
            "slot": "8",
            "type": "t_mapping(t_uint16,t_address)"
          },
          {
            "astId": 15156,
            "contract": "contracts/XChainController.sol:XChainController",
            "label": "withdrawalRequests",
            "offset": 0,
            "slot": "9",
            "type": "t_mapping(t_uint16,t_uint256)"
          },
          {
            "astId": 15160,
            "contract": "contracts/XChainController.sol:XChainController",
            "label": "amountToDepositPerChain",
            "offset": 0,
            "slot": "10",
            "type": "t_mapping(t_uint16,t_uint256)"
          }
        ],
        "numberOfBytes": "352"
      },
      "t_struct(vaultStages)15172_storage": {
        "encoding": "inplace",
        "label": "struct XChainController.vaultStages",
        "members": [
          {
            "astId": 15163,
            "contract": "contracts/XChainController.sol:XChainController",
            "label": "activeVaults",
            "offset": 0,
            "slot": "0",
            "type": "t_uint256"
          },
          {
            "astId": 15165,
            "contract": "contracts/XChainController.sol:XChainController",
            "label": "ready",
            "offset": 0,
            "slot": "1",
            "type": "t_bool"
          },
          {
            "astId": 15167,
            "contract": "contracts/XChainController.sol:XChainController",
            "label": "allocationsReceived",
            "offset": 1,
            "slot": "1",
            "type": "t_bool"
          },
          {
            "astId": 15169,
            "contract": "contracts/XChainController.sol:XChainController",
            "label": "underlyingReceived",
            "offset": 0,
            "slot": "2",
            "type": "t_uint256"
          },
          {
            "astId": 15171,
            "contract": "contracts/XChainController.sol:XChainController",
            "label": "fundsReceived",
            "offset": 0,
            "slot": "3",
            "type": "t_uint256"
          }
        ],
        "numberOfBytes": "128"
      },
      "t_uint16": {
        "encoding": "inplace",
        "label": "uint16",
        "numberOfBytes": "2"
      },
      "t_uint256": {
        "encoding": "inplace",
        "label": "uint256",
        "numberOfBytes": "32"
      }
    }
  }
}