{
  "address": "0x2BB8B93F585B43b06F3d523bf30C203d3B6d4BD4",
  "abi": [
    {
      "inputs": [
        {
          "internalType": "address",
          "name": "_endpoint",
          "type": "address"
        },
        {
          "internalType": "address",
          "name": "_connextHandler",
          "type": "address"
        },
        {
          "internalType": "address",
          "name": "_dao",
          "type": "address"
        },
        {
          "internalType": "address",
          "name": "_game",
          "type": "address"
        },
        {
          "internalType": "address",
          "name": "_xController",
          "type": "address"
        },
        {
          "internalType": "uint16",
          "name": "_homeChain",
          "type": "uint16"
        }
      ],
      "stateMutability": "nonpayable",
      "type": "constructor"
    },
    {
      "anonymous": false,
      "inputs": [
        {
          "indexed": false,
          "internalType": "uint16",
          "name": "_srcChainId",
          "type": "uint16"
        },
        {
          "indexed": false,
          "internalType": "bytes",
          "name": "_srcAddress",
          "type": "bytes"
        }
      ],
      "name": "SetTrustedRemote",
      "type": "event"
    },
    {
      "inputs": [],
      "name": "connext",
      "outputs": [
        {
          "internalType": "contract IConnextHandler",
          "name": "",
          "type": "address"
        }
      ],
      "stateMutability": "view",
      "type": "function"
    },
    {
      "inputs": [
        {
          "internalType": "uint16",
          "name": "",
          "type": "uint16"
        }
      ],
      "name": "connextChainId",
      "outputs": [
        {
          "internalType": "uint32",
          "name": "",
          "type": "uint32"
        }
      ],
      "stateMutability": "view",
      "type": "function"
    },
    {
      "inputs": [],
      "name": "endpoint",
      "outputs": [
        {
          "internalType": "contract ILayerZeroEndpoint",
          "name": "",
          "type": "address"
        }
      ],
      "stateMutability": "view",
      "type": "function"
    },
    {
      "inputs": [],
      "name": "game",
      "outputs": [
        {
          "internalType": "address",
          "name": "",
          "type": "address"
        }
      ],
      "stateMutability": "view",
      "type": "function"
    },
    {
      "inputs": [],
      "name": "gameChain",
      "outputs": [
        {
          "internalType": "uint16",
          "name": "",
          "type": "uint16"
        }
      ],
      "stateMutability": "view",
      "type": "function"
    },
    {
      "inputs": [],
      "name": "getDao",
      "outputs": [
        {
          "internalType": "address",
          "name": "",
          "type": "address"
        }
      ],
      "stateMutability": "view",
      "type": "function"
    },
    {
      "inputs": [
        {
          "internalType": "address",
          "name": "_vault",
          "type": "address"
        }
      ],
      "name": "getDecimals",
      "outputs": [
        {
          "internalType": "uint256",
          "name": "",
          "type": "uint256"
        }
      ],
      "stateMutability": "view",
      "type": "function"
    },
    {
      "inputs": [],
      "name": "homeChain",
      "outputs": [
        {
          "internalType": "uint16",
          "name": "",
          "type": "uint16"
        }
      ],
      "stateMutability": "view",
      "type": "function"
    },
    {
      "inputs": [
        {
          "internalType": "uint16",
          "name": "_srcChainId",
          "type": "uint16"
        },
        {
          "internalType": "bytes",
          "name": "_srcAddress",
          "type": "bytes"
        },
        {
          "internalType": "uint64",
          "name": "_nonce",
          "type": "uint64"
        },
        {
          "internalType": "bytes",
          "name": "_payload",
          "type": "bytes"
        }
      ],
      "name": "lzReceive",
      "outputs": [],
      "stateMutability": "nonpayable",
      "type": "function"
    },
    {
      "inputs": [
        {
          "internalType": "uint256",
          "name": "_vaultNumber",
          "type": "uint256"
        },
        {
          "internalType": "int256[]",
          "name": "_deltas",
          "type": "int256[]"
        }
      ],
      "name": "pushAllocations",
      "outputs": [],
      "stateMutability": "nonpayable",
      "type": "function"
    },
    {
      "inputs": [
        {
          "internalType": "uint16",
          "name": "_chainId",
          "type": "uint16"
        },
        {
          "internalType": "address",
          "name": "_vault",
          "type": "address"
        },
        {
          "internalType": "int256[]",
          "name": "_deltas",
          "type": "int256[]"
        }
      ],
      "name": "pushProtocolAllocationsToVault",
      "outputs": [],
      "stateMutability": "nonpayable",
      "type": "function"
    },
    {
      "inputs": [
        {
          "internalType": "uint256",
          "name": "_vaultNumber",
          "type": "uint256"
        },
        {
          "internalType": "uint16",
          "name": "_chainId",
          "type": "uint16"
        },
        {
          "internalType": "int256[]",
          "name": "_rewards",
          "type": "int256[]"
        }
      ],
      "name": "pushRewardsToGame",
      "outputs": [],
      "stateMutability": "nonpayable",
      "type": "function"
    },
    {
      "inputs": [
        {
          "internalType": "address",
          "name": "_vault",
          "type": "address"
        },
        {
          "internalType": "uint16",
          "name": "_chainId",
          "type": "uint16"
        },
        {
          "internalType": "uint256",
          "name": "_amountToSendBack",
          "type": "uint256"
        },
        {
          "internalType": "uint256",
          "name": "_exchangeRate",
          "type": "uint256"
        }
      ],
      "name": "pushSetXChainAllocation",
      "outputs": [],
      "stateMutability": "nonpayable",
      "type": "function"
    },
    {
      "inputs": [
        {
          "internalType": "address",
          "name": "_vault",
          "type": "address"
        },
        {
          "internalType": "uint16",
          "name": "_chainId",
          "type": "uint16"
        },
        {
          "internalType": "bool",
          "name": "_state",
          "type": "bool"
        }
      ],
      "name": "pushStateFeedbackToVault",
      "outputs": [],
      "stateMutability": "nonpayable",
      "type": "function"
    },
    {
      "inputs": [
        {
          "internalType": "uint256",
          "name": "_vaultNumber",
          "type": "uint256"
        },
        {
          "internalType": "uint16",
          "name": "_chainId",
          "type": "uint16"
        },
        {
          "internalType": "uint256",
          "name": "_underlying",
          "type": "uint256"
        },
        {
          "internalType": "uint256",
          "name": "_totalSupply",
          "type": "uint256"
        },
        {
          "internalType": "uint256",
          "name": "_withdrawalRequests",
          "type": "uint256"
        }
      ],
      "name": "pushTotalUnderlying",
      "outputs": [],
      "stateMutability": "nonpayable",
      "type": "function"
    },
    {
      "inputs": [
        {
          "internalType": "uint256",
          "name": "_vaultNumber",
          "type": "uint256"
        },
        {
          "internalType": "int256[]",
          "name": "_deltas",
          "type": "int256[]"
        }
      ],
      "name": "receiveAllocations",
      "outputs": [],
      "stateMutability": "nonpayable",
      "type": "function"
    },
    {
      "inputs": [
        {
          "internalType": "address",
          "name": "_vault",
          "type": "address"
        }
      ],
      "name": "receiveFeedbackToVault",
      "outputs": [],
      "stateMutability": "nonpayable",
      "type": "function"
    },
    {
      "inputs": [
        {
          "internalType": "uint256",
          "name": "_vaultNumber",
          "type": "uint256"
        }
      ],
      "name": "receiveFeedbackToXController",
      "outputs": [],
      "stateMutability": "nonpayable",
      "type": "function"
    },
    {
      "inputs": [
        {
          "internalType": "address",
          "name": "_vault",
          "type": "address"
        },
        {
          "internalType": "int256[]",
          "name": "_deltas",
          "type": "int256[]"
        }
      ],
      "name": "receiveProtocolAllocationsToVault",
      "outputs": [],
      "stateMutability": "nonpayable",
      "type": "function"
    },
    {
      "inputs": [
        {
          "internalType": "uint256",
          "name": "_vaultNumber",
          "type": "uint256"
        },
        {
          "internalType": "uint16",
          "name": "_chainId",
          "type": "uint16"
        },
        {
          "internalType": "int256[]",
          "name": "_rewards",
          "type": "int256[]"
        }
      ],
      "name": "receiveRewardsToGame",
      "outputs": [],
      "stateMutability": "nonpayable",
      "type": "function"
    },
    {
      "inputs": [
        {
          "internalType": "address",
          "name": "_vault",
          "type": "address"
        },
        {
          "internalType": "uint256",
          "name": "_amountToSendBack",
          "type": "uint256"
        },
        {
          "internalType": "uint256",
          "name": "_exchangeRate",
          "type": "uint256"
        }
      ],
      "name": "receiveSetXChainAllocation",
      "outputs": [],
      "stateMutability": "nonpayable",
      "type": "function"
    },
    {
      "inputs": [
        {
          "internalType": "address",
          "name": "_vault",
          "type": "address"
        },
        {
          "internalType": "bool",
          "name": "_state",
          "type": "bool"
        }
      ],
      "name": "receiveStateFeedbackToVault",
      "outputs": [],
      "stateMutability": "nonpayable",
      "type": "function"
    },
    {
      "inputs": [
        {
          "internalType": "uint256",
          "name": "_vaultNumber",
          "type": "uint256"
        },
        {
          "internalType": "uint16",
          "name": "_chainId",
          "type": "uint16"
        },
        {
          "internalType": "uint256",
          "name": "_underlying",
          "type": "uint256"
        },
        {
          "internalType": "uint256",
          "name": "_totalSupply",
          "type": "uint256"
        },
        {
          "internalType": "uint256",
          "name": "_withdrawalRequests",
          "type": "uint256"
        }
      ],
      "name": "receiveTotalUnderlying",
      "outputs": [],
      "stateMutability": "nonpayable",
      "type": "function"
    },
    {
      "inputs": [
        {
          "internalType": "uint16",
          "name": "_layerzeroChainId",
          "type": "uint16"
        },
        {
          "internalType": "uint32",
          "name": "_connextChainId",
          "type": "uint32"
        }
      ],
      "name": "setConnextChainId",
      "outputs": [],
      "stateMutability": "nonpayable",
      "type": "function"
    },
    {
      "inputs": [
        {
          "internalType": "address",
          "name": "_dao",
          "type": "address"
        }
      ],
      "name": "setDao",
      "outputs": [],
      "stateMutability": "nonpayable",
      "type": "function"
    },
    {
      "inputs": [
        {
          "internalType": "address",
          "name": "_game",
          "type": "address"
        }
      ],
      "name": "setGame",
      "outputs": [],
      "stateMutability": "nonpayable",
      "type": "function"
    },
    {
      "inputs": [
        {
          "internalType": "uint16",
          "name": "_gameChain",
          "type": "uint16"
        }
      ],
      "name": "setGameChainId",
      "outputs": [],
      "stateMutability": "nonpayable",
      "type": "function"
    },
    {
      "inputs": [
        {
          "internalType": "uint16",
          "name": "_homeChain",
          "type": "uint16"
        }
      ],
      "name": "setHomeChain",
      "outputs": [],
      "stateMutability": "nonpayable",
      "type": "function"
    },
    {
      "inputs": [
        {
          "internalType": "uint16",
          "name": "_srcChainId",
          "type": "uint16"
        },
        {
          "internalType": "bytes",
          "name": "_srcAddress",
          "type": "bytes"
        }
      ],
      "name": "setTrustedRemote",
      "outputs": [],
      "stateMutability": "nonpayable",
      "type": "function"
    },
    {
      "inputs": [
        {
          "internalType": "address",
          "name": "_xController",
          "type": "address"
        }
      ],
      "name": "setXController",
      "outputs": [],
      "stateMutability": "nonpayable",
      "type": "function"
    },
    {
      "inputs": [
        {
          "internalType": "uint16",
          "name": "_xControllerChain",
          "type": "uint16"
        }
      ],
      "name": "setXControllerChainId",
      "outputs": [],
      "stateMutability": "nonpayable",
      "type": "function"
    },
    {
      "inputs": [
        {
          "internalType": "address",
          "name": "_xControllerProvider",
          "type": "address"
        }
      ],
      "name": "setXControllerProvider",
      "outputs": [],
      "stateMutability": "nonpayable",
      "type": "function"
    },
    {
      "inputs": [
        {
          "internalType": "address",
          "name": "_vault",
          "type": "address"
        }
      ],
      "name": "toggleVaultWhitelist",
      "outputs": [],
      "stateMutability": "nonpayable",
      "type": "function"
    },
    {
      "inputs": [
        {
          "internalType": "uint16",
          "name": "",
          "type": "uint16"
        }
      ],
      "name": "trustedRemoteLookup",
      "outputs": [
        {
          "internalType": "bytes",
          "name": "",
          "type": "bytes"
        }
      ],
      "stateMutability": "view",
      "type": "function"
    },
    {
      "inputs": [
        {
          "internalType": "address",
          "name": "",
          "type": "address"
        }
      ],
      "name": "vaultWhitelist",
      "outputs": [
        {
          "internalType": "bool",
          "name": "",
          "type": "bool"
        }
      ],
      "stateMutability": "view",
      "type": "function"
    },
    {
      "inputs": [],
      "name": "xController",
      "outputs": [
        {
          "internalType": "address",
          "name": "",
          "type": "address"
        }
      ],
      "stateMutability": "view",
      "type": "function"
    },
    {
      "inputs": [],
      "name": "xControllerChain",
      "outputs": [
        {
          "internalType": "uint16",
          "name": "",
          "type": "uint16"
        }
      ],
      "stateMutability": "view",
      "type": "function"
    },
    {
      "inputs": [],
      "name": "xControllerProvider",
      "outputs": [
        {
          "internalType": "address",
          "name": "",
          "type": "address"
        }
      ],
      "stateMutability": "view",
      "type": "function"
    },
    {
      "inputs": [
        {
          "internalType": "uint256",
          "name": "_vaultNumber",
          "type": "uint256"
        },
        {
          "internalType": "uint256",
          "name": "_amount",
          "type": "uint256"
        },
        {
          "internalType": "address",
          "name": "_asset",
          "type": "address"
        }
      ],
      "name": "xTransferToController",
      "outputs": [],
      "stateMutability": "nonpayable",
      "type": "function"
    },
    {
      "inputs": [
        {
          "internalType": "address",
          "name": "_vault",
          "type": "address"
        },
        {
          "internalType": "uint16",
          "name": "_chainId",
          "type": "uint16"
        },
        {
          "internalType": "uint256",
          "name": "_amount",
          "type": "uint256"
        },
        {
          "internalType": "address",
          "name": "_asset",
          "type": "address"
        }
      ],
      "name": "xTransferToVaults",
      "outputs": [],
      "stateMutability": "nonpayable",
      "type": "function"
    }
  ],
  "transactionHash": "0xe2051c5cf405462547a8c0c9505c0fbdfc555b44ab0234d53b0e75ee3f2dac38",
  "args": [
    "0x15d34AAf54267DB7D7c367839AAf71A00a2C6A65",
    "0x15d34AAf54267DB7D7c367839AAf71A00a2C6A65",
    "0xf39Fd6e51aad88F6F4ce6aB8827279cffFb92266",
    "0xc6B407503dE64956Ad3cF5Ab112cA4f56AA13517",
    "0x7A28cf37763279F774916b85b5ef8b64AB421f79",
    100
  ],
  "numDeployments": 1,
  "solcInputHash": "a4dd9cf6f9a65e85785f63248e1cb35a",
  "bytecode": "0x60c06040523480156200001157600080fd5b5060405162002974380380620029748339810160408190526200003491620000b8565b6001600160a01b0395861660805293851660a052600080549386166001600160a01b03199485161790556003805460018054938816939095169290921790935561ffff909316600160a01b026001600160b01b031990931693169290921717905562000143565b80516001600160a01b0381168114620000b357600080fd5b919050565b60008060008060008060c08789031215620000d257600080fd5b620000dd876200009b565b9550620000ed602088016200009b565b9450620000fd604088016200009b565b93506200010d606088016200009b565b92506200011d608088016200009b565b915060a087015161ffff811681146200013557600080fd5b809150509295509295509295565b60805160a0516127ef62000185600039600081816104f8015281816119a40152611aeb01526000818161034b01528181610599015261182201526127ef6000f3fe608060405234801561001057600080fd5b50600436106101d75760003560e01c80621d3567146101dc5780630268db32146101f15780630ce29fca1461020457806313dc97de146102175780631a5d8f871461022a5780631d2c3dad1461023d5780633016227a14610250578063357fb68d1461026357806339daa1b21461028c5780633d24b652146102bf578063487ed201146102e75780634f514f06146102fa578063507b600d1461030d578063537b1e2c146103205780635dab7709146103335780635e280f111461034657806360a15a6c1461036d57806365301abd146103805780636637b882146103935780637468a52b146103a65780637533d788146103bb578063753ae856146103db5780637ffdbeea146103ee578063819912a214610401578063839436d31461041457806389cd2dfd146104275780639202c112146104625780639951d33d14610475578063b70811bc14610488578063bd73ce2e14610499578063c3fe3e28146104ac578063ca066bf4146104bf578063cf54aaa0146104d2578063de4b0548146104f3578063e39949631461051a578063e4eadf371461052d578063eb8d72b714610540578063ec08035514610553578063f4239caf14610566578063ff4763e514610579575b600080fd5b6101ef6101ea366004611d65565b61058e565b005b6101ef6101ff366004611eae565b610753565b6101ef610212366004611f0b565b61080c565b6101ef610225366004611f40565b61098c565b6101ef610238366004611f62565b6109d8565b6101ef61024b366004611fa8565b610a69565b6101ef61025e366004611fe8565b610ac1565b600154610276906001600160a01b031681565b6040516102839190612037565b60405180910390f35b6102af61029a36600461204b565b60066020526000908152604090205460ff1681565b6040519015158152602001610283565b6003546102d490600160b01b900461ffff1681565b60405161ffff9091168152602001610283565b6101ef6102f5366004612066565b610beb565b6101ef61030836600461204b565b610cf1565b6101ef61031b36600461204b565b610d44565b600254610276906001600160a01b031681565b6101ef610341366004611f40565b610dfe565b6102767f000000000000000000000000000000000000000000000000000000000000000081565b6101ef61037b3660046120bc565b610e4a565b6101ef61038e366004612066565b610ec3565b6101ef6103a136600461204b565b610f16565b6003546102d490600160a01b900461ffff1681565b6103ce6103c9366004611f40565b610f62565b6040516102839190612140565b6101ef6103e9366004611eae565b610ffc565b6101ef6103fc366004612153565b61104d565b6101ef61040f36600461204b565b6110b2565b6101ef61042236600461216c565b6110fe565b61044d610435366004611f40565b60046020526000908152604090205463ffffffff1681565b60405163ffffffff9091168152602001610283565b6101ef61047036600461204b565b611172565b6101ef6104833660046121c7565b6111be565b6000546001600160a01b0316610276565b6101ef6104a736600461204b565b6112a5565b600354610276906001600160a01b031681565b6101ef6104cd36600461220e565b6112f1565b6104e56104e036600461204b565b6113d8565b604051908152602001610283565b6102767f000000000000000000000000000000000000000000000000000000000000000081565b6101ef610528366004611f40565b611442565b6101ef61053b366004611f62565b61148e565b6101ef61054e36600461223a565b6115d3565b6101ef61056136600461228c565b61165c565b6101ef6105743660046122b8565b6116a9565b6003546102d490600160c01b900461ffff1681565b336001600160a01b037f000000000000000000000000000000000000000000000000000000000000000016146105fd5760405162461bcd60e51b815260206004820152600f60248201526e139bdd08185b88195b991c1bda5b9d608a1b60448201526064015b60405180910390fd5b61ffff86166000908152600560205260409020805461061b906122eb565b851490508015610669575061ffff86166000908152600560205260409081902090516106479190612326565b6040518091039020858560405161065f9291906123c2565b6040518091039020145b6106a35760405162461bcd60e51b815260206004820152600b60248201526a139bdd081d1c9d5cdd195960aa1b60448201526064016105f4565b6000306001600160a01b031683836040516106bf9291906123c2565b6000604051808303816000865af19150503d80600081146106fc576040519150601f19603f3d011682016040523d82523d6000602084013e610701565b606091505b505090508061074a5760405162461bcd60e51b81526020600482015260156024820152744c5a526563656976653a204e6f207375636365737360581b60448201526064016105f4565b50505050505050565b6003546001600160a01b0316331461077d5760405162461bcd60e51b81526004016105f4906123d2565b60007f753ae8560d5dfc2e430e0be59681f152d39882aec90f6b86bcd6dd8560dd8da1905060008184846040516024016107b892919061243c565b60408051601f198184030181529190526020810180516001600160e01b03166001600160e01b0319909316929092179091526003549091506108069061ffff600160b01b90910416826116fc565b50505050565b3360009081526006602052604090205460ff1661083b5760405162461bcd60e51b81526004016105f49061245d565b600354600160a01b810461ffff908116600160b01b90920416141561092d576001546040516323b872dd60e01b81526001600160a01b03808416926323b872dd9261088e9233921690879060040161248d565b6020604051808303816000875af11580156108ad573d6000803e3d6000fd5b505050506040513d601f19601f820116820180604052508101906108d191906124b1565b5060015460405163f6d53d7b60e01b8152600481018590526001600160a01b039091169063f6d53d7b906024015b600060405180830381600087803b15801561091957600080fd5b505af115801561074a573d6000803e3d6000fd5b60015460035461ffff600160a01b8204811660009081526004602052604080822054600160b01b9094049092168152205461097e926001600160a01b031691849163ffffffff91821691168661185f565b61098783611b82565b505050565b6000546001600160a01b031633146109b65760405162461bcd60e51b81526004016105f4906124ce565b6003805461ffff909216600160c01b0261ffff60c01b19909216919091179055565b3330146109f75760405162461bcd60e51b81526004016105f4906124fc565b6001546040516324ce881f60e01b81526001600160a01b03909116906324ce881f90610a2f908890889088908890889060040161252b565b600060405180830381600087803b158015610a4957600080fd5b505af1158015610a5d573d6000803e3d6000fd5b505050505b5050505050565b6000546001600160a01b03163314610a935760405162461bcd60e51b81526004016105f4906124ce565b61ffff919091166000908152600460205260409020805463ffffffff191663ffffffff909216919091179055565b6001546001600160a01b03163314610aeb5760405162461bcd60e51b81526004016105f490612552565b60035461ffff848116600160a01b909204161415610b69576040516302d43be960e61b815260048101839052602481018290526001600160a01b0385169063b50efa4090604401600060405180830381600087803b158015610b4c57600080fd5b505af1158015610b60573d6000803e3d6000fd5b50505050610806565b604080516001600160a01b03861660248201526044810184905260648082018490528251808303909101815260849091019091526020810180516001600160e01b031663f4239caf60e01b1790527ff4239caf9aef7cdeeb4b7db4732ac4dbba437f76ca5c09beeeaf02615784e33690610be385826116fc565b505050505050565b3360009081526006602052604090205460ff16610c1a5760405162461bcd60e51b81526004016105f49061245d565b60035461ffff838116600160a01b909204161415610c66576003546040516301e6790b60e41b81526001600160a01b0390911690631e6790b0906108ff90869086908690600401612587565b60007f65301abd657fb199cd070d218e0e2203452a71c494fb22a9e3aed7095eb2507e9050600081858585604051602401610ca393929190612587565b60408051601f198184030181529190526020810180516001600160e01b03166001600160e01b031990931692909217909152600354909150610a629061ffff600160c01b90910416826116fc565b6000546001600160a01b03163314610d1b5760405162461bcd60e51b81526004016105f4906124ce565b6001600160a01b03166000908152600660205260409020805460ff19811660ff90911615179055565b33301480610d6157503360009081526006602052604090205460ff165b610dad5760405162461bcd60e51b815260206004820152601e60248201527f4c5a50726f76696465723a206f6e6c792053656c66206f72205661756c74000060448201526064016105f4565b806001600160a01b0316625c33e16040518163ffffffff1660e01b8152600401600060405180830381600087803b158015610de757600080fd5b505af1158015610a62573d6000803e3d6000fd5b50565b6000546001600160a01b03163314610e285760405162461bcd60e51b81526004016105f4906124ce565b6003805461ffff909216600160a01b0261ffff60a01b19909216919091179055565b333014610e695760405162461bcd60e51b81526004016105f4906124fc565b604051632189651f60e01b81526001600160a01b03831690632189651f90610e959084906004016125b3565b600060405180830381600087803b158015610eaf57600080fd5b505af1158015610be3573d6000803e3d6000fd5b333014610ee25760405162461bcd60e51b81526004016105f4906124fc565b6003546040516301e6790b60e41b81526001600160a01b0390911690631e6790b0906108ff90869086908690600401612587565b6000546001600160a01b03163314610f405760405162461bcd60e51b81526004016105f4906124ce565b600080546001600160a01b0319166001600160a01b0392909216919091179055565b60056020526000908152604090208054610f7b906122eb565b80601f0160208091040260200160405190810160405280929190818152602001828054610fa7906122eb565b8015610ff45780601f10610fc957610100808354040283529160200191610ff4565b820191906000526020600020905b815481529060010190602001808311610fd757829003601f168201915b505050505081565b33301461101b5760405162461bcd60e51b81526004016105f4906124fc565b6001546040516344424a7160e11b81526001600160a01b039091169063888494e290610e95908590859060040161243c565b33301461106c5760405162461bcd60e51b81526004016105f4906124fc565b60015460405163f6d53d7b60e01b8152600481018390526001600160a01b039091169063f6d53d7b90602401600060405180830381600087803b158015610de757600080fd5b6000546001600160a01b031633146110dc5760405162461bcd60e51b81526004016105f4906124ce565b600380546001600160a01b0319166001600160a01b0392909216919091179055565b6001546001600160a01b031633146111285760405162461bcd60e51b81526004016105f490612552565b60035461ffff600160a01b9091048116600090815260046020526040808220549286168252902054611168918691849163ffffffff90811691168661185f565b6108068385611bf6565b6000546001600160a01b0316331461119c5760405162461bcd60e51b81526004016105f4906124ce565b600180546001600160a01b0319166001600160a01b0392909216919091179055565b6001546001600160a01b031633146111e85760405162461bcd60e51b81526004016105f490612552565b60035461ffff838116600160a01b90920416141561122e57604051631947f7ad60e31b815281151560048201526001600160a01b0384169063ca3fbd68906024016108ff565b604080516001600160a01b03851660248201528215156044808301919091528251808303909101815260649091019091526020810180516001600160e01b031663ec08035560e01b1790527fec080355f00e3698b22cd58179821bba9248402b3373207648777691d542982790610a6284826116fc565b6000546001600160a01b031633146112cf5760405162461bcd60e51b81526004016105f4906124ce565b600280546001600160a01b0319166001600160a01b0392909216919091179055565b6003546001600160a01b0316331461131b5760405162461bcd60e51b81526004016105f4906123d2565b60035461ffff848116600160a01b90920416141561135f57604051632189651f60e01b81526001600160a01b03831690632189651f906108ff9084906004016125b3565b60007f60a15a6ceeddd71d7d400d721256643867757bd9c349090ff2f5d4ac2855b0549050600081848460405160240161139a9291906125c6565b60408051601f198184030181529190526020810180516001600160e01b03166001600160e01b0319909316929092179091529050610a6285826116fc565b6000816001600160a01b031663313ce5676040518163ffffffff1660e01b8152600401602060405180830381865afa158015611418573d6000803e3d6000fd5b505050506040513d601f19601f8201168201806040525081019061143c91906125ea565b92915050565b6000546001600160a01b0316331461146c5760405162461bcd60e51b81526004016105f4906124ce565b6003805461ffff909216600160b01b0261ffff60b01b19909216919091179055565b3360009081526006602052604090205460ff166114bd5760405162461bcd60e51b81526004016105f49061245d565b60035461ffff858116600160b01b909204161415611544576001546040516324ce881f60e01b81526001600160a01b03909116906324ce881f9061150d908890889088908890889060040161252b565b600060405180830381600087803b15801561152757600080fd5b505af115801561153b573d6000803e3d6000fd5b50505050610a62565b60007f1a5d8f87f2c79ee568104e2a7ddc893589f312f340e6b1891b3d9f89f05c10539050600081878787878760405160240161158595949392919061252b565b60408051601f198184030181529190526020810180516001600160e01b03166001600160e01b03199093169290921790915260035490915061074a9061ffff600160b01b90910416826116fc565b6000546001600160a01b031633146115fd5760405162461bcd60e51b81526004016105f4906124ce565b61ffff8316600090815260056020526040902061161b908383611c6d565b507ffa41487ad5d6728f0b19276fa1eddc16558578f5109fc39d2dc33c3230470dab83838360405161164f93929190612603565b60405180910390a1505050565b33301461167b5760405162461bcd60e51b81526004016105f4906124fc565b604051631947f7ad60e31b815281151560048201526001600160a01b0383169063ca3fbd6890602401610e95565b3330146116c85760405162461bcd60e51b81526004016105f4906124fc565b6040516302d43be960e61b815260048101839052602481018290526001600160a01b0384169063b50efa40906044016108ff565b61ffff82166000908152600560205260408120805461171a906122eb565b80601f0160208091040260200160405190810160405280929190818152602001828054611746906122eb565b80156117935780601f1061176857610100808354040283529160200191611793565b820191906000526020600020905b81548152906001019060200180831161177657829003601f168201915b505050505090508051600014156117fe5760405162461bcd60e51b815260206004820152602960248201527f4c5a50726f76696465723a2064657374696e6174696f6e20636861696e206e6f6044820152681d081d1c9d5cdd195960ba1b60648201526084016105f4565b604080516020810182526000808252915162c5803160e81b81526001600160a01b037f0000000000000000000000000000000000000000000000000000000000000000169263c5803100926108ff928892879289923392919060040161263d565b604051636eb1769f60e11b815233600482015230602482015281906001600160a01b0386169063dd62ed3e90604401602060405180830381865afa1580156118ab573d6000803e3d6000fd5b505050506040513d601f19601f820116820180604052508101906118cf91906125ea565b10156119195760405162461bcd60e51b8152602060048201526019602482015278131696141c9bdd9a59195c8e88139bdd08185c1c1c9bdd9959603a1b60448201526064016105f4565b6040516323b872dd60e01b81526001600160a01b038516906323b872dd906119499033903090869060040161248d565b6020604051808303816000875af1158015611968573d6000803e3d6000fd5b505050506040513d601f19601f8201168201806040525081019061198c91906124b1565b5060405163095ea7b360e01b81526001600160a01b037f0000000000000000000000000000000000000000000000000000000000000000811660048301526024820183905285169063095ea7b3906044016020604051808303816000875af11580156119fc573d6000803e3d6000fd5b505050506040513d601f19601f82011682018060405250810190611a2091906124b1565b506000604051806101800160405280876001600160a01b031681526020016040518060200160405280600081525081526020018563ffffffff1681526020018463ffffffff168152602001876001600160a01b03168152602001876001600160a01b0316815260200160001515815260200160001515815260200160006001600160a01b03168152602001600081526020016000815260200161270b815250905060006040518060600160405280838152602001876001600160a01b031681526020018481525090507f00000000000000000000000000000000000000000000000000000000000000006001600160a01b0316636c0636a1826040518263ffffffff1660e01b8152600401611b3591906126a4565b6020604051808303816000875af1158015611b54573d6000803e3d6000fd5b505050506040513d601f19601f82011682018060405250810190611b7891906125ea565b5050505050505050565b6040805160248082018490528251808303909101815260449091019091526020810180516001600160e01b0316633ffedf7560e11b1790526003547f7ffdbeeacab76b1c6d0fac622f57e8e98420f7e35cc5fabcd844aa3d5182316491906109879061ffff600160b01b90910416826116fc565b60007f507b600dd00124c20ece910f48c6a50bc548d4a2fc94f563631e5abfe3b5f987905060008183604051602401611c2f9190612037565b60408051601f198184030181529190526020810180516001600160e01b03166001600160e01b031990931692909217909152905061080684826116fc565b828054611c79906122eb565b90600052602060002090601f016020900481019282611c9b5760008555611ce1565b82601f10611cb45782800160ff19823516178555611ce1565b82800160010185558215611ce1579182015b82811115611ce1578235825591602001919060010190611cc6565b50611ced929150611cf1565b5090565b5b80821115611ced5760008155600101611cf2565b803561ffff81168114611d1857600080fd5b919050565b60008083601f840112611d2f57600080fd5b5081356001600160401b03811115611d4657600080fd5b602083019150836020828501011115611d5e57600080fd5b9250929050565b60008060008060008060808789031215611d7e57600080fd5b611d8787611d06565b955060208701356001600160401b0380821115611da357600080fd5b611daf8a838b01611d1d565b9097509550604089013591508082168214611dc957600080fd5b90935060608801359080821115611ddf57600080fd5b50611dec89828a01611d1d565b979a9699509497509295939492505050565b634e487b7160e01b600052604160045260246000fd5b600082601f830112611e2557600080fd5b813560206001600160401b0380831115611e4157611e41611dfe565b8260051b604051601f19603f83011681018181108482111715611e6657611e66611dfe565b604052938452858101830193838101925087851115611e8457600080fd5b83870191505b84821015611ea357813583529183019190830190611e8a565b979650505050505050565b60008060408385031215611ec157600080fd5b8235915060208301356001600160401b03811115611ede57600080fd5b611eea85828601611e14565b9150509250929050565b80356001600160a01b0381168114611d1857600080fd5b600080600060608486031215611f2057600080fd5b8335925060208401359150611f3760408501611ef4565b90509250925092565b600060208284031215611f5257600080fd5b611f5b82611d06565b9392505050565b600080600080600060a08688031215611f7a57600080fd5b85359450611f8a60208701611d06565b94979496505050506040830135926060810135926080909101359150565b60008060408385031215611fbb57600080fd5b611fc483611d06565b9150602083013563ffffffff81168114611fdd57600080fd5b809150509250929050565b60008060008060808587031215611ffe57600080fd5b61200785611ef4565b935061201560208601611d06565b93969395505050506040820135916060013590565b6001600160a01b03169052565b6001600160a01b0391909116815260200190565b60006020828403121561205d57600080fd5b611f5b82611ef4565b60008060006060848603121561207b57600080fd5b8335925061208b60208501611d06565b915060408401356001600160401b038111156120a657600080fd5b6120b286828701611e14565b9150509250925092565b600080604083850312156120cf57600080fd5b6120d883611ef4565b915060208301356001600160401b03811115611ede57600080fd5b6000815180845260005b81811015612119576020818501810151868301820152016120fd565b8181111561212b576000602083870101525b50601f01601f19169290920160200192915050565b602081526000611f5b60208301846120f3565b60006020828403121561216557600080fd5b5035919050565b6000806000806080858703121561218257600080fd5b61218b85611ef4565b935061219960208601611d06565b9250604085013591506121ae60608601611ef4565b905092959194509250565b8015158114610dfb57600080fd5b6000806000606084860312156121dc57600080fd5b6121e584611ef4565b92506121f360208501611d06565b91506040840135612203816121b9565b809150509250925092565b60008060006060848603121561222357600080fd5b61222c84611d06565b925061208b60208501611ef4565b60008060006040848603121561224f57600080fd5b61225884611d06565b925060208401356001600160401b0381111561227357600080fd5b61227f86828701611d1d565b9497909650939450505050565b6000806040838503121561229f57600080fd5b6122a883611ef4565b91506020830135611fdd816121b9565b6000806000606084860312156122cd57600080fd5b6122d684611ef4565b95602085013595506040909401359392505050565b600181811c908216806122ff57607f821691505b6020821081141561232057634e487b7160e01b600052602260045260246000fd5b50919050565b600080835481600182811c91508083168061234257607f831692505b602080841082141561236257634e487b7160e01b86526022600452602486fd5b8180156123765760018114612387576123b4565b60ff198616895284890196506123b4565b60008a81526020902060005b868110156123ac5781548b820152908501908301612393565b505084890196505b509498975050505050505050565b8183823760009101908152919050565b6020808252601590820152744c5a50726f76696465723a206f6e6c792047616d6560581b604082015260600190565b600081518084526020808501945080840160005b8381101561243157815187529582019590820190600101612415565b509495945050505050565b8281526040602082015260006124556040830184612401565b949350505050565b6020808252601690820152751316941c9bdd9a59195c8e881bdb9b1e481d985d5b1d60521b604082015260600190565b6001600160a01b039384168152919092166020820152604081019190915260600190565b6000602082840312156124c357600080fd5b8151611f5b816121b9565b6020808252601490820152734c5a50726f76696465723a206f6e6c792044414f60601b604082015260600190565b602080825260159082015274262d283937bb34b232b91d1037b7363c9029b2b63360591b604082015260600190565b94855261ffff93909316602085015260408401919091526060830152608082015260a00190565b6020808252601b908201527a262d283937bb34b232b91d1037b7363c9021b7b73a3937b63632b960291b604082015260600190565b83815261ffff831660208201526060604082015260006125aa6060830184612401565b95945050505050565b602081526000611f5b6020830184612401565b6001600160a01b038316815260406020820181905260009061245590830184612401565b6000602082840312156125fc57600080fd5b5051919050565b61ffff8416815260406020820152816040820152818360608301376000818301606090810191909152601f909201601f1916010192915050565b61ffff8716815260c06020820152600061265a60c08301886120f3565b828103604084015261266c81886120f3565b6001600160a01b0387811660608601528616608085015283810360a0850152905061269781856120f3565b9998505050505050505050565b6020815260008251606060208401526126c160808401825161202a565b60208101516101808060a08601526126dd6102008601836120f3565b915060408301516126f660c087018263ffffffff169052565b50606083015163ffffffff1660e0860152608083015161010061271b8188018361202a565b60a085015191506101206127318189018461202a565b60c08601519250610140612748818a018515159052565b60e0870151935061016061275f818b018615159052565b838801519450612771868b018661202a565b918701516101a08a01528601516101c0890152909401516101e08701525050602085015191506127a4604085018361202a565b6040850151606085015280925050509291505056fea26469706673582212202812f8a319410e216fc41d7b89a5102e2750f79c9d516901c5c24b7c0a4b23ed64736f6c634300080b0033",
  "devdoc": {
    "kind": "dev",
    "methods": {
      "pushAllocations(uint256,int256[])": {
        "params": {
          "_deltas": "Array with delta Allocations for all chainIds",
          "_vaultNumber": "number of the vault"
        }
      },
      "pushProtocolAllocationsToVault(uint16,address,int256[])": {
        "params": {
          "_deltas": "Array with delta allocations where the index matches the protocolId",
          "_vault": "Address of the vault on given chainId"
        }
      },
      "pushRewardsToGame(uint256,uint16,int256[])": {
        "params": {
          "_chainId": "Number of chain used",
          "_rewards": "Array with rewardsPerLockedToken of all protocols in vault => index matches protocolId",
          "_vaultNumber": "Number of the vault"
        }
      },
      "pushSetXChainAllocation(address,uint16,uint256,uint256)": {
        "params": {
          "_amountToSendBack": "Amount the vault has to send back",
          "_chainId": "Number of chain used",
          "_exchangeRate": "New exchangerate for vaults",
          "_vault": "Address of the Derby Vault on given chainId"
        }
      },
      "pushStateFeedbackToVault(address,uint16,bool)": {
        "params": {
          "_chainId": "Number of chain used",
          "_state": "bool for chainId on or off",
          "_vault": "Address of the Derby Vault on given chainId"
        }
      },
      "pushTotalUnderlying(uint256,uint16,uint256,uint256,uint256)": {
        "params": {
          "_chainId": "Number of chain used",
          "_totalSupply": "Supply of the LP token of the vault on given chainId",
          "_underlying": "TotalUnderling plus vault balance in vaultcurrency e.g USDC",
          "_vaultNumber": "Number of the vault",
          "_withdrawalRequests": "Total amount of withdrawal requests from the vault in LP Tokens"
        }
      },
      "receiveAllocations(uint256,int256[])": {
        "params": {
          "_deltas": "Array with delta Allocations for all chainIds",
          "_vaultNumber": "number of the vault"
        }
      },
      "receiveFeedbackToVault(address)": {
        "params": {
          "_vault": "Address of the vault on given chainId"
        }
      },
      "receiveFeedbackToXController(uint256)": {
        "params": {
          "_vaultNumber": "Number of the vault"
        }
      },
      "receiveProtocolAllocationsToVault(address,int256[])": {
        "params": {
          "_deltas": "Array with delta allocations where the index matches the protocolId",
          "_vault": "Address of the vault on given chainId"
        }
      },
      "receiveRewardsToGame(uint256,uint16,int256[])": {
        "params": {
          "_chainId": "Number of chain used",
          "_rewards": "Array with rewardsPerLockedToken of all protocols in vault => index matches protocolId",
          "_vaultNumber": "Number of the vault"
        }
      },
      "receiveSetXChainAllocation(address,uint256,uint256)": {
        "params": {
          "_amountToSendBack": "Amount the vault has to send back",
          "_exchangeRate": "New exchangerate for vaults",
          "_vault": "Address of the Derby Vault on given chainId"
        }
      },
      "receiveStateFeedbackToVault(address,bool)": {
        "params": {
          "_state": "bool for chainId on or off",
          "_vault": "Address of the Derby Vault on given chainId"
        }
      },
      "receiveTotalUnderlying(uint256,uint16,uint256,uint256,uint256)": {
        "params": {
          "_chainId": "Number of chain used",
          "_totalSupply": "Supply of the LP token of the vault on given chainId",
          "_underlying": "TotalUnderling plus vault balance in vaultcurrency e.g USDC",
          "_vaultNumber": "Number of the vault",
          "_withdrawalRequests": "Total amount of withdrawal requests from the vault in LP Tokens"
        }
      },
      "setGame(address)": {
        "params": {
          "_game": "New address of the game"
        }
      },
      "setGameChainId(uint16)": {
        "params": {
          "_gameChain": "New chainId for game contract"
        }
      },
      "setHomeChain(uint16)": {
        "params": {
          "_homeChain": "New home chainId"
        }
      },
      "setTrustedRemote(uint16,bytes)": {
        "params": {
          "_srcAddress": "Address of remote xprovider",
          "_srcChainId": "Chain is for remote xprovider, some as the remote receiving contract chain id (xReceive)"
        }
      },
      "setXController(address)": {
        "params": {
          "_xController": "New address of _xController"
        }
      },
      "setXControllerChainId(uint16)": {
        "params": {
          "_xControllerChain": "New address of xProvider for xController chain"
        }
      },
      "setXControllerProvider(address)": {
        "params": {
          "_xControllerProvider": "New address of xProvider for xController chain"
        }
      },
      "xTransferToController(uint256,uint256,address)": {
        "params": {
          "_amount": "Number of the vault",
          "_asset": "Address of the token to send e.g USDC",
          "_vaultNumber": "Address of the Derby Vault on given chainId"
        }
      },
      "xTransferToVaults(address,uint16,uint256,address)": {
        "params": {
          "_amount": "Amount to send to vault in vaultcurrency",
          "_asset": "Addres of underlying e.g USDC",
          "_chainId": "Number of chainId"
        }
      }
    },
    "version": 1
  },
  "userdoc": {
    "kind": "user",
    "methods": {
      "getDao()": {
        "notice": "Getter for dao address"
      },
      "getDecimals(address)": {
        "notice": "returns number of decimals for the vault"
      },
      "pushAllocations(uint256,int256[])": {
        "notice": "Step 1 push; Game pushes totalDeltaAllocations to xChainControllerPushes the delta allocations from the game to the xChainController"
      },
      "pushProtocolAllocationsToVault(uint16,address,int256[])": {
        "notice": "Step 6 push; Game pushes deltaAllocations to vaultsPush protocol allocation array from the game to all vaults/chains"
      },
      "pushRewardsToGame(uint256,uint16,int256[])": {
        "notice": "Step 8 push; Vaults push rewardsPerLockedToken to gamePush price and rewards array from vaults to the game"
      },
      "pushSetXChainAllocation(address,uint16,uint256,uint256)": {
        "notice": "Step 3 push; xChainController pushes exchangeRate and amount the vaults have to send back to all vaults"
      },
      "pushStateFeedbackToVault(address,uint16,bool)": {
        "notice": "Push feedback to the vault if the vault is set to on or off"
      },
      "pushTotalUnderlying(uint256,uint16,uint256,uint256,uint256)": {
        "notice": "Step 2 push; Vaults push totalUnderlying, totalSupply and totalWithdrawalRequests to xChainControllerPushes cross chain requests for the totalUnderlying for a vaultNumber on a chainId"
      },
      "receiveAllocations(uint256,int256[])": {
        "notice": "Step 1 receive; Game pushes totalDeltaAllocations to xChainControllerReceives the delta allocations from the game and routes to xChainController"
      },
      "receiveFeedbackToVault(address)": {
        "notice": "Step 5 receive; Push funds from xChainController to vaultsReceive feedback message so the vault knows it has received funds and is ready to rebalance"
      },
      "receiveFeedbackToXController(uint256)": {
        "notice": "Step 4 receive; Push funds from vaults to xChainControllerReceive crosschain feedback to xController to know when the vaultNumber has sent funds"
      },
      "receiveProtocolAllocationsToVault(address,int256[])": {
        "notice": "Step 6 receive; Game pushes deltaAllocations to vaultsReceives protocol allocation array from the game to all vaults/chains"
      },
      "receiveRewardsToGame(uint256,uint16,int256[])": {
        "notice": "Step 8 receive; Vaults push rewardsPerLockedToken to gameReceives price and rewards array from vaults to the game"
      },
      "receiveSetXChainAllocation(address,uint256,uint256)": {
        "notice": "Step 3 receive; xChainController pushes exchangeRate and amount the vaults have to send back to all vaults"
      },
      "receiveStateFeedbackToVault(address,bool)": {
        "notice": "Receive feedback for the vault if the vault is set to on or off"
      },
      "receiveTotalUnderlying(uint256,uint16,uint256,uint256,uint256)": {
        "notice": "Step 2 receive; Vaults push totalUnderlying, totalSupply and totalWithdrawalRequests to xChainControllerReceive and set totalUnderlyings from the vaults for every chainId"
      },
      "setConnextChainId(uint16,uint32)": {
        "notice": "links layerZero chain id to a connext chain id for transfers"
      },
      "setDao(address)": {
        "notice": "Setter for dao address"
      },
      "setGame(address)": {
        "notice": "Setter for new game address"
      },
      "setGameChainId(uint16)": {
        "notice": "Setter for gameChain Id"
      },
      "setHomeChain(uint16)": {
        "notice": "Setter for homeChain Id"
      },
      "setTrustedRemote(uint16,bytes)": {
        "notice": "set trusted provider on remote chains, allow owner to set it multiple times."
      },
      "setXController(address)": {
        "notice": "Setter for xControlleraddress"
      },
      "setXControllerChainId(uint16)": {
        "notice": "Setter for xControllerProvider address"
      },
      "setXControllerProvider(address)": {
        "notice": "Setter for xControllerProvider address"
      },
      "toggleVaultWhitelist(address)": {
        "notice": "Whitelists vault address for onlyVault modifier"
      },
      "xTransferToController(uint256,uint256,address)": {
        "notice": "Step 4 push; Push funds from vaults to xChainControllerTransfers funds from vault to xController for crosschain rebalance"
      },
      "xTransferToVaults(address,uint16,uint256,address)": {
        "notice": "Step 5 push; Push funds from xChainController to vaultsTransfers funds from xController to vault for crosschain rebalance"
      }
    },
    "version": 1
  },
  "storageLayout": {
    "storage": [
      {
        "astId": 16714,
        "contract": "contracts/XProvider.sol:XProvider",
        "label": "dao",
        "offset": 0,
        "slot": "0",
        "type": "t_address"
      },
      {
        "astId": 16716,
        "contract": "contracts/XProvider.sol:XProvider",
        "label": "xController",
        "offset": 0,
        "slot": "1",
        "type": "t_address"
      },
      {
        "astId": 16718,
        "contract": "contracts/XProvider.sol:XProvider",
        "label": "xControllerProvider",
        "offset": 0,
        "slot": "2",
        "type": "t_address"
      },
      {
        "astId": 16720,
        "contract": "contracts/XProvider.sol:XProvider",
        "label": "game",
        "offset": 0,
        "slot": "3",
        "type": "t_address"
      },
      {
        "astId": 16722,
        "contract": "contracts/XProvider.sol:XProvider",
        "label": "homeChain",
        "offset": 20,
        "slot": "3",
        "type": "t_uint16"
      },
      {
        "astId": 16724,
        "contract": "contracts/XProvider.sol:XProvider",
        "label": "xControllerChain",
        "offset": 22,
        "slot": "3",
        "type": "t_uint16"
      },
      {
        "astId": 16726,
        "contract": "contracts/XProvider.sol:XProvider",
        "label": "gameChain",
        "offset": 24,
        "slot": "3",
        "type": "t_uint16"
      },
      {
        "astId": 16730,
        "contract": "contracts/XProvider.sol:XProvider",
        "label": "connextChainId",
        "offset": 0,
        "slot": "4",
        "type": "t_mapping(t_uint16,t_uint32)"
      },
      {
        "astId": 16734,
        "contract": "contracts/XProvider.sol:XProvider",
        "label": "trustedRemoteLookup",
        "offset": 0,
        "slot": "5",
        "type": "t_mapping(t_uint16,t_bytes_storage)"
      },
      {
        "astId": 16738,
        "contract": "contracts/XProvider.sol:XProvider",
        "label": "vaultWhitelist",
        "offset": 0,
        "slot": "6",
        "type": "t_mapping(t_address,t_bool)"
      }
    ],
    "types": {
      "t_address": {
        "encoding": "inplace",
        "label": "address",
        "numberOfBytes": "20"
      },
      "t_bool": {
        "encoding": "inplace",
        "label": "bool",
        "numberOfBytes": "1"
      },
      "t_bytes_storage": {
        "encoding": "bytes",
        "label": "bytes",
        "numberOfBytes": "32"
      },
      "t_mapping(t_address,t_bool)": {
        "encoding": "mapping",
        "key": "t_address",
        "label": "mapping(address => bool)",
        "numberOfBytes": "32",
        "value": "t_bool"
      },
      "t_mapping(t_uint16,t_bytes_storage)": {
        "encoding": "mapping",
        "key": "t_uint16",
        "label": "mapping(uint16 => bytes)",
        "numberOfBytes": "32",
        "value": "t_bytes_storage"
      },
      "t_mapping(t_uint16,t_uint32)": {
        "encoding": "mapping",
        "key": "t_uint16",
        "label": "mapping(uint16 => uint32)",
        "numberOfBytes": "32",
        "value": "t_uint32"
      },
      "t_uint16": {
        "encoding": "inplace",
        "label": "uint16",
        "numberOfBytes": "2"
      },
      "t_uint32": {
        "encoding": "inplace",
        "label": "uint32",
        "numberOfBytes": "4"
      }
    }
  }
}