{
  "address": "0x2763eFAb9945A05423FF15040fAbB93C9692D020",
  "abi": [
    {
      "inputs": [
        {
          "internalType": "string",
          "name": "name_",
          "type": "string"
        },
        {
          "internalType": "string",
          "name": "symbol_",
          "type": "string"
        },
        {
          "internalType": "address",
          "name": "_derbyToken",
          "type": "address"
        },
        {
          "internalType": "address",
          "name": "_dao",
          "type": "address"
        },
        {
          "internalType": "address",
          "name": "_guardian",
          "type": "address"
        }
      ],
      "stateMutability": "nonpayable",
      "type": "constructor"
    },
    {
      "anonymous": false,
      "inputs": [
        {
          "indexed": true,
          "internalType": "address",
          "name": "owner",
          "type": "address"
        },
        {
          "indexed": true,
          "internalType": "address",
          "name": "approved",
          "type": "address"
        },
        {
          "indexed": true,
          "internalType": "uint256",
          "name": "tokenId",
          "type": "uint256"
        }
      ],
      "name": "Approval",
      "type": "event"
    },
    {
      "anonymous": false,
      "inputs": [
        {
          "indexed": true,
          "internalType": "address",
          "name": "owner",
          "type": "address"
        },
        {
          "indexed": true,
          "internalType": "address",
          "name": "operator",
          "type": "address"
        },
        {
          "indexed": false,
          "internalType": "bool",
          "name": "approved",
          "type": "bool"
        }
      ],
      "name": "ApprovalForAll",
      "type": "event"
    },
    {
      "anonymous": false,
      "inputs": [
        {
          "indexed": false,
          "internalType": "address",
          "name": "owner",
          "type": "address"
        },
        {
          "indexed": false,
          "internalType": "uint256",
          "name": "basketId",
          "type": "uint256"
        },
        {
          "indexed": false,
          "internalType": "uint256",
          "name": "vaultNumber",
          "type": "uint256"
        }
      ],
      "name": "BasketId",
      "type": "event"
    },
    {
      "anonymous": false,
      "inputs": [
        {
          "indexed": false,
          "internalType": "uint32",
          "name": "chain",
          "type": "uint32"
        },
        {
          "indexed": false,
          "internalType": "address",
          "name": "vault",
          "type": "address"
        },
        {
          "indexed": false,
          "internalType": "int256[]",
          "name": "deltas",
          "type": "int256[]"
        }
      ],
      "name": "PushProtocolAllocations",
      "type": "event"
    },
    {
      "anonymous": false,
      "inputs": [
        {
          "indexed": false,
          "internalType": "uint256",
          "name": "basketId",
          "type": "uint256"
        },
        {
          "indexed": false,
          "internalType": "uint256",
          "name": "rebalancingPeriod",
          "type": "uint256"
        },
        {
          "indexed": false,
          "internalType": "int256",
          "name": "unredeemedRewards",
          "type": "int256"
        },
        {
          "indexed": false,
          "internalType": "int256",
          "name": "redeemedRewards",
          "type": "int256"
        },
        {
          "indexed": false,
          "internalType": "int256[]",
          "name": "deltaAllocations",
          "type": "int256[]"
        }
      ],
      "name": "RebalanceBasket",
      "type": "event"
    },
    {
      "anonymous": false,
      "inputs": [
        {
          "indexed": true,
          "internalType": "address",
          "name": "from",
          "type": "address"
        },
        {
          "indexed": true,
          "internalType": "address",
          "name": "to",
          "type": "address"
        },
        {
          "indexed": true,
          "internalType": "uint256",
          "name": "tokenId",
          "type": "uint256"
        }
      ],
      "name": "Transfer",
      "type": "event"
    },
    {
      "inputs": [],
      "name": "BASE_SCALE",
      "outputs": [
        {
          "internalType": "uint256",
          "name": "",
          "type": "uint256"
        }
      ],
      "stateMutability": "view",
      "type": "function"
    },
    {
      "inputs": [
        {
          "internalType": "address",
          "name": "to",
          "type": "address"
        },
        {
          "internalType": "uint256",
          "name": "tokenId",
          "type": "uint256"
        }
      ],
      "name": "approve",
      "outputs": [],
      "stateMutability": "nonpayable",
      "type": "function"
    },
    {
      "inputs": [
        {
          "internalType": "address",
          "name": "owner",
          "type": "address"
        }
      ],
      "name": "balanceOf",
      "outputs": [
        {
          "internalType": "uint256",
          "name": "",
          "type": "uint256"
        }
      ],
      "stateMutability": "view",
      "type": "function"
    },
    {
      "inputs": [
        {
          "internalType": "uint256",
          "name": "_basketId",
          "type": "uint256"
        },
        {
          "internalType": "uint256",
          "name": "_protocolId",
          "type": "uint256"
        }
      ],
      "name": "basketAllocationInProtocol",
      "outputs": [
        {
          "internalType": "int256",
          "name": "",
          "type": "int256"
        }
      ],
      "stateMutability": "view",
      "type": "function"
    },
    {
      "inputs": [
        {
          "internalType": "uint256",
          "name": "_basketId",
          "type": "uint256"
        }
      ],
      "name": "basketTotalAllocatedTokens",
      "outputs": [
        {
          "internalType": "int256",
          "name": "",
          "type": "int256"
        }
      ],
      "stateMutability": "view",
      "type": "function"
    },
    {
      "inputs": [],
      "name": "derbyToken",
      "outputs": [
        {
          "internalType": "contract IERC20",
          "name": "",
          "type": "address"
        }
      ],
      "stateMutability": "view",
      "type": "function"
    },
    {
      "inputs": [
        {
          "internalType": "uint256",
          "name": "tokenId",
          "type": "uint256"
        }
      ],
      "name": "getApproved",
      "outputs": [
        {
          "internalType": "address",
          "name": "",
          "type": "address"
        }
      ],
      "stateMutability": "view",
      "type": "function"
    },
    {
      "inputs": [
        {
          "internalType": "uint256",
          "name": "_basketId",
          "type": "uint256"
        }
      ],
      "name": "getBasketRedeemedRewards",
      "outputs": [
        {
          "internalType": "int256",
          "name": "",
          "type": "int256"
        }
      ],
      "stateMutability": "view",
      "type": "function"
    },
    {
      "inputs": [
        {
          "internalType": "uint256",
          "name": "_basketId",
          "type": "uint256"
        }
      ],
      "name": "getBasketUnredeemedRewards",
      "outputs": [
        {
          "internalType": "int256",
          "name": "",
          "type": "int256"
        }
      ],
      "stateMutability": "view",
      "type": "function"
    },
    {
      "inputs": [],
      "name": "getDao",
      "outputs": [
        {
          "internalType": "address",
          "name": "",
          "type": "address"
        }
      ],
      "stateMutability": "view",
      "type": "function"
    },
    {
      "inputs": [
        {
          "internalType": "uint32",
          "name": "_chainId",
          "type": "uint32"
        },
        {
          "internalType": "uint256",
          "name": "_vaultNumber",
          "type": "uint256"
        },
        {
          "internalType": "uint256",
          "name": "_protocolNum",
          "type": "uint256"
        }
      ],
      "name": "getDeltaAllocationsProtocol",
      "outputs": [
        {
          "internalType": "int256",
          "name": "",
          "type": "int256"
        }
      ],
      "stateMutability": "view",
      "type": "function"
    },
    {
      "inputs": [
        {
          "internalType": "uint32",
          "name": "_chainId",
          "type": "uint32"
        },
        {
          "internalType": "uint256",
          "name": "_vaultNumber",
          "type": "uint256"
        }
      ],
      "name": "getDeltaAllocationsVault",
      "outputs": [
        {
          "internalType": "int256",
          "name": "",
          "type": "int256"
        }
      ],
      "stateMutability": "view",
      "type": "function"
    },
    {
      "inputs": [],
      "name": "getGuardian",
      "outputs": [
        {
          "internalType": "address",
          "name": "",
          "type": "address"
        }
      ],
      "stateMutability": "view",
      "type": "function"
    },
    {
      "inputs": [
        {
          "internalType": "uint256",
          "name": "_vaultNumber",
          "type": "uint256"
        },
        {
          "internalType": "uint32",
          "name": "_chainId",
          "type": "uint32"
        }
      ],
      "name": "getRebalancingPeriod",
      "outputs": [
        {
          "internalType": "uint256",
          "name": "",
          "type": "uint256"
        }
      ],
      "stateMutability": "view",
      "type": "function"
    },
    {
      "inputs": [
        {
          "internalType": "address",
          "name": "owner",
          "type": "address"
        },
        {
          "internalType": "address",
          "name": "operator",
          "type": "address"
        }
      ],
      "name": "isApprovedForAll",
      "outputs": [
        {
          "internalType": "bool",
          "name": "",
          "type": "bool"
        }
      ],
      "stateMutability": "view",
      "type": "function"
    },
    {
      "inputs": [
        {
          "internalType": "uint256",
          "name": "",
          "type": "uint256"
        }
      ],
      "name": "lastTimeStamp",
      "outputs": [
        {
          "internalType": "uint256",
          "name": "",
          "type": "uint256"
        }
      ],
      "stateMutability": "view",
      "type": "function"
    },
    {
      "inputs": [
        {
          "internalType": "uint32",
          "name": "_chainId",
          "type": "uint32"
        },
        {
          "internalType": "uint256",
          "name": "_vaultNumber",
          "type": "uint256"
        }
      ],
      "name": "mintNewBasket",
      "outputs": [
        {
          "internalType": "uint256",
          "name": "",
          "type": "uint256"
        }
      ],
      "stateMutability": "nonpayable",
      "type": "function"
    },
    {
      "inputs": [],
      "name": "name",
      "outputs": [
        {
          "internalType": "string",
          "name": "",
          "type": "string"
        }
      ],
      "stateMutability": "view",
      "type": "function"
    },
    {
      "inputs": [
        {
          "internalType": "uint256",
          "name": "tokenId",
          "type": "uint256"
        }
      ],
      "name": "ownerOf",
      "outputs": [
        {
          "internalType": "address",
          "name": "",
          "type": "address"
        }
      ],
      "stateMutability": "view",
      "type": "function"
    },
    {
      "inputs": [
        {
          "internalType": "uint32",
          "name": "_chainId",
          "type": "uint32"
        },
        {
          "internalType": "uint256",
          "name": "_vaultNumber",
          "type": "uint256"
        }
      ],
      "name": "pushAllocationsToVault",
      "outputs": [],
      "stateMutability": "payable",
      "type": "function"
    },
    {
      "inputs": [
        {
          "internalType": "uint256",
          "name": "_basketId",
          "type": "uint256"
        },
        {
          "internalType": "int256[]",
          "name": "_deltaAllocations",
          "type": "int256[]"
        }
      ],
      "name": "rebalanceBasket",
      "outputs": [],
      "stateMutability": "nonpayable",
      "type": "function"
    },
    {
      "inputs": [
        {
          "internalType": "uint256",
          "name": "_basketId",
          "type": "uint256"
        }
      ],
      "name": "redeemRewards",
      "outputs": [],
      "stateMutability": "nonpayable",
      "type": "function"
    },
    {
      "inputs": [
        {
          "internalType": "address",
          "name": "from",
          "type": "address"
        },
        {
          "internalType": "address",
          "name": "to",
          "type": "address"
        },
        {
          "internalType": "uint256",
          "name": "tokenId",
          "type": "uint256"
        }
      ],
      "name": "safeTransferFrom",
      "outputs": [],
      "stateMutability": "nonpayable",
      "type": "function"
    },
    {
      "inputs": [
        {
          "internalType": "address",
          "name": "from",
          "type": "address"
        },
        {
          "internalType": "address",
          "name": "to",
          "type": "address"
        },
        {
          "internalType": "uint256",
          "name": "tokenId",
          "type": "uint256"
        },
        {
          "internalType": "bytes",
          "name": "data",
          "type": "bytes"
        }
      ],
      "name": "safeTransferFrom",
      "outputs": [],
      "stateMutability": "nonpayable",
      "type": "function"
    },
    {
      "inputs": [
        {
          "internalType": "address",
          "name": "operator",
          "type": "address"
        },
        {
          "internalType": "bool",
          "name": "approved",
          "type": "bool"
        }
      ],
      "name": "setApprovalForAll",
      "outputs": [],
      "stateMutability": "nonpayable",
      "type": "function"
    },
    {
      "inputs": [
        {
          "internalType": "address",
          "name": "_dao",
          "type": "address"
        }
      ],
      "name": "setDao",
      "outputs": [],
      "stateMutability": "nonpayable",
      "type": "function"
    },
    {
      "inputs": [
        {
          "internalType": "address",
          "name": "_derbyToken",
          "type": "address"
        }
      ],
      "name": "setDerbyToken",
      "outputs": [],
      "stateMutability": "nonpayable",
      "type": "function"
    },
    {
      "inputs": [
        {
          "internalType": "address",
          "name": "_guardian",
          "type": "address"
        }
      ],
      "name": "setGuardian",
      "outputs": [],
      "stateMutability": "nonpayable",
      "type": "function"
    },
    {
      "inputs": [
        {
          "internalType": "uint32",
          "name": "_chainId",
          "type": "uint32"
        },
        {
          "internalType": "uint256",
          "name": "_vaultNumber",
          "type": "uint256"
        },
        {
          "internalType": "uint256",
          "name": "_latestProtocolId",
          "type": "uint256"
        }
      ],
      "name": "setLatestProtocolId",
      "outputs": [],
      "stateMutability": "nonpayable",
      "type": "function"
    },
    {
      "inputs": [
        {
          "internalType": "uint256",
          "name": "_factor",
          "type": "uint256"
        }
      ],
      "name": "setNegativeRewardFactor",
      "outputs": [],
      "stateMutability": "nonpayable",
      "type": "function"
    },
    {
      "inputs": [
        {
          "internalType": "int256",
          "name": "_threshold",
          "type": "int256"
        }
      ],
      "name": "setNegativeRewardThreshold",
      "outputs": [],
      "stateMutability": "nonpayable",
      "type": "function"
    },
    {
      "inputs": [
        {
          "internalType": "uint32",
          "name": "_chainId",
          "type": "uint32"
        },
        {
          "internalType": "uint256",
          "name": "_vaultNumber",
          "type": "uint256"
        },
        {
          "internalType": "bool",
          "name": "_rewardsReceived",
          "type": "bool"
        }
      ],
      "name": "setRewardsReceived",
      "outputs": [],
      "stateMutability": "nonpayable",
      "type": "function"
    },
    {
      "inputs": [
        {
          "internalType": "uint256",
          "name": "_vaultNumber",
          "type": "uint256"
        },
        {
          "internalType": "uint256",
          "name": "_tokenPrice",
          "type": "uint256"
        }
      ],
      "name": "setTokenPrice",
      "outputs": [],
      "stateMutability": "nonpayable",
      "type": "function"
    },
    {
      "inputs": [
        {
          "internalType": "uint256",
          "name": "_vaultNumber",
          "type": "uint256"
        },
        {
          "internalType": "uint32",
          "name": "_chainId",
          "type": "uint32"
        },
        {
          "internalType": "address",
          "name": "_address",
          "type": "address"
        }
      ],
      "name": "setVaultAddress",
      "outputs": [],
      "stateMutability": "nonpayable",
      "type": "function"
    },
    {
      "inputs": [
        {
          "internalType": "address",
          "name": "_xProvider",
          "type": "address"
        }
      ],
      "name": "setXProvider",
      "outputs": [],
      "stateMutability": "nonpayable",
      "type": "function"
    },
    {
      "inputs": [
        {
          "internalType": "uint256",
          "name": "_vaultNumber",
          "type": "uint256"
        },
        {
          "internalType": "uint32",
          "name": "_chainId",
          "type": "uint32"
        },
        {
          "internalType": "int256[]",
          "name": "_rewards",
          "type": "int256[]"
        }
      ],
      "name": "settleRewards",
      "outputs": [],
      "stateMutability": "nonpayable",
      "type": "function"
    },
    {
      "inputs": [
        {
          "internalType": "uint256",
          "name": "_vaultNumber",
          "type": "uint256"
        },
        {
          "internalType": "uint32",
          "name": "_chainId",
          "type": "uint32"
        },
        {
          "internalType": "int256[]",
          "name": "_rewards",
          "type": "int256[]"
        }
      ],
      "name": "settleRewardsGuard",
      "outputs": [],
      "stateMutability": "nonpayable",
      "type": "function"
    },
    {
      "inputs": [
        {
          "internalType": "bytes4",
          "name": "interfaceId",
          "type": "bytes4"
        }
      ],
      "name": "supportsInterface",
      "outputs": [
        {
          "internalType": "bool",
          "name": "",
          "type": "bool"
        }
      ],
      "stateMutability": "view",
      "type": "function"
    },
    {
      "inputs": [],
      "name": "symbol",
      "outputs": [
        {
          "internalType": "string",
          "name": "",
          "type": "string"
        }
      ],
      "stateMutability": "view",
      "type": "function"
    },
    {
      "inputs": [
        {
          "internalType": "uint256",
          "name": "",
          "type": "uint256"
        }
      ],
      "name": "tokenPrice",
      "outputs": [
        {
          "internalType": "uint256",
          "name": "",
          "type": "uint256"
        }
      ],
      "stateMutability": "view",
      "type": "function"
    },
    {
      "inputs": [
        {
          "internalType": "uint256",
          "name": "tokenId",
          "type": "uint256"
        }
      ],
      "name": "tokenURI",
      "outputs": [
        {
          "internalType": "string",
          "name": "",
          "type": "string"
        }
      ],
      "stateMutability": "view",
      "type": "function"
    },
    {
      "inputs": [
        {
          "internalType": "address",
          "name": "from",
          "type": "address"
        },
        {
          "internalType": "address",
          "name": "to",
          "type": "address"
        },
        {
          "internalType": "uint256",
          "name": "tokenId",
          "type": "uint256"
        }
      ],
      "name": "transferFrom",
      "outputs": [],
      "stateMutability": "nonpayable",
      "type": "function"
    },
    {
      "inputs": [],
      "name": "xProvider",
      "outputs": [
        {
          "internalType": "address",
          "name": "",
          "type": "address"
        }
      ],
      "stateMutability": "view",
      "type": "function"
    }
  ],
  "transactionHash": "0x4e9bd89a66ac7d374a87066d8d7423a9df09e86b291aab1c31dff135f3b547be",
  "args": [
    "DerbyNFT",
    "DRBNFT",
    "0x56FEf06d89879911E4130C894cF328c5D205bf8a",
    "0x1Ca7b496Ac4E609cf400793Db67916AC91773927",
    "0x1Ca7b496Ac4E609cf400793Db67916AC91773927"
  ],
  "numDeployments": 2,
  "solcInputHash": "ff4a7f4f858c3289631580cff1a1f81e",
  "bytecode": "0x6080604052670de0b6b3a76400006011553480156200001d57600080fd5b5060405162003b5138038062003b5183398101604081905262000040916200024d565b84518590859062000059906000906020850190620000bd565b5080516200006f906001906020840190620000bd565b5050600160065550600a80546001600160a01b039485166001600160a01b031991821617909155600780549385169382169390931790925560088054919093169116179055506200032c9050565b828054620000cb90620002ef565b90600052602060002090601f016020900481019282620000ef57600085556200013a565b82601f106200010a57805160ff19168380011785556200013a565b828001600101855582156200013a579182015b828111156200013a5782518255916020019190600101906200011d565b50620001489291506200014c565b5090565b5b808211156200014857600081556001016200014d565b634e487b7160e01b600052604160045260246000fd5b600082601f8301126200018b57600080fd5b81516001600160401b0380821115620001a857620001a862000163565b604051601f8301601f19908116603f01168101908282118183101715620001d357620001d362000163565b81604052838152602092508683858801011115620001f057600080fd5b600091505b83821015620002145785820183015181830184015290820190620001f5565b83821115620002265760008385830101525b9695505050505050565b80516001600160a01b03811681146200024857600080fd5b919050565b600080600080600060a086880312156200026657600080fd5b85516001600160401b03808211156200027e57600080fd5b6200028c89838a0162000179565b96506020880151915080821115620002a357600080fd5b50620002b28882890162000179565b945050620002c36040870162000230565b9250620002d36060870162000230565b9150620002e36080870162000230565b90509295509295909350565b600181811c908216806200030457607f821691505b602082108114156200032657634e487b7160e01b600052602260045260246000fd5b50919050565b613815806200033c6000396000f3fe6080604052600436106101ec5760003560e01c806301ffc9a7146101f157806306fdde0314610226578063081812fc146102485780630866cd8b14610275578063095ea7b3146102b05780630a875b49146102d25780630ccb7d5b146102f25780631f9864451461031257806323b872dd14610328578063277b5b9c146103485780632d64f8351461036857806334bb6cad1461038857806335f11cc2146103a857806342842e0e146103c85780634558d097146103e85780635026667b146104085780635d4f74501461042857806361b02ba6146104485780636352211e1461046857806364bfacaf146104885780636637b882146104a857806370a08231146104c8578063837d3c84146104e857806387f90376146105085780638a0dac4a1461052857806393848ab91461054857806395d89b4114610568578063a22cb4651461057d578063a75b87d21461059d578063ac9d9801146105bb578063b70811bc146105ce578063b88d4fde146105ec578063bb47fe051461060c578063c0bc28d01461063c578063c87b56dd1461065c578063d4ddce8a1461067c578063e49749fa146106a9578063e985e9c5146106c9578063eb685c47146106e9578063f3c23b3214610709578063fc5c0be01461074c578063fdba466e1461076c578063fdcfa7f21461078c575b600080fd5b3480156101fd57600080fd5b5061021161020c366004612d1a565b6107ac565b60405190151581526020015b60405180910390f35b34801561023257600080fd5b5061023b6107fe565b60405161021d9190612d8f565b34801561025457600080fd5b50610268610263366004612da2565b610890565b60405161021d9190612dbb565b34801561028157600080fd5b506102a2610290366004612da2565b600d6020526000908152604090205481565b60405190815260200161021d565b3480156102bc57600080fd5b506102d06102cb366004612deb565b6108b7565b005b3480156102de57600080fd5b506102d06102ed366004612da2565b6109d2565b3480156102fe57600080fd5b50600a54610268906001600160a01b031681565b34801561031e57600080fd5b506102a260115481565b34801561033457600080fd5b506102d0610343366004612e15565b610a01565b34801561035457600080fd5b506102d0610363366004612e65565b610a32565b34801561037457600080fd5b506102a2610383366004612e65565b610a82565b34801561039457600080fd5b506102d06103a3366004612e98565b610ab6565b3480156103b457600080fd5b506102d06103c3366004612da2565b610b02565b3480156103d457600080fd5b506102d06103e3366004612e15565b610c78565b3480156103f457600080fd5b506102d0610403366004612da2565b610c93565b34801561041457600080fd5b506102a2610423366004612da2565b610cc2565b34801561043457600080fd5b506102d0610443366004612eb3565b610ce2565b34801561045457600080fd5b506102a2610463366004612eef565b610d4f565b34801561047457600080fd5b50610268610483366004612da2565b610dae565b34801561049457600080fd5b506102d06104a3366004612fcb565b610de3565b3480156104b457600080fd5b506102d06104c3366004612e98565b610e3f565b3480156104d457600080fd5b506102a26104e3366004612e98565b610e8b565b3480156104f457600080fd5b506102d0610503366004612e98565b610f11565b34801561051457600080fd5b506102d061052336600461302f565b610f5d565b34801561053457600080fd5b506102d0610543366004612e98565b610fbc565b34801561055457600080fd5b506102d061056336600461306f565b611008565b34801561057457600080fd5b5061023b6111bb565b34801561058957600080fd5b506102d06105983660046130b5565b6111ca565b3480156105a957600080fd5b506008546001600160a01b0316610268565b6102d06105c93660046130ec565b6111d9565b3480156105da57600080fd5b506007546001600160a01b0316610268565b3480156105f857600080fd5b506102d0610607366004613108565b6113fa565b34801561061857600080fd5b506102a2610627366004612da2565b60009081526012602052604090206005015490565b34801561064857600080fd5b506102a26106573660046130ec565b611432565b34801561066857600080fd5b5061023b610677366004612da2565b611564565b34801561068857600080fd5b506102a2610697366004612da2565b60106020526000908152604090205481565b3480156106b557600080fd5b506102a26106c4366004612da2565b6115d7565b3480156106d557600080fd5b506102116106e43660046131c7565b6115ec565b3480156106f557600080fd5b506102d0610704366004612eef565b61161a565b34801561071557600080fd5b506102a26107243660046130ec565b63ffffffff919091166000908152601360209081526040808320938352929052206001015490565b34801561075857600080fd5b506102d0610767366004612fcb565b611656565b34801561077857600080fd5b50600954610268906001600160a01b031681565b34801561079857600080fd5b506102a26107a73660046131fa565b611680565b60006001600160e01b031982166380ac58cd60e01b14806107dd57506001600160e01b03198216635b5e139f60e01b145b806107f857506301ffc9a760e01b6001600160e01b03198316145b92915050565b60606000805461080d9061321d565b80601f01602080910402602001604051908101604052809291908181526020018280546108399061321d565b80156108865780601f1061085b57610100808354040283529160200191610886565b820191906000526020600020905b81548152906001019060200180831161086957829003601f168201915b5050505050905090565b600061089b826116a5565b506000908152600460205260409020546001600160a01b031690565b60006108c282610dae565b9050806001600160a01b0316836001600160a01b031614156109355760405162461bcd60e51b815260206004820152602160248201527f4552433732313a20617070726f76616c20746f2063757272656e74206f776e656044820152603960f91b60648201526084015b60405180910390fd5b336001600160a01b0382161480610951575061095181336115ec565b6109c35760405162461bcd60e51b815260206004820152603e60248201527f4552433732313a20617070726f76652063616c6c6572206973206e6f7420746f60448201527f6b656e206f776e6572206e6f7220617070726f76656420666f7220616c6c0000606482015260840161092c565b6109cd83836116cd565b505050565b6007546001600160a01b031633146109fc5760405162461bcd60e51b815260040161092c90613258565b600e55565b610a0b338261173b565b610a275760405162461bcd60e51b815260040161092c90613280565b6109cd83838361179a565b6008546001600160a01b03163314610a5c5760405162461bcd60e51b815260040161092c906132ce565b63ffffffff90921660009081526013602090815260408083209383529290522060030155565b63ffffffff8316600090815260136020908152604080832085845282528083208484526005019091529020545b9392505050565b6007546001600160a01b03163314610ae05760405162461bcd60e51b815260040161092c90613258565b600a80546001600160a01b0319166001600160a01b0392909216919091179055565b80610b0c81610dae565b6001600160a01b0316336001600160a01b031614610b3c5760405162461bcd60e51b815260040161092c906132fb565b6011546000838152601260205260408120600401549091610b5c91613368565b905060008113610ba15760405162461bcd60e51b815260206004820152601060248201526f4e6f7468696e6720746f20636c61696d60801b604482015260640161092c565b60008381526012602052604081206005018054839290610bc2908490613396565b90915550506000838152601260205260408120600481018290556001810154905463ffffffff90911691610bf68284611924565b60095460405163ab2dcc5d60e01b815263ffffffff861660048201526001600160a01b0380841660248301523360448301526064820188905292935091169063ab2dcc5d90608401600060405180830381600087803b158015610c5857600080fd5b505af1158015610c6c573d6000803e3d6000fd5b50505050505050505050565b6109cd838383604051806020016040528060008152506113fa565b6007546001600160a01b03163314610cbd5760405162461bcd60e51b815260040161092c90613258565b600f55565b60115460008281526012602052604081206004015490916107f891613368565b6008546001600160a01b03163314610d0c5760405162461bcd60e51b815260040161092c906132ce565b63ffffffff9190911660009081526013602090815260408083209483529390529190912080546001600160a01b0319166001600160a01b03909216919091179055565b600082610d5b81610dae565b6001600160a01b0316336001600160a01b031614610d8b5760405162461bcd60e51b815260040161092c906132fb565b505060009182526012602090815260408084209284526006909201905290205490565b6000818152600260205260408120546001600160a01b0316806107f85760405162461bcd60e51b815260040161092c906133d7565b6009546001600160a01b03163314610e345760405162461bcd60e51b815260206004820152601460248201527323b0b6b29d1037b7363c903c283937bb34b232b960611b604482015260640161092c565b6109cd83838361194f565b6007546001600160a01b03163314610e695760405162461bcd60e51b815260040161092c90613258565b600780546001600160a01b0319166001600160a01b0392909216919091179055565b60006001600160a01b038216610ef55760405162461bcd60e51b815260206004820152602960248201527f4552433732313a2061646472657373207a65726f206973206e6f7420612076616044820152683634b21037bbb732b960b91b606482015260840161092c565b506001600160a01b031660009081526003602052604090205490565b6007546001600160a01b03163314610f3b5760405162461bcd60e51b815260040161092c90613258565b600980546001600160a01b0319166001600160a01b0392909216919091179055565b6008546001600160a01b03163314610f875760405162461bcd60e51b815260040161092c906132ce565b63ffffffff92909216600090815260136020908152604080832093835292905220600201805460ff1916911515919091179055565b6007546001600160a01b03163314610fe65760405162461bcd60e51b815260040161092c90613258565b600880546001600160a01b0319166001600160a01b0392909216919091179055565b8161101281610dae565b6001600160a01b0316336001600160a01b0316146110425760405162461bcd60e51b815260040161092c906132fb565b600260065414156110655760405162461bcd60e51b815260040161092c90613409565b600260065560008381526012602090815260408083206001810154905463ffffffff90911680855260138452828520828652909352922060040154909190156111175763ffffffff8216600090815260136020908152604080832084845290915290206002015460ff166111175760405162461bcd60e51b815260206004820152601960248201527811d85b594e881c995dd85c991cc81b9bdd081cd95d1d1b1959603a1b604482015260640161092c565b61112085611a69565b600061112e86848488611c2f565b905061113a8682611d33565b6111448682611dd3565b61114d86611e5d565b7fe8cf7c200548ab6a1d80af2f015459546e109ef0f30e710b953c2947ecf2b251866111798486611680565b61118289610cc2565b60008a815260126020526040902060050154896040516111a695949392919061347b565b60405180910390a15050600160065550505050565b60606001805461080d9061321d565b6111d5338383611ef7565b5050565b600b5443141561123b5760405162461bcd60e51b815260206004820152602760248201527f43616e6e6f742063616c6c2066756e6374696f6e7320696e207468652073616d6044820152666520626c6f636b60c81b606482015260840161092c565b43600b5563ffffffff8216600090815260136020908152604080832084845290915290206002015460ff166112a85760405162461bcd60e51b8152602060048201526013602482015272139bc81c9958985b185b98d9481b9959591959606a1b604482015260640161092c565b60006112b48284611924565b90506001600160a01b03811661130c5760405162461bcd60e51b815260206004820152601d60248201527f47616d653a206e6f7420612076616c6964207661756c746e756d626572000000604482015260640161092c565b60006113188385611fc2565b6009546040516307ce1ca560e11b81529192506001600160a01b031690630f9c394a90349061134f908890879087906004016134a6565b6000604051808303818588803b15801561136857600080fd5b505af115801561137c573d6000803e3d6000fd5b5050506000858152600d6020908152604080832042905563ffffffff891683526013825280832088845290915290819020600201805460ff19169055517fecad91333212c73d818344879c492e12a819aefaa0bf2f6ebf6a62122ff6accf92506113ec91508690859085906134a6565b60405180910390a150505050565b611404338361173b565b6114205760405162461bcd60e51b815260040161092c90613280565b61142c848484846120a8565b50505050565b6000600260065414156114575760405162461bcd60e51b815260040161092c90613409565b6002600655600c805460009081526012602090815260408083206001908101805463ffffffff191663ffffffff8a1690811790915594548452818420879055938352601382528083208684529091529020600401546114b5916134df565b600c8054600090815260126020526040902060020191909155546114da9033906120db565b600c80549060006114ea836134f7565b91905055507f1d6ffa845056bfc51f642fc0bd6864f379d5e0af546f44d335c0bfa0591b77e7336001600c546115209190613512565b604080516001600160a01b0390931683526020830191909152810184905260600160405180910390a16001600c546115589190613512565b60016006559392505050565b606061156f826116a5565b600061158660408051602081019091526000815290565b905060008151116115a65760405180602001604052806000815250610aaf565b806115b0846120f5565b6040516020016115c1929190613529565b6040516020818303038152906040529392505050565b60009081526012602052604090206003015490565b6001600160a01b03918216600090815260056020908152604080832093909416825291909152205460ff1690565b6008546001600160a01b031633146116445760405162461bcd60e51b815260040161092c906132ce565b60009182526010602052604090912055565b6008546001600160a01b03163314610e345760405162461bcd60e51b815260040161092c906132ce565b63ffffffff166000908152601360209081526040808320938352929052206004015490565b6116ae816121f2565b6116ca5760405162461bcd60e51b815260040161092c906133d7565b50565b600081815260046020526040902080546001600160a01b0319166001600160a01b038416908117909155819061170282610dae565b6001600160a01b03167f8c5be1e5ebec7d5bd14f71427d1e84f3dd0314c0f7b2291e5b200ac8c7c3b92560405160405180910390a45050565b60008061174783610dae565b9050806001600160a01b0316846001600160a01b0316148061176e575061176e81856115ec565b806117925750836001600160a01b031661178784610890565b6001600160a01b0316145b949350505050565b826001600160a01b03166117ad82610dae565b6001600160a01b0316146118115760405162461bcd60e51b815260206004820152602560248201527f4552433732313a207472616e736665722066726f6d20696e636f72726563742060448201526437bbb732b960d91b606482015260840161092c565b6001600160a01b0382166118735760405162461bcd60e51b8152602060048201526024808201527f4552433732313a207472616e7366657220746f20746865207a65726f206164646044820152637265737360e01b606482015260840161092c565b61187e6000826116cd565b6001600160a01b03831660009081526003602052604081208054600192906118a7908490613512565b90915550506001600160a01b03821660009081526003602052604081208054600192906118d59084906134df565b909155505060008181526002602052604080822080546001600160a01b0319166001600160a01b0386811691821790925591518493918716916000805160206137c083398151915291a4505050565b63ffffffff16600090815260136020908152604080832093835292905220546001600160a01b031690565b63ffffffff82166000908152601360209081526040808320868452909152812060040180549161197e836134f7565b909155505063ffffffff82166000908152601360209081526040808320868452909152812060040154905b8251811015611a385760006119ca85876119c4600187613512565b8561220f565b90508382815181106119de576119de613558565b6020026020010151816119f19190613396565b63ffffffff861660009081526013602090815260408083208a8452825280832087845260060182528083208684529091529020555080611a30816134f7565b9150506119a9565b50505063ffffffff16600090815260136020908152604080832093835292905220600201805460ff19166001179055565b80611a7381610dae565b6001600160a01b0316336001600160a01b031614611aa35760405162461bcd60e51b815260040161092c906132fb565b600082815260126020526040902060030154611abd575050565b60008281526012602081815260408084206001810154815463ffffffff90911680875260138552838720828852855292862060040154958890529390925260029091015490929080821015611b495760405162461bcd60e51b8152602060048201526012602482015271105b1c9958591e481c9958985b185b98d95960721b604482015260640161092c565b63ffffffff84166000908152601360209081526040808320868452909152812060030154905b81811015611c25576000670de0b6b3a7640000611b8c8a84610d4f565b611b969190613368565b905080611ba35750611c13565b6000611bb18888888661220f565b9050806000191415611bc4575050611c13565b6000611bd28989888761220f565b905082611bdf828461356e565b611be991906135ad565b60008c81526012602052604081206004018054909190611c0a908490613396565b90915550505050505b80611c1d816134f7565b915050611b6f565b5050505050505050565b60008481526012602090815260408083206001015463ffffffff168084526013835281842086855290925282206003015483518114611cac5760405162461bcd60e51b8152602060048201526019602482015278092dcecc2d8d2c840c2d8d8dec6c2e8d2dedc40d8cadccee8d603b1b604482015260640161092c565b60005b81811015611d1d576000858281518110611ccb57611ccb613558565b602002602001015190508060001415611ce45750611d0b565b611cee8186613396565b9450611cfc8888848461224b565b611d0988888b8585612291565b505b80611d15816134f7565b915050611caf565b50611d298686856123c4565b5050949350505050565b6000811315611d4557611d4581612401565b60008112156111d5576000611d59836115d7565b90506000611d678383613396565b90506000611d75828461356e565b905080831215611dc25760405162461bcd60e51b8152602060048201526018602482015277139bdd08195b9bdd59da081d1bdad95b9cc81b1bd8dad95960421b604482015260640161092c565b611dcc8582612561565b5050505050565b81611ddd81610dae565b6001600160a01b0316336001600160a01b031614611e0d5760405162461bcd60e51b815260040161092c906132fb565b60008381526012602052604081206003018054849290611e2e908490613396565b9091555060009050611e3f846115d7565b12156109cd5760405162461bcd60e51b815260040161092c90613632565b80611e6781610dae565b6001600160a01b0316336001600160a01b031614611e975760405162461bcd60e51b815260040161092c906132fb565b6000828152601260209081526040808320600180820154915463ffffffff909216808652601385528386208387529094529190932060040154919291611edc916134df565b60009485526012602052604090942060020193909355505050565b816001600160a01b0316836001600160a01b03161415611f555760405162461bcd60e51b815260206004820152601960248201527822a9219b99189d1030b8383937bb32903a379031b0b63632b960391b604482015260640161092c565b6001600160a01b03838116600081815260056020908152604080832094871680845294825291829020805460ff191686151590811790915591519182527f17307eab39ab6107e8899845ad3d59bd9653f200f220920489ca2b5937696c31910160405180910390a3505050565b63ffffffff81166000908152601360209081526040808320858452909152902060030154606090806001600160401b0381111561200157612001612f11565b60405190808252806020026020018201604052801561202a578160200160208202803683370190505b50915060005b818110156120a057612043848683610a82565b83828151811061205557612055613558565b60209081029190910181019190915263ffffffff8516600090815260138252604080822088835283528082208483526005019092529081205580612098816134f7565b915050612030565b505092915050565b6120b384848461179a565b6120bf848484846126ec565b61142c5760405162461bcd60e51b815260040161092c9061365d565b6111d58282604051806020016040528060008152506127ee565b6060816121195750506040805180820190915260018152600360fc1b602082015290565b8160005b8115612143578061212d816134f7565b915061213c9050600a836136af565b915061211d565b6000816001600160401b0381111561215d5761215d612f11565b6040519080825280601f01601f191660200182016040528015612187576020820181803683370190505b5090505b84156117925761219c600183613512565b91506121a9600a866136c3565b6121b49060306134df565b60f81b8183815181106121c9576121c9613558565b60200101906001600160f81b031916908160001a9053506121eb600a866136af565b945061218b565b6000908152600260205260409020546001600160a01b0316151590565b63ffffffff8416600090815260136020908152604080832086845282528083208584526006018252808320848452909152902054949350505050565b63ffffffff84166000908152601360209081526040808320868452825280832085845260050190915281208054839290612286908490613396565b909155505050505050565b8261229b81610dae565b6001600160a01b0316336001600160a01b0316146122cb5760405162461bcd60e51b815260040161092c906132fb565b6000848152601260209081526040808320868452600601909152812080548492906122f7908490613396565b90915550600090506123098585610d4f565b9050600081121561232c5760405162461bcd60e51b815260040161092c90613632565b63ffffffff8716600090815260136020908152604080832089845290915281206004015461235e90899089908861220f565b9050806000191415611c25578115611c255760405162461bcd60e51b815260206004820152602360248201527f416c6c6f636174696f6e7320746f20626c61636b6c69737465642070726f746f60448201526218dbdb60ea1b606482015260840161092c565b63ffffffff83166000908152601360209081526040808320858452909152812060010180548392906123f7908490613396565b9091555050505050565b600a546040516370a0823160e01b81526000916001600160a01b0316906370a0823190612432903090600401612dbb565b602060405180830381865afa15801561244f573d6000803e3d6000fd5b505050506040513d601f19601f8201168201806040525081019061247391906136d7565b600a5490915061248e906001600160a01b0316333085612821565b600a546040516370a0823160e01b81526000916001600160a01b0316906370a08231906124bf903090600401612dbb565b602060405180830381865afa1580156124dc573d6000803e3d6000fd5b505050506040513d601f19601f8201168201806040525081019061250091906136d7565b90508261250d8383613512565b6125179190613512565b156109cd5760405162461bcd60e51b815260206004820152601a6024820152794572726f72206c6f636b3a20756e6465722f6f766572666c6f7760301b604482015260640161092c565b600061256d838361288c565b9050600061257b8284613512565b600a546040516370a0823160e01b81529194508492506000916001600160a01b03909116906370a08231906125b4903090600401612dbb565b602060405180830381865afa1580156125d1573d6000803e3d6000fd5b505050506040513d601f19601f820116820180604052508101906125f591906136d7565b600a5490915061260f906001600160a01b031633846129d1565b600a546040516370a0823160e01b81526000916001600160a01b0316906370a0823190612640903090600401612dbb565b602060405180830381865afa15801561265d573d6000803e3d6000fd5b505050506040513d601f19601f8201168201806040525081019061268191906136d7565b90508261268e8284613512565b6126989190613512565b156126e45760405162461bcd60e51b815260206004820152601c60248201527b4572726f7220756e6c6f636b3a20756e6465722f6f766572666c6f7760201b604482015260640161092c565b505050505050565b6000612700846001600160a01b0316612a01565b156127e657604051630a85bd0160e11b81526001600160a01b0385169063150b7a02906127379033908990889088906004016136f0565b6020604051808303816000875af1925050508015612772575060408051601f3d908101601f1916820190925261276f9181019061372d565b60015b6127cc573d8080156127a0576040519150601f19603f3d011682016040523d82523d6000602084013e6127a5565b606091505b5080516127c45760405162461bcd60e51b815260040161092c9061365d565b805181602001fd5b6001600160e01b031916630a85bd0160e11b149050611792565b506001611792565b6127f88383612a10565b61280560008484846126ec565b6109cd5760405162461bcd60e51b815260040161092c9061365d565b6040516001600160a01b038085166024830152831660448201526064810182905261142c9085906323b872dd60e01b906084015b60408051601f198184030181529190526020810180516001600160e01b03166001600160e01b031990931692909217909152612b30565b600e546011546000848152601260205260408120600401549092916128b091613368565b13156128be575060006107f8565b600083815260126020526040812080546001820154600490920154909263ffffffff90921691906128ee9061374a565b600084815260106020526040812054600f549293509182906064906129139086613767565b61291d91906136af565b61292791906136af565b90508681106129365786612938565b805b600f549091508261294a836064613767565b6129549190613767565b61295e91906136af565b6000898152601260205260408120600401805490919061297f908490613396565b909155505063ffffffff8085166000908152601360209081526040808320898452909152902054600a546129c6926001600160a01b0391821692919091169084906129d116565b979650505050505050565b6040516001600160a01b0383166024820152604481018290526109cd90849063a9059cbb60e01b90606401612855565b6001600160a01b03163b151590565b6001600160a01b038216612a665760405162461bcd60e51b815260206004820181905260248201527f4552433732313a206d696e7420746f20746865207a65726f2061646472657373604482015260640161092c565b612a6f816121f2565b15612abb5760405162461bcd60e51b815260206004820152601c60248201527b115490cdcc8c4e881d1bdad95b88185b1c9958591e481b5a5b9d195960221b604482015260640161092c565b6001600160a01b0382166000908152600360205260408120805460019290612ae49084906134df565b909155505060008181526002602052604080822080546001600160a01b0319166001600160a01b03861690811790915590518392906000805160206137c0833981519152908290a45050565b6000612b85826040518060400160405280602081526020017f5361666545524332303a206c6f772d6c6576656c2063616c6c206661696c6564815250856001600160a01b0316612c029092919063ffffffff16565b8051909150156109cd5780806020019051810190612ba39190613786565b6109cd5760405162461bcd60e51b815260206004820152602a60248201527f5361666545524332303a204552433230206f7065726174696f6e20646964206e6044820152691bdd081cdd58d8d9595960b21b606482015260840161092c565b6060611792848460008585612c1685612a01565b612c625760405162461bcd60e51b815260206004820152601d60248201527f416464726573733a2063616c6c20746f206e6f6e2d636f6e7472616374000000604482015260640161092c565b600080866001600160a01b03168587604051612c7e91906137a3565b60006040518083038185875af1925050503d8060008114612cbb576040519150601f19603f3d011682016040523d82523d6000602084013e612cc0565b606091505b50915091506129c682828660608315612cda575081610aaf565b825115612cea5782518084602001fd5b8160405162461bcd60e51b815260040161092c9190612d8f565b6001600160e01b0319811681146116ca57600080fd5b600060208284031215612d2c57600080fd5b8135610aaf81612d04565b60005b83811015612d52578181015183820152602001612d3a565b8381111561142c5750506000910152565b60008151808452612d7b816020860160208601612d37565b601f01601f19169290920160200192915050565b602081526000610aaf6020830184612d63565b600060208284031215612db457600080fd5b5035919050565b6001600160a01b0391909116815260200190565b80356001600160a01b0381168114612de657600080fd5b919050565b60008060408385031215612dfe57600080fd5b612e0783612dcf565b946020939093013593505050565b600080600060608486031215612e2a57600080fd5b612e3384612dcf565b9250612e4160208501612dcf565b9150604084013590509250925092565b803563ffffffff81168114612de657600080fd5b600080600060608486031215612e7a57600080fd5b612e8384612e51565b95602085013595506040909401359392505050565b600060208284031215612eaa57600080fd5b610aaf82612dcf565b600080600060608486031215612ec857600080fd5b83359250612ed860208501612e51565b9150612ee660408501612dcf565b90509250925092565b60008060408385031215612f0257600080fd5b50508035926020909101359150565b634e487b7160e01b600052604160045260246000fd5b604051601f8201601f191681016001600160401b0381118282101715612f4f57612f4f612f11565b604052919050565b600082601f830112612f6857600080fd5b813560206001600160401b03821115612f8357612f83612f11565b8160051b612f92828201612f27565b9283528481018201928281019087851115612fac57600080fd5b83870192505b848310156129c657823582529183019190830190612fb2565b600080600060608486031215612fe057600080fd5b83359250612ff060208501612e51565b915060408401356001600160401b0381111561300b57600080fd5b61301786828701612f57565b9150509250925092565b80151581146116ca57600080fd5b60008060006060848603121561304457600080fd5b61304d84612e51565b925060208401359150604084013561306481613021565b809150509250925092565b6000806040838503121561308257600080fd5b8235915060208301356001600160401b0381111561309f57600080fd5b6130ab85828601612f57565b9150509250929050565b600080604083850312156130c857600080fd5b6130d183612dcf565b915060208301356130e181613021565b809150509250929050565b600080604083850312156130ff57600080fd5b612e0783612e51565b6000806000806080858703121561311e57600080fd5b61312785612dcf565b93506020613136818701612dcf565b93506040860135925060608601356001600160401b038082111561315957600080fd5b818801915088601f83011261316d57600080fd5b81358181111561317f5761317f612f11565b613191601f8201601f19168501612f27565b915080825289848285010111156131a757600080fd5b808484018584013760008482840101525080935050505092959194509250565b600080604083850312156131da57600080fd5b6131e383612dcf565b91506131f160208401612dcf565b90509250929050565b6000806040838503121561320d57600080fd5b823591506131f160208401612e51565b600181811c9082168061323157607f821691505b6020821081141561325257634e487b7160e01b600052602260045260246000fd5b50919050565b6020808252600e908201526d47616d653a206f6e6c792044414f60901b604082015260600190565b6020808252602e908201527f4552433732313a2063616c6c6572206973206e6f7420746f6b656e206f776e6560408201526d1c881b9bdc88185c1c1c9bdd995960921b606082015260800190565b60208082526013908201527223b0b6b29d1037b7363c9023bab0b93234b0b760691b604082015260600190565b60208082526021908201527f47616d653a204e6f7420746865206f776e6572206f6620746865206261736b656040820152601d60fa1b606082015260800190565b634e487b7160e01b600052601260045260246000fd5b634e487b7160e01b600052601160045260246000fd5b6000826133775761337761333c565b600160ff1b82146000198414161561339157613391613352565b500590565b600080821280156001600160ff1b03849003851316156133b8576133b8613352565b600160ff1b83900384128116156133d1576133d1613352565b50500190565b602080825260189082015277115490cdcc8c4e881a5b9d985b1a59081d1bdad95b88125160421b604082015260600190565b6020808252601f908201527f5265656e7472616e637947756172643a207265656e7472616e742063616c6c00604082015260600190565b600081518084526020808501945080840160005b8381101561347057815187529582019590820190600101613454565b509495945050505050565b85815284602082015283604082015282606082015260a0608082015260006129c660a0830184613440565b63ffffffff841681526001600160a01b03831660208201526060604082018190526000906134d690830184613440565b95945050505050565b600082198211156134f2576134f2613352565b500190565b600060001982141561350b5761350b613352565b5060010190565b60008282101561352457613524613352565b500390565b6000835161353b818460208801612d37565b83519083019061354f818360208801612d37565b01949350505050565b634e487b7160e01b600052603260045260246000fd5b60008083128015600160ff1b85018412161561358c5761358c613352565b6001600160ff1b03840183138116156135a7576135a7613352565b50500390565b60006001600160ff1b03818413828413808216868404861116156135d3576135d3613352565b600160ff1b60008712828116878305891216156135f2576135f2613352565b6000871292508782058712848416161561360e5761360e613352565b8785058712818416161561362457613624613352565b505050929093029392505050565b6020808252601190820152704261736b65743a20756e646572666c6f7760781b604082015260600190565b60208082526032908201527f4552433732313a207472616e7366657220746f206e6f6e20455243373231526560408201527131b2b4bb32b91034b6b83632b6b2b73a32b960711b606082015260800190565b6000826136be576136be61333c565b500490565b6000826136d2576136d261333c565b500690565b6000602082840312156136e957600080fd5b5051919050565b6001600160a01b038581168252841660208201526040810183905260806060820181905260009061372390830184612d63565b9695505050505050565b60006020828403121561373f57600080fd5b8151610aaf81612d04565b6000600160ff1b82141561376057613760613352565b5060000390565b600081600019048311821515161561378157613781613352565b500290565b60006020828403121561379857600080fd5b8151610aaf81613021565b600082516137b5818460208701612d37565b919091019291505056feddf252ad1be2c89b69c2b068fc378daa952ba7f163c4a11628f55a4df523b3efa26469706673582212202cbfec07298c6e0190fbbed42fc8f5990dde1044efc557edcc6ec6d179eb0ef964736f6c634300080b0033",
  "devdoc": {
    "kind": "dev",
    "methods": {
      "approve(address,uint256)": {
        "details": "See {IERC721-approve}."
      },
      "balanceOf(address)": {
        "details": "See {IERC721-balanceOf}."
      },
      "basketAllocationInProtocol(uint256,uint256)": {
        "params": {
          "_basketId": "Basket ID (tokenID) in the BasketToken (NFT) contract",
          "_protocolId": "Id of the protocol of which the allocation is queried"
        },
        "returns": {
          "_0": "int256 Number of derby tokens that are allocated towards this specific protocol"
        }
      },
      "basketTotalAllocatedTokens(uint256)": {
        "params": {
          "_basketId": "Basket ID (tokenID) in the BasketToken (NFT) contract."
        },
        "returns": {
          "_0": "int256 Number of derby tokens that are allocated towards protocols."
        }
      },
      "getApproved(uint256)": {
        "details": "See {IERC721-getApproved}."
      },
      "getBasketRedeemedRewards(uint256)": {
        "params": {
          "_basketId": "Basket ID (tokenID) in the BasketToken (NFT) contract."
        },
        "returns": {
          "_0": "int256 Total redeemed rewards."
        }
      },
      "getBasketUnredeemedRewards(uint256)": {
        "params": {
          "_basketId": "Basket ID (tokenID) in the BasketToken (NFT) contract."
        },
        "returns": {
          "_0": "int256 Total unredeemed rewards. (in vaultCurrency.decimals())"
        }
      },
      "getDeltaAllocationsProtocol(uint32,uint256,uint256)": {
        "params": {
          "_chainId": "number of chainId",
          "_protocolNum": "Protocol number linked to an underlying vault e.g compound_usdc_01",
          "_vaultNumber": "number of vault"
        },
        "returns": {
          "_0": "allocation Delta allocation in tokens"
        }
      },
      "getDeltaAllocationsVault(uint32,uint256)": {
        "params": {
          "_chainId": "number of chainId",
          "_vaultNumber": "number of vault"
        },
        "returns": {
          "_0": "allocation delta allocation"
        }
      },
      "getRebalancingPeriod(uint256,uint32)": {
        "params": {
          "_chainId": "Number of chain used",
          "_vaultNumber": "Number of the vault"
        },
        "returns": {
          "_0": "rebalancingPeriod Number of the rebalancing period"
        }
      },
      "isApprovedForAll(address,address)": {
        "details": "See {IERC721-isApprovedForAll}."
      },
      "mintNewBasket(uint32,uint256)": {
        "details": "The basket NFT is minted for a specific vault, starts with a zero allocation and the tokens are not locked here.",
        "params": {
          "_chainId": "Chain ID of the vault.",
          "_vaultNumber": "Number of the vault. Same as in Router."
        },
        "returns": {
          "_0": "basketId The basket Id the user has minted."
        }
      },
      "name()": {
        "details": "See {IERC721Metadata-name}."
      },
      "ownerOf(uint256)": {
        "details": "See {IERC721-ownerOf}."
      },
      "pushAllocationsToVault(uint32,uint256)": {
        "details": "Sends over an array where the index is the protocolId",
        "params": {
          "_chainId": "Chain id of the vault where the allocations need to be sent",
          "_vaultNumber": "Number of vault"
        }
      },
      "rebalanceBasket(uint256,int256[])": {
        "details": "First calculates the rewards the basket has built up, then sets the new allocations and communicates the deltas to the vaultFinally it locks or unlocks tokens",
        "params": {
          "_basketId": "Basket ID (tokenID) in the BasketToken (NFT) contract.",
          "_deltaAllocations": "delta allocations set by the user of the basket. Allocations are scaled (so * 1E18)."
        }
      },
      "redeemRewards(uint256)": {
        "details": "makes a (crosschain) call to the vault to make the actual transfer because the vault holds the funds.",
        "params": {
          "_basketId": "Basket ID (tokenID) in the BasketToken (NFT) contract."
        }
      },
      "safeTransferFrom(address,address,uint256)": {
        "details": "See {IERC721-safeTransferFrom}."
      },
      "safeTransferFrom(address,address,uint256,bytes)": {
        "details": "See {IERC721-safeTransferFrom}."
      },
      "setApprovalForAll(address,bool)": {
        "details": "See {IERC721-setApprovalForAll}."
      },
      "setDao(address)": {
        "params": {
          "_dao": "DAO address"
        }
      },
      "setDerbyToken(address)": {
        "params": {
          "_derbyToken": "new address of Derby token"
        }
      },
      "setGuardian(address)": {
        "params": {
          "_guardian": "new address of the guardian"
        }
      },
      "setLatestProtocolId(uint32,uint256,uint256)": {
        "params": {
          "_chainId": "number of chain id set in chainIds array",
          "_latestProtocolId": "latest protocol Id aka number of supported protocol vaults, starts at 0",
          "_vaultNumber": "number of vault"
        }
      },
      "setNegativeRewardFactor(uint256)": {
        "params": {
          "_factor": "percentage of tokens that will be sold / burned"
        }
      },
      "setNegativeRewardThreshold(int256)": {
        "params": {
          "_threshold": "treshold in vaultCurrency e.g USDC, must be negative"
        }
      },
      "setRewardsReceived(uint32,uint256,bool)": {
        "params": {
          "_chainId": "Number of chain used",
          "_rewardsReceived": "bool to set if rewards are received",
          "_vaultNumber": "Number of the vault"
        }
      },
      "setTokenPrice(uint256,uint256)": {
        "params": {
          "_tokenPrice": "tokenPrice in vaultCurrency / derbyTokenPrice",
          "_vaultNumber": "Number of the vault"
        }
      },
      "setXProvider(address)": {
        "params": {
          "_xProvider": "new address of xProvider on this chain"
        }
      },
      "settleRewards(uint256,uint32,int256[])": {
        "params": {
          "_chainId": "Number of chain used",
          "_rewards": "Rewards per locked token per protocol (each protocol is an element in the array)",
          "_vaultNumber": "Number of the vault"
        }
      },
      "supportsInterface(bytes4)": {
        "details": "See {IERC165-supportsInterface}."
      },
      "symbol()": {
        "details": "See {IERC721Metadata-symbol}."
      },
      "tokenURI(uint256)": {
        "details": "See {IERC721Metadata-tokenURI}."
      },
      "transferFrom(address,address,uint256)": {
        "details": "See {IERC721-transferFrom}."
      }
    },
    "version": 1
  },
  "userdoc": {
    "kind": "user",
    "methods": {
      "basketAllocationInProtocol(uint256,uint256)": {
        "notice": "function to see the allocation of a specific protocol by a basketId. Only the owner of the basket can view this"
      },
      "basketTotalAllocatedTokens(uint256)": {
        "notice": "function to see the total number of allocated tokens. Only the owner of the basket can view this."
      },
      "getBasketRedeemedRewards(uint256)": {
        "notice": "function to see the total reeemed rewards from the basket. Only the owner of the basket can view this."
      },
      "getBasketUnredeemedRewards(uint256)": {
        "notice": "function to see the total unredeemed rewards the basket has built up. Only the owner of the basket can view this."
      },
      "getDao()": {
        "notice": "Getter for dao address"
      },
      "getDeltaAllocationsProtocol(uint32,uint256,uint256)": {
        "notice": "Getter for the delta allocation in Protocol vault e.g compound_usdc_01"
      },
      "getDeltaAllocationsVault(uint32,uint256)": {
        "notice": "Getter for delta allocation in a particulair chainId"
      },
      "getGuardian()": {
        "notice": "Getter for guardian address"
      },
      "getRebalancingPeriod(uint256,uint32)": {
        "notice": "Getter for the vault rebalancing period"
      },
      "mintNewBasket(uint32,uint256)": {
        "notice": "Mints a new NFT with a Basket of allocations."
      },
      "pushAllocationsToVault(uint32,uint256)": {
        "notice": "Game pushes deltaAllocations to vaultsTrigger to push delta allocations in protocols to cross chain vaults"
      },
      "rebalanceBasket(uint256,int256[])": {
        "notice": "rebalances an existing Basket"
      },
      "redeemRewards(uint256)": {
        "notice": "redeem funds from basket in the game."
      },
      "setDao(address)": {
        "notice": "Setter for DAO address"
      },
      "setDerbyToken(address)": {
        "notice": "Setter Derby token address"
      },
      "setGuardian(address)": {
        "notice": "Setter for guardian address"
      },
      "setLatestProtocolId(uint32,uint256,uint256)": {
        "notice": "Setter for latest protocol Id for given chainId."
      },
      "setNegativeRewardFactor(uint256)": {
        "notice": "Setter for negativeRewardFactor"
      },
      "setNegativeRewardThreshold(int256)": {
        "notice": "Setter for threshold at which user tokens will be sold / burned"
      },
      "setRewardsReceived(uint32,uint256,bool)": {
        "notice": "setter for rewardsReceived"
      },
      "setTokenPrice(uint256,uint256)": {
        "notice": "Setter for tokenPrice"
      },
      "setVaultAddress(uint256,uint32,address)": {
        "notice": "setter to link a chainId to a vault address for cross chain functions"
      },
      "setXProvider(address)": {
        "notice": "Setter for xProvider address"
      },
      "settleRewards(uint256,uint32,int256[])": {
        "notice": "See settleRewardsInt below"
      },
      "settleRewardsGuard(uint256,uint32,int256[])": {
        "notice": "Guardian function"
      }
    },
    "version": 1
  },
  "storageLayout": {
    "storage": [
      {
        "astId": 1071,
        "contract": "contracts/Game.sol:Game",
        "label": "_name",
        "offset": 0,
        "slot": "0",
        "type": "t_string_storage"
      },
      {
        "astId": 1073,
        "contract": "contracts/Game.sol:Game",
        "label": "_symbol",
        "offset": 0,
        "slot": "1",
        "type": "t_string_storage"
      },
      {
        "astId": 1077,
        "contract": "contracts/Game.sol:Game",
        "label": "_owners",
        "offset": 0,
        "slot": "2",
        "type": "t_mapping(t_uint256,t_address)"
      },
      {
        "astId": 1081,
        "contract": "contracts/Game.sol:Game",
        "label": "_balances",
        "offset": 0,
        "slot": "3",
        "type": "t_mapping(t_address,t_uint256)"
      },
      {
        "astId": 1085,
        "contract": "contracts/Game.sol:Game",
        "label": "_tokenApprovals",
        "offset": 0,
        "slot": "4",
        "type": "t_mapping(t_uint256,t_address)"
      },
      {
        "astId": 1091,
        "contract": "contracts/Game.sol:Game",
        "label": "_operatorApprovals",
        "offset": 0,
        "slot": "5",
        "type": "t_mapping(t_address,t_mapping(t_address,t_bool))"
      },
      {
        "astId": 10,
        "contract": "contracts/Game.sol:Game",
        "label": "_status",
        "offset": 0,
        "slot": "6",
        "type": "t_uint256"
      },
      {
        "astId": 3248,
        "contract": "contracts/Game.sol:Game",
        "label": "dao",
        "offset": 0,
        "slot": "7",
        "type": "t_address"
      },
      {
        "astId": 3250,
        "contract": "contracts/Game.sol:Game",
        "label": "guardian",
        "offset": 0,
        "slot": "8",
        "type": "t_address"
      },
      {
        "astId": 3252,
        "contract": "contracts/Game.sol:Game",
        "label": "xProvider",
        "offset": 0,
        "slot": "9",
        "type": "t_address"
      },
      {
        "astId": 3255,
        "contract": "contracts/Game.sol:Game",
        "label": "derbyToken",
        "offset": 0,
        "slot": "10",
        "type": "t_contract(IERC20)703"
      },
      {
        "astId": 3257,
        "contract": "contracts/Game.sol:Game",
        "label": "lastBlock",
        "offset": 0,
        "slot": "11",
        "type": "t_uint256"
      },
      {
        "astId": 3259,
        "contract": "contracts/Game.sol:Game",
        "label": "latestBasketId",
        "offset": 0,
        "slot": "12",
        "type": "t_uint256"
      },
      {
        "astId": 3263,
        "contract": "contracts/Game.sol:Game",
        "label": "lastTimeStamp",
        "offset": 0,
        "slot": "13",
        "type": "t_mapping(t_uint256,t_uint256)"
      },
      {
        "astId": 3265,
        "contract": "contracts/Game.sol:Game",
        "label": "negativeRewardThreshold",
        "offset": 0,
        "slot": "14",
        "type": "t_int256"
      },
      {
        "astId": 3267,
        "contract": "contracts/Game.sol:Game",
        "label": "negativeRewardFactor",
        "offset": 0,
        "slot": "15",
        "type": "t_uint256"
      },
      {
        "astId": 3271,
        "contract": "contracts/Game.sol:Game",
        "label": "tokenPrice",
        "offset": 0,
        "slot": "16",
        "type": "t_mapping(t_uint256,t_uint256)"
      },
      {
        "astId": 3274,
        "contract": "contracts/Game.sol:Game",
        "label": "BASE_SCALE",
        "offset": 0,
        "slot": "17",
        "type": "t_uint256"
      },
      {
        "astId": 3279,
        "contract": "contracts/Game.sol:Game",
        "label": "baskets",
        "offset": 0,
        "slot": "18",
        "type": "t_mapping(t_uint256,t_struct(Basket)3225_storage)"
      },
      {
        "astId": 3286,
        "contract": "contracts/Game.sol:Game",
        "label": "vaults",
        "offset": 0,
        "slot": "19",
        "type": "t_mapping(t_uint32,t_mapping(t_uint256,t_struct(vaultInfo)3246_storage))"
      }
    ],
    "types": {
      "t_address": {
        "encoding": "inplace",
        "label": "address",
        "numberOfBytes": "20"
      },
      "t_bool": {
        "encoding": "inplace",
        "label": "bool",
        "numberOfBytes": "1"
      },
      "t_contract(IERC20)703": {
        "encoding": "inplace",
        "label": "contract IERC20",
        "numberOfBytes": "20"
      },
      "t_int256": {
        "encoding": "inplace",
        "label": "int256",
        "numberOfBytes": "32"
      },
      "t_mapping(t_address,t_bool)": {
        "encoding": "mapping",
        "key": "t_address",
        "label": "mapping(address => bool)",
        "numberOfBytes": "32",
        "value": "t_bool"
      },
      "t_mapping(t_address,t_mapping(t_address,t_bool))": {
        "encoding": "mapping",
        "key": "t_address",
        "label": "mapping(address => mapping(address => bool))",
        "numberOfBytes": "32",
        "value": "t_mapping(t_address,t_bool)"
      },
      "t_mapping(t_address,t_uint256)": {
        "encoding": "mapping",
        "key": "t_address",
        "label": "mapping(address => uint256)",
        "numberOfBytes": "32",
        "value": "t_uint256"
      },
      "t_mapping(t_uint256,t_address)": {
        "encoding": "mapping",
        "key": "t_uint256",
        "label": "mapping(uint256 => address)",
        "numberOfBytes": "32",
        "value": "t_address"
      },
      "t_mapping(t_uint256,t_int256)": {
        "encoding": "mapping",
        "key": "t_uint256",
        "label": "mapping(uint256 => int256)",
        "numberOfBytes": "32",
        "value": "t_int256"
      },
      "t_mapping(t_uint256,t_mapping(t_uint256,t_int256))": {
        "encoding": "mapping",
        "key": "t_uint256",
        "label": "mapping(uint256 => mapping(uint256 => int256))",
        "numberOfBytes": "32",
        "value": "t_mapping(t_uint256,t_int256)"
      },
      "t_mapping(t_uint256,t_struct(Basket)3225_storage)": {
        "encoding": "mapping",
        "key": "t_uint256",
        "label": "mapping(uint256 => struct Game.Basket)",
        "numberOfBytes": "32",
        "value": "t_struct(Basket)3225_storage"
      },
      "t_mapping(t_uint256,t_struct(vaultInfo)3246_storage)": {
        "encoding": "mapping",
        "key": "t_uint256",
        "label": "mapping(uint256 => struct Game.vaultInfo)",
        "numberOfBytes": "32",
        "value": "t_struct(vaultInfo)3246_storage"
      },
      "t_mapping(t_uint256,t_uint256)": {
        "encoding": "mapping",
        "key": "t_uint256",
        "label": "mapping(uint256 => uint256)",
        "numberOfBytes": "32",
        "value": "t_uint256"
      },
      "t_mapping(t_uint32,t_mapping(t_uint256,t_struct(vaultInfo)3246_storage))": {
        "encoding": "mapping",
        "key": "t_uint32",
        "label": "mapping(uint32 => mapping(uint256 => struct Game.vaultInfo))",
        "numberOfBytes": "32",
        "value": "t_mapping(t_uint256,t_struct(vaultInfo)3246_storage)"
      },
      "t_string_storage": {
        "encoding": "bytes",
        "label": "string",
        "numberOfBytes": "32"
      },
      "t_struct(Basket)3225_storage": {
        "encoding": "inplace",
        "label": "struct Game.Basket",
        "members": [
          {
            "astId": 3210,
            "contract": "contracts/Game.sol:Game",
            "label": "vaultNumber",
            "offset": 0,
            "slot": "0",
            "type": "t_uint256"
          },
          {
            "astId": 3212,
            "contract": "contracts/Game.sol:Game",
            "label": "chainId",
            "offset": 0,
            "slot": "1",
            "type": "t_uint32"
          },
          {
            "astId": 3214,
            "contract": "contracts/Game.sol:Game",
            "label": "lastRebalancingPeriod",
            "offset": 0,
            "slot": "2",
            "type": "t_uint256"
          },
          {
            "astId": 3216,
            "contract": "contracts/Game.sol:Game",
            "label": "nrOfAllocatedTokens",
            "offset": 0,
            "slot": "3",
            "type": "t_int256"
          },
          {
            "astId": 3218,
            "contract": "contracts/Game.sol:Game",
            "label": "totalUnRedeemedRewards",
            "offset": 0,
            "slot": "4",
            "type": "t_int256"
          },
          {
            "astId": 3220,
            "contract": "contracts/Game.sol:Game",
            "label": "totalRedeemedRewards",
            "offset": 0,
            "slot": "5",
            "type": "t_int256"
          },
          {
            "astId": 3224,
            "contract": "contracts/Game.sol:Game",
            "label": "allocations",
            "offset": 0,
            "slot": "6",
            "type": "t_mapping(t_uint256,t_int256)"
          }
        ],
        "numberOfBytes": "224"
      },
      "t_struct(vaultInfo)3246_storage": {
        "encoding": "inplace",
        "label": "struct Game.vaultInfo",
        "members": [
          {
            "astId": 3227,
            "contract": "contracts/Game.sol:Game",
            "label": "vaultAddress",
            "offset": 0,
            "slot": "0",
            "type": "t_address"
          },
          {
            "astId": 3229,
            "contract": "contracts/Game.sol:Game",
            "label": "deltaAllocationsVault",
            "offset": 0,
            "slot": "1",
            "type": "t_int256"
          },
          {
            "astId": 3231,
            "contract": "contracts/Game.sol:Game",
            "label": "rewardsReceived",
            "offset": 0,
            "slot": "2",
            "type": "t_bool"
          },
          {
            "astId": 3233,
            "contract": "contracts/Game.sol:Game",
            "label": "latestProtocolId",
            "offset": 0,
            "slot": "3",
            "type": "t_uint256"
          },
          {
            "astId": 3235,
            "contract": "contracts/Game.sol:Game",
            "label": "rebalancingPeriod",
            "offset": 0,
            "slot": "4",
            "type": "t_uint256"
          },
          {
            "astId": 3239,
            "contract": "contracts/Game.sol:Game",
            "label": "deltaAllocationProtocol",
            "offset": 0,
            "slot": "5",
            "type": "t_mapping(t_uint256,t_int256)"
          },
          {
            "astId": 3245,
            "contract": "contracts/Game.sol:Game",
            "label": "rewardPerLockedToken",
            "offset": 0,
            "slot": "6",
            "type": "t_mapping(t_uint256,t_mapping(t_uint256,t_int256))"
          }
        ],
        "numberOfBytes": "224"
      },
      "t_uint256": {
        "encoding": "inplace",
        "label": "uint256",
        "numberOfBytes": "32"
      },
      "t_uint32": {
        "encoding": "inplace",
        "label": "uint32",
        "numberOfBytes": "4"
      }
    }
  }
}