{
  "address": "0x08dD37FF1C2168f9e4646d91f4Ff4EF4e41f2BAa",
  "abi": [
    {
      "inputs": [
        {
          "internalType": "string",
          "name": "name_",
          "type": "string"
        },
        {
          "internalType": "string",
          "name": "symbol_",
          "type": "string"
        },
        {
          "internalType": "address",
          "name": "_derbyToken",
          "type": "address"
        },
        {
          "internalType": "address",
          "name": "_dao",
          "type": "address"
        },
        {
          "internalType": "address",
          "name": "_guardian",
          "type": "address"
        }
      ],
      "stateMutability": "nonpayable",
      "type": "constructor"
    },
    {
      "anonymous": false,
      "inputs": [
        {
          "indexed": true,
          "internalType": "address",
          "name": "owner",
          "type": "address"
        },
        {
          "indexed": true,
          "internalType": "address",
          "name": "approved",
          "type": "address"
        },
        {
          "indexed": true,
          "internalType": "uint256",
          "name": "tokenId",
          "type": "uint256"
        }
      ],
      "name": "Approval",
      "type": "event"
    },
    {
      "anonymous": false,
      "inputs": [
        {
          "indexed": true,
          "internalType": "address",
          "name": "owner",
          "type": "address"
        },
        {
          "indexed": true,
          "internalType": "address",
          "name": "operator",
          "type": "address"
        },
        {
          "indexed": false,
          "internalType": "bool",
          "name": "approved",
          "type": "bool"
        }
      ],
      "name": "ApprovalForAll",
      "type": "event"
    },
    {
      "anonymous": false,
      "inputs": [
        {
          "indexed": false,
          "internalType": "address",
          "name": "owner",
          "type": "address"
        },
        {
          "indexed": false,
          "internalType": "uint256",
          "name": "basketId",
          "type": "uint256"
        }
      ],
      "name": "BasketId",
      "type": "event"
    },
    {
      "anonymous": false,
      "inputs": [
        {
          "indexed": false,
          "internalType": "uint32",
          "name": "chain",
          "type": "uint32"
        },
        {
          "indexed": false,
          "internalType": "address",
          "name": "vault",
          "type": "address"
        },
        {
          "indexed": false,
          "internalType": "int256[]",
          "name": "deltas",
          "type": "int256[]"
        }
      ],
      "name": "PushProtocolAllocations",
      "type": "event"
    },
    {
      "anonymous": false,
      "inputs": [
        {
          "indexed": true,
          "internalType": "address",
          "name": "from",
          "type": "address"
        },
        {
          "indexed": true,
          "internalType": "address",
          "name": "to",
          "type": "address"
        },
        {
          "indexed": true,
          "internalType": "uint256",
          "name": "tokenId",
          "type": "uint256"
        }
      ],
      "name": "Transfer",
      "type": "event"
    },
    {
      "inputs": [],
      "name": "BASE_SCALE",
      "outputs": [
        {
          "internalType": "uint256",
          "name": "",
          "type": "uint256"
        }
      ],
      "stateMutability": "view",
      "type": "function"
    },
    {
      "inputs": [
        {
          "internalType": "address",
          "name": "to",
          "type": "address"
        },
        {
          "internalType": "uint256",
          "name": "tokenId",
          "type": "uint256"
        }
      ],
      "name": "approve",
      "outputs": [],
      "stateMutability": "nonpayable",
      "type": "function"
    },
    {
      "inputs": [
        {
          "internalType": "address",
          "name": "owner",
          "type": "address"
        }
      ],
      "name": "balanceOf",
      "outputs": [
        {
          "internalType": "uint256",
          "name": "",
          "type": "uint256"
        }
      ],
      "stateMutability": "view",
      "type": "function"
    },
    {
      "inputs": [
        {
          "internalType": "uint256",
          "name": "_basketId",
          "type": "uint256"
        },
        {
          "internalType": "uint256",
          "name": "_protocolId",
          "type": "uint256"
        }
      ],
      "name": "basketAllocationInProtocol",
      "outputs": [
        {
          "internalType": "int256",
          "name": "",
          "type": "int256"
        }
      ],
      "stateMutability": "view",
      "type": "function"
    },
    {
      "inputs": [
        {
          "internalType": "uint256",
          "name": "_basketId",
          "type": "uint256"
        }
      ],
      "name": "basketRedeemedRewards",
      "outputs": [
        {
          "internalType": "int256",
          "name": "",
          "type": "int256"
        }
      ],
      "stateMutability": "view",
      "type": "function"
    },
    {
      "inputs": [
        {
          "internalType": "uint256",
          "name": "_basketId",
          "type": "uint256"
        }
      ],
      "name": "basketTotalAllocatedTokens",
      "outputs": [
        {
          "internalType": "int256",
          "name": "",
          "type": "int256"
        }
      ],
      "stateMutability": "view",
      "type": "function"
    },
    {
      "inputs": [
        {
          "internalType": "uint256",
          "name": "_basketId",
          "type": "uint256"
        }
      ],
      "name": "basketUnredeemedRewards",
      "outputs": [
        {
          "internalType": "int256",
          "name": "",
          "type": "int256"
        }
      ],
      "stateMutability": "view",
      "type": "function"
    },
    {
      "inputs": [],
      "name": "derbyToken",
      "outputs": [
        {
          "internalType": "contract IERC20",
          "name": "",
          "type": "address"
        }
      ],
      "stateMutability": "view",
      "type": "function"
    },
    {
      "inputs": [
        {
          "internalType": "uint256",
          "name": "tokenId",
          "type": "uint256"
        }
      ],
      "name": "getApproved",
      "outputs": [
        {
          "internalType": "address",
          "name": "",
          "type": "address"
        }
      ],
      "stateMutability": "view",
      "type": "function"
    },
    {
      "inputs": [],
      "name": "getDao",
      "outputs": [
        {
          "internalType": "address",
          "name": "",
          "type": "address"
        }
      ],
      "stateMutability": "view",
      "type": "function"
    },
    {
      "inputs": [
        {
          "internalType": "uint32",
          "name": "_chainId",
          "type": "uint32"
        },
        {
          "internalType": "uint256",
          "name": "_vaultNumber",
          "type": "uint256"
        },
        {
          "internalType": "uint256",
          "name": "_protocolNum",
          "type": "uint256"
        }
      ],
      "name": "getDeltaAllocationsProtocol",
      "outputs": [
        {
          "internalType": "int256",
          "name": "",
          "type": "int256"
        }
      ],
      "stateMutability": "view",
      "type": "function"
    },
    {
      "inputs": [
        {
          "internalType": "uint32",
          "name": "_chainId",
          "type": "uint32"
        },
        {
          "internalType": "uint256",
          "name": "_vaultNumber",
          "type": "uint256"
        }
      ],
      "name": "getDeltaAllocationsVault",
      "outputs": [
        {
          "internalType": "int256",
          "name": "",
          "type": "int256"
        }
      ],
      "stateMutability": "view",
      "type": "function"
    },
    {
      "inputs": [],
      "name": "getGuardian",
      "outputs": [
        {
          "internalType": "address",
          "name": "",
          "type": "address"
        }
      ],
      "stateMutability": "view",
      "type": "function"
    },
    {
      "inputs": [
        {
          "internalType": "address",
          "name": "owner",
          "type": "address"
        },
        {
          "internalType": "address",
          "name": "operator",
          "type": "address"
        }
      ],
      "name": "isApprovedForAll",
      "outputs": [
        {
          "internalType": "bool",
          "name": "",
          "type": "bool"
        }
      ],
      "stateMutability": "view",
      "type": "function"
    },
    {
      "inputs": [
        {
          "internalType": "uint256",
          "name": "",
          "type": "uint256"
        }
      ],
      "name": "lastTimeStamp",
      "outputs": [
        {
          "internalType": "uint256",
          "name": "",
          "type": "uint256"
        }
      ],
      "stateMutability": "view",
      "type": "function"
    },
    {
      "inputs": [
        {
          "internalType": "uint32",
          "name": "_chainId",
          "type": "uint32"
        },
        {
          "internalType": "uint256",
          "name": "_vaultNumber",
          "type": "uint256"
        }
      ],
      "name": "mintNewBasket",
      "outputs": [
        {
          "internalType": "uint256",
          "name": "",
          "type": "uint256"
        }
      ],
      "stateMutability": "nonpayable",
      "type": "function"
    },
    {
      "inputs": [],
      "name": "name",
      "outputs": [
        {
          "internalType": "string",
          "name": "",
          "type": "string"
        }
      ],
      "stateMutability": "view",
      "type": "function"
    },
    {
      "inputs": [
        {
          "internalType": "uint256",
          "name": "tokenId",
          "type": "uint256"
        }
      ],
      "name": "ownerOf",
      "outputs": [
        {
          "internalType": "address",
          "name": "",
          "type": "address"
        }
      ],
      "stateMutability": "view",
      "type": "function"
    },
    {
      "inputs": [
        {
          "internalType": "uint32",
          "name": "_chainId",
          "type": "uint32"
        },
        {
          "internalType": "uint256",
          "name": "_vaultNumber",
          "type": "uint256"
        }
      ],
      "name": "pushAllocationsToVault",
      "outputs": [],
      "stateMutability": "payable",
      "type": "function"
    },
    {
      "inputs": [
        {
          "internalType": "uint256",
          "name": "_basketId",
          "type": "uint256"
        },
        {
          "internalType": "int256[]",
          "name": "_deltaAllocations",
          "type": "int256[]"
        }
      ],
      "name": "rebalanceBasket",
      "outputs": [],
      "stateMutability": "nonpayable",
      "type": "function"
    },
    {
      "inputs": [
        {
          "internalType": "uint256",
          "name": "_basketId",
          "type": "uint256"
        }
      ],
      "name": "redeemRewards",
      "outputs": [],
      "stateMutability": "nonpayable",
      "type": "function"
    },
    {
      "inputs": [
        {
          "internalType": "address",
          "name": "from",
          "type": "address"
        },
        {
          "internalType": "address",
          "name": "to",
          "type": "address"
        },
        {
          "internalType": "uint256",
          "name": "tokenId",
          "type": "uint256"
        }
      ],
      "name": "safeTransferFrom",
      "outputs": [],
      "stateMutability": "nonpayable",
      "type": "function"
    },
    {
      "inputs": [
        {
          "internalType": "address",
          "name": "from",
          "type": "address"
        },
        {
          "internalType": "address",
          "name": "to",
          "type": "address"
        },
        {
          "internalType": "uint256",
          "name": "tokenId",
          "type": "uint256"
        },
        {
          "internalType": "bytes",
          "name": "data",
          "type": "bytes"
        }
      ],
      "name": "safeTransferFrom",
      "outputs": [],
      "stateMutability": "nonpayable",
      "type": "function"
    },
    {
      "inputs": [
        {
          "internalType": "address",
          "name": "operator",
          "type": "address"
        },
        {
          "internalType": "bool",
          "name": "approved",
          "type": "bool"
        }
      ],
      "name": "setApprovalForAll",
      "outputs": [],
      "stateMutability": "nonpayable",
      "type": "function"
    },
    {
      "inputs": [
        {
          "internalType": "address",
          "name": "_dao",
          "type": "address"
        }
      ],
      "name": "setDao",
      "outputs": [],
      "stateMutability": "nonpayable",
      "type": "function"
    },
    {
      "inputs": [
        {
          "internalType": "address",
          "name": "_derbyToken",
          "type": "address"
        }
      ],
      "name": "setDerbyToken",
      "outputs": [],
      "stateMutability": "nonpayable",
      "type": "function"
    },
    {
      "inputs": [
        {
          "internalType": "address",
          "name": "_guardian",
          "type": "address"
        }
      ],
      "name": "setGuardian",
      "outputs": [],
      "stateMutability": "nonpayable",
      "type": "function"
    },
    {
      "inputs": [
        {
          "internalType": "uint32",
          "name": "_chainId",
          "type": "uint32"
        },
        {
          "internalType": "uint256",
          "name": "_vaultNumber",
          "type": "uint256"
        },
        {
          "internalType": "uint256",
          "name": "_latestProtocolId",
          "type": "uint256"
        }
      ],
      "name": "setLatestProtocolId",
      "outputs": [],
      "stateMutability": "nonpayable",
      "type": "function"
    },
    {
      "inputs": [
        {
          "internalType": "uint256",
          "name": "_factor",
          "type": "uint256"
        }
      ],
      "name": "setNegativeRewardFactor",
      "outputs": [],
      "stateMutability": "nonpayable",
      "type": "function"
    },
    {
      "inputs": [
        {
          "internalType": "int256",
          "name": "_threshold",
          "type": "int256"
        }
      ],
      "name": "setNegativeRewardThreshold",
      "outputs": [],
      "stateMutability": "nonpayable",
      "type": "function"
    },
    {
      "inputs": [
        {
          "internalType": "uint32",
          "name": "_chainId",
          "type": "uint32"
        },
        {
          "internalType": "uint256",
          "name": "_vaultNumber",
          "type": "uint256"
        },
        {
          "internalType": "bool",
          "name": "_rewardsReceived",
          "type": "bool"
        }
      ],
      "name": "setRewardsReceived",
      "outputs": [],
      "stateMutability": "nonpayable",
      "type": "function"
    },
    {
      "inputs": [
        {
          "internalType": "uint256",
          "name": "_vaultNumber",
          "type": "uint256"
        },
        {
          "internalType": "uint256",
          "name": "_tokenPrice",
          "type": "uint256"
        }
      ],
      "name": "setTokenPrice",
      "outputs": [],
      "stateMutability": "nonpayable",
      "type": "function"
    },
    {
      "inputs": [
        {
          "internalType": "uint256",
          "name": "_vaultNumber",
          "type": "uint256"
        },
        {
          "internalType": "uint32",
          "name": "_chainId",
          "type": "uint32"
        },
        {
          "internalType": "address",
          "name": "_address",
          "type": "address"
        }
      ],
      "name": "setVaultAddress",
      "outputs": [],
      "stateMutability": "nonpayable",
      "type": "function"
    },
    {
      "inputs": [
        {
          "internalType": "address",
          "name": "_xProvider",
          "type": "address"
        }
      ],
      "name": "setXProvider",
      "outputs": [],
      "stateMutability": "nonpayable",
      "type": "function"
    },
    {
      "inputs": [
        {
          "internalType": "uint256",
          "name": "_vaultNumber",
          "type": "uint256"
        },
        {
          "internalType": "uint32",
          "name": "_chainId",
          "type": "uint32"
        },
        {
          "internalType": "int256[]",
          "name": "_rewards",
          "type": "int256[]"
        }
      ],
      "name": "settleRewards",
      "outputs": [],
      "stateMutability": "nonpayable",
      "type": "function"
    },
    {
      "inputs": [
        {
          "internalType": "uint256",
          "name": "_vaultNumber",
          "type": "uint256"
        },
        {
          "internalType": "uint32",
          "name": "_chainId",
          "type": "uint32"
        },
        {
          "internalType": "int256[]",
          "name": "_rewards",
          "type": "int256[]"
        }
      ],
      "name": "settleRewardsGuard",
      "outputs": [],
      "stateMutability": "nonpayable",
      "type": "function"
    },
    {
      "inputs": [
        {
          "internalType": "bytes4",
          "name": "interfaceId",
          "type": "bytes4"
        }
      ],
      "name": "supportsInterface",
      "outputs": [
        {
          "internalType": "bool",
          "name": "",
          "type": "bool"
        }
      ],
      "stateMutability": "view",
      "type": "function"
    },
    {
      "inputs": [],
      "name": "symbol",
      "outputs": [
        {
          "internalType": "string",
          "name": "",
          "type": "string"
        }
      ],
      "stateMutability": "view",
      "type": "function"
    },
    {
      "inputs": [
        {
          "internalType": "uint256",
          "name": "",
          "type": "uint256"
        }
      ],
      "name": "tokenPrice",
      "outputs": [
        {
          "internalType": "uint256",
          "name": "",
          "type": "uint256"
        }
      ],
      "stateMutability": "view",
      "type": "function"
    },
    {
      "inputs": [
        {
          "internalType": "uint256",
          "name": "tokenId",
          "type": "uint256"
        }
      ],
      "name": "tokenURI",
      "outputs": [
        {
          "internalType": "string",
          "name": "",
          "type": "string"
        }
      ],
      "stateMutability": "view",
      "type": "function"
    },
    {
      "inputs": [
        {
          "internalType": "address",
          "name": "from",
          "type": "address"
        },
        {
          "internalType": "address",
          "name": "to",
          "type": "address"
        },
        {
          "internalType": "uint256",
          "name": "tokenId",
          "type": "uint256"
        }
      ],
      "name": "transferFrom",
      "outputs": [],
      "stateMutability": "nonpayable",
      "type": "function"
    },
    {
      "inputs": [],
      "name": "xProvider",
      "outputs": [
        {
          "internalType": "address",
          "name": "",
          "type": "address"
        }
      ],
      "stateMutability": "view",
      "type": "function"
    }
  ],
  "transactionHash": "0x2c1f3ed6d668ff17b276b335e4ddd3ebc7637e7a3702add38fc9b7be53e84f69",
  "args": [
    "DerbyNFT",
    "DRBNFT",
    "0x56FEf06d89879911E4130C894cF328c5D205bf8a",
    "0x1Ca7b496Ac4E609cf400793Db67916AC91773927",
    "0x1Ca7b496Ac4E609cf400793Db67916AC91773927"
  ],
  "numDeployments": 1,
  "solcInputHash": "2f9a4ccddc06597149a80d8724209864",
  "bytecode": "0x6080604052670de0b6b3a76400006011553480156200001d57600080fd5b5060405162003ab938038062003ab983398101604081905262000040916200024d565b84518590859062000059906000906020850190620000bd565b5080516200006f906001906020840190620000bd565b5050600160065550600a80546001600160a01b039485166001600160a01b031991821617909155600780549385169382169390931790925560088054919093169116179055506200032c9050565b828054620000cb90620002ef565b90600052602060002090601f016020900481019282620000ef57600085556200013a565b82601f106200010a57805160ff19168380011785556200013a565b828001600101855582156200013a579182015b828111156200013a5782518255916020019190600101906200011d565b50620001489291506200014c565b5090565b5b808211156200014857600081556001016200014d565b634e487b7160e01b600052604160045260246000fd5b600082601f8301126200018b57600080fd5b81516001600160401b0380821115620001a857620001a862000163565b604051601f8301601f19908116603f01168101908282118183101715620001d357620001d362000163565b81604052838152602092508683858801011115620001f057600080fd5b600091505b83821015620002145785820183015181830184015290820190620001f5565b83821115620002265760008385830101525b9695505050505050565b80516001600160a01b03811681146200024857600080fd5b919050565b600080600080600060a086880312156200026657600080fd5b85516001600160401b03808211156200027e57600080fd5b6200028c89838a0162000179565b96506020880151915080821115620002a357600080fd5b50620002b28882890162000179565b945050620002c36040870162000230565b9250620002d36060870162000230565b9150620002e36080870162000230565b90509295509295909350565b600181811c908216806200030457607f821691505b602082108114156200032657634e487b7160e01b600052602260045260246000fd5b50919050565b61377d806200033c6000396000f3fe6080604052600436106101e15760003560e01c806301ffc9a7146101e657806306fdde031461021b578063081812fc1461023d5780630866cd8b1461026a578063095ea7b3146102a55780630a875b49146102c75780630ccb7d5b146102e75780631f9864451461030757806323b872dd1461031d578063277b5b9c1461033d5780632d64f8351461035d57806334354a411461037d57806334bb6cad1461039d57806335f11cc2146103bd57806342842e0e146103dd5780634558d097146103fd57806345b1f60b1461041d5780635d4f74501461043d57806361b02ba61461045d5780636352211e1461047d57806364bfacaf1461049d5780636637b882146104bd57806370a08231146104dd578063837d3c84146104fd57806387f903761461051d5780638a0dac4a1461053d57806393848ab91461055d57806395d89b411461057d578063a22cb46514610592578063a75b87d2146105b2578063ac9d9801146105d0578063b70811bc146105e3578063b88d4fde14610601578063c0bc28d014610621578063c87b56dd14610641578063d4ddce8a14610661578063e49749fa1461068e578063e985e9c5146106ae578063eb685c47146106ce578063f3c23b32146106ee578063fc5c0be014610731578063fdba466e14610751575b600080fd5b3480156101f257600080fd5b50610206610201366004612ccc565b610771565b60405190151581526020015b60405180910390f35b34801561022757600080fd5b506102306107c3565b6040516102129190612d41565b34801561024957600080fd5b5061025d610258366004612d54565b610855565b6040516102129190612d6d565b34801561027657600080fd5b50610297610285366004612d54565b600d6020526000908152604090205481565b604051908152602001610212565b3480156102b157600080fd5b506102c56102c0366004612d9d565b61087c565b005b3480156102d357600080fd5b506102c56102e2366004612d54565b610997565b3480156102f357600080fd5b50600a5461025d906001600160a01b031681565b34801561031357600080fd5b5061029760115481565b34801561032957600080fd5b506102c5610338366004612dc7565b6109c6565b34801561034957600080fd5b506102c5610358366004612e17565b6109f7565b34801561036957600080fd5b50610297610378366004612e17565b610a47565b34801561038957600080fd5b50610297610398366004612d54565b610a7b565b3480156103a957600080fd5b506102c56103b8366004612e4a565b610adf565b3480156103c957600080fd5b506102c56103d8366004612d54565b610b2b565b3480156103e957600080fd5b506102c56103f8366004612dc7565b610ca1565b34801561040957600080fd5b506102c5610418366004612d54565b610cbc565b34801561042957600080fd5b50610297610438366004612d54565b610ceb565b34801561044957600080fd5b506102c5610458366004612e65565b610d3e565b34801561046957600080fd5b50610297610478366004612ea1565b610dab565b34801561048957600080fd5b5061025d610498366004612d54565b610e0a565b3480156104a957600080fd5b506102c56104b8366004612f7d565b610e3f565b3480156104c957600080fd5b506102c56104d8366004612e4a565b610e9b565b3480156104e957600080fd5b506102976104f8366004612e4a565b610ee7565b34801561050957600080fd5b506102c5610518366004612e4a565b610f6d565b34801561052957600080fd5b506102c5610538366004612fe1565b610fb9565b34801561054957600080fd5b506102c5610558366004612e4a565b611018565b34801561056957600080fd5b506102c5610578366004613021565b611064565b34801561058957600080fd5b506102306111b6565b34801561059e57600080fd5b506102c56105ad366004613067565b6111c5565b3480156105be57600080fd5b506008546001600160a01b031661025d565b6102c56105de36600461309e565b6111d4565b3480156105ef57600080fd5b506007546001600160a01b031661025d565b34801561060d57600080fd5b506102c561061c3660046130ba565b6113f5565b34801561062d57600080fd5b5061029761063c36600461309e565b61142d565b34801561064d57600080fd5b5061023061065c366004612d54565b61154c565b34801561066d57600080fd5b5061029761067c366004612d54565b60106020526000908152604090205481565b34801561069a57600080fd5b506102976106a9366004612d54565b6115bf565b3480156106ba57600080fd5b506102066106c9366004613179565b6115d4565b3480156106da57600080fd5b506102c56106e9366004612ea1565b611602565b3480156106fa57600080fd5b5061029761070936600461309e565b63ffffffff919091166000908152601360209081526040808320938352929052206001015490565b34801561073d57600080fd5b506102c561074c366004612f7d565b61163e565b34801561075d57600080fd5b5060095461025d906001600160a01b031681565b60006001600160e01b031982166380ac58cd60e01b14806107a257506001600160e01b03198216635b5e139f60e01b145b806107bd57506301ffc9a760e01b6001600160e01b03198316145b92915050565b6060600080546107d2906131ac565b80601f01602080910402602001604051908101604052809291908181526020018280546107fe906131ac565b801561084b5780601f106108205761010080835404028352916020019161084b565b820191906000526020600020905b81548152906001019060200180831161082e57829003601f168201915b5050505050905090565b600061086082611668565b506000908152600460205260409020546001600160a01b031690565b600061088782610e0a565b9050806001600160a01b0316836001600160a01b031614156108fa5760405162461bcd60e51b815260206004820152602160248201527f4552433732313a20617070726f76616c20746f2063757272656e74206f776e656044820152603960f91b60648201526084015b60405180910390fd5b336001600160a01b0382161480610916575061091681336115d4565b6109885760405162461bcd60e51b815260206004820152603e60248201527f4552433732313a20617070726f76652063616c6c6572206973206e6f7420746f60448201527f6b656e206f776e6572206e6f7220617070726f76656420666f7220616c6c000060648201526084016108f1565b6109928383611690565b505050565b6007546001600160a01b031633146109c15760405162461bcd60e51b81526004016108f1906131e1565b600e55565b6109d033826116fe565b6109ec5760405162461bcd60e51b81526004016108f190613209565b61099283838361175d565b6008546001600160a01b03163314610a215760405162461bcd60e51b81526004016108f190613257565b63ffffffff90921660009081526013602090815260408083209383529290522060030155565b63ffffffff8316600090815260136020908152604080832085845282528083208484526005019091529020545b9392505050565b600081610a8781610e0a565b6001600160a01b0316336001600160a01b031614610ab75760405162461bcd60e51b81526004016108f190613284565b601154600084815260126020526040902060040154610ad691906132f1565b91505b50919050565b6007546001600160a01b03163314610b095760405162461bcd60e51b81526004016108f1906131e1565b600a80546001600160a01b0319166001600160a01b0392909216919091179055565b80610b3581610e0a565b6001600160a01b0316336001600160a01b031614610b655760405162461bcd60e51b81526004016108f190613284565b6011546000838152601260205260408120600401549091610b85916132f1565b905060008113610bca5760405162461bcd60e51b815260206004820152601060248201526f4e6f7468696e6720746f20636c61696d60801b60448201526064016108f1565b60008381526012602052604081206005018054839290610beb90849061331f565b90915550506000838152601260205260408120600481018290556001810154905463ffffffff90911691610c1f82846118e7565b60095460405163ab2dcc5d60e01b815263ffffffff861660048201526001600160a01b0380841660248301523360448301526064820188905292935091169063ab2dcc5d90608401600060405180830381600087803b158015610c8157600080fd5b505af1158015610c95573d6000803e3d6000fd5b50505050505050505050565b610992838383604051806020016040528060008152506113f5565b6007546001600160a01b03163314610ce65760405162461bcd60e51b81526004016108f1906131e1565b600f55565b600081610cf781610e0a565b6001600160a01b0316336001600160a01b031614610d275760405162461bcd60e51b81526004016108f190613284565b505060009081526012602052604090206005015490565b6008546001600160a01b03163314610d685760405162461bcd60e51b81526004016108f190613257565b63ffffffff9190911660009081526013602090815260408083209483529390529190912080546001600160a01b0319166001600160a01b03909216919091179055565b600082610db781610e0a565b6001600160a01b0316336001600160a01b031614610de75760405162461bcd60e51b81526004016108f190613284565b505060009182526012602090815260408084209284526006909201905290205490565b6000818152600260205260408120546001600160a01b0316806107bd5760405162461bcd60e51b81526004016108f190613360565b6009546001600160a01b03163314610e905760405162461bcd60e51b815260206004820152601460248201527323b0b6b29d1037b7363c903c283937bb34b232b960611b60448201526064016108f1565b610992838383611912565b6007546001600160a01b03163314610ec55760405162461bcd60e51b81526004016108f1906131e1565b600780546001600160a01b0319166001600160a01b0392909216919091179055565b60006001600160a01b038216610f515760405162461bcd60e51b815260206004820152602960248201527f4552433732313a2061646472657373207a65726f206973206e6f7420612076616044820152683634b21037bbb732b960b91b60648201526084016108f1565b506001600160a01b031660009081526003602052604090205490565b6007546001600160a01b03163314610f975760405162461bcd60e51b81526004016108f1906131e1565b600980546001600160a01b0319166001600160a01b0392909216919091179055565b6008546001600160a01b03163314610fe35760405162461bcd60e51b81526004016108f190613257565b63ffffffff92909216600090815260136020908152604080832093835292905220600201805460ff1916911515919091179055565b6007546001600160a01b031633146110425760405162461bcd60e51b81526004016108f1906131e1565b600880546001600160a01b0319166001600160a01b0392909216919091179055565b8161106e81610e0a565b6001600160a01b0316336001600160a01b03161461109e5760405162461bcd60e51b81526004016108f190613284565b600260065414156110c15760405162461bcd60e51b81526004016108f190613392565b600260065560008381526012602090815260408083206001810154905463ffffffff90911680855260138452828520828652909352922060040154909190156111735763ffffffff8216600090815260136020908152604080832084845290915290206002015460ff166111735760405162461bcd60e51b815260206004820152601960248201527811d85b594e881c995dd85c991cc81b9bdd081cd95d1d1b1959603a1b60448201526064016108f1565b61117c85611a2c565b600061118a86848488611bf2565b90506111968682611cf6565b6111a08682611d96565b6111a986611e20565b5050600160065550505050565b6060600180546107d2906131ac565b6111d0338383611eba565b5050565b600b544314156112365760405162461bcd60e51b815260206004820152602760248201527f43616e6e6f742063616c6c2066756e6374696f6e7320696e207468652073616d6044820152666520626c6f636b60c81b60648201526084016108f1565b43600b5563ffffffff8216600090815260136020908152604080832084845290915290206002015460ff166112a35760405162461bcd60e51b8152602060048201526013602482015272139bc81c9958985b185b98d9481b9959591959606a1b60448201526064016108f1565b60006112af82846118e7565b90506001600160a01b0381166113075760405162461bcd60e51b815260206004820152601d60248201527f47616d653a206e6f7420612076616c6964207661756c746e756d62657200000060448201526064016108f1565b60006113138385611f85565b6009546040516307ce1ca560e11b81529192506001600160a01b031690630f9c394a90349061134a908890879087906004016133c9565b6000604051808303818588803b15801561136357600080fd5b505af1158015611377573d6000803e3d6000fd5b5050506000858152600d6020908152604080832042905563ffffffff891683526013825280832088845290915290819020600201805460ff19169055517fecad91333212c73d818344879c492e12a819aefaa0bf2f6ebf6a62122ff6accf92506113e791508690859085906133c9565b60405180910390a150505050565b6113ff33836116fe565b61141b5760405162461bcd60e51b81526004016108f190613209565b6114278484848461206b565b50505050565b6000600260065414156114525760405162461bcd60e51b81526004016108f190613392565b6002600655600c805460009081526012602090815260408083206001908101805463ffffffff191663ffffffff8a1690811790915594548452818420879055938352601382528083208684529091529020600401546114b09161342e565b600c8054600090815260126020526040902060020191909155546114d590339061209e565b600c80549060006114e583613446565b91905055507f57bd453321df6399ee334c6523e06f4453ccef319b27699bc1a9c343aac7a9ed336001600c5461151b9190613461565b604051611529929190613478565b60405180910390a16001600c546115409190613461565b60016006559392505050565b606061155782611668565b600061156e60408051602081019091526000815290565b9050600081511161158e5760405180602001604052806000815250610ad6565b80611598846120b8565b6040516020016115a9929190613491565b6040516020818303038152906040529392505050565b60009081526012602052604090206003015490565b6001600160a01b03918216600090815260056020908152604080832093909416825291909152205460ff1690565b6008546001600160a01b0316331461162c5760405162461bcd60e51b81526004016108f190613257565b60009182526010602052604090912055565b6008546001600160a01b03163314610e905760405162461bcd60e51b81526004016108f190613257565b611671816121b5565b61168d5760405162461bcd60e51b81526004016108f190613360565b50565b600081815260046020526040902080546001600160a01b0319166001600160a01b03841690811790915581906116c582610e0a565b6001600160a01b03167f8c5be1e5ebec7d5bd14f71427d1e84f3dd0314c0f7b2291e5b200ac8c7c3b92560405160405180910390a45050565b60008061170a83610e0a565b9050806001600160a01b0316846001600160a01b03161480611731575061173181856115d4565b806117555750836001600160a01b031661174a84610855565b6001600160a01b0316145b949350505050565b826001600160a01b031661177082610e0a565b6001600160a01b0316146117d45760405162461bcd60e51b815260206004820152602560248201527f4552433732313a207472616e736665722066726f6d20696e636f72726563742060448201526437bbb732b960d91b60648201526084016108f1565b6001600160a01b0382166118365760405162461bcd60e51b8152602060048201526024808201527f4552433732313a207472616e7366657220746f20746865207a65726f206164646044820152637265737360e01b60648201526084016108f1565b611841600082611690565b6001600160a01b038316600090815260036020526040812080546001929061186a908490613461565b90915550506001600160a01b038216600090815260036020526040812080546001929061189890849061342e565b909155505060008181526002602052604080822080546001600160a01b0319166001600160a01b03868116918217909255915184939187169160008051602061372883398151915291a4505050565b63ffffffff16600090815260136020908152604080832093835292905220546001600160a01b031690565b63ffffffff82166000908152601360209081526040808320868452909152812060040180549161194183613446565b909155505063ffffffff82166000908152601360209081526040808320868452909152812060040154905b82518110156119fb57600061198d8587611987600187613461565b856121d2565b90508382815181106119a1576119a16134c0565b6020026020010151816119b4919061331f565b63ffffffff861660009081526013602090815260408083208a84528252808320878452600601825280832086845290915290205550806119f381613446565b91505061196c565b50505063ffffffff16600090815260136020908152604080832093835292905220600201805460ff19166001179055565b80611a3681610e0a565b6001600160a01b0316336001600160a01b031614611a665760405162461bcd60e51b81526004016108f190613284565b600082815260126020526040902060030154611a80575050565b60008281526012602081815260408084206001810154815463ffffffff90911680875260138552838720828852855292862060040154958890529390925260029091015490929080821015611b0c5760405162461bcd60e51b8152602060048201526012602482015271105b1c9958591e481c9958985b185b98d95960721b60448201526064016108f1565b63ffffffff84166000908152601360209081526040808320868452909152812060030154905b81811015611be8576000670de0b6b3a7640000611b4f8a84610dab565b611b5991906132f1565b905080611b665750611bd6565b6000611b74888888866121d2565b9050806000191415611b87575050611bd6565b6000611b95898988876121d2565b905082611ba282846134d6565b611bac9190613515565b60008c81526012602052604081206004018054909190611bcd90849061331f565b90915550505050505b80611be081613446565b915050611b32565b5050505050505050565b60008481526012602090815260408083206001015463ffffffff168084526013835281842086855290925282206003015483518114611c6f5760405162461bcd60e51b8152602060048201526019602482015278092dcecc2d8d2c840c2d8d8dec6c2e8d2dedc40d8cadccee8d603b1b60448201526064016108f1565b60005b81811015611ce0576000858281518110611c8e57611c8e6134c0565b602002602001015190508060001415611ca75750611cce565b611cb1818661331f565b9450611cbf8888848461220e565b611ccc88888b8585612254565b505b80611cd881613446565b915050611c72565b50611cec868685612387565b5050949350505050565b6000811315611d0857611d08816123c4565b60008112156111d0576000611d1c836115bf565b90506000611d2a838361331f565b90506000611d3882846134d6565b905080831215611d855760405162461bcd60e51b8152602060048201526018602482015277139bdd08195b9bdd59da081d1bdad95b9cc81b1bd8dad95960421b60448201526064016108f1565b611d8f8582612524565b5050505050565b81611da081610e0a565b6001600160a01b0316336001600160a01b031614611dd05760405162461bcd60e51b81526004016108f190613284565b60008381526012602052604081206003018054849290611df190849061331f565b9091555060009050611e02846115bf565b12156109925760405162461bcd60e51b81526004016108f19061359a565b80611e2a81610e0a565b6001600160a01b0316336001600160a01b031614611e5a5760405162461bcd60e51b81526004016108f190613284565b6000828152601260209081526040808320600180820154915463ffffffff909216808652601385528386208387529094529190932060040154919291611e9f9161342e565b60009485526012602052604090942060020193909355505050565b816001600160a01b0316836001600160a01b03161415611f185760405162461bcd60e51b815260206004820152601960248201527822a9219b99189d1030b8383937bb32903a379031b0b63632b960391b60448201526064016108f1565b6001600160a01b03838116600081815260056020908152604080832094871680845294825291829020805460ff191686151590811790915591519182527f17307eab39ab6107e8899845ad3d59bd9653f200f220920489ca2b5937696c31910160405180910390a3505050565b63ffffffff81166000908152601360209081526040808320858452909152902060030154606090806001600160401b03811115611fc457611fc4612ec3565b604051908082528060200260200182016040528015611fed578160200160208202803683370190505b50915060005b8181101561206357612006848683610a47565b838281518110612018576120186134c0565b60209081029190910181019190915263ffffffff851660009081526013825260408082208883528352808220848352600501909252908120558061205b81613446565b915050611ff3565b505092915050565b61207684848461175d565b612082848484846126af565b6114275760405162461bcd60e51b81526004016108f1906135c5565b6111d08282604051806020016040528060008152506127b1565b6060816120dc5750506040805180820190915260018152600360fc1b602082015290565b8160005b811561210657806120f081613446565b91506120ff9050600a83613617565b91506120e0565b6000816001600160401b0381111561212057612120612ec3565b6040519080825280601f01601f19166020018201604052801561214a576020820181803683370190505b5090505b84156117555761215f600183613461565b915061216c600a8661362b565b61217790603061342e565b60f81b81838151811061218c5761218c6134c0565b60200101906001600160f81b031916908160001a9053506121ae600a86613617565b945061214e565b6000908152600260205260409020546001600160a01b0316151590565b63ffffffff8416600090815260136020908152604080832086845282528083208584526006018252808320848452909152902054949350505050565b63ffffffff8416600090815260136020908152604080832086845282528083208584526005019091528120805483929061224990849061331f565b909155505050505050565b8261225e81610e0a565b6001600160a01b0316336001600160a01b03161461228e5760405162461bcd60e51b81526004016108f190613284565b6000848152601260209081526040808320868452600601909152812080548492906122ba90849061331f565b90915550600090506122cc8585610dab565b905060008112156122ef5760405162461bcd60e51b81526004016108f19061359a565b63ffffffff871660009081526013602090815260408083208984529091528120600401546123219089908990886121d2565b9050806000191415611be8578115611be85760405162461bcd60e51b815260206004820152602360248201527f416c6c6f636174696f6e7320746f20626c61636b6c69737465642070726f746f60448201526218dbdb60ea1b60648201526084016108f1565b63ffffffff83166000908152601360209081526040808320858452909152812060010180548392906123ba90849061331f565b9091555050505050565b600a546040516370a0823160e01b81526000916001600160a01b0316906370a08231906123f5903090600401612d6d565b602060405180830381865afa158015612412573d6000803e3d6000fd5b505050506040513d601f19601f82011682018060405250810190612436919061363f565b600a54909150612451906001600160a01b03163330856127e4565b600a546040516370a0823160e01b81526000916001600160a01b0316906370a0823190612482903090600401612d6d565b602060405180830381865afa15801561249f573d6000803e3d6000fd5b505050506040513d601f19601f820116820180604052508101906124c3919061363f565b9050826124d08383613461565b6124da9190613461565b156109925760405162461bcd60e51b815260206004820152601a6024820152794572726f72206c6f636b3a20756e6465722f6f766572666c6f7760301b60448201526064016108f1565b6000612530838361284f565b9050600061253e8284613461565b600a546040516370a0823160e01b81529194508492506000916001600160a01b03909116906370a0823190612577903090600401612d6d565b602060405180830381865afa158015612594573d6000803e3d6000fd5b505050506040513d601f19601f820116820180604052508101906125b8919061363f565b600a549091506125d2906001600160a01b03163384612994565b600a546040516370a0823160e01b81526000916001600160a01b0316906370a0823190612603903090600401612d6d565b602060405180830381865afa158015612620573d6000803e3d6000fd5b505050506040513d601f19601f82011682018060405250810190612644919061363f565b9050826126518284613461565b61265b9190613461565b156126a75760405162461bcd60e51b815260206004820152601c60248201527b4572726f7220756e6c6f636b3a20756e6465722f6f766572666c6f7760201b60448201526064016108f1565b505050505050565b60006126c3846001600160a01b03166129b3565b156127a957604051630a85bd0160e11b81526001600160a01b0385169063150b7a02906126fa903390899088908890600401613658565b6020604051808303816000875af1925050508015612735575060408051601f3d908101601f1916820190925261273291810190613695565b60015b61278f573d808015612763576040519150601f19603f3d011682016040523d82523d6000602084013e612768565b606091505b5080516127875760405162461bcd60e51b81526004016108f1906135c5565b805181602001fd5b6001600160e01b031916630a85bd0160e11b149050611755565b506001611755565b6127bb83836129c2565b6127c860008484846126af565b6109925760405162461bcd60e51b81526004016108f1906135c5565b6040516001600160a01b03808516602483015283166044820152606481018290526114279085906323b872dd60e01b906084015b60408051601f198184030181529190526020810180516001600160e01b03166001600160e01b031990931692909217909152612ae2565b600e54601154600084815260126020526040812060040154909291612873916132f1565b1315612881575060006107bd565b600083815260126020526040812080546001820154600490920154909263ffffffff90921691906128b1906136b2565b600084815260106020526040812054600f549293509182906064906128d690866136cf565b6128e09190613617565b6128ea9190613617565b90508681106128f957866128fb565b805b600f549091508261290d8360646136cf565b61291791906136cf565b6129219190613617565b6000898152601260205260408120600401805490919061294290849061331f565b909155505063ffffffff8085166000908152601360209081526040808320898452909152902054600a54612989926001600160a01b03918216929190911690849061299416565b979650505050505050565b6109928363a9059cbb60e01b8484604051602401612818929190613478565b6001600160a01b03163b151590565b6001600160a01b038216612a185760405162461bcd60e51b815260206004820181905260248201527f4552433732313a206d696e7420746f20746865207a65726f206164647265737360448201526064016108f1565b612a21816121b5565b15612a6d5760405162461bcd60e51b815260206004820152601c60248201527b115490cdcc8c4e881d1bdad95b88185b1c9958591e481b5a5b9d195960221b60448201526064016108f1565b6001600160a01b0382166000908152600360205260408120805460019290612a9690849061342e565b909155505060008181526002602052604080822080546001600160a01b0319166001600160a01b0386169081179091559051839290600080516020613728833981519152908290a45050565b6000612b37826040518060400160405280602081526020017f5361666545524332303a206c6f772d6c6576656c2063616c6c206661696c6564815250856001600160a01b0316612bb49092919063ffffffff16565b8051909150156109925780806020019051810190612b5591906136ee565b6109925760405162461bcd60e51b815260206004820152602a60248201527f5361666545524332303a204552433230206f7065726174696f6e20646964206e6044820152691bdd081cdd58d8d9595960b21b60648201526084016108f1565b6060611755848460008585612bc8856129b3565b612c145760405162461bcd60e51b815260206004820152601d60248201527f416464726573733a2063616c6c20746f206e6f6e2d636f6e747261637400000060448201526064016108f1565b600080866001600160a01b03168587604051612c30919061370b565b60006040518083038185875af1925050503d8060008114612c6d576040519150601f19603f3d011682016040523d82523d6000602084013e612c72565b606091505b509150915061298982828660608315612c8c575081610a74565b825115612c9c5782518084602001fd5b8160405162461bcd60e51b81526004016108f19190612d41565b6001600160e01b03198116811461168d57600080fd5b600060208284031215612cde57600080fd5b8135610a7481612cb6565b60005b83811015612d04578181015183820152602001612cec565b838111156114275750506000910152565b60008151808452612d2d816020860160208601612ce9565b601f01601f19169290920160200192915050565b602081526000610a746020830184612d15565b600060208284031215612d6657600080fd5b5035919050565b6001600160a01b0391909116815260200190565b80356001600160a01b0381168114612d9857600080fd5b919050565b60008060408385031215612db057600080fd5b612db983612d81565b946020939093013593505050565b600080600060608486031215612ddc57600080fd5b612de584612d81565b9250612df360208501612d81565b9150604084013590509250925092565b803563ffffffff81168114612d9857600080fd5b600080600060608486031215612e2c57600080fd5b612e3584612e03565b95602085013595506040909401359392505050565b600060208284031215612e5c57600080fd5b610a7482612d81565b600080600060608486031215612e7a57600080fd5b83359250612e8a60208501612e03565b9150612e9860408501612d81565b90509250925092565b60008060408385031215612eb457600080fd5b50508035926020909101359150565b634e487b7160e01b600052604160045260246000fd5b604051601f8201601f191681016001600160401b0381118282101715612f0157612f01612ec3565b604052919050565b600082601f830112612f1a57600080fd5b813560206001600160401b03821115612f3557612f35612ec3565b8160051b612f44828201612ed9565b9283528481018201928281019087851115612f5e57600080fd5b83870192505b8483101561298957823582529183019190830190612f64565b600080600060608486031215612f9257600080fd5b83359250612fa260208501612e03565b915060408401356001600160401b03811115612fbd57600080fd5b612fc986828701612f09565b9150509250925092565b801515811461168d57600080fd5b600080600060608486031215612ff657600080fd5b612fff84612e03565b925060208401359150604084013561301681612fd3565b809150509250925092565b6000806040838503121561303457600080fd5b8235915060208301356001600160401b0381111561305157600080fd5b61305d85828601612f09565b9150509250929050565b6000806040838503121561307a57600080fd5b61308383612d81565b9150602083013561309381612fd3565b809150509250929050565b600080604083850312156130b157600080fd5b612db983612e03565b600080600080608085870312156130d057600080fd5b6130d985612d81565b935060206130e8818701612d81565b93506040860135925060608601356001600160401b038082111561310b57600080fd5b818801915088601f83011261311f57600080fd5b81358181111561313157613131612ec3565b613143601f8201601f19168501612ed9565b9150808252898482850101111561315957600080fd5b808484018584013760008482840101525080935050505092959194509250565b6000806040838503121561318c57600080fd5b61319583612d81565b91506131a360208401612d81565b90509250929050565b600181811c908216806131c057607f821691505b60208210811415610ad957634e487b7160e01b600052602260045260246000fd5b6020808252600e908201526d47616d653a206f6e6c792044414f60901b604082015260600190565b6020808252602e908201527f4552433732313a2063616c6c6572206973206e6f7420746f6b656e206f776e6560408201526d1c881b9bdc88185c1c1c9bdd995960921b606082015260800190565b60208082526013908201527223b0b6b29d1037b7363c9023bab0b93234b0b760691b604082015260600190565b60208082526021908201527f47616d653a204e6f7420746865206f776e6572206f6620746865206261736b656040820152601d60fa1b606082015260800190565b634e487b7160e01b600052601260045260246000fd5b634e487b7160e01b600052601160045260246000fd5b600082613300576133006132c5565b600160ff1b82146000198414161561331a5761331a6132db565b500590565b600080821280156001600160ff1b0384900385131615613341576133416132db565b600160ff1b839003841281161561335a5761335a6132db565b50500190565b602080825260189082015277115490cdcc8c4e881a5b9d985b1a59081d1bdad95b88125160421b604082015260600190565b6020808252601f908201527f5265656e7472616e637947756172643a207265656e7472616e742063616c6c00604082015260600190565b63ffffffff841681526001600160a01b0383166020808301919091526060604083018190528351908301819052600091848101916080850190845b8181101561342057845183529383019391830191600101613404565b509098975050505050505050565b60008219821115613441576134416132db565b500190565b600060001982141561345a5761345a6132db565b5060010190565b600082821015613473576134736132db565b500390565b6001600160a01b03929092168252602082015260400190565b600083516134a3818460208801612ce9565b8351908301906134b7818360208801612ce9565b01949350505050565b634e487b7160e01b600052603260045260246000fd5b60008083128015600160ff1b8501841216156134f4576134f46132db565b6001600160ff1b038401831381161561350f5761350f6132db565b50500390565b60006001600160ff1b038184138284138082168684048611161561353b5761353b6132db565b600160ff1b600087128281168783058912161561355a5761355a6132db565b60008712925087820587128484161615613576576135766132db565b8785058712818416161561358c5761358c6132db565b505050929093029392505050565b6020808252601190820152704261736b65743a20756e646572666c6f7760781b604082015260600190565b60208082526032908201527f4552433732313a207472616e7366657220746f206e6f6e20455243373231526560408201527131b2b4bb32b91034b6b83632b6b2b73a32b960711b606082015260800190565b600082613626576136266132c5565b500490565b60008261363a5761363a6132c5565b500690565b60006020828403121561365157600080fd5b5051919050565b6001600160a01b038581168252841660208201526040810183905260806060820181905260009061368b90830184612d15565b9695505050505050565b6000602082840312156136a757600080fd5b8151610a7481612cb6565b6000600160ff1b8214156136c8576136c86132db565b5060000390565b60008160001904831182151516156136e9576136e96132db565b500290565b60006020828403121561370057600080fd5b8151610a7481612fd3565b6000825161371d818460208701612ce9565b919091019291505056feddf252ad1be2c89b69c2b068fc378daa952ba7f163c4a11628f55a4df523b3efa26469706673582212205787bff5f7b93fa188b5ba9d24824ca79283df8f0d5cc3a571336c48a630116064736f6c634300080b0033",
  "devdoc": {
    "kind": "dev",
    "methods": {
      "approve(address,uint256)": {
        "details": "See {IERC721-approve}."
      },
      "balanceOf(address)": {
        "details": "See {IERC721-balanceOf}."
      },
      "basketAllocationInProtocol(uint256,uint256)": {
        "params": {
          "_basketId": "Basket ID (tokenID) in the BasketToken (NFT) contract",
          "_protocolId": "Id of the protocol of which the allocation is queried"
        },
        "returns": {
          "_0": "int256 Number of derby tokens that are allocated towards this specific protocol"
        }
      },
      "basketRedeemedRewards(uint256)": {
        "params": {
          "_basketId": "Basket ID (tokenID) in the BasketToken (NFT) contract."
        },
        "returns": {
          "_0": "int256 Total redeemed rewards."
        }
      },
      "basketTotalAllocatedTokens(uint256)": {
        "params": {
          "_basketId": "Basket ID (tokenID) in the BasketToken (NFT) contract."
        },
        "returns": {
          "_0": "int256 Number of derby tokens that are allocated towards protocols."
        }
      },
      "basketUnredeemedRewards(uint256)": {
        "params": {
          "_basketId": "Basket ID (tokenID) in the BasketToken (NFT) contract."
        },
        "returns": {
          "_0": "int256 Total unredeemed rewards. (in vaultCurrency.decimals())"
        }
      },
      "getApproved(uint256)": {
        "details": "See {IERC721-getApproved}."
      },
      "getDeltaAllocationsProtocol(uint32,uint256,uint256)": {
        "params": {
          "_chainId": "number of chainId",
          "_protocolNum": "Protocol number linked to an underlying vault e.g compound_usdc_01",
          "_vaultNumber": "number of vault"
        },
        "returns": {
          "_0": "allocation Delta allocation in tokens"
        }
      },
      "getDeltaAllocationsVault(uint32,uint256)": {
        "params": {
          "_chainId": "number of chainId",
          "_vaultNumber": "number of vault"
        },
        "returns": {
          "_0": "allocation delta allocation"
        }
      },
      "isApprovedForAll(address,address)": {
        "details": "See {IERC721-isApprovedForAll}."
      },
      "mintNewBasket(uint32,uint256)": {
        "details": "The basket NFT is minted for a specific vault, starts with a zero allocation and the tokens are not locked here.",
        "params": {
          "_chainId": "Chain ID of the vault.",
          "_vaultNumber": "Number of the vault. Same as in Router."
        },
        "returns": {
          "_0": "basketId The basket Id the user has minted."
        }
      },
      "name()": {
        "details": "See {IERC721Metadata-name}."
      },
      "ownerOf(uint256)": {
        "details": "See {IERC721-ownerOf}."
      },
      "pushAllocationsToVault(uint32,uint256)": {
        "details": "Sends over an array where the index is the protocolId",
        "params": {
          "_chainId": "Chain id of the vault where the allocations need to be sent",
          "_vaultNumber": "Number of vault"
        }
      },
      "rebalanceBasket(uint256,int256[])": {
        "details": "First calculates the rewards the basket has built up, then sets the new allocations and communicates the deltas to the vaultFinally it locks or unlocks tokens",
        "params": {
          "_basketId": "Basket ID (tokenID) in the BasketToken (NFT) contract.",
          "_deltaAllocations": "delta allocations set by the user of the basket. Allocations are scaled (so * 1E18)."
        }
      },
      "redeemRewards(uint256)": {
        "details": "makes a (crosschain) call to the vault to make the actual transfer because the vault holds the funds.",
        "params": {
          "_basketId": "Basket ID (tokenID) in the BasketToken (NFT) contract."
        }
      },
      "safeTransferFrom(address,address,uint256)": {
        "details": "See {IERC721-safeTransferFrom}."
      },
      "safeTransferFrom(address,address,uint256,bytes)": {
        "details": "See {IERC721-safeTransferFrom}."
      },
      "setApprovalForAll(address,bool)": {
        "details": "See {IERC721-setApprovalForAll}."
      },
      "setDao(address)": {
        "params": {
          "_dao": "DAO address"
        }
      },
      "setDerbyToken(address)": {
        "params": {
          "_derbyToken": "new address of Derby token"
        }
      },
      "setGuardian(address)": {
        "params": {
          "_guardian": "new address of the guardian"
        }
      },
      "setLatestProtocolId(uint32,uint256,uint256)": {
        "params": {
          "_chainId": "number of chain id set in chainIds array",
          "_latestProtocolId": "latest protocol Id aka number of supported protocol vaults, starts at 0",
          "_vaultNumber": "number of vault"
        }
      },
      "setNegativeRewardFactor(uint256)": {
        "params": {
          "_factor": "percentage of tokens that will be sold / burned"
        }
      },
      "setNegativeRewardThreshold(int256)": {
        "params": {
          "_threshold": "treshold in vaultCurrency e.g USDC, must be negative"
        }
      },
      "setRewardsReceived(uint32,uint256,bool)": {
        "params": {
          "_chainId": "Number of chain used",
          "_rewardsReceived": "bool to set if rewards are received",
          "_vaultNumber": "Number of the vault"
        }
      },
      "setTokenPrice(uint256,uint256)": {
        "params": {
          "_tokenPrice": "tokenPrice in vaultCurrency / derbyTokenPrice",
          "_vaultNumber": "Number of the vault"
        }
      },
      "setXProvider(address)": {
        "params": {
          "_xProvider": "new address of xProvider on this chain"
        }
      },
      "settleRewards(uint256,uint32,int256[])": {
        "params": {
          "_chainId": "Number of chain used",
          "_rewards": "Rewards per locked token per protocol (each protocol is an element in the array)",
          "_vaultNumber": "Number of the vault"
        }
      },
      "supportsInterface(bytes4)": {
        "details": "See {IERC165-supportsInterface}."
      },
      "symbol()": {
        "details": "See {IERC721Metadata-symbol}."
      },
      "tokenURI(uint256)": {
        "details": "See {IERC721Metadata-tokenURI}."
      },
      "transferFrom(address,address,uint256)": {
        "details": "See {IERC721-transferFrom}."
      }
    },
    "version": 1
  },
  "userdoc": {
    "kind": "user",
    "methods": {
      "basketAllocationInProtocol(uint256,uint256)": {
        "notice": "function to see the allocation of a specific protocol by a basketId. Only the owner of the basket can view this"
      },
      "basketRedeemedRewards(uint256)": {
        "notice": "function to see the total reeemed rewards from the basket. Only the owner of the basket can view this."
      },
      "basketTotalAllocatedTokens(uint256)": {
        "notice": "function to see the total number of allocated tokens. Only the owner of the basket can view this."
      },
      "basketUnredeemedRewards(uint256)": {
        "notice": "function to see the total unredeemed rewards the basket has built up. Only the owner of the basket can view this."
      },
      "getDao()": {
        "notice": "Getter for dao address"
      },
      "getDeltaAllocationsProtocol(uint32,uint256,uint256)": {
        "notice": "Getter for the delta allocation in Protocol vault e.g compound_usdc_01"
      },
      "getDeltaAllocationsVault(uint32,uint256)": {
        "notice": "Getter for delta allocation in a particulair chainId"
      },
      "getGuardian()": {
        "notice": "Getter for guardian address"
      },
      "mintNewBasket(uint32,uint256)": {
        "notice": "Mints a new NFT with a Basket of allocations."
      },
      "pushAllocationsToVault(uint32,uint256)": {
        "notice": "Game pushes deltaAllocations to vaultsTrigger to push delta allocations in protocols to cross chain vaults"
      },
      "rebalanceBasket(uint256,int256[])": {
        "notice": "rebalances an existing Basket"
      },
      "redeemRewards(uint256)": {
        "notice": "redeem funds from basket in the game."
      },
      "setDao(address)": {
        "notice": "Setter for DAO address"
      },
      "setDerbyToken(address)": {
        "notice": "Setter Derby token address"
      },
      "setGuardian(address)": {
        "notice": "Setter for guardian address"
      },
      "setLatestProtocolId(uint32,uint256,uint256)": {
        "notice": "Setter for latest protocol Id for given chainId."
      },
      "setNegativeRewardFactor(uint256)": {
        "notice": "Setter for negativeRewardFactor"
      },
      "setNegativeRewardThreshold(int256)": {
        "notice": "Setter for threshold at which user tokens will be sold / burned"
      },
      "setRewardsReceived(uint32,uint256,bool)": {
        "notice": "setter for rewardsReceived"
      },
      "setTokenPrice(uint256,uint256)": {
        "notice": "Setter for tokenPrice"
      },
      "setVaultAddress(uint256,uint32,address)": {
        "notice": "setter to link a chainId to a vault address for cross chain functions"
      },
      "setXProvider(address)": {
        "notice": "Setter for xProvider address"
      },
      "settleRewards(uint256,uint32,int256[])": {
        "notice": "See settleRewardsInt below"
      },
      "settleRewardsGuard(uint256,uint32,int256[])": {
        "notice": "Guardian function"
      }
    },
    "version": 1
  },
  "storageLayout": {
    "storage": [
      {
        "astId": 1071,
        "contract": "contracts/Game.sol:Game",
        "label": "_name",
        "offset": 0,
        "slot": "0",
        "type": "t_string_storage"
      },
      {
        "astId": 1073,
        "contract": "contracts/Game.sol:Game",
        "label": "_symbol",
        "offset": 0,
        "slot": "1",
        "type": "t_string_storage"
      },
      {
        "astId": 1077,
        "contract": "contracts/Game.sol:Game",
        "label": "_owners",
        "offset": 0,
        "slot": "2",
        "type": "t_mapping(t_uint256,t_address)"
      },
      {
        "astId": 1081,
        "contract": "contracts/Game.sol:Game",
        "label": "_balances",
        "offset": 0,
        "slot": "3",
        "type": "t_mapping(t_address,t_uint256)"
      },
      {
        "astId": 1085,
        "contract": "contracts/Game.sol:Game",
        "label": "_tokenApprovals",
        "offset": 0,
        "slot": "4",
        "type": "t_mapping(t_uint256,t_address)"
      },
      {
        "astId": 1091,
        "contract": "contracts/Game.sol:Game",
        "label": "_operatorApprovals",
        "offset": 0,
        "slot": "5",
        "type": "t_mapping(t_address,t_mapping(t_address,t_bool))"
      },
      {
        "astId": 10,
        "contract": "contracts/Game.sol:Game",
        "label": "_status",
        "offset": 0,
        "slot": "6",
        "type": "t_uint256"
      },
      {
        "astId": 2736,
        "contract": "contracts/Game.sol:Game",
        "label": "dao",
        "offset": 0,
        "slot": "7",
        "type": "t_address"
      },
      {
        "astId": 2738,
        "contract": "contracts/Game.sol:Game",
        "label": "guardian",
        "offset": 0,
        "slot": "8",
        "type": "t_address"
      },
      {
        "astId": 2740,
        "contract": "contracts/Game.sol:Game",
        "label": "xProvider",
        "offset": 0,
        "slot": "9",
        "type": "t_address"
      },
      {
        "astId": 2743,
        "contract": "contracts/Game.sol:Game",
        "label": "derbyToken",
        "offset": 0,
        "slot": "10",
        "type": "t_contract(IERC20)703"
      },
      {
        "astId": 2745,
        "contract": "contracts/Game.sol:Game",
        "label": "lastBlock",
        "offset": 0,
        "slot": "11",
        "type": "t_uint256"
      },
      {
        "astId": 2747,
        "contract": "contracts/Game.sol:Game",
        "label": "latestBasketId",
        "offset": 0,
        "slot": "12",
        "type": "t_uint256"
      },
      {
        "astId": 2751,
        "contract": "contracts/Game.sol:Game",
        "label": "lastTimeStamp",
        "offset": 0,
        "slot": "13",
        "type": "t_mapping(t_uint256,t_uint256)"
      },
      {
        "astId": 2753,
        "contract": "contracts/Game.sol:Game",
        "label": "negativeRewardThreshold",
        "offset": 0,
        "slot": "14",
        "type": "t_int256"
      },
      {
        "astId": 2755,
        "contract": "contracts/Game.sol:Game",
        "label": "negativeRewardFactor",
        "offset": 0,
        "slot": "15",
        "type": "t_uint256"
      },
      {
        "astId": 2759,
        "contract": "contracts/Game.sol:Game",
        "label": "tokenPrice",
        "offset": 0,
        "slot": "16",
        "type": "t_mapping(t_uint256,t_uint256)"
      },
      {
        "astId": 2762,
        "contract": "contracts/Game.sol:Game",
        "label": "BASE_SCALE",
        "offset": 0,
        "slot": "17",
        "type": "t_uint256"
      },
      {
        "astId": 2767,
        "contract": "contracts/Game.sol:Game",
        "label": "baskets",
        "offset": 0,
        "slot": "18",
        "type": "t_mapping(t_uint256,t_struct(Basket)2713_storage)"
      },
      {
        "astId": 2774,
        "contract": "contracts/Game.sol:Game",
        "label": "vaults",
        "offset": 0,
        "slot": "19",
        "type": "t_mapping(t_uint32,t_mapping(t_uint256,t_struct(vaultInfo)2734_storage))"
      }
    ],
    "types": {
      "t_address": {
        "encoding": "inplace",
        "label": "address",
        "numberOfBytes": "20"
      },
      "t_bool": {
        "encoding": "inplace",
        "label": "bool",
        "numberOfBytes": "1"
      },
      "t_contract(IERC20)703": {
        "encoding": "inplace",
        "label": "contract IERC20",
        "numberOfBytes": "20"
      },
      "t_int256": {
        "encoding": "inplace",
        "label": "int256",
        "numberOfBytes": "32"
      },
      "t_mapping(t_address,t_bool)": {
        "encoding": "mapping",
        "key": "t_address",
        "label": "mapping(address => bool)",
        "numberOfBytes": "32",
        "value": "t_bool"
      },
      "t_mapping(t_address,t_mapping(t_address,t_bool))": {
        "encoding": "mapping",
        "key": "t_address",
        "label": "mapping(address => mapping(address => bool))",
        "numberOfBytes": "32",
        "value": "t_mapping(t_address,t_bool)"
      },
      "t_mapping(t_address,t_uint256)": {
        "encoding": "mapping",
        "key": "t_address",
        "label": "mapping(address => uint256)",
        "numberOfBytes": "32",
        "value": "t_uint256"
      },
      "t_mapping(t_uint256,t_address)": {
        "encoding": "mapping",
        "key": "t_uint256",
        "label": "mapping(uint256 => address)",
        "numberOfBytes": "32",
        "value": "t_address"
      },
      "t_mapping(t_uint256,t_int256)": {
        "encoding": "mapping",
        "key": "t_uint256",
        "label": "mapping(uint256 => int256)",
        "numberOfBytes": "32",
        "value": "t_int256"
      },
      "t_mapping(t_uint256,t_mapping(t_uint256,t_int256))": {
        "encoding": "mapping",
        "key": "t_uint256",
        "label": "mapping(uint256 => mapping(uint256 => int256))",
        "numberOfBytes": "32",
        "value": "t_mapping(t_uint256,t_int256)"
      },
      "t_mapping(t_uint256,t_struct(Basket)2713_storage)": {
        "encoding": "mapping",
        "key": "t_uint256",
        "label": "mapping(uint256 => struct Game.Basket)",
        "numberOfBytes": "32",
        "value": "t_struct(Basket)2713_storage"
      },
      "t_mapping(t_uint256,t_struct(vaultInfo)2734_storage)": {
        "encoding": "mapping",
        "key": "t_uint256",
        "label": "mapping(uint256 => struct Game.vaultInfo)",
        "numberOfBytes": "32",
        "value": "t_struct(vaultInfo)2734_storage"
      },
      "t_mapping(t_uint256,t_uint256)": {
        "encoding": "mapping",
        "key": "t_uint256",
        "label": "mapping(uint256 => uint256)",
        "numberOfBytes": "32",
        "value": "t_uint256"
      },
      "t_mapping(t_uint32,t_mapping(t_uint256,t_struct(vaultInfo)2734_storage))": {
        "encoding": "mapping",
        "key": "t_uint32",
        "label": "mapping(uint32 => mapping(uint256 => struct Game.vaultInfo))",
        "numberOfBytes": "32",
        "value": "t_mapping(t_uint256,t_struct(vaultInfo)2734_storage)"
      },
      "t_string_storage": {
        "encoding": "bytes",
        "label": "string",
        "numberOfBytes": "32"
      },
      "t_struct(Basket)2713_storage": {
        "encoding": "inplace",
        "label": "struct Game.Basket",
        "members": [
          {
            "astId": 2698,
            "contract": "contracts/Game.sol:Game",
            "label": "vaultNumber",
            "offset": 0,
            "slot": "0",
            "type": "t_uint256"
          },
          {
            "astId": 2700,
            "contract": "contracts/Game.sol:Game",
            "label": "chainId",
            "offset": 0,
            "slot": "1",
            "type": "t_uint32"
          },
          {
            "astId": 2702,
            "contract": "contracts/Game.sol:Game",
            "label": "lastRebalancingPeriod",
            "offset": 0,
            "slot": "2",
            "type": "t_uint256"
          },
          {
            "astId": 2704,
            "contract": "contracts/Game.sol:Game",
            "label": "nrOfAllocatedTokens",
            "offset": 0,
            "slot": "3",
            "type": "t_int256"
          },
          {
            "astId": 2706,
            "contract": "contracts/Game.sol:Game",
            "label": "totalUnRedeemedRewards",
            "offset": 0,
            "slot": "4",
            "type": "t_int256"
          },
          {
            "astId": 2708,
            "contract": "contracts/Game.sol:Game",
            "label": "totalRedeemedRewards",
            "offset": 0,
            "slot": "5",
            "type": "t_int256"
          },
          {
            "astId": 2712,
            "contract": "contracts/Game.sol:Game",
            "label": "allocations",
            "offset": 0,
            "slot": "6",
            "type": "t_mapping(t_uint256,t_int256)"
          }
        ],
        "numberOfBytes": "224"
      },
      "t_struct(vaultInfo)2734_storage": {
        "encoding": "inplace",
        "label": "struct Game.vaultInfo",
        "members": [
          {
            "astId": 2715,
            "contract": "contracts/Game.sol:Game",
            "label": "vaultAddress",
            "offset": 0,
            "slot": "0",
            "type": "t_address"
          },
          {
            "astId": 2717,
            "contract": "contracts/Game.sol:Game",
            "label": "deltaAllocationsVault",
            "offset": 0,
            "slot": "1",
            "type": "t_int256"
          },
          {
            "astId": 2719,
            "contract": "contracts/Game.sol:Game",
            "label": "rewardsReceived",
            "offset": 0,
            "slot": "2",
            "type": "t_bool"
          },
          {
            "astId": 2721,
            "contract": "contracts/Game.sol:Game",
            "label": "latestProtocolId",
            "offset": 0,
            "slot": "3",
            "type": "t_uint256"
          },
          {
            "astId": 2723,
            "contract": "contracts/Game.sol:Game",
            "label": "rebalancingPeriod",
            "offset": 0,
            "slot": "4",
            "type": "t_uint256"
          },
          {
            "astId": 2727,
            "contract": "contracts/Game.sol:Game",
            "label": "deltaAllocationProtocol",
            "offset": 0,
            "slot": "5",
            "type": "t_mapping(t_uint256,t_int256)"
          },
          {
            "astId": 2733,
            "contract": "contracts/Game.sol:Game",
            "label": "rewardPerLockedToken",
            "offset": 0,
            "slot": "6",
            "type": "t_mapping(t_uint256,t_mapping(t_uint256,t_int256))"
          }
        ],
        "numberOfBytes": "224"
      },
      "t_uint256": {
        "encoding": "inplace",
        "label": "uint256",
        "numberOfBytes": "32"
      },
      "t_uint32": {
        "encoding": "inplace",
        "label": "uint32",
        "numberOfBytes": "4"
      }
    }
  }
}