{
  "address": "0x2763eFAb9945A05423FF15040fAbB93C9692D020",
  "abi": [
    {
      "inputs": [
        {
          "internalType": "string",
          "name": "_name",
          "type": "string"
        },
        {
          "internalType": "string",
          "name": "_symbol",
          "type": "string"
        },
        {
          "internalType": "uint8",
          "name": "_decimals",
          "type": "uint8"
        },
        {
          "internalType": "uint256",
          "name": "_vaultNumber",
          "type": "uint256"
        },
        {
          "internalType": "address",
          "name": "_dao",
          "type": "address"
        },
        {
          "internalType": "address",
          "name": "_controller",
          "type": "address"
        },
        {
          "internalType": "address",
          "name": "_vaultCurrency",
          "type": "address"
        },
        {
          "internalType": "address",
          "name": "_nativeToken",
          "type": "address"
        },
        {
          "internalType": "uint256",
          "name": "_minScale",
          "type": "uint256"
        }
      ],
      "stateMutability": "nonpayable",
      "type": "constructor"
    },
    {
      "anonymous": false,
      "inputs": [
        {
          "indexed": true,
          "internalType": "address",
          "name": "owner",
          "type": "address"
        },
        {
          "indexed": true,
          "internalType": "address",
          "name": "spender",
          "type": "address"
        },
        {
          "indexed": false,
          "internalType": "uint256",
          "name": "value",
          "type": "uint256"
        }
      ],
      "name": "Approval",
      "type": "event"
    },
    {
      "anonymous": false,
      "inputs": [
        {
          "indexed": false,
          "internalType": "address",
          "name": "user",
          "type": "address"
        },
        {
          "indexed": false,
          "internalType": "uint256",
          "name": "amount",
          "type": "uint256"
        },
        {
          "indexed": false,
          "internalType": "uint256",
          "name": "shares",
          "type": "uint256"
        }
      ],
      "name": "Deposit",
      "type": "event"
    },
    {
      "anonymous": false,
      "inputs": [
        {
          "indexed": false,
          "internalType": "uint256",
          "name": "protocolNum",
          "type": "uint256"
        },
        {
          "indexed": false,
          "internalType": "uint256",
          "name": "amount",
          "type": "uint256"
        }
      ],
      "name": "DepositInProtocol",
      "type": "event"
    },
    {
      "anonymous": false,
      "inputs": [
        {
          "indexed": false,
          "internalType": "uint256",
          "name": "protocolNum",
          "type": "uint256"
        },
        {
          "indexed": false,
          "internalType": "uint256",
          "name": "rebalancingPeriod",
          "type": "uint256"
        },
        {
          "indexed": false,
          "internalType": "uint256",
          "name": "price",
          "type": "uint256"
        }
      ],
      "name": "LastPrices",
      "type": "event"
    },
    {
      "anonymous": false,
      "inputs": [
        {
          "indexed": false,
          "internalType": "uint256",
          "name": "vaultNumber",
          "type": "uint256"
        },
        {
          "indexed": false,
          "internalType": "uint32",
          "name": "chain",
          "type": "uint32"
        },
        {
          "indexed": false,
          "internalType": "int256[]",
          "name": "rewards",
          "type": "int256[]"
        }
      ],
      "name": "PushedRewardsToGame",
      "type": "event"
    },
    {
      "anonymous": false,
      "inputs": [
        {
          "indexed": false,
          "internalType": "uint256",
          "name": "vaultNumber",
          "type": "uint256"
        },
        {
          "indexed": false,
          "internalType": "uint256",
          "name": "rebalancingPeriod",
          "type": "uint256"
        }
      ],
      "name": "Rebalance",
      "type": "event"
    },
    {
      "anonymous": false,
      "inputs": [
        {
          "indexed": true,
          "internalType": "address",
          "name": "from",
          "type": "address"
        },
        {
          "indexed": true,
          "internalType": "address",
          "name": "to",
          "type": "address"
        },
        {
          "indexed": false,
          "internalType": "uint256",
          "name": "value",
          "type": "uint256"
        }
      ],
      "name": "Transfer",
      "type": "event"
    },
    {
      "anonymous": false,
      "inputs": [
        {
          "indexed": false,
          "internalType": "address",
          "name": "user",
          "type": "address"
        },
        {
          "indexed": false,
          "internalType": "uint256",
          "name": "amount",
          "type": "uint256"
        },
        {
          "indexed": false,
          "internalType": "uint256",
          "name": "value",
          "type": "uint256"
        }
      ],
      "name": "Withdraw",
      "type": "event"
    },
    {
      "anonymous": false,
      "inputs": [
        {
          "indexed": false,
          "internalType": "uint256",
          "name": "protocolNum",
          "type": "uint256"
        },
        {
          "indexed": false,
          "internalType": "uint256",
          "name": "amount",
          "type": "uint256"
        }
      ],
      "name": "WithdrawFromProtocol",
      "type": "event"
    },
    {
      "inputs": [],
      "name": "BASE_SCALE",
      "outputs": [
        {
          "internalType": "uint256",
          "name": "",
          "type": "uint256"
        }
      ],
      "stateMutability": "view",
      "type": "function"
    },
    {
      "inputs": [
        {
          "internalType": "address",
          "name": "_address",
          "type": "address"
        }
      ],
      "name": "addToWhitelist",
      "outputs": [],
      "stateMutability": "nonpayable",
      "type": "function"
    },
    {
      "inputs": [
        {
          "internalType": "address",
          "name": "owner",
          "type": "address"
        },
        {
          "internalType": "address",
          "name": "spender",
          "type": "address"
        }
      ],
      "name": "allowance",
      "outputs": [
        {
          "internalType": "uint256",
          "name": "",
          "type": "uint256"
        }
      ],
      "stateMutability": "view",
      "type": "function"
    },
    {
      "inputs": [
        {
          "internalType": "address",
          "name": "spender",
          "type": "address"
        },
        {
          "internalType": "uint256",
          "name": "amount",
          "type": "uint256"
        }
      ],
      "name": "approve",
      "outputs": [
        {
          "internalType": "bool",
          "name": "",
          "type": "bool"
        }
      ],
      "stateMutability": "nonpayable",
      "type": "function"
    },
    {
      "inputs": [
        {
          "internalType": "address",
          "name": "account",
          "type": "address"
        }
      ],
      "name": "balanceOf",
      "outputs": [
        {
          "internalType": "uint256",
          "name": "",
          "type": "uint256"
        }
      ],
      "stateMutability": "view",
      "type": "function"
    },
    {
      "inputs": [
        {
          "internalType": "uint256",
          "name": "_protocolNum",
          "type": "uint256"
        }
      ],
      "name": "balanceUnderlying",
      "outputs": [
        {
          "internalType": "uint256",
          "name": "",
          "type": "uint256"
        }
      ],
      "stateMutability": "view",
      "type": "function"
    },
    {
      "inputs": [
        {
          "internalType": "uint256",
          "name": "_protocolNum",
          "type": "uint256"
        }
      ],
      "name": "blacklistProtocol",
      "outputs": [],
      "stateMutability": "nonpayable",
      "type": "function"
    },
    {
      "inputs": [
        {
          "internalType": "uint256",
          "name": "_protocolNum",
          "type": "uint256"
        },
        {
          "internalType": "uint256",
          "name": "_amount",
          "type": "uint256"
        }
      ],
      "name": "calcShares",
      "outputs": [
        {
          "internalType": "uint256",
          "name": "",
          "type": "uint256"
        }
      ],
      "stateMutability": "view",
      "type": "function"
    },
    {
      "inputs": [
        {
          "internalType": "uint256",
          "name": "totalUnderlying",
          "type": "uint256"
        }
      ],
      "name": "calculateExchangeRate",
      "outputs": [
        {
          "internalType": "uint256",
          "name": "",
          "type": "uint256"
        }
      ],
      "stateMutability": "view",
      "type": "function"
    },
    {
      "inputs": [],
      "name": "cancelDepositRequest",
      "outputs": [],
      "stateMutability": "nonpayable",
      "type": "function"
    },
    {
      "inputs": [
        {
          "internalType": "uint256",
          "name": "_protocolNum",
          "type": "uint256"
        },
        {
          "internalType": "uint256",
          "name": "_minAmount",
          "type": "uint256"
        },
        {
          "internalType": "uint256",
          "name": "_deadline",
          "type": "uint256"
        }
      ],
      "name": "claimAndSwapTokens",
      "outputs": [],
      "stateMutability": "nonpayable",
      "type": "function"
    },
    {
      "inputs": [],
      "name": "decimals",
      "outputs": [
        {
          "internalType": "uint8",
          "name": "",
          "type": "uint8"
        }
      ],
      "stateMutability": "view",
      "type": "function"
    },
    {
      "inputs": [
        {
          "internalType": "address",
          "name": "spender",
          "type": "address"
        },
        {
          "internalType": "uint256",
          "name": "subtractedValue",
          "type": "uint256"
        }
      ],
      "name": "decreaseAllowance",
      "outputs": [
        {
          "internalType": "bool",
          "name": "",
          "type": "bool"
        }
      ],
      "stateMutability": "nonpayable",
      "type": "function"
    },
    {
      "inputs": [],
      "name": "deltaAllocationsReceived",
      "outputs": [
        {
          "internalType": "bool",
          "name": "",
          "type": "bool"
        }
      ],
      "stateMutability": "view",
      "type": "function"
    },
    {
      "inputs": [
        {
          "internalType": "uint256",
          "name": "_amount",
          "type": "uint256"
        }
      ],
      "name": "deposit",
      "outputs": [
        {
          "internalType": "uint256",
          "name": "",
          "type": "uint256"
        }
      ],
      "stateMutability": "nonpayable",
      "type": "function"
    },
    {
      "inputs": [
        {
          "internalType": "uint256",
          "name": "_amount",
          "type": "uint256"
        }
      ],
      "name": "depositRequest",
      "outputs": [],
      "stateMutability": "nonpayable",
      "type": "function"
    },
    {
      "inputs": [],
      "name": "derbyToken",
      "outputs": [
        {
          "internalType": "address",
          "name": "",
          "type": "address"
        }
      ],
      "stateMutability": "view",
      "type": "function"
    },
    {
      "inputs": [],
      "name": "exchangeRate",
      "outputs": [
        {
          "internalType": "uint256",
          "name": "",
          "type": "uint256"
        }
      ],
      "stateMutability": "view",
      "type": "function"
    },
    {
      "inputs": [],
      "name": "game",
      "outputs": [
        {
          "internalType": "address",
          "name": "",
          "type": "address"
        }
      ],
      "stateMutability": "view",
      "type": "function"
    },
    {
      "inputs": [],
      "name": "getDao",
      "outputs": [
        {
          "internalType": "address",
          "name": "",
          "type": "address"
        }
      ],
      "stateMutability": "view",
      "type": "function"
    },
    {
      "inputs": [],
      "name": "getDepositRequest",
      "outputs": [
        {
          "internalType": "uint256",
          "name": "",
          "type": "uint256"
        }
      ],
      "stateMutability": "view",
      "type": "function"
    },
    {
      "inputs": [],
      "name": "getGuardian",
      "outputs": [
        {
          "internalType": "address",
          "name": "",
          "type": "address"
        }
      ],
      "stateMutability": "view",
      "type": "function"
    },
    {
      "inputs": [],
      "name": "getRewardAllowance",
      "outputs": [
        {
          "internalType": "uint256",
          "name": "",
          "type": "uint256"
        }
      ],
      "stateMutability": "view",
      "type": "function"
    },
    {
      "inputs": [],
      "name": "getVaultBalance",
      "outputs": [
        {
          "internalType": "uint256",
          "name": "",
          "type": "uint256"
        }
      ],
      "stateMutability": "view",
      "type": "function"
    },
    {
      "inputs": [],
      "name": "getWithdrawalAllowance",
      "outputs": [
        {
          "internalType": "uint256",
          "name": "",
          "type": "uint256"
        }
      ],
      "stateMutability": "view",
      "type": "function"
    },
    {
      "inputs": [],
      "name": "governanceFee",
      "outputs": [
        {
          "internalType": "uint256",
          "name": "",
          "type": "uint256"
        }
      ],
      "stateMutability": "view",
      "type": "function"
    },
    {
      "inputs": [],
      "name": "homeChain",
      "outputs": [
        {
          "internalType": "uint32",
          "name": "",
          "type": "uint32"
        }
      ],
      "stateMutability": "view",
      "type": "function"
    },
    {
      "inputs": [
        {
          "internalType": "address",
          "name": "spender",
          "type": "address"
        },
        {
          "internalType": "uint256",
          "name": "addedValue",
          "type": "uint256"
        }
      ],
      "name": "increaseAllowance",
      "outputs": [
        {
          "internalType": "bool",
          "name": "",
          "type": "bool"
        }
      ],
      "stateMutability": "nonpayable",
      "type": "function"
    },
    {
      "inputs": [
        {
          "internalType": "uint256",
          "name": "",
          "type": "uint256"
        }
      ],
      "name": "lastPrices",
      "outputs": [
        {
          "internalType": "uint256",
          "name": "",
          "type": "uint256"
        }
      ],
      "stateMutability": "view",
      "type": "function"
    },
    {
      "inputs": [],
      "name": "lastRewardPeriod",
      "outputs": [
        {
          "internalType": "uint256",
          "name": "",
          "type": "uint256"
        }
      ],
      "stateMutability": "view",
      "type": "function"
    },
    {
      "inputs": [],
      "name": "lastTimeStamp",
      "outputs": [
        {
          "internalType": "uint256",
          "name": "",
          "type": "uint256"
        }
      ],
      "stateMutability": "view",
      "type": "function"
    },
    {
      "inputs": [],
      "name": "liquidityPerc",
      "outputs": [
        {
          "internalType": "uint256",
          "name": "",
          "type": "uint256"
        }
      ],
      "stateMutability": "view",
      "type": "function"
    },
    {
      "inputs": [],
      "name": "marginScale",
      "outputs": [
        {
          "internalType": "int256",
          "name": "",
          "type": "int256"
        }
      ],
      "stateMutability": "view",
      "type": "function"
    },
    {
      "inputs": [],
      "name": "minScale",
      "outputs": [
        {
          "internalType": "uint256",
          "name": "",
          "type": "uint256"
        }
      ],
      "stateMutability": "view",
      "type": "function"
    },
    {
      "inputs": [],
      "name": "minimumDeposit",
      "outputs": [
        {
          "internalType": "uint256",
          "name": "",
          "type": "uint256"
        }
      ],
      "stateMutability": "view",
      "type": "function"
    },
    {
      "inputs": [],
      "name": "name",
      "outputs": [
        {
          "internalType": "string",
          "name": "",
          "type": "string"
        }
      ],
      "stateMutability": "view",
      "type": "function"
    },
    {
      "inputs": [],
      "name": "nativeToken",
      "outputs": [
        {
          "internalType": "address",
          "name": "",
          "type": "address"
        }
      ],
      "stateMutability": "view",
      "type": "function"
    },
    {
      "inputs": [],
      "name": "performanceFee",
      "outputs": [
        {
          "internalType": "uint256",
          "name": "",
          "type": "uint256"
        }
      ],
      "stateMutability": "view",
      "type": "function"
    },
    {
      "inputs": [
        {
          "internalType": "uint256",
          "name": "_protocolNum",
          "type": "uint256"
        }
      ],
      "name": "price",
      "outputs": [
        {
          "internalType": "uint256",
          "name": "",
          "type": "uint256"
        }
      ],
      "stateMutability": "view",
      "type": "function"
    },
    {
      "inputs": [],
      "name": "rebalance",
      "outputs": [],
      "stateMutability": "nonpayable",
      "type": "function"
    },
    {
      "inputs": [],
      "name": "rebalanceInterval",
      "outputs": [
        {
          "internalType": "uint256",
          "name": "",
          "type": "uint256"
        }
      ],
      "stateMutability": "view",
      "type": "function"
    },
    {
      "inputs": [],
      "name": "rebalanceNeeded",
      "outputs": [
        {
          "internalType": "bool",
          "name": "",
          "type": "bool"
        }
      ],
      "stateMutability": "view",
      "type": "function"
    },
    {
      "inputs": [],
      "name": "rebalancingPeriod",
      "outputs": [
        {
          "internalType": "uint256",
          "name": "",
          "type": "uint256"
        }
      ],
      "stateMutability": "view",
      "type": "function"
    },
    {
      "inputs": [
        {
          "internalType": "int256[]",
          "name": "_deltas",
          "type": "int256[]"
        }
      ],
      "name": "receiveProtocolAllocations",
      "outputs": [],
      "stateMutability": "nonpayable",
      "type": "function"
    },
    {
      "inputs": [
        {
          "internalType": "int256[]",
          "name": "_deltas",
          "type": "int256[]"
        }
      ],
      "name": "receiveProtocolAllocationsGuard",
      "outputs": [],
      "stateMutability": "nonpayable",
      "type": "function"
    },
    {
      "inputs": [],
      "name": "redeemDeposit",
      "outputs": [
        {
          "internalType": "uint256",
          "name": "shares",
          "type": "uint256"
        }
      ],
      "stateMutability": "nonpayable",
      "type": "function"
    },
    {
      "inputs": [
        {
          "internalType": "uint256",
          "name": "_value",
          "type": "uint256"
        },
        {
          "internalType": "address",
          "name": "_user",
          "type": "address"
        }
      ],
      "name": "redeemRewardsGame",
      "outputs": [],
      "stateMutability": "nonpayable",
      "type": "function"
    },
    {
      "inputs": [
        {
          "internalType": "uint256",
          "name": "",
          "type": "uint256"
        },
        {
          "internalType": "uint256",
          "name": "",
          "type": "uint256"
        }
      ],
      "name": "rewardPerLockedToken",
      "outputs": [
        {
          "internalType": "int256",
          "name": "",
          "type": "int256"
        }
      ],
      "stateMutability": "view",
      "type": "function"
    },
    {
      "inputs": [],
      "name": "savedTotalUnderlying",
      "outputs": [
        {
          "internalType": "uint256",
          "name": "",
          "type": "uint256"
        }
      ],
      "stateMutability": "view",
      "type": "function"
    },
    {
      "inputs": [],
      "name": "sendRewardsToGame",
      "outputs": [],
      "stateMutability": "payable",
      "type": "function"
    },
    {
      "inputs": [
        {
          "internalType": "address",
          "name": "_controller",
          "type": "address"
        }
      ],
      "name": "setController",
      "outputs": [],
      "stateMutability": "nonpayable",
      "type": "function"
    },
    {
      "inputs": [
        {
          "internalType": "address",
          "name": "_dao",
          "type": "address"
        }
      ],
      "name": "setDao",
      "outputs": [],
      "stateMutability": "nonpayable",
      "type": "function"
    },
    {
      "inputs": [
        {
          "internalType": "address",
          "name": "_token",
          "type": "address"
        }
      ],
      "name": "setDaoToken",
      "outputs": [],
      "stateMutability": "nonpayable",
      "type": "function"
    },
    {
      "inputs": [
        {
          "internalType": "uint16",
          "name": "_fee",
          "type": "uint16"
        }
      ],
      "name": "setGovernanceFee",
      "outputs": [],
      "stateMutability": "nonpayable",
      "type": "function"
    },
    {
      "inputs": [
        {
          "internalType": "address",
          "name": "_guardian",
          "type": "address"
        }
      ],
      "name": "setGuardian",
      "outputs": [],
      "stateMutability": "nonpayable",
      "type": "function"
    },
    {
      "inputs": [
        {
          "internalType": "uint32",
          "name": "_homeChain",
          "type": "uint32"
        }
      ],
      "name": "setHomeChain",
      "outputs": [],
      "stateMutability": "nonpayable",
      "type": "function"
    },
    {
      "inputs": [
        {
          "internalType": "address",
          "name": "_xProvider",
          "type": "address"
        }
      ],
      "name": "setHomeXProvider",
      "outputs": [],
      "stateMutability": "nonpayable",
      "type": "function"
    },
    {
      "inputs": [
        {
          "internalType": "uint256",
          "name": "_liquidityPerc",
          "type": "uint256"
        }
      ],
      "name": "setLiquidityPerc",
      "outputs": [],
      "stateMutability": "nonpayable",
      "type": "function"
    },
    {
      "inputs": [
        {
          "internalType": "int256",
          "name": "_marginScale",
          "type": "int256"
        }
      ],
      "name": "setMarginScale",
      "outputs": [],
      "stateMutability": "nonpayable",
      "type": "function"
    },
    {
      "inputs": [
        {
          "internalType": "uint256",
          "name": "_newMinimumDeposit",
          "type": "uint256"
        }
      ],
      "name": "setMinimumDeposit",
      "outputs": [],
      "stateMutability": "nonpayable",
      "type": "function"
    },
    {
      "inputs": [
        {
          "internalType": "uint256",
          "name": "_performanceFee",
          "type": "uint256"
        }
      ],
      "name": "setPerformanceFee",
      "outputs": [],
      "stateMutability": "nonpayable",
      "type": "function"
    },
    {
      "inputs": [
        {
          "internalType": "uint256",
          "name": "_timestampInternal",
          "type": "uint256"
        }
      ],
      "name": "setRebalanceInterval",
      "outputs": [],
      "stateMutability": "nonpayable",
      "type": "function"
    },
    {
      "inputs": [],
      "name": "setTotalUnderlying",
      "outputs": [],
      "stateMutability": "nonpayable",
      "type": "function"
    },
    {
      "inputs": [
        {
          "internalType": "bool",
          "name": "_state",
          "type": "bool"
        }
      ],
      "name": "setTraining",
      "outputs": [],
      "stateMutability": "nonpayable",
      "type": "function"
    },
    {
      "inputs": [
        {
          "internalType": "uint256",
          "name": "_maxDeposit",
          "type": "uint256"
        }
      ],
      "name": "setTrainingDeposit",
      "outputs": [],
      "stateMutability": "nonpayable",
      "type": "function"
    },
    {
      "inputs": [
        {
          "internalType": "uint256",
          "name": "_minScale",
          "type": "uint256"
        }
      ],
      "name": "setminScale",
      "outputs": [],
      "stateMutability": "nonpayable",
      "type": "function"
    },
    {
      "inputs": [],
      "name": "symbol",
      "outputs": [
        {
          "internalType": "string",
          "name": "",
          "type": "string"
        }
      ],
      "stateMutability": "view",
      "type": "function"
    },
    {
      "inputs": [],
      "name": "totalAllocatedTokens",
      "outputs": [
        {
          "internalType": "uint256",
          "name": "",
          "type": "uint256"
        }
      ],
      "stateMutability": "view",
      "type": "function"
    },
    {
      "inputs": [],
      "name": "totalSupply",
      "outputs": [
        {
          "internalType": "uint256",
          "name": "",
          "type": "uint256"
        }
      ],
      "stateMutability": "view",
      "type": "function"
    },
    {
      "inputs": [
        {
          "internalType": "address",
          "name": "to",
          "type": "address"
        },
        {
          "internalType": "uint256",
          "name": "amount",
          "type": "uint256"
        }
      ],
      "name": "transfer",
      "outputs": [
        {
          "internalType": "bool",
          "name": "",
          "type": "bool"
        }
      ],
      "stateMutability": "nonpayable",
      "type": "function"
    },
    {
      "inputs": [
        {
          "internalType": "address",
          "name": "from",
          "type": "address"
        },
        {
          "internalType": "address",
          "name": "to",
          "type": "address"
        },
        {
          "internalType": "uint256",
          "name": "amount",
          "type": "uint256"
        }
      ],
      "name": "transferFrom",
      "outputs": [
        {
          "internalType": "bool",
          "name": "",
          "type": "bool"
        }
      ],
      "stateMutability": "nonpayable",
      "type": "function"
    },
    {
      "inputs": [],
      "name": "vaultNumber",
      "outputs": [
        {
          "internalType": "uint256",
          "name": "",
          "type": "uint256"
        }
      ],
      "stateMutability": "view",
      "type": "function"
    },
    {
      "inputs": [],
      "name": "vaultOff",
      "outputs": [
        {
          "internalType": "bool",
          "name": "",
          "type": "bool"
        }
      ],
      "stateMutability": "view",
      "type": "function"
    },
    {
      "inputs": [
        {
          "internalType": "uint256",
          "name": "_amount",
          "type": "uint256"
        }
      ],
      "name": "withdraw",
      "outputs": [
        {
          "internalType": "uint256",
          "name": "",
          "type": "uint256"
        }
      ],
      "stateMutability": "nonpayable",
      "type": "function"
    },
    {
      "inputs": [],
      "name": "withdrawAllowance",
      "outputs": [
        {
          "internalType": "uint256",
          "name": "value",
          "type": "uint256"
        }
      ],
      "stateMutability": "nonpayable",
      "type": "function"
    },
    {
      "inputs": [
        {
          "internalType": "uint256",
          "name": "_protocolNum",
          "type": "uint256"
        },
        {
          "internalType": "uint256",
          "name": "_minAmount",
          "type": "uint256"
        },
        {
          "internalType": "uint256",
          "name": "_deadline",
          "type": "uint256"
        }
      ],
      "name": "withdrawFromBlacklistedProtocol",
      "outputs": [],
      "stateMutability": "nonpayable",
      "type": "function"
    },
    {
      "inputs": [],
      "name": "withdrawRewards",
      "outputs": [
        {
          "internalType": "uint256",
          "name": "value",
          "type": "uint256"
        }
      ],
      "stateMutability": "nonpayable",
      "type": "function"
    },
    {
      "inputs": [
        {
          "internalType": "uint256",
          "name": "_amount",
          "type": "uint256"
        }
      ],
      "name": "withdrawalRequest",
      "outputs": [
        {
          "internalType": "uint256",
          "name": "shares",
          "type": "uint256"
        }
      ],
      "stateMutability": "nonpayable",
      "type": "function"
    },
    {
      "inputs": [],
      "name": "xProvider",
      "outputs": [
        {
          "internalType": "address",
          "name": "",
          "type": "address"
        }
      ],
      "stateMutability": "view",
      "type": "function"
    },
    {
      "stateMutability": "payable",
      "type": "receive"
    }
  ],
  "transactionHash": "0x1ac5657d7d5ad0cccccf68278526e5f26236aef98fe4dbf649af1ee3f8bc104d",
  "args": [
    "DerbyUSDC",
    "dfUSDC",
    6,
    1,
    "0x1Ca7b496Ac4E609cf400793Db67916AC91773927",
    "0xa4EA3fba92C893A3e824aD75CA576852E269520f",
    "0x07865c6E87B9F70255377e024ace6630C1Eaa37F",
    "0xB4FBF271143F4FBf7B91A5ded31805e42b2208d6",
    0
  ],
  "numDeployments": 1,
  "solcInputHash": "e43ec0e2d5415b9a8828a8651067602e",
  "bytecode": "0x670de0b6b3a764000060105560e0604052600a60a08190526921416c6c6f77616e636560b01b60c09081526200003991601f919062000272565b50604080518082019091526008808252674e6f2066756e647360c01b602092830190815262000069929162000272565b503480156200007757600080fd5b50604051620054fe380380620054fe8339810160408190526200009a9162000414565b6001600055885189908990899083908390620000be90600490602085019062000272565b508051620000d490600590602084019062000272565b505060068054600780546001600160a01b03808d166001600160a01b0319928316179092558a82166101009081026001600160a81b031990941660ff909716969096179290921792839055600a8d9055600880548d8316931692909217909155426012558781166080526040805163313ce56760e01b815290519490920416945063313ce567935060048082019360209350918290030181865afa15801562000181573d6000803e3d6000fd5b505050506040513d601f19601f82011682018060405250810190620001a79190620004ef565b620001b490600a62000629565b600f556000601b55601c8190556006546040805163313ce56760e01b81529051839261010090046001600160a01b03169163313ce5679160048083019260209291908290030181865afa15801562000210573d6000803e3d6000fd5b505050506040513d601f19601f82011682018060405250810190620002369190620004ef565b60ff166200024591906200063a565b6200025290600a62000654565b6200025f90606462000662565b601d5550620006c1975050505050505050565b828054620002809062000684565b90600052602060002090601f016020900481019282620002a45760008555620002ef565b82601f10620002bf57805160ff1916838001178555620002ef565b82800160010185558215620002ef579182015b82811115620002ef578251825591602001919060010190620002d2565b50620002fd92915062000301565b5090565b5b80821115620002fd576000815560010162000302565b634e487b7160e01b600052604160045260246000fd5b600082601f8301126200034057600080fd5b81516001600160401b03808211156200035d576200035d62000318565b604051601f8301601f19908116603f0116810190828211818310171562000388576200038862000318565b81604052838152602092508683858801011115620003a557600080fd5b600091505b83821015620003c95785820183015181830184015290820190620003aa565b83821115620003db5760008385830101525b9695505050505050565b805160ff81168114620003f757600080fd5b919050565b80516001600160a01b0381168114620003f757600080fd5b60008060008060008060008060006101208a8c0312156200043457600080fd5b89516001600160401b03808211156200044c57600080fd5b6200045a8d838e016200032e565b9a5060208c01519150808211156200047157600080fd5b50620004808c828d016200032e565b9850506200049160408b01620003e5565b965060608a01519550620004a860808b01620003fc565b9450620004b860a08b01620003fc565b9350620004c860c08b01620003fc565b9250620004d860e08b01620003fc565b91506101008a015190509295985092959850929598565b6000602082840312156200050257600080fd5b6200050d82620003e5565b9392505050565b634e487b7160e01b600052601160045260246000fd5b600181815b808511156200056b5781600019048211156200054f576200054f62000514565b808516156200055d57918102915b93841c93908002906200052f565b509250929050565b600082620005845750600162000623565b81620005935750600062000623565b8160018114620005ac5760028114620005b757620005d7565b600191505062000623565b60ff841115620005cb57620005cb62000514565b50506001821b62000623565b5060208310610133831016604e8410600b8410161715620005fc575081810a62000623565b6200060883836200052a565b80600019048211156200061f576200061f62000514565b0290505b92915050565b60006200050d60ff84168362000573565b6000828210156200064f576200064f62000514565b500390565b60006200050d838362000573565b60008160001904831182151516156200067f576200067f62000514565b500290565b600181811c908216806200069957607f821691505b60208210811415620006bb57634e487b7160e01b600052602260045260246000fd5b50919050565b608051614e13620006eb6000396000818161038c01528181610be901526116900152614e136000f3fe60806040526004361061037c5760003560e01c806306fdde03146103f0578063095ea7b31461041b5780630c195d991461044b5780630ccb7d5b1461046f5780630e08891a1461049c5780630ea90a12146104b25780630ee1265f146104c85780630f310a6a146104e857806311e8c2291461050a57806316d1d9161461052a57806318160ddd146105405780631a946732146105555780631f986445146105755780632189651f1461058b57806321ae838e146105ab57806323b872dd146105b357806324b67970146105d357806326a49e37146105f35780632d84010f146106135780632e1a7d4d146106295780632e956470146106495780632faf3a731461065e578063303ac0f114610674578063313ce567146106945780633245dea5146106b657806339509351146106e35780633ba0b9a9146107035780633f3b3b271461071957806343ab90a81461072f5780635209cb9814610744578063533b03bb14610764578063570f1f9d146107855780635afbf5ba146107a55780635b7dcaed146107c55780635e39d91f146107e557806362ae07651461081d578063636bfbab1461083d5780636610e08e146108535780636637b8821461086857806370897b231461088857806370a08231146108a85780637468a52b146108c8578063799a3f88146109015780637d7c2a1c146109175780638645d5821461092c578063877887821461094d57806389cc88db146109635780638a0dac4a146109795780638a5ff078146109995780638b537ef7146109af5780638e9bf9d2146109cf57806392eefe9b146109ef57806395d89b4114610a0f5780639c7ec7a614610a24578063a104b99514610a44578063a457c2d714610a64578063a75b87d214610a84578063a9059cbb14610aa2578063b6b55f2514610ac2578063b70811bc14610ae2578063c0ee01bc14610af7578063c3fe3e2814610b0c578063c7b8981c14610b2c578063ce64aabb14610b41578063d0284b9914610b57578063d19e8d2514610b77578063d97bb59414610b97578063dd62ed3e14610bb7578063e1758bd814610bd7578063e43252d714610c0b578063e53ae15614610c2b578063e672025414610c50578063e706790914610c65578063e78ec42e14610c85578063eaf22ccb14610ca5578063ed12e8ef14610cc5578063f0b58bfd14610cda578063fb0a8cd014610cff578063fdba466e14610d1f57600080fd5b366103eb57336001600160a01b037f000000000000000000000000000000000000000000000000000000000000000016146103e95760405162461bcd60e51b815260206004820152600860248201526709cdee840ae8aa8960c31b60448201526064015b60405180910390fd5b005b600080fd5b3480156103fc57600080fd5b50610405610d3f565b60405161041291906142f7565b60405180910390f35b34801561042757600080fd5b5061043b61043636600461433f565b610dd1565b6040519015158152602001610412565b34801561045757600080fd5b5061046160165481565b604051908152602001610412565b34801561047b57600080fd5b5060185461048f906001600160a01b031681565b604051610412919061436b565b3480156104a857600080fd5b50610461600e5481565b3480156104be57600080fd5b50610461601b5481565b3480156104d457600080fd5b506104616104e336600461437f565b610deb565b3480156104f457600080fd5b5033600090815260286020526040902054610461565b34801561051657600080fd5b506103e961052536600461437f565b610eb2565b34801561053657600080fd5b5061046160115481565b34801561054c57600080fd5b50600354610461565b34801561056157600080fd5b506103e961057036600461437f565b610f7e565b34801561058157600080fd5b5061046160105481565b34801561059757600080fd5b506103e96105a6366004614406565b610fad565b6103e9610fe3565b3480156105bf57600080fd5b5061043b6105ce3660046144ab565b611106565b3480156105df57600080fd5b506103e96105ee3660046144ec565b61112a565b3480156105ff57600080fd5b5061046161060e36600461437f565b611176565b34801561061f57600080fd5b50610461600d5481565b34801561063557600080fd5b5061046161064436600461437f565b611265565b34801561065557600080fd5b5061043b611496565b34801561066a57600080fd5b50610461601c5481565b34801561068057600080fd5b506103e961068f366004614509565b6114c4565b3480156106a057600080fd5b5060065460405160ff9091168152602001610412565b3480156106c257600080fd5b506104616106d136600461437f565b60276020526000908152604090205481565b3480156106ef57600080fd5b5061043b6106fe36600461433f565b6117d0565b34801561070f57600080fd5b50610461600f5481565b34801561072557600080fd5b5061046160125481565b34801561073b57600080fd5b506103e96117f2565b34801561075057600080fd5b5061046161075f36600461437f565b6118c1565b34801561077057600080fd5b50601a5461043b90600160a01b900460ff1681565b34801561079157600080fd5b506103e96107a036600461437f565b6119fb565b3480156107b157600080fd5b506103e96107c0366004614535565b611a2a565b3480156107d157600080fd5b506103e96107e036600461437f565b611a7a565b3480156107f157600080fd5b5061046161080036600461455b565b602660209081526000928352604080842090915290825290205481565b34801561082957600080fd5b5061046161083836600461437f565b611aa9565b34801561084957600080fd5b50610461601d5481565b34801561085f57600080fd5b50610461611ba5565b34801561087457600080fd5b506103e96108833660046144ec565b611c80565b34801561089457600080fd5b506103e96108a336600461437f565b611ccc565b3480156108b457600080fd5b506104616108c33660046144ec565b611d09565b3480156108d457600080fd5b50601a546108ec90600160a81b900463ffffffff1681565b60405163ffffffff9091168152602001610412565b34801561090d57600080fd5b50610461600a5481565b34801561092357600080fd5b506103e9611d24565b34801561093857600080fd5b5060075461043b90600160a01b900460ff1681565b34801561095957600080fd5b50610461600c5481565b34801561096f57600080fd5b5061046160135481565b34801561098557600080fd5b506103e96109943660046144ec565b611f23565b3480156109a557600080fd5b50610461601e5481565b3480156109bb57600080fd5b506103e96109ca366004614509565b611f6f565b3480156109db57600080fd5b506103e96109ea36600461437f565b6120b6565b3480156109fb57600080fd5b506103e9610a0a3660046144ec565b6121de565b348015610a1b57600080fd5b5061040561222a565b348015610a3057600080fd5b506103e9610a3f36600461437f565b612239565b348015610a5057600080fd5b506103e9610a5f36600461437f565b612276565b348015610a7057600080fd5b5061043b610a7f36600461433f565b6122a5565b348015610a9057600080fd5b506009546001600160a01b031661048f565b348015610aae57600080fd5b5061043b610abd36600461433f565b612320565b348015610ace57600080fd5b50610461610add36600461437f565b61232e565b348015610aee57600080fd5b5061048f612588565b348015610b0357600080fd5b50610461612597565b348015610b1857600080fd5b5060195461048f906001600160a01b031681565b348015610b3857600080fd5b506104616126c8565b348015610b4d57600080fd5b50610461600b5481565b348015610b6357600080fd5b506103e9610b7236600461458b565b61279b565b348015610b8357600080fd5b50610461610b9236600461455b565b6127d8565b348015610ba357600080fd5b506103e9610bb23660046145a8565b6128d5565b348015610bc357600080fd5b50610461610bd23660046145d8565b612997565b348015610be357600080fd5b5061048f7f000000000000000000000000000000000000000000000000000000000000000081565b348015610c1757600080fd5b506103e9610c263660046144ec565b6129c2565b348015610c3757600080fd5b5033600090815260286020526040902060040154610461565b348015610c5c57600080fd5b506103e9612a10565b348015610c7157600080fd5b506103e9610c80366004614406565b612a79565b348015610c9157600080fd5b506103e9610ca036600461437f565b612aa3565b348015610cb157600080fd5b506103e9610cc0366004614606565b612ad2565b348015610cd157600080fd5b50610461612b05565b348015610ce657600080fd5b5033600090815260286020526040902060020154610461565b348015610d0b57600080fd5b506103e9610d1a3660046144ec565b612b7c565b348015610d2b57600080fd5b50601a5461048f906001600160a01b031681565b606060048054610d4e9061462a565b80601f0160208091040260200160405190810160405280929190818152602001828054610d7a9061462a565b8015610dc75780601f10610d9c57610100808354040283529160200191610dc7565b820191906000526020600020905b815481529060010190602001808311610daa57829003601f168201915b5050505050905090565b600033610ddf818585612bc8565b60019150505b92915050565b600080610df760035490565b15610e295760035460065460ff16610e1090600a61475f565b610e1a908561476e565b610e2491906147a3565b610eab565b600660019054906101000a90046001600160a01b03166001600160a01b031663313ce5676040518163ffffffff1660e01b8152600401602060405180830381865afa158015610e7c573d6000803e3d6000fd5b505050506040513d601f19601f82011682018060405250810190610ea091906147b7565b610eab90600a61475f565b9392505050565b6009546001600160a01b03163314610edc5760405162461bcd60e51b81526004016103e0906147da565b6000818152602460205260408120546016805491929091610efe908490614801565b909155505060008181526024602052604080822091909155600754600a54915163ca68c24b60e01b81526001600160a01b039091169163ca68c24b91610f4991908590600401614818565b600060405180830381600087803b158015610f6357600080fd5b505af1158015610f77573d6000803e3d6000fd5b5050505050565b6009546001600160a01b03163314610fa85760405162461bcd60e51b81526004016103e0906147da565b602255565b601a546001600160a01b03163314610fd75760405162461bcd60e51b81526004016103e090614826565b610fe081612ced565b50565b600d54601e541061102d5760405162461bcd60e51b81526020600482015260146024820152731c995dd85c991cc8185b1c9958591e481cd95b9d60621b60448201526064016103e0565b6000611037612d5b565b601a54600a54604051632a41830f60e21b81529293506001600160a01b0382169263a9060c3c92349261107e929091600160a81b900463ffffffff1690879060040161484e565b6000604051808303818588803b15801561109757600080fd5b505af11580156110ab573d6000803e3d6000fd5b5050600d54601e555050600a54601a546040517f4e95ed35a6c5dc45a9dd338e0545f8b4f8b335947327934b651398cf8e88b0a193506110fb9291600160a81b900463ffffffff1690859061484e565b60405180910390a150565b600033611114858285612e7b565b61111f858585612eef565b506001949350505050565b6008546001600160a01b031633146111545760405162461bcd60e51b81526004016103e0906148a9565b601a80546001600160a01b0319166001600160a01b0392909216919091179055565b600754600a54604051632830092960e21b815260009283926001600160a01b039091169163a0c024a4916111ae918790600401614818565b606060405180830381865afa1580156111cb573d6000803e3d6000fd5b505050506040513d601f19601f820116820180604052508101906111ef91906148d2565b6020810151815160405163dc3b7c8b60e01b81529293506001600160a01b039091169163dc3b7c8b916112249160040161436b565b602060405180830381865afa158015611241573d6000803e3d6000fd5b505050506040513d601f19601f82011682018060405250810190610eab9190614926565b600754600a54604051632917823b60e21b815260009283926001600160a01b039091169163a45e08ec9161129f9160040190815260200190565b602060405180830381865afa1580156112bc573d6000803e3d6000fd5b505050506040513d601f19601f820116820180604052508101906112e09190614926565b90506000806112ed612b05565b905060008060005b858110156113e657600754600a5460405163d900d1f760e01b81526000926001600160a01b03169163d900d1f79161133291908690600401614818565b602060405180830381865afa15801561134f573d6000803e3d6000fd5b505050506040513d601f19601f82011682018060405250810190611373919061493f565b9050801561138157506113d4565b61138a82611aa9565b611394908761495c565b9550888510156113ce576113b16113ab868b614801565b836130ab565b93506113bd82856130e6565b6113c7908461495c565b92506113d2565b8892505b505b806113de81614974565b9150506112f5565b506113f084610deb565b600f81905560009061140460065460ff1690565b61140f90600a61475f565b611419908a61476e565b61142391906147a3565b9050600061143033611d09565b905061144b828261144360065460ff1690565b60ff166133d5565b9150611457338361344e565b6114613384613587565b600080516020614dbe8339815191523384846040516114829392919061498f565b60405180910390a150979650505050505050565b6000601154601254426114a99190614801565b11806114bf57506009546001600160a01b031633145b905090565b6009546001600160a01b031633146114ee5760405162461bcd60e51b81526004016103e0906147da565b600754600a5460405163c349026360e01b81526000926001600160a01b03169163c34902639161152391908890600401614818565b6020604051808303816000875af1158015611542573d6000803e3d6000fd5b505050506040513d601f19601f82011682018060405250810190611566919061493f565b905080156117ca57600754600a5460405163054c5b0360e01b81526000926001600160a01b03169163054c5b03916115a391908990600401614818565b602060405180830381865afa1580156115c0573d6000803e3d6000fd5b505050506040513d601f19601f820116820180604052508101906115e491906149b0565b90506000816001600160a01b03166370a08231306040518263ffffffff1660e01b8152600401611614919061436b565b602060405180830381865afa158015611631573d6000803e3d6000fd5b505050506040513d601f19601f820116820180604052508101906116559190614926565b905073959E2B4eB3fe2607Ee266012571d9c0638713FAB6353d7d4cd6040518060c001604052808481526020018781526020018881526020017f00000000000000000000000000000000000000000000000000000000000000006001600160a01b03168152602001856001600160a01b03168152602001600660019054906101000a90046001600160a01b03166001600160a01b0316815250600760009054906101000a90046001600160a01b03166001600160a01b03166367b4e0676040518163ffffffff1660e01b8152600401606060405180830381865afa158015611741573d6000803e3d6000fd5b505050506040513d601f19601f8201168201806040525081019061176591906149cd565b60006040518463ffffffff1660e01b815260040161178593929190614a1d565b602060405180830381865af41580156117a2573d6000803e3d6000fd5b505050506040513d601f19601f820116820180604052508101906117c69190614926565b5050505b50505050565b600033610ddf8185856117e38383612997565b6117ed919061495c565b612bc8565b600754600a54604051632917823b60e21b815260009283926001600160a01b039091169163a45e08ec9161182c9160040190815260200190565b602060405180830381865afa158015611849573d6000803e3d6000fd5b505050506040513d601f19601f8201168201806040525081019061186d9190614926565b905060005b818110156118ba57600081815260246020526040902054611892576118a8565b61189b81611aa9565b6118a5908461495c565b92505b806118b281614974565b915050611872565b5050601355565b6000600260005414156118e65760405162461bcd60e51b81526004016103e090614a9b565b60026000908155338152602860205260409020600d541580159061190c57506001810154155b61194c5760405162461bcd60e51b8152602060048201526011602482015270105b1c9958591e4818481c995c5d595cdd607a1b60448201526064016103e0565b600f5460065460ff1661196090600a61475f565b61196a908561476e565b61197491906147a3565b9150600061198133611d09565b9050611994838261144360065460ff1690565b92506119a0338461344e565b838255600d546001830155601480548591906000906119c090849061495c565b9091555050604051600080516020614dbe833981519152906119e79033908790879061498f565b60405180910390a150506001600055919050565b6008546001600160a01b03163314611a255760405162461bcd60e51b81526004016103e0906148a9565b601c55565b6009546001600160a01b03163314611a545760405162461bcd60e51b81526004016103e0906147da565b601a805463ffffffff909216600160a81b0263ffffffff60a81b19909216919091179055565b6009546001600160a01b03163314611aa45760405162461bcd60e51b81526004016103e0906147da565b601155565b600754600a54604051632830092960e21b815260009283926001600160a01b039091169163a0c024a491611ae1918790600401614818565b606060405180830381865afa158015611afe573d6000803e3d6000fd5b505050506040513d601f19601f82011682018060405250810190611b2291906148d2565b9050600081602001516001600160a01b0316635cbc09d13084600001516040518363ffffffff1660e01b8152600401611b5c929190614ad2565b602060405180830381865afa158015611b79573d6000803e3d6000fd5b505050506040513d601f19601f82011682018060405250810190611b9d9190614926565b949350505050565b600060026000541415611bca5760405162461bcd60e51b81526004016103e090614a9b565b6002600090815533815260286020908152604090912060048101546005820154600d549293919211611c0f5760405162461bcd60e51b81526004016103e09190614aec565b50600f5460065460ff16611c2490600a61475f565b611c2e908361476e565b611c3891906147a3565b9250611c43826135ef565b611c4d3384613644565b600080516020614d7e833981519152338285604051611c6e9392919061498f565b60405180910390a15050600160005590565b6008546001600160a01b03163314611caa5760405162461bcd60e51b81526004016103e0906148a9565b600880546001600160a01b0319166001600160a01b0392909216919091179055565b6008546001600160a01b03163314611cf65760405162461bcd60e51b81526004016103e0906148a9565b6064811115611d0457600080fd5b600c55565b6001600160a01b031660009081526001602052604090205490565b60026000541415611d475760405162461bcd60e51b81526004016103e090614a9b565b6002600055611d54611496565b611d965760405162461bcd60e51b8152602060048201526013602482015272139bc81c9958985b185b98d9481b9959591959606a1b60448201526064016103e0565b600754600160a01b900460ff16611de45760405162461bcd60e51b81526020600482015260126024820152712144656c746120616c6c6f636174696f6e7360701b60448201526064016103e0565b600d8054906000611df483614974565b9091555050600754600a54604051632917823b60e21b815260048101919091526000916001600160a01b03169063a45e08ec90602401602060405180830381865afa158015611e47573d6000803e3d6000fd5b505050506040513d601f19601f82011682018060405250810190611e6b9190614926565b9050611e7681613712565b611e7e6117f2565b6000611e88613738565b9050611e9261378e565b6000611e9e83836137c7565b9050611ea9816139da565b6013829055600f54611eba83610deb565b600f819055811015611ed657611ed2600f5482613aa4565b600f555b42601255600a54600d546040517f0b33d39bbef101ecc4f5ef04e6d3a125c9fb745a418dac380e2a9460f8200dc892611f10929091614818565b60405180910390a1505060016000555050565b6008546001600160a01b03163314611f4d5760405162461bcd60e51b81526004016103e0906148a9565b600980546001600160a01b0319166001600160a01b0392909216919091179055565b6009546001600160a01b03163314611f995760405162461bcd60e51b81526004016103e0906147da565b600754600a5460405163d900d1f760e01b81526000926001600160a01b03169163d900d1f791611fce91908890600401614818565b602060405180830381865afa158015611feb573d6000803e3d6000fd5b505050506040513d601f19601f8201168201806040525081019061200f919061493f565b90508061204d5760405162461bcd60e51b815260206004820152600c60248201526b08509b1858dadb1a5cdd195960a21b60448201526064016103e0565b6120588484846114c4565b600061206385611aa9565b905061206f85826130e6565b50600061207b86611aa9565b905060006120898284614801565b905080601354101561209c5760006120aa565b806013546120aa9190614801565b60135550505050505050565b600260005414156120d95760405162461bcd60e51b81526004016103e090614a9b565b60026000908155338152602860205260409020601d5482101561210e5760405162461bcd60e51b81526004016103e090614b94565b60215460ff1615612153573360009081526023602052604090205460ff1661213557600080fd5b602254828260040154612148919061495c565b111561215357600080fd5b600061215d612b05565b60065490915061217d9061010090046001600160a01b0316333086613afb565b6000612187612b05565b905060006121958383614801565b9050808460040160008282546121ab919061495c565b9091555050600d546005850155601580548291906000906121cd90849061495c565b909155505060016000555050505050565b6008546001600160a01b031633146122085760405162461bcd60e51b81526004016103e0906148a9565b600780546001600160a01b0319166001600160a01b0392909216919091179055565b606060058054610d4e9061462a565b6009546001600160a01b031633146122635760405162461bcd60e51b81526004016103e0906147da565b606481111561227157600080fd5b600b55565b6009546001600160a01b031633146122a05760405162461bcd60e51b81526004016103e0906147da565b600e55565b600033816122b38286612997565b9050838110156123135760405162461bcd60e51b815260206004820152602560248201527f45524332303a2064656372656173656420616c6c6f77616e63652062656c6f77604482015264207a65726f60d81b60648201526084016103e0565b61111f8286868403612bc8565b600033610ddf818585612eef565b6000601d548210156123525760405162461bcd60e51b81526004016103e090614b94565b60215460ff1615612379573360009081526023602052604090205460ff1661237957600080fd5b6000612383612b05565b6006549091506123a39061010090046001600160a01b0316333086613afb565b60006123ad612b05565b905060006123bb8383614801565b600754600a54604051632917823b60e21b81529293506000926001600160a01b039092169163a45e08ec916123f69160040190815260200190565b602060405180830381865afa158015612413573d6000803e3d6000fd5b505050506040513d601f19601f820116820180604052508101906124379190614926565b90506000805b8281101561250b57600754600a5460405163d900d1f760e01b81526000926001600160a01b03169163d900d1f79161247a91908690600401614818565b602060405180830381865afa158015612497573d6000803e3d6000fd5b505050506040513d601f19601f820116820180604052508101906124bb919061493f565b905080156124c957506124f9565b60006124d586846130ab565b90506124e083611aa9565b6124ea908561495c565b93506124f68382613b66565b50505b8061250381614974565b91505061243d565b5061251581610deb565b600f81905560009061252960065460ff1690565b61253490600a61475f565b61253e908661476e565b61254891906147a3565b90506125543382613644565b600080516020614d7e8339815191523385836040516125759392919061498f565b60405180910390a1979650505050505050565b6008546001600160a01b031690565b6000600260005414156125bc5760405162461bcd60e51b81526004016103e090614a9b565b600260009081553381526028602052604090208054601f906125f15760405162461bcd60e51b81526004016103e09190614aec565b508060010154600d541160209061261b5760405162461bcd60e51b81526004016103e09190614aec565b508054601a5460405163d33465cd60e01b8152600481018390529193506001600160a01b03169063d33465cd906024016020604051808303816000875af115801561266a573d6000803e3d6000fd5b505050506040513d601f19601f8201168201806040525081019061268e9190614926565b91508060000154601460008282546126a69190614801565b9091555050600080825560018201556126bf3383613587565b50600160005590565b6000600260005414156126ed5760405162461bcd60e51b81526004016103e090614a9b565b6002600081815533815260286020526040902090810154601f906127245760405162461bcd60e51b81526004016103e09190614aec565b508060030154600d541160209061274e5760405162461bcd60e51b81526004016103e09190614aec565b508060020154915080600201546014600082825461276c9190614801565b909155505060006002820181905560038201556006546126bf9061010090046001600160a01b03163384613cd9565b6009546001600160a01b031633146127c55760405162461bcd60e51b81526004016103e0906147da565b6021805460ff1916911515919091179055565b600754600a54604051632830092960e21b815260009283926001600160a01b039091169163a0c024a491612810918890600401614818565b606060405180830381865afa15801561282d573d6000803e3d6000fd5b505050506040513d601f19601f8201168201806040525081019061285191906148d2565b9050600081602001516001600160a01b031663e71325998584600001516040518363ffffffff1660e01b815260040161288b929190614bbd565b602060405180830381865afa1580156128a8573d6000803e3d6000fd5b505050506040513d601f19601f820116820180604052508101906128cc9190614926565b95945050505050565b601a546001600160a01b031633146128ff5760405162461bcd60e51b81526004016103e090614826565b600260005414156129225760405162461bcd60e51b81526004016103e090614a9b565b600260008181556001600160a01b038316815260286020526040902090810154601f90156129635760405162461bcd60e51b81526004016103e09190614aec565b5060028101839055600d5460038201556014805484919060009061298890849061495c565b90915550506001600055505050565b6001600160a01b03918216600090815260026020908152604080832093909416825291909152205490565b6009546001600160a01b031633146129ec5760405162461bcd60e51b81526004016103e0906147da565b6001600160a01b03166000908152602360205260409020805460ff19166001179055565b60026000541415612a335760405162461bcd60e51b81526004016103e090614a9b565b600260009081553381526028602052604090206004810154612a54826135ef565b600654612a709061010090046001600160a01b03163383613cd9565b50506001600055565b6009546001600160a01b03163314610fd75760405162461bcd60e51b81526004016103e0906147da565b6009546001600160a01b03163314612acd5760405162461bcd60e51b81526004016103e0906147da565b601d55565b6009546001600160a01b03163314612afc5760405162461bcd60e51b81526004016103e0906147da565b61ffff16601b55565b6006546040516370a0823160e01b815260009161010090046001600160a01b0316906370a0823190612b3b90309060040161436b565b602060405180830381865afa158015612b58573d6000803e3d6000fd5b505050506040513d601f19601f820116820180604052508101906114bf9190614926565b6008546001600160a01b03163314612ba65760405162461bcd60e51b81526004016103e0906148a9565b601880546001600160a01b0319166001600160a01b0392909216919091179055565b6001600160a01b038316612c2a5760405162461bcd60e51b8152602060048201526024808201527f45524332303a20617070726f76652066726f6d20746865207a65726f206164646044820152637265737360e01b60648201526084016103e0565b6001600160a01b038216612c8b5760405162461bcd60e51b815260206004820152602260248201527f45524332303a20617070726f766520746f20746865207a65726f206164647265604482015261737360f01b60648201526084016103e0565b6001600160a01b0383811660008181526002602090815260408083209487168084529482529182902085905590518481527f8c5be1e5ebec7d5bd14f71427d1e84f3dd0314c0f7b2291e5b200ac8c7c3b92591015b60405180910390a3505050565b60005b8151811015612d44576000828281518110612d0d57612d0d614bd4565b602002602001015190508060001415612d265750612d32565b612d308282613cf8565b505b80612d3c81614974565b915050612cf0565b50506007805460ff60a01b1916600160a01b179055565b600754600a54604051632917823b60e21b81526060926000926001600160a01b039091169163a45e08ec91612d969160040190815260200190565b602060405180830381865afa158015612db3573d6000803e3d6000fd5b505050506040513d601f19601f82011682018060405250810190612dd79190614926565b9050806001600160401b03811115612df157612df1614398565b604051908082528060200260200182016040528015612e1a578160200160208202803683370190505b50915060005b81811015612e7657600d5460009081526026602090815260408083208484529091529020548351849083908110612e5957612e59614bd4565b602090810291909101015280612e6e81614974565b915050612e20565b505090565b6000612e878484612997565b905060001981146117ca5781811015612ee25760405162461bcd60e51b815260206004820152601d60248201527f45524332303a20696e73756666696369656e7420616c6c6f77616e636500000060448201526064016103e0565b6117ca8484848403612bc8565b6001600160a01b038316612f535760405162461bcd60e51b815260206004820152602560248201527f45524332303a207472616e736665722066726f6d20746865207a65726f206164604482015264647265737360d81b60648201526084016103e0565b6001600160a01b038216612fb55760405162461bcd60e51b815260206004820152602360248201527f45524332303a207472616e7366657220746f20746865207a65726f206164647260448201526265737360e81b60648201526084016103e0565b6001600160a01b0383166000908152600160205260409020548181101561302d5760405162461bcd60e51b815260206004820152602660248201527f45524332303a207472616e7366657220616d6f756e7420657863656564732062604482015265616c616e636560d01b60648201526084016103e0565b6001600160a01b0380851660009081526001602052604080822085850390559185168152908120805484929061306490849061495c565b92505081905550826001600160a01b0316846001600160a01b0316600080516020614d9e8339815191528460405161309e91815260200190565b60405180910390a36117ca565b6000601654600014156130c057506000610de5565b6016546000838152602460205260409020546130dc908561476e565b610eab91906147a3565b60008082116130f757506000610de5565b600754600a54604051632830092960e21b81526000926001600160a01b03169163a0c024a49161312c91908890600401614818565b606060405180830381865afa158015613149573d6000803e3d6000fd5b505050506040513d601f19601f8201168201806040525081019061316d91906148d2565b9050600660019054906101000a90046001600160a01b03166001600160a01b031681604001516001600160a01b0316146131e85760405162461bcd60e51b815260206004820152601c60248201527b0a0e4deecd2c8cae440eadcc8cae4d8f2d2dcce40dad2e6dac2e8c6d60231b60448201526064016103e0565b6020810151815160405163e713259960e01b81526000926001600160a01b03169163e71325999161321d918891600401614bbd565b602060405180830381865afa15801561323a573d6000803e3d6000fd5b505050506040513d601f19601f8201168201806040525081019061325e9190614926565b9050600082602001516001600160a01b031663b203bb993085600001516040518363ffffffff1660e01b8152600401613298929190614ad2565b602060405180830381865afa1580156132b5573d6000803e3d6000fd5b505050506040513d601f19601f820116820180604052508101906132d99190614926565b9050816132ec5760009350505050610de5565b818110156132f8578091505b60208301518351613315916001600160a01b039091169084613df1565b602083015183516040808601519051632d182be560e21b81526001600160a01b039093169263b460af949261334e928792600401614bea565b6020604051808303816000875af115801561336d573d6000803e3d6000fd5b505050506040513d601f19601f820116820180604052508101906133919190614926565b93507fccf233e875bd2fea082ed46529bf3ac28ccf329204362a29ce37370730ad694686856040516133c4929190614818565b60405180910390a150505092915050565b60008284111561344657601c54929384936133f09084614801565b6133fb90600a614c09565b6134058683614801565b11156134445760405162461bcd60e51b815260206004820152600e60248201526d4d617820646976657267656e636560901b60448201526064016103e0565b505b509192915050565b6001600160a01b0382166134ae5760405162461bcd60e51b815260206004820152602160248201527f45524332303a206275726e2066726f6d20746865207a65726f206164647265736044820152607360f81b60648201526084016103e0565b6001600160a01b038216600090815260016020526040902054818110156135225760405162461bcd60e51b815260206004820152602260248201527f45524332303a206275726e20616d6f756e7420657863656564732062616c616e604482015261636560f01b60648201526084016103e0565b6001600160a01b0383166000908152600160205260408120838303905560038054849290613551908490614801565b90915550506040518281526000906001600160a01b03851690600080516020614d9e83398151915290602001612ce0565b505050565b6000612710601b548361359a919061476e565b6135a491906147a3565b90506135c96135b1612588565b60065461010090046001600160a01b03169083613cd9565b613582836135d78385614801565b60065461010090046001600160a01b03169190613cd9565b6000816004015411601f906136175760405162461bcd60e51b81526004016103e09190614aec565b5080600401546015600082825461362e9190614801565b9091555050600060048201819055600590910155565b6001600160a01b03821661369a5760405162461bcd60e51b815260206004820152601f60248201527f45524332303a206d696e7420746f20746865207a65726f20616464726573730060448201526064016103e0565b80600360008282546136ac919061495c565b90915550506001600160a01b038216600090815260016020526040812080548392906136d990849061495c565b90915550506040518181526001600160a01b03831690600090600080516020614d9e8339815191529060200160405180910390a35b5050565b60005b8181101561370e5761372681613e8e565b8061373081614974565b915050613715565b600080601454613746612b05565b601354613753919061495c565b61375d9190614801565b905060006064600b5483613771919061476e565b61377b91906147a3565b90506137878183614801565b9250505090565b60006017546016546137a09190614c15565b905060008112156137b057600080fd5b60165560006017556007805460ff60a01b19169055565b600754600a54604051632917823b60e21b81526060926000926001600160a01b039091169163a45e08ec916138029160040190815260200190565b602060405180830381865afa15801561381f573d6000803e3d6000fd5b505050506040513d601f19601f820116820180604052508101906138439190614926565b6001600160401b0381111561385a5761385a614398565b604051908082528060200260200182016040528015613883578160200160208202803683370190505b50905060005b848110156139d257600754600a5460405163d900d1f760e01b81526000926001600160a01b03169163d900d1f7916138c691908690600401614818565b602060405180830381865afa1580156138e3573d6000803e3d6000fd5b505050506040513d601f19601f82011682018060405250810190613907919061493f565b9050801561391557506139c0565b61391e82614093565b600061392a86846130ab565b9050600061393784611aa9565b905060006139458284614c56565b90506000808212613957576000613961565b6139618484614801565b9050600e5482131561398d578187878151811061398057613980614bd4565b6020026020010181815250505b600e548111806139a95750600086815260246020526040902054155b156139ba576139b886826130e6565b505b50505050505b806139ca81614974565b915050613889565b509392505050565b600754600a54604051632917823b60e21b815260048101919091526000916001600160a01b03169063a45e08ec90602401602060405180830381865afa158015613a28573d6000803e3d6000fd5b505050506040513d601f19601f82011682018060405250810190613a4c9190614926565b905060005b81811015613582576000838281518110613a6d57613a6d614bd4565b602002602001015190508060001415613a865750613a92565b613a908282613b66565b505b80613a9c81614974565b915050613a51565b600080600c546064613ab69190614801565b83613ac18187614801565b613acb919061476e565b613ad5919061476e565b90506000613ae484606461476e565b905083613af182846147a3565b6128cc919061495c565b6040516001600160a01b03808516602483015283166044820152606481018290526117ca9085906323b872dd60e01b906084015b60408051601f198184030181529190526020810180516001600160e01b03166001600160e01b0319909316929092179091526140e5565b600754600a54604051632830092960e21b81526000926001600160a01b03169163a0c024a491613b9b91908790600401614818565b606060405180830381865afa158015613bb8573d6000803e3d6000fd5b505050506040513d601f19601f82011682018060405250810190613bdc91906148d2565b905081613be7612b05565b1015613bf857613bf5612b05565b91505b613c1e81602001518383604001516001600160a01b0316613df19092919063ffffffff16565b602081015181516040808401519051630b8b4a6160e21b81526001600160a01b0390931692632e2d298492613c57928792600401614bea565b6020604051808303816000875af1158015613c76573d6000803e3d6000fd5b505050506040513d601f19601f82011682018060405250810190613c9a9190614926565b507fd7a09b41c556f96e88629b7ac2fa259961b7e891ed670fd096a3b935183fc5428383604051613ccc929190614818565b60405180910390a1505050565b6135828363a9059cbb60e01b8484604051602401613b2f929190614c95565b600754600a5460405163d900d1f760e01b81526001600160a01b039092169163d900d1f791613d2b918690600401614818565b602060405180830381865afa158015613d48573d6000803e3d6000fd5b505050506040513d601f19601f82011682018060405250810190613d6c919061493f565b15613db15760405162461bcd60e51b8152602060048201526015602482015274141c9bdd1bd8dbdb081bdb88189b1858dadb1a5cdd605a1b60448201526064016103e0565b60008281526025602052604081208054839290613dcf908490614c15565b925050819055508060176000828254613de89190614c15565b90915550505050565b600081846001600160a01b031663dd62ed3e30866040518363ffffffff1660e01b8152600401613e22929190614ad2565b602060405180830381865afa158015613e3f573d6000803e3d6000fd5b505050506040513d601f19601f82011682018060405250810190613e639190614926565b613e6d919061495c565b90506117ca8463095ea7b360e01b8584604051602401613b2f929190614c95565b600d546000613e9c83611176565b600754600a5460405163d900d1f760e01b81529293506001600160a01b039091169163d900d1f791613ed2918790600401614818565b602060405180830381865afa158015613eef573d6000803e3d6000fd5b505050506040513d601f19601f82011682018060405250810190613f13919061493f565b15613f4157600091825260266020908152604080842094845293815283832060001990556027905291902055565b600083815260276020526040902054613f6a576000928352602760205260409092209190915550565b600083815260276020526040812054613f839083614c56565b9050600081601054600c54601354613f9b919061476e565b613fa5919061476e565b613faf9190614cae565b90506000601054601654613fc39190614d33565b60008781526027602052604081205491925090613fe09083614cae565b613feb906064614cae565b9050816140115760008681526026602090815260408083208a8452909152812055614036565b61401b8184614d33565b60008781526026602090815260408083208b84529091529020555b600087815260276020908152604091829020879055600d5482518a8152918201529081018690527f138f565772451a35cdb4f6072283e9e51f8db317d59487be4be697f040ec0f739060600160405180910390a150505050505050565b60008181526025602090815260408083205460249092528220546140b79190614c15565b905060008112156140c757600080fd5b60009182526024602090815260408084209290925560259052812055565b600061413a826040518060400160405280602081526020017f5361666545524332303a206c6f772d6c6576656c2063616c6c206661696c6564815250856001600160a01b03166141b79092919063ffffffff16565b8051909150156135825780806020019051810190614158919061493f565b6135825760405162461bcd60e51b815260206004820152602a60248201527f5361666545524332303a204552433230206f7065726174696f6e20646964206e6044820152691bdd081cdd58d8d9595960b21b60648201526084016103e0565b6060611b9d8484600085856001600160a01b0385163b6142195760405162461bcd60e51b815260206004820152601d60248201527f416464726573733a2063616c6c20746f206e6f6e2d636f6e747261637400000060448201526064016103e0565b600080866001600160a01b031685876040516142359190614d61565b60006040518083038185875af1925050503d8060008114614272576040519150601f19603f3d011682016040523d82523d6000602084013e614277565b606091505b5091509150614287828286614292565b979650505050505050565b606083156142a1575081610eab565b8251156142b15782518084602001fd5b8160405162461bcd60e51b81526004016103e091906142f7565b60005b838110156142e65781810151838201526020016142ce565b838111156117ca5750506000910152565b60208152600082518060208401526143168160408501602087016142cb565b601f01601f19169190910160400192915050565b6001600160a01b0381168114610fe057600080fd5b6000806040838503121561435257600080fd5b823561435d8161432a565b946020939093013593505050565b6001600160a01b0391909116815260200190565b60006020828403121561439157600080fd5b5035919050565b634e487b7160e01b600052604160045260246000fd5b604051606081016001600160401b03811182821017156143d0576143d0614398565b60405290565b604051601f8201601f191681016001600160401b03811182821017156143fe576143fe614398565b604052919050565b6000602080838503121561441957600080fd5b82356001600160401b038082111561443057600080fd5b818501915085601f83011261444457600080fd5b81358181111561445657614456614398565b8060051b91506144678483016143d6565b818152918301840191848101908884111561448157600080fd5b938501935b8385101561449f57843582529385019390850190614486565b98975050505050505050565b6000806000606084860312156144c057600080fd5b83356144cb8161432a565b925060208401356144db8161432a565b929592945050506040919091013590565b6000602082840312156144fe57600080fd5b8135610eab8161432a565b60008060006060848603121561451e57600080fd5b505081359360208301359350604090920135919050565b60006020828403121561454757600080fd5b813563ffffffff81168114610eab57600080fd5b6000806040838503121561456e57600080fd5b50508035926020909101359150565b8015158114610fe057600080fd5b60006020828403121561459d57600080fd5b8135610eab8161457d565b600080604083850312156145bb57600080fd5b8235915060208301356145cd8161432a565b809150509250929050565b600080604083850312156145eb57600080fd5b82356145f68161432a565b915060208301356145cd8161432a565b60006020828403121561461857600080fd5b813561ffff81168114610eab57600080fd5b600181811c9082168061463e57607f821691505b6020821081141561465f57634e487b7160e01b600052602260045260246000fd5b50919050565b634e487b7160e01b600052601160045260246000fd5b600181815b808511156146b657816000190482111561469c5761469c614665565b808516156146a957918102915b93841c9390800290614680565b509250929050565b6000826146cd57506001610de5565b816146da57506000610de5565b81600181146146f057600281146146fa57614716565b6001915050610de5565b60ff84111561470b5761470b614665565b50506001821b610de5565b5060208310610133831016604e8410600b8410161715614739575081810a610de5565b614743838361467b565b806000190482111561475757614757614665565b029392505050565b6000610eab60ff8416836146be565b600081600019048311821515161561478857614788614665565b500290565b634e487b7160e01b600052601260045260246000fd5b6000826147b2576147b261478d565b500490565b6000602082840312156147c957600080fd5b815160ff81168114610eab57600080fd5b6020808252600d908201526c37b7363c9023bab0b93234b0b760991b604082015260600190565b60008282101561481357614813614665565b500390565b918252602082015260400190565b6020808252600e908201526d37b7363c903c283937bb34b232b960911b604082015260600190565b600060608201858352602063ffffffff86168185015260606040850152818551808452608086019150828701935060005b8181101561489b5784518352938301939183019160010161487f565b509098975050505050505050565b6020808252600f908201526e5661756c743a206f6e6c792044414f60881b604082015260600190565b6000606082840312156148e457600080fd5b6148ec6143ae565b82516148f78161432a565b815260208301516149078161432a565b6020820152604083015161491a8161432a565b60408201529392505050565b60006020828403121561493857600080fd5b5051919050565b60006020828403121561495157600080fd5b8151610eab8161457d565b6000821982111561496f5761496f614665565b500190565b600060001982141561498857614988614665565b5060010190565b6001600160a01b039390931683526020830191909152604082015260600190565b6000602082840312156149c257600080fd5b8151610eab8161432a565b6000606082840312156149df57600080fd5b6149e76143ae565b82516149f28161432a565b81526020830151614a028161432a565b6020820152604083015162ffffff8116811461491a57600080fd5b8351815260208085015181830152604080860151818401526060808701516001600160a01b039081169185019190915260808088015182169085015260a0808801518216908501528551811660c08501529185015190911660e083015283015162ffffff166101008201528115156101208201526101408101611b9d565b6020808252601f908201527f5265656e7472616e637947756172643a207265656e7472616e742063616c6c00604082015260600190565b6001600160a01b0392831681529116602082015260400190565b600060208083526000845481600182811c915080831680614b0e57607f831692505b858310811415614b2c57634e487b7160e01b85526022600452602485fd5b878601838152602001818015614b495760018114614b5a57614b85565b60ff19861682528782019650614b85565b60008b81526020902060005b86811015614b7f57815484820152908501908901614b66565b83019750505b50949998505050505050505050565b6020808252600f908201526e135a5b9a5b5d5b4819195c1bdcda5d608a1b604082015260600190565b9182526001600160a01b0316602082015260400190565b634e487b7160e01b600052603260045260246000fd5b9283526001600160a01b03918216602084015216604082015260600190565b6000610eab83836146be565b600080821280156001600160ff1b0384900385131615614c3757614c37614665565b600160ff1b8390038412811615614c5057614c50614665565b50500190565b60008083128015600160ff1b850184121615614c7457614c74614665565b6001600160ff1b0384018313811615614c8f57614c8f614665565b50500390565b6001600160a01b03929092168252602082015260400190565b60006001600160ff1b0381841382841380821686840486111615614cd457614cd4614665565b600160ff1b6000871282811687830589121615614cf357614cf3614665565b60008712925087820587128484161615614d0f57614d0f614665565b87850587128184161615614d2557614d25614665565b505050929093029392505050565b600082614d4257614d4261478d565b600160ff1b821460001984141615614d5c57614d5c614665565b500590565b60008251614d738184602087016142cb565b919091019291505056fe90890809c654f11d6e72a28fa60149770a0d11ec6c92319d6ceb2bb0a4ea1a15ddf252ad1be2c89b69c2b068fc378daa952ba7f163c4a11628f55a4df523b3eff279e6a1f5e320cca91135676d9cb6e44ca8a08c0b88342bcdb1144f6511b568a26469706673582212200aeaafcadd87e4bee2bf404981cd052f883cbca5a69809f030875f451a89c66a64736f6c634300080b0033",
  "deployedBytecode": "0x60806040526004361061037c5760003560e01c806306fdde03146103f0578063095ea7b31461041b5780630c195d991461044b5780630ccb7d5b1461046f5780630e08891a1461049c5780630ea90a12146104b25780630ee1265f146104c85780630f310a6a146104e857806311e8c2291461050a57806316d1d9161461052a57806318160ddd146105405780631a946732146105555780631f986445146105755780632189651f1461058b57806321ae838e146105ab57806323b872dd146105b357806324b67970146105d357806326a49e37146105f35780632d84010f146106135780632e1a7d4d146106295780632e956470146106495780632faf3a731461065e578063303ac0f114610674578063313ce567146106945780633245dea5146106b657806339509351146106e35780633ba0b9a9146107035780633f3b3b271461071957806343ab90a81461072f5780635209cb9814610744578063533b03bb14610764578063570f1f9d146107855780635afbf5ba146107a55780635b7dcaed146107c55780635e39d91f146107e557806362ae07651461081d578063636bfbab1461083d5780636610e08e146108535780636637b8821461086857806370897b231461088857806370a08231146108a85780637468a52b146108c8578063799a3f88146109015780637d7c2a1c146109175780638645d5821461092c578063877887821461094d57806389cc88db146109635780638a0dac4a146109795780638a5ff078146109995780638b537ef7146109af5780638e9bf9d2146109cf57806392eefe9b146109ef57806395d89b4114610a0f5780639c7ec7a614610a24578063a104b99514610a44578063a457c2d714610a64578063a75b87d214610a84578063a9059cbb14610aa2578063b6b55f2514610ac2578063b70811bc14610ae2578063c0ee01bc14610af7578063c3fe3e2814610b0c578063c7b8981c14610b2c578063ce64aabb14610b41578063d0284b9914610b57578063d19e8d2514610b77578063d97bb59414610b97578063dd62ed3e14610bb7578063e1758bd814610bd7578063e43252d714610c0b578063e53ae15614610c2b578063e672025414610c50578063e706790914610c65578063e78ec42e14610c85578063eaf22ccb14610ca5578063ed12e8ef14610cc5578063f0b58bfd14610cda578063fb0a8cd014610cff578063fdba466e14610d1f57600080fd5b366103eb57336001600160a01b037f000000000000000000000000000000000000000000000000000000000000000016146103e95760405162461bcd60e51b815260206004820152600860248201526709cdee840ae8aa8960c31b60448201526064015b60405180910390fd5b005b600080fd5b3480156103fc57600080fd5b50610405610d3f565b60405161041291906142f7565b60405180910390f35b34801561042757600080fd5b5061043b61043636600461433f565b610dd1565b6040519015158152602001610412565b34801561045757600080fd5b5061046160165481565b604051908152602001610412565b34801561047b57600080fd5b5060185461048f906001600160a01b031681565b604051610412919061436b565b3480156104a857600080fd5b50610461600e5481565b3480156104be57600080fd5b50610461601b5481565b3480156104d457600080fd5b506104616104e336600461437f565b610deb565b3480156104f457600080fd5b5033600090815260286020526040902054610461565b34801561051657600080fd5b506103e961052536600461437f565b610eb2565b34801561053657600080fd5b5061046160115481565b34801561054c57600080fd5b50600354610461565b34801561056157600080fd5b506103e961057036600461437f565b610f7e565b34801561058157600080fd5b5061046160105481565b34801561059757600080fd5b506103e96105a6366004614406565b610fad565b6103e9610fe3565b3480156105bf57600080fd5b5061043b6105ce3660046144ab565b611106565b3480156105df57600080fd5b506103e96105ee3660046144ec565b61112a565b3480156105ff57600080fd5b5061046161060e36600461437f565b611176565b34801561061f57600080fd5b50610461600d5481565b34801561063557600080fd5b5061046161064436600461437f565b611265565b34801561065557600080fd5b5061043b611496565b34801561066a57600080fd5b50610461601c5481565b34801561068057600080fd5b506103e961068f366004614509565b6114c4565b3480156106a057600080fd5b5060065460405160ff9091168152602001610412565b3480156106c257600080fd5b506104616106d136600461437f565b60276020526000908152604090205481565b3480156106ef57600080fd5b5061043b6106fe36600461433f565b6117d0565b34801561070f57600080fd5b50610461600f5481565b34801561072557600080fd5b5061046160125481565b34801561073b57600080fd5b506103e96117f2565b34801561075057600080fd5b5061046161075f36600461437f565b6118c1565b34801561077057600080fd5b50601a5461043b90600160a01b900460ff1681565b34801561079157600080fd5b506103e96107a036600461437f565b6119fb565b3480156107b157600080fd5b506103e96107c0366004614535565b611a2a565b3480156107d157600080fd5b506103e96107e036600461437f565b611a7a565b3480156107f157600080fd5b5061046161080036600461455b565b602660209081526000928352604080842090915290825290205481565b34801561082957600080fd5b5061046161083836600461437f565b611aa9565b34801561084957600080fd5b50610461601d5481565b34801561085f57600080fd5b50610461611ba5565b34801561087457600080fd5b506103e96108833660046144ec565b611c80565b34801561089457600080fd5b506103e96108a336600461437f565b611ccc565b3480156108b457600080fd5b506104616108c33660046144ec565b611d09565b3480156108d457600080fd5b50601a546108ec90600160a81b900463ffffffff1681565b60405163ffffffff9091168152602001610412565b34801561090d57600080fd5b50610461600a5481565b34801561092357600080fd5b506103e9611d24565b34801561093857600080fd5b5060075461043b90600160a01b900460ff1681565b34801561095957600080fd5b50610461600c5481565b34801561096f57600080fd5b5061046160135481565b34801561098557600080fd5b506103e96109943660046144ec565b611f23565b3480156109a557600080fd5b50610461601e5481565b3480156109bb57600080fd5b506103e96109ca366004614509565b611f6f565b3480156109db57600080fd5b506103e96109ea36600461437f565b6120b6565b3480156109fb57600080fd5b506103e9610a0a3660046144ec565b6121de565b348015610a1b57600080fd5b5061040561222a565b348015610a3057600080fd5b506103e9610a3f36600461437f565b612239565b348015610a5057600080fd5b506103e9610a5f36600461437f565b612276565b348015610a7057600080fd5b5061043b610a7f36600461433f565b6122a5565b348015610a9057600080fd5b506009546001600160a01b031661048f565b348015610aae57600080fd5b5061043b610abd36600461433f565b612320565b348015610ace57600080fd5b50610461610add36600461437f565b61232e565b348015610aee57600080fd5b5061048f612588565b348015610b0357600080fd5b50610461612597565b348015610b1857600080fd5b5060195461048f906001600160a01b031681565b348015610b3857600080fd5b506104616126c8565b348015610b4d57600080fd5b50610461600b5481565b348015610b6357600080fd5b506103e9610b7236600461458b565b61279b565b348015610b8357600080fd5b50610461610b9236600461455b565b6127d8565b348015610ba357600080fd5b506103e9610bb23660046145a8565b6128d5565b348015610bc357600080fd5b50610461610bd23660046145d8565b612997565b348015610be357600080fd5b5061048f7f000000000000000000000000000000000000000000000000000000000000000081565b348015610c1757600080fd5b506103e9610c263660046144ec565b6129c2565b348015610c3757600080fd5b5033600090815260286020526040902060040154610461565b348015610c5c57600080fd5b506103e9612a10565b348015610c7157600080fd5b506103e9610c80366004614406565b612a79565b348015610c9157600080fd5b506103e9610ca036600461437f565b612aa3565b348015610cb157600080fd5b506103e9610cc0366004614606565b612ad2565b348015610cd157600080fd5b50610461612b05565b348015610ce657600080fd5b5033600090815260286020526040902060020154610461565b348015610d0b57600080fd5b506103e9610d1a3660046144ec565b612b7c565b348015610d2b57600080fd5b50601a5461048f906001600160a01b031681565b606060048054610d4e9061462a565b80601f0160208091040260200160405190810160405280929190818152602001828054610d7a9061462a565b8015610dc75780601f10610d9c57610100808354040283529160200191610dc7565b820191906000526020600020905b815481529060010190602001808311610daa57829003601f168201915b5050505050905090565b600033610ddf818585612bc8565b60019150505b92915050565b600080610df760035490565b15610e295760035460065460ff16610e1090600a61475f565b610e1a908561476e565b610e2491906147a3565b610eab565b600660019054906101000a90046001600160a01b03166001600160a01b031663313ce5676040518163ffffffff1660e01b8152600401602060405180830381865afa158015610e7c573d6000803e3d6000fd5b505050506040513d601f19601f82011682018060405250810190610ea091906147b7565b610eab90600a61475f565b9392505050565b6009546001600160a01b03163314610edc5760405162461bcd60e51b81526004016103e0906147da565b6000818152602460205260408120546016805491929091610efe908490614801565b909155505060008181526024602052604080822091909155600754600a54915163ca68c24b60e01b81526001600160a01b039091169163ca68c24b91610f4991908590600401614818565b600060405180830381600087803b158015610f6357600080fd5b505af1158015610f77573d6000803e3d6000fd5b5050505050565b6009546001600160a01b03163314610fa85760405162461bcd60e51b81526004016103e0906147da565b602255565b601a546001600160a01b03163314610fd75760405162461bcd60e51b81526004016103e090614826565b610fe081612ced565b50565b600d54601e541061102d5760405162461bcd60e51b81526020600482015260146024820152731c995dd85c991cc8185b1c9958591e481cd95b9d60621b60448201526064016103e0565b6000611037612d5b565b601a54600a54604051632a41830f60e21b81529293506001600160a01b0382169263a9060c3c92349261107e929091600160a81b900463ffffffff1690879060040161484e565b6000604051808303818588803b15801561109757600080fd5b505af11580156110ab573d6000803e3d6000fd5b5050600d54601e555050600a54601a546040517f4e95ed35a6c5dc45a9dd338e0545f8b4f8b335947327934b651398cf8e88b0a193506110fb9291600160a81b900463ffffffff1690859061484e565b60405180910390a150565b600033611114858285612e7b565b61111f858585612eef565b506001949350505050565b6008546001600160a01b031633146111545760405162461bcd60e51b81526004016103e0906148a9565b601a80546001600160a01b0319166001600160a01b0392909216919091179055565b600754600a54604051632830092960e21b815260009283926001600160a01b039091169163a0c024a4916111ae918790600401614818565b606060405180830381865afa1580156111cb573d6000803e3d6000fd5b505050506040513d601f19601f820116820180604052508101906111ef91906148d2565b6020810151815160405163dc3b7c8b60e01b81529293506001600160a01b039091169163dc3b7c8b916112249160040161436b565b602060405180830381865afa158015611241573d6000803e3d6000fd5b505050506040513d601f19601f82011682018060405250810190610eab9190614926565b600754600a54604051632917823b60e21b815260009283926001600160a01b039091169163a45e08ec9161129f9160040190815260200190565b602060405180830381865afa1580156112bc573d6000803e3d6000fd5b505050506040513d601f19601f820116820180604052508101906112e09190614926565b90506000806112ed612b05565b905060008060005b858110156113e657600754600a5460405163d900d1f760e01b81526000926001600160a01b03169163d900d1f79161133291908690600401614818565b602060405180830381865afa15801561134f573d6000803e3d6000fd5b505050506040513d601f19601f82011682018060405250810190611373919061493f565b9050801561138157506113d4565b61138a82611aa9565b611394908761495c565b9550888510156113ce576113b16113ab868b614801565b836130ab565b93506113bd82856130e6565b6113c7908461495c565b92506113d2565b8892505b505b806113de81614974565b9150506112f5565b506113f084610deb565b600f81905560009061140460065460ff1690565b61140f90600a61475f565b611419908a61476e565b61142391906147a3565b9050600061143033611d09565b905061144b828261144360065460ff1690565b60ff166133d5565b9150611457338361344e565b6114613384613587565b600080516020614dbe8339815191523384846040516114829392919061498f565b60405180910390a150979650505050505050565b6000601154601254426114a99190614801565b11806114bf57506009546001600160a01b031633145b905090565b6009546001600160a01b031633146114ee5760405162461bcd60e51b81526004016103e0906147da565b600754600a5460405163c349026360e01b81526000926001600160a01b03169163c34902639161152391908890600401614818565b6020604051808303816000875af1158015611542573d6000803e3d6000fd5b505050506040513d601f19601f82011682018060405250810190611566919061493f565b905080156117ca57600754600a5460405163054c5b0360e01b81526000926001600160a01b03169163054c5b03916115a391908990600401614818565b602060405180830381865afa1580156115c0573d6000803e3d6000fd5b505050506040513d601f19601f820116820180604052508101906115e491906149b0565b90506000816001600160a01b03166370a08231306040518263ffffffff1660e01b8152600401611614919061436b565b602060405180830381865afa158015611631573d6000803e3d6000fd5b505050506040513d601f19601f820116820180604052508101906116559190614926565b905073__$03022e2b4c61b304d810038eacea4b6c0c$__6353d7d4cd6040518060c001604052808481526020018781526020018881526020017f00000000000000000000000000000000000000000000000000000000000000006001600160a01b03168152602001856001600160a01b03168152602001600660019054906101000a90046001600160a01b03166001600160a01b0316815250600760009054906101000a90046001600160a01b03166001600160a01b03166367b4e0676040518163ffffffff1660e01b8152600401606060405180830381865afa158015611741573d6000803e3d6000fd5b505050506040513d601f19601f8201168201806040525081019061176591906149cd565b60006040518463ffffffff1660e01b815260040161178593929190614a1d565b602060405180830381865af41580156117a2573d6000803e3d6000fd5b505050506040513d601f19601f820116820180604052508101906117c69190614926565b5050505b50505050565b600033610ddf8185856117e38383612997565b6117ed919061495c565b612bc8565b600754600a54604051632917823b60e21b815260009283926001600160a01b039091169163a45e08ec9161182c9160040190815260200190565b602060405180830381865afa158015611849573d6000803e3d6000fd5b505050506040513d601f19601f8201168201806040525081019061186d9190614926565b905060005b818110156118ba57600081815260246020526040902054611892576118a8565b61189b81611aa9565b6118a5908461495c565b92505b806118b281614974565b915050611872565b5050601355565b6000600260005414156118e65760405162461bcd60e51b81526004016103e090614a9b565b60026000908155338152602860205260409020600d541580159061190c57506001810154155b61194c5760405162461bcd60e51b8152602060048201526011602482015270105b1c9958591e4818481c995c5d595cdd607a1b60448201526064016103e0565b600f5460065460ff1661196090600a61475f565b61196a908561476e565b61197491906147a3565b9150600061198133611d09565b9050611994838261144360065460ff1690565b92506119a0338461344e565b838255600d546001830155601480548591906000906119c090849061495c565b9091555050604051600080516020614dbe833981519152906119e79033908790879061498f565b60405180910390a150506001600055919050565b6008546001600160a01b03163314611a255760405162461bcd60e51b81526004016103e0906148a9565b601c55565b6009546001600160a01b03163314611a545760405162461bcd60e51b81526004016103e0906147da565b601a805463ffffffff909216600160a81b0263ffffffff60a81b19909216919091179055565b6009546001600160a01b03163314611aa45760405162461bcd60e51b81526004016103e0906147da565b601155565b600754600a54604051632830092960e21b815260009283926001600160a01b039091169163a0c024a491611ae1918790600401614818565b606060405180830381865afa158015611afe573d6000803e3d6000fd5b505050506040513d601f19601f82011682018060405250810190611b2291906148d2565b9050600081602001516001600160a01b0316635cbc09d13084600001516040518363ffffffff1660e01b8152600401611b5c929190614ad2565b602060405180830381865afa158015611b79573d6000803e3d6000fd5b505050506040513d601f19601f82011682018060405250810190611b9d9190614926565b949350505050565b600060026000541415611bca5760405162461bcd60e51b81526004016103e090614a9b565b6002600090815533815260286020908152604090912060048101546005820154600d549293919211611c0f5760405162461bcd60e51b81526004016103e09190614aec565b50600f5460065460ff16611c2490600a61475f565b611c2e908361476e565b611c3891906147a3565b9250611c43826135ef565b611c4d3384613644565b600080516020614d7e833981519152338285604051611c6e9392919061498f565b60405180910390a15050600160005590565b6008546001600160a01b03163314611caa5760405162461bcd60e51b81526004016103e0906148a9565b600880546001600160a01b0319166001600160a01b0392909216919091179055565b6008546001600160a01b03163314611cf65760405162461bcd60e51b81526004016103e0906148a9565b6064811115611d0457600080fd5b600c55565b6001600160a01b031660009081526001602052604090205490565b60026000541415611d475760405162461bcd60e51b81526004016103e090614a9b565b6002600055611d54611496565b611d965760405162461bcd60e51b8152602060048201526013602482015272139bc81c9958985b185b98d9481b9959591959606a1b60448201526064016103e0565b600754600160a01b900460ff16611de45760405162461bcd60e51b81526020600482015260126024820152712144656c746120616c6c6f636174696f6e7360701b60448201526064016103e0565b600d8054906000611df483614974565b9091555050600754600a54604051632917823b60e21b815260048101919091526000916001600160a01b03169063a45e08ec90602401602060405180830381865afa158015611e47573d6000803e3d6000fd5b505050506040513d601f19601f82011682018060405250810190611e6b9190614926565b9050611e7681613712565b611e7e6117f2565b6000611e88613738565b9050611e9261378e565b6000611e9e83836137c7565b9050611ea9816139da565b6013829055600f54611eba83610deb565b600f819055811015611ed657611ed2600f5482613aa4565b600f555b42601255600a54600d546040517f0b33d39bbef101ecc4f5ef04e6d3a125c9fb745a418dac380e2a9460f8200dc892611f10929091614818565b60405180910390a1505060016000555050565b6008546001600160a01b03163314611f4d5760405162461bcd60e51b81526004016103e0906148a9565b600980546001600160a01b0319166001600160a01b0392909216919091179055565b6009546001600160a01b03163314611f995760405162461bcd60e51b81526004016103e0906147da565b600754600a5460405163d900d1f760e01b81526000926001600160a01b03169163d900d1f791611fce91908890600401614818565b602060405180830381865afa158015611feb573d6000803e3d6000fd5b505050506040513d601f19601f8201168201806040525081019061200f919061493f565b90508061204d5760405162461bcd60e51b815260206004820152600c60248201526b08509b1858dadb1a5cdd195960a21b60448201526064016103e0565b6120588484846114c4565b600061206385611aa9565b905061206f85826130e6565b50600061207b86611aa9565b905060006120898284614801565b905080601354101561209c5760006120aa565b806013546120aa9190614801565b60135550505050505050565b600260005414156120d95760405162461bcd60e51b81526004016103e090614a9b565b60026000908155338152602860205260409020601d5482101561210e5760405162461bcd60e51b81526004016103e090614b94565b60215460ff1615612153573360009081526023602052604090205460ff1661213557600080fd5b602254828260040154612148919061495c565b111561215357600080fd5b600061215d612b05565b60065490915061217d9061010090046001600160a01b0316333086613afb565b6000612187612b05565b905060006121958383614801565b9050808460040160008282546121ab919061495c565b9091555050600d546005850155601580548291906000906121cd90849061495c565b909155505060016000555050505050565b6008546001600160a01b031633146122085760405162461bcd60e51b81526004016103e0906148a9565b600780546001600160a01b0319166001600160a01b0392909216919091179055565b606060058054610d4e9061462a565b6009546001600160a01b031633146122635760405162461bcd60e51b81526004016103e0906147da565b606481111561227157600080fd5b600b55565b6009546001600160a01b031633146122a05760405162461bcd60e51b81526004016103e0906147da565b600e55565b600033816122b38286612997565b9050838110156123135760405162461bcd60e51b815260206004820152602560248201527f45524332303a2064656372656173656420616c6c6f77616e63652062656c6f77604482015264207a65726f60d81b60648201526084016103e0565b61111f8286868403612bc8565b600033610ddf818585612eef565b6000601d548210156123525760405162461bcd60e51b81526004016103e090614b94565b60215460ff1615612379573360009081526023602052604090205460ff1661237957600080fd5b6000612383612b05565b6006549091506123a39061010090046001600160a01b0316333086613afb565b60006123ad612b05565b905060006123bb8383614801565b600754600a54604051632917823b60e21b81529293506000926001600160a01b039092169163a45e08ec916123f69160040190815260200190565b602060405180830381865afa158015612413573d6000803e3d6000fd5b505050506040513d601f19601f820116820180604052508101906124379190614926565b90506000805b8281101561250b57600754600a5460405163d900d1f760e01b81526000926001600160a01b03169163d900d1f79161247a91908690600401614818565b602060405180830381865afa158015612497573d6000803e3d6000fd5b505050506040513d601f19601f820116820180604052508101906124bb919061493f565b905080156124c957506124f9565b60006124d586846130ab565b90506124e083611aa9565b6124ea908561495c565b93506124f68382613b66565b50505b8061250381614974565b91505061243d565b5061251581610deb565b600f81905560009061252960065460ff1690565b61253490600a61475f565b61253e908661476e565b61254891906147a3565b90506125543382613644565b600080516020614d7e8339815191523385836040516125759392919061498f565b60405180910390a1979650505050505050565b6008546001600160a01b031690565b6000600260005414156125bc5760405162461bcd60e51b81526004016103e090614a9b565b600260009081553381526028602052604090208054601f906125f15760405162461bcd60e51b81526004016103e09190614aec565b508060010154600d541160209061261b5760405162461bcd60e51b81526004016103e09190614aec565b508054601a5460405163d33465cd60e01b8152600481018390529193506001600160a01b03169063d33465cd906024016020604051808303816000875af115801561266a573d6000803e3d6000fd5b505050506040513d601f19601f8201168201806040525081019061268e9190614926565b91508060000154601460008282546126a69190614801565b9091555050600080825560018201556126bf3383613587565b50600160005590565b6000600260005414156126ed5760405162461bcd60e51b81526004016103e090614a9b565b6002600081815533815260286020526040902090810154601f906127245760405162461bcd60e51b81526004016103e09190614aec565b508060030154600d541160209061274e5760405162461bcd60e51b81526004016103e09190614aec565b508060020154915080600201546014600082825461276c9190614801565b909155505060006002820181905560038201556006546126bf9061010090046001600160a01b03163384613cd9565b6009546001600160a01b031633146127c55760405162461bcd60e51b81526004016103e0906147da565b6021805460ff1916911515919091179055565b600754600a54604051632830092960e21b815260009283926001600160a01b039091169163a0c024a491612810918890600401614818565b606060405180830381865afa15801561282d573d6000803e3d6000fd5b505050506040513d601f19601f8201168201806040525081019061285191906148d2565b9050600081602001516001600160a01b031663e71325998584600001516040518363ffffffff1660e01b815260040161288b929190614bbd565b602060405180830381865afa1580156128a8573d6000803e3d6000fd5b505050506040513d601f19601f820116820180604052508101906128cc9190614926565b95945050505050565b601a546001600160a01b031633146128ff5760405162461bcd60e51b81526004016103e090614826565b600260005414156129225760405162461bcd60e51b81526004016103e090614a9b565b600260008181556001600160a01b038316815260286020526040902090810154601f90156129635760405162461bcd60e51b81526004016103e09190614aec565b5060028101839055600d5460038201556014805484919060009061298890849061495c565b90915550506001600055505050565b6001600160a01b03918216600090815260026020908152604080832093909416825291909152205490565b6009546001600160a01b031633146129ec5760405162461bcd60e51b81526004016103e0906147da565b6001600160a01b03166000908152602360205260409020805460ff19166001179055565b60026000541415612a335760405162461bcd60e51b81526004016103e090614a9b565b600260009081553381526028602052604090206004810154612a54826135ef565b600654612a709061010090046001600160a01b03163383613cd9565b50506001600055565b6009546001600160a01b03163314610fd75760405162461bcd60e51b81526004016103e0906147da565b6009546001600160a01b03163314612acd5760405162461bcd60e51b81526004016103e0906147da565b601d55565b6009546001600160a01b03163314612afc5760405162461bcd60e51b81526004016103e0906147da565b61ffff16601b55565b6006546040516370a0823160e01b815260009161010090046001600160a01b0316906370a0823190612b3b90309060040161436b565b602060405180830381865afa158015612b58573d6000803e3d6000fd5b505050506040513d601f19601f820116820180604052508101906114bf9190614926565b6008546001600160a01b03163314612ba65760405162461bcd60e51b81526004016103e0906148a9565b601880546001600160a01b0319166001600160a01b0392909216919091179055565b6001600160a01b038316612c2a5760405162461bcd60e51b8152602060048201526024808201527f45524332303a20617070726f76652066726f6d20746865207a65726f206164646044820152637265737360e01b60648201526084016103e0565b6001600160a01b038216612c8b5760405162461bcd60e51b815260206004820152602260248201527f45524332303a20617070726f766520746f20746865207a65726f206164647265604482015261737360f01b60648201526084016103e0565b6001600160a01b0383811660008181526002602090815260408083209487168084529482529182902085905590518481527f8c5be1e5ebec7d5bd14f71427d1e84f3dd0314c0f7b2291e5b200ac8c7c3b92591015b60405180910390a3505050565b60005b8151811015612d44576000828281518110612d0d57612d0d614bd4565b602002602001015190508060001415612d265750612d32565b612d308282613cf8565b505b80612d3c81614974565b915050612cf0565b50506007805460ff60a01b1916600160a01b179055565b600754600a54604051632917823b60e21b81526060926000926001600160a01b039091169163a45e08ec91612d969160040190815260200190565b602060405180830381865afa158015612db3573d6000803e3d6000fd5b505050506040513d601f19601f82011682018060405250810190612dd79190614926565b9050806001600160401b03811115612df157612df1614398565b604051908082528060200260200182016040528015612e1a578160200160208202803683370190505b50915060005b81811015612e7657600d5460009081526026602090815260408083208484529091529020548351849083908110612e5957612e59614bd4565b602090810291909101015280612e6e81614974565b915050612e20565b505090565b6000612e878484612997565b905060001981146117ca5781811015612ee25760405162461bcd60e51b815260206004820152601d60248201527f45524332303a20696e73756666696369656e7420616c6c6f77616e636500000060448201526064016103e0565b6117ca8484848403612bc8565b6001600160a01b038316612f535760405162461bcd60e51b815260206004820152602560248201527f45524332303a207472616e736665722066726f6d20746865207a65726f206164604482015264647265737360d81b60648201526084016103e0565b6001600160a01b038216612fb55760405162461bcd60e51b815260206004820152602360248201527f45524332303a207472616e7366657220746f20746865207a65726f206164647260448201526265737360e81b60648201526084016103e0565b6001600160a01b0383166000908152600160205260409020548181101561302d5760405162461bcd60e51b815260206004820152602660248201527f45524332303a207472616e7366657220616d6f756e7420657863656564732062604482015265616c616e636560d01b60648201526084016103e0565b6001600160a01b0380851660009081526001602052604080822085850390559185168152908120805484929061306490849061495c565b92505081905550826001600160a01b0316846001600160a01b0316600080516020614d9e8339815191528460405161309e91815260200190565b60405180910390a36117ca565b6000601654600014156130c057506000610de5565b6016546000838152602460205260409020546130dc908561476e565b610eab91906147a3565b60008082116130f757506000610de5565b600754600a54604051632830092960e21b81526000926001600160a01b03169163a0c024a49161312c91908890600401614818565b606060405180830381865afa158015613149573d6000803e3d6000fd5b505050506040513d601f19601f8201168201806040525081019061316d91906148d2565b9050600660019054906101000a90046001600160a01b03166001600160a01b031681604001516001600160a01b0316146131e85760405162461bcd60e51b815260206004820152601c60248201527b0a0e4deecd2c8cae440eadcc8cae4d8f2d2dcce40dad2e6dac2e8c6d60231b60448201526064016103e0565b6020810151815160405163e713259960e01b81526000926001600160a01b03169163e71325999161321d918891600401614bbd565b602060405180830381865afa15801561323a573d6000803e3d6000fd5b505050506040513d601f19601f8201168201806040525081019061325e9190614926565b9050600082602001516001600160a01b031663b203bb993085600001516040518363ffffffff1660e01b8152600401613298929190614ad2565b602060405180830381865afa1580156132b5573d6000803e3d6000fd5b505050506040513d601f19601f820116820180604052508101906132d99190614926565b9050816132ec5760009350505050610de5565b818110156132f8578091505b60208301518351613315916001600160a01b039091169084613df1565b602083015183516040808601519051632d182be560e21b81526001600160a01b039093169263b460af949261334e928792600401614bea565b6020604051808303816000875af115801561336d573d6000803e3d6000fd5b505050506040513d601f19601f820116820180604052508101906133919190614926565b93507fccf233e875bd2fea082ed46529bf3ac28ccf329204362a29ce37370730ad694686856040516133c4929190614818565b60405180910390a150505092915050565b60008284111561344657601c54929384936133f09084614801565b6133fb90600a614c09565b6134058683614801565b11156134445760405162461bcd60e51b815260206004820152600e60248201526d4d617820646976657267656e636560901b60448201526064016103e0565b505b509192915050565b6001600160a01b0382166134ae5760405162461bcd60e51b815260206004820152602160248201527f45524332303a206275726e2066726f6d20746865207a65726f206164647265736044820152607360f81b60648201526084016103e0565b6001600160a01b038216600090815260016020526040902054818110156135225760405162461bcd60e51b815260206004820152602260248201527f45524332303a206275726e20616d6f756e7420657863656564732062616c616e604482015261636560f01b60648201526084016103e0565b6001600160a01b0383166000908152600160205260408120838303905560038054849290613551908490614801565b90915550506040518281526000906001600160a01b03851690600080516020614d9e83398151915290602001612ce0565b505050565b6000612710601b548361359a919061476e565b6135a491906147a3565b90506135c96135b1612588565b60065461010090046001600160a01b03169083613cd9565b613582836135d78385614801565b60065461010090046001600160a01b03169190613cd9565b6000816004015411601f906136175760405162461bcd60e51b81526004016103e09190614aec565b5080600401546015600082825461362e9190614801565b9091555050600060048201819055600590910155565b6001600160a01b03821661369a5760405162461bcd60e51b815260206004820152601f60248201527f45524332303a206d696e7420746f20746865207a65726f20616464726573730060448201526064016103e0565b80600360008282546136ac919061495c565b90915550506001600160a01b038216600090815260016020526040812080548392906136d990849061495c565b90915550506040518181526001600160a01b03831690600090600080516020614d9e8339815191529060200160405180910390a35b5050565b60005b8181101561370e5761372681613e8e565b8061373081614974565b915050613715565b600080601454613746612b05565b601354613753919061495c565b61375d9190614801565b905060006064600b5483613771919061476e565b61377b91906147a3565b90506137878183614801565b9250505090565b60006017546016546137a09190614c15565b905060008112156137b057600080fd5b60165560006017556007805460ff60a01b19169055565b600754600a54604051632917823b60e21b81526060926000926001600160a01b039091169163a45e08ec916138029160040190815260200190565b602060405180830381865afa15801561381f573d6000803e3d6000fd5b505050506040513d601f19601f820116820180604052508101906138439190614926565b6001600160401b0381111561385a5761385a614398565b604051908082528060200260200182016040528015613883578160200160208202803683370190505b50905060005b848110156139d257600754600a5460405163d900d1f760e01b81526000926001600160a01b03169163d900d1f7916138c691908690600401614818565b602060405180830381865afa1580156138e3573d6000803e3d6000fd5b505050506040513d601f19601f82011682018060405250810190613907919061493f565b9050801561391557506139c0565b61391e82614093565b600061392a86846130ab565b9050600061393784611aa9565b905060006139458284614c56565b90506000808212613957576000613961565b6139618484614801565b9050600e5482131561398d578187878151811061398057613980614bd4565b6020026020010181815250505b600e548111806139a95750600086815260246020526040902054155b156139ba576139b886826130e6565b505b50505050505b806139ca81614974565b915050613889565b509392505050565b600754600a54604051632917823b60e21b815260048101919091526000916001600160a01b03169063a45e08ec90602401602060405180830381865afa158015613a28573d6000803e3d6000fd5b505050506040513d601f19601f82011682018060405250810190613a4c9190614926565b905060005b81811015613582576000838281518110613a6d57613a6d614bd4565b602002602001015190508060001415613a865750613a92565b613a908282613b66565b505b80613a9c81614974565b915050613a51565b600080600c546064613ab69190614801565b83613ac18187614801565b613acb919061476e565b613ad5919061476e565b90506000613ae484606461476e565b905083613af182846147a3565b6128cc919061495c565b6040516001600160a01b03808516602483015283166044820152606481018290526117ca9085906323b872dd60e01b906084015b60408051601f198184030181529190526020810180516001600160e01b03166001600160e01b0319909316929092179091526140e5565b600754600a54604051632830092960e21b81526000926001600160a01b03169163a0c024a491613b9b91908790600401614818565b606060405180830381865afa158015613bb8573d6000803e3d6000fd5b505050506040513d601f19601f82011682018060405250810190613bdc91906148d2565b905081613be7612b05565b1015613bf857613bf5612b05565b91505b613c1e81602001518383604001516001600160a01b0316613df19092919063ffffffff16565b602081015181516040808401519051630b8b4a6160e21b81526001600160a01b0390931692632e2d298492613c57928792600401614bea565b6020604051808303816000875af1158015613c76573d6000803e3d6000fd5b505050506040513d601f19601f82011682018060405250810190613c9a9190614926565b507fd7a09b41c556f96e88629b7ac2fa259961b7e891ed670fd096a3b935183fc5428383604051613ccc929190614818565b60405180910390a1505050565b6135828363a9059cbb60e01b8484604051602401613b2f929190614c95565b600754600a5460405163d900d1f760e01b81526001600160a01b039092169163d900d1f791613d2b918690600401614818565b602060405180830381865afa158015613d48573d6000803e3d6000fd5b505050506040513d601f19601f82011682018060405250810190613d6c919061493f565b15613db15760405162461bcd60e51b8152602060048201526015602482015274141c9bdd1bd8dbdb081bdb88189b1858dadb1a5cdd605a1b60448201526064016103e0565b60008281526025602052604081208054839290613dcf908490614c15565b925050819055508060176000828254613de89190614c15565b90915550505050565b600081846001600160a01b031663dd62ed3e30866040518363ffffffff1660e01b8152600401613e22929190614ad2565b602060405180830381865afa158015613e3f573d6000803e3d6000fd5b505050506040513d601f19601f82011682018060405250810190613e639190614926565b613e6d919061495c565b90506117ca8463095ea7b360e01b8584604051602401613b2f929190614c95565b600d546000613e9c83611176565b600754600a5460405163d900d1f760e01b81529293506001600160a01b039091169163d900d1f791613ed2918790600401614818565b602060405180830381865afa158015613eef573d6000803e3d6000fd5b505050506040513d601f19601f82011682018060405250810190613f13919061493f565b15613f4157600091825260266020908152604080842094845293815283832060001990556027905291902055565b600083815260276020526040902054613f6a576000928352602760205260409092209190915550565b600083815260276020526040812054613f839083614c56565b9050600081601054600c54601354613f9b919061476e565b613fa5919061476e565b613faf9190614cae565b90506000601054601654613fc39190614d33565b60008781526027602052604081205491925090613fe09083614cae565b613feb906064614cae565b9050816140115760008681526026602090815260408083208a8452909152812055614036565b61401b8184614d33565b60008781526026602090815260408083208b84529091529020555b600087815260276020908152604091829020879055600d5482518a8152918201529081018690527f138f565772451a35cdb4f6072283e9e51f8db317d59487be4be697f040ec0f739060600160405180910390a150505050505050565b60008181526025602090815260408083205460249092528220546140b79190614c15565b905060008112156140c757600080fd5b60009182526024602090815260408084209290925560259052812055565b600061413a826040518060400160405280602081526020017f5361666545524332303a206c6f772d6c6576656c2063616c6c206661696c6564815250856001600160a01b03166141b79092919063ffffffff16565b8051909150156135825780806020019051810190614158919061493f565b6135825760405162461bcd60e51b815260206004820152602a60248201527f5361666545524332303a204552433230206f7065726174696f6e20646964206e6044820152691bdd081cdd58d8d9595960b21b60648201526084016103e0565b6060611b9d8484600085856001600160a01b0385163b6142195760405162461bcd60e51b815260206004820152601d60248201527f416464726573733a2063616c6c20746f206e6f6e2d636f6e747261637400000060448201526064016103e0565b600080866001600160a01b031685876040516142359190614d61565b60006040518083038185875af1925050503d8060008114614272576040519150601f19603f3d011682016040523d82523d6000602084013e614277565b606091505b5091509150614287828286614292565b979650505050505050565b606083156142a1575081610eab565b8251156142b15782518084602001fd5b8160405162461bcd60e51b81526004016103e091906142f7565b60005b838110156142e65781810151838201526020016142ce565b838111156117ca5750506000910152565b60208152600082518060208401526143168160408501602087016142cb565b601f01601f19169190910160400192915050565b6001600160a01b0381168114610fe057600080fd5b6000806040838503121561435257600080fd5b823561435d8161432a565b946020939093013593505050565b6001600160a01b0391909116815260200190565b60006020828403121561439157600080fd5b5035919050565b634e487b7160e01b600052604160045260246000fd5b604051606081016001600160401b03811182821017156143d0576143d0614398565b60405290565b604051601f8201601f191681016001600160401b03811182821017156143fe576143fe614398565b604052919050565b6000602080838503121561441957600080fd5b82356001600160401b038082111561443057600080fd5b818501915085601f83011261444457600080fd5b81358181111561445657614456614398565b8060051b91506144678483016143d6565b818152918301840191848101908884111561448157600080fd5b938501935b8385101561449f57843582529385019390850190614486565b98975050505050505050565b6000806000606084860312156144c057600080fd5b83356144cb8161432a565b925060208401356144db8161432a565b929592945050506040919091013590565b6000602082840312156144fe57600080fd5b8135610eab8161432a565b60008060006060848603121561451e57600080fd5b505081359360208301359350604090920135919050565b60006020828403121561454757600080fd5b813563ffffffff81168114610eab57600080fd5b6000806040838503121561456e57600080fd5b50508035926020909101359150565b8015158114610fe057600080fd5b60006020828403121561459d57600080fd5b8135610eab8161457d565b600080604083850312156145bb57600080fd5b8235915060208301356145cd8161432a565b809150509250929050565b600080604083850312156145eb57600080fd5b82356145f68161432a565b915060208301356145cd8161432a565b60006020828403121561461857600080fd5b813561ffff81168114610eab57600080fd5b600181811c9082168061463e57607f821691505b6020821081141561465f57634e487b7160e01b600052602260045260246000fd5b50919050565b634e487b7160e01b600052601160045260246000fd5b600181815b808511156146b657816000190482111561469c5761469c614665565b808516156146a957918102915b93841c9390800290614680565b509250929050565b6000826146cd57506001610de5565b816146da57506000610de5565b81600181146146f057600281146146fa57614716565b6001915050610de5565b60ff84111561470b5761470b614665565b50506001821b610de5565b5060208310610133831016604e8410600b8410161715614739575081810a610de5565b614743838361467b565b806000190482111561475757614757614665565b029392505050565b6000610eab60ff8416836146be565b600081600019048311821515161561478857614788614665565b500290565b634e487b7160e01b600052601260045260246000fd5b6000826147b2576147b261478d565b500490565b6000602082840312156147c957600080fd5b815160ff81168114610eab57600080fd5b6020808252600d908201526c37b7363c9023bab0b93234b0b760991b604082015260600190565b60008282101561481357614813614665565b500390565b918252602082015260400190565b6020808252600e908201526d37b7363c903c283937bb34b232b960911b604082015260600190565b600060608201858352602063ffffffff86168185015260606040850152818551808452608086019150828701935060005b8181101561489b5784518352938301939183019160010161487f565b509098975050505050505050565b6020808252600f908201526e5661756c743a206f6e6c792044414f60881b604082015260600190565b6000606082840312156148e457600080fd5b6148ec6143ae565b82516148f78161432a565b815260208301516149078161432a565b6020820152604083015161491a8161432a565b60408201529392505050565b60006020828403121561493857600080fd5b5051919050565b60006020828403121561495157600080fd5b8151610eab8161457d565b6000821982111561496f5761496f614665565b500190565b600060001982141561498857614988614665565b5060010190565b6001600160a01b039390931683526020830191909152604082015260600190565b6000602082840312156149c257600080fd5b8151610eab8161432a565b6000606082840312156149df57600080fd5b6149e76143ae565b82516149f28161432a565b81526020830151614a028161432a565b6020820152604083015162ffffff8116811461491a57600080fd5b8351815260208085015181830152604080860151818401526060808701516001600160a01b039081169185019190915260808088015182169085015260a0808801518216908501528551811660c08501529185015190911660e083015283015162ffffff166101008201528115156101208201526101408101611b9d565b6020808252601f908201527f5265656e7472616e637947756172643a207265656e7472616e742063616c6c00604082015260600190565b6001600160a01b0392831681529116602082015260400190565b600060208083526000845481600182811c915080831680614b0e57607f831692505b858310811415614b2c57634e487b7160e01b85526022600452602485fd5b878601838152602001818015614b495760018114614b5a57614b85565b60ff19861682528782019650614b85565b60008b81526020902060005b86811015614b7f57815484820152908501908901614b66565b83019750505b50949998505050505050505050565b6020808252600f908201526e135a5b9a5b5d5b4819195c1bdcda5d608a1b604082015260600190565b9182526001600160a01b0316602082015260400190565b634e487b7160e01b600052603260045260246000fd5b9283526001600160a01b03918216602084015216604082015260600190565b6000610eab83836146be565b600080821280156001600160ff1b0384900385131615614c3757614c37614665565b600160ff1b8390038412811615614c5057614c50614665565b50500190565b60008083128015600160ff1b850184121615614c7457614c74614665565b6001600160ff1b0384018313811615614c8f57614c8f614665565b50500390565b6001600160a01b03929092168252602082015260400190565b60006001600160ff1b0381841382841380821686840486111615614cd457614cd4614665565b600160ff1b6000871282811687830589121615614cf357614cf3614665565b60008712925087820587128484161615614d0f57614d0f614665565b87850587128184161615614d2557614d25614665565b505050929093029392505050565b600082614d4257614d4261478d565b600160ff1b821460001984141615614d5c57614d5c614665565b500590565b60008251614d738184602087016142cb565b919091019291505056fe90890809c654f11d6e72a28fa60149770a0d11ec6c92319d6ceb2bb0a4ea1a15ddf252ad1be2c89b69c2b068fc378daa952ba7f163c4a11628f55a4df523b3eff279e6a1f5e320cca91135676d9cb6e44ca8a08c0b88342bcdb1144f6511b568a26469706673582212200aeaafcadd87e4bee2bf404981cd052f883cbca5a69809f030875f451a89c66a64736f6c634300080b0033",
  "libraries": {
    "Swap": "0x959E2B4eB3fe2607Ee266012571d9c0638713FAB"
  },
  "devdoc": {
    "kind": "dev",
    "methods": {
      "allowance(address,address)": {
        "details": "See {IERC20-allowance}."
      },
      "approve(address,uint256)": {
        "details": "See {IERC20-approve}. NOTE: If `amount` is the maximum `uint256`, the allowance is not updated on `transferFrom`. This is semantically equivalent to an infinite approval. Requirements: - `spender` cannot be the zero address."
      },
      "balanceOf(address)": {
        "details": "See {IERC20-balanceOf}."
      },
      "balanceUnderlying(uint256)": {
        "params": {
          "_protocolNum": "Protocol number linked to an underlying protocol e.g compound_usdc_01"
        },
        "returns": {
          "_0": "Balance in VaultCurrency e.g USDC"
        }
      },
      "blacklistProtocol(uint256)": {
        "params": {
          "_protocolNum": "Protocol number linked to an underlying vault e.g compound_usdc_01"
        }
      },
      "calcShares(uint256,uint256)": {
        "params": {
          "_amount": "Amount in underyling token e.g USDC",
          "_protocolNum": "Protocol number linked to an underlying protocol e.g compound_usdc_01"
        },
        "returns": {
          "_0": "number of shares i.e LP tokens"
        }
      },
      "calculateExchangeRate(uint256)": {
        "params": {
          "totalUnderlying": "Total underlying in vaultCurrency"
        },
        "returns": {
          "_0": "price Exchange rate"
        }
      },
      "claimAndSwapTokens(uint256,uint256,uint256)": {
        "details": "Claims governance tokens from the underlying protocol if claimable, and swaps them to the vault's underlying token",
        "params": {
          "_protocolNum": "The protocol ID for which to claim and swap tokens"
        }
      },
      "decimals()": {
        "details": "Returns the number of decimals used to get its user representation. For example, if `decimals` equals `2`, a balance of `505` tokens should be displayed to a user as `5.05` (`505 / 10 ** 2`). Tokens usually opt for a value of 18, imitating the relationship between Ether and Wei. This is the value {ERC20} uses, unless this function is overridden; NOTE: This information is only used for _display_ purposes: it in no way affects any of the arithmetic of the contract, including {IERC20-balanceOf} and {IERC20-transfer}."
      },
      "decreaseAllowance(address,uint256)": {
        "details": "Atomically decreases the allowance granted to `spender` by the caller. This is an alternative to {approve} that can be used as a mitigation for problems described in {IERC20-approve}. Emits an {Approval} event indicating the updated allowance. Requirements: - `spender` cannot be the zero address. - `spender` must have allowance for the caller of at least `subtractedValue`."
      },
      "deposit(uint256)": {
        "details": "this can only be done if the funds from the user will be deposited directly into the underlying protocols. Hence, this is very gas intensive",
        "params": {
          "_amount": "Amount to deposit in vaultCurrency"
        },
        "returns": {
          "_0": "shares Amount of shares minted in LPtoken.decimals()"
        }
      },
      "depositRequest(uint256)": {
        "details": "This function allows a user to deposit an amount greater than or equal to the minimum deposit, transfers the deposited amount from the user to the Vault, and records the deposit request. If the training mode is active, the function checks if the user is whitelisted and the deposit doesn't exceed the max training deposit.",
        "params": {
          "_amount": "The amount that the user wants to deposit in vaultCurrency."
        }
      },
      "getDepositRequest()": {
        "returns": {
          "_0": "The deposit request of the user in vaultCurrency."
        }
      },
      "increaseAllowance(address,uint256)": {
        "details": "Atomically increases the allowance granted to `spender` by the caller. This is an alternative to {approve} that can be used as a mitigation for problems described in {IERC20-approve}. Emits an {Approval} event indicating the updated allowance. Requirements: - `spender` cannot be the zero address."
      },
      "name()": {
        "details": "Returns the name of the token."
      },
      "price(uint256)": {
        "params": {
          "_protocolNum": "Protocol number linked to an underlying protocol e.g compound_usdc_01"
        },
        "returns": {
          "_0": "protocolPrice Price per lp token"
        }
      },
      "rebalance()": {
        "details": "amountToProtocol = totalAmount * currentAllocation / totalAllocatedTokensamountToDeposit = amountToProtocol - currentBalanceProtocolif amountToDeposit < 0 => withdrawExecute all withdrawals before deposits"
      },
      "rebalanceNeeded()": {
        "returns": {
          "_0": "bool True of rebalance is needed, false if not"
        }
      },
      "redeemDeposit()": {
        "details": "This function allows a user to redeem their deposit requests and receive shares. This can only be done if a deposit request has been made and the current rebalancing period is greater than the period in which the deposit request was made. The function will mint new shares in exchange for the deposit and update the user's deposit request status.",
        "returns": {
          "shares": "The number of shares minted in exchange for the deposit."
        }
      },
      "redeemRewardsGame(uint256,address)": {
        "params": {
          "_user": "Address of the user",
          "_value": "Amount to set a request in vaultCurrency"
        }
      },
      "setDao(address)": {
        "params": {
          "_dao": "New address of the governance / DAO"
        }
      },
      "setDaoToken(address)": {
        "params": {
          "_token": "New address of the derby token"
        }
      },
      "setGovernanceFee(uint16)": {
        "params": {
          "_fee": "Fee in basis points"
        }
      },
      "setGuardian(address)": {
        "params": {
          "_guardian": "new address of the guardian"
        }
      },
      "setHomeXProvider(address)": {
        "params": {
          "_xProvider": "new address of xProvider on this chain"
        }
      },
      "setLiquidityPerc(uint256)": {
        "details": "The actual liquidityPerc could be a bit more or a bit less than the liquidityPerc set here.This is because some deposits or withdrawals might not execute because they don't meet the marginScale.",
        "params": {
          "_liquidityPerc": "Value at which to set the liquidityPerc."
        }
      },
      "setMarginScale(int256)": {
        "details": "Take into account the scale of the underlying.",
        "params": {
          "_marginScale": "Value at which to set the marginScale."
        }
      },
      "setMinimumDeposit(uint256)": {
        "details": "Sets the minimum deposit amount allowed.",
        "params": {
          "_newMinimumDeposit": "The new minimum deposit amount to be set."
        }
      },
      "setPerformanceFee(uint256)": {
        "details": "The actual performanceFee could be a bit more or a bit less than the performanceFee set here due to approximations in the game.",
        "params": {
          "_performanceFee": "Value at which to set the performanceFee."
        }
      },
      "setRebalanceInterval(uint256)": {
        "params": {
          "_timestampInternal": "UNIX timestamp"
        }
      },
      "setminScale(uint256)": {
        "params": {
          "_minScale": "New maximum divergence in vaultCurrency"
        }
      },
      "symbol()": {
        "details": "Returns the symbol of the token, usually a shorter version of the name."
      },
      "totalSupply()": {
        "details": "See {IERC20-totalSupply}."
      },
      "transfer(address,uint256)": {
        "details": "See {IERC20-transfer}. Requirements: - `to` cannot be the zero address. - the caller must have a balance of at least `amount`."
      },
      "transferFrom(address,address,uint256)": {
        "details": "See {IERC20-transferFrom}. Emits an {Approval} event indicating the updated allowance. This is not required by the EIP. See the note at the beginning of {ERC20}. NOTE: Does not update the allowance if the current allowance is the maximum `uint256`. Requirements: - `from` and `to` cannot be the zero address. - `from` must have a balance of at least `amount`. - the caller must have allowance for ``from``'s tokens of at least `amount`."
      },
      "withdraw(uint256)": {
        "details": "this can only be done if the funds from the user will be withdrawed directly from the underlying protocols. Hence, this is very gas intensive",
        "params": {
          "_amount": "Amount to withdraw in vaultCurrency"
        },
        "returns": {
          "_0": "shares Amount of shares the user needs to supply in LPtoken decimals()"
        }
      },
      "withdrawAllowance()": {
        "details": "Will send the user funds and reset the allowance",
        "returns": {
          "value": "Amount received by seller in vaultCurrency, in vaultcurrency.decimals()"
        }
      },
      "withdrawFromBlacklistedProtocol(uint256,uint256,uint256)": {
        "details": "This function should only be called after a protocol has been blacklisted.",
        "params": {
          "_protocolNum": "The protocol number from which to withdraw the funds."
        }
      },
      "withdrawRewards()": {
        "details": "Swaps vaultCurrency to Derby tokens, sends the funds to the user, and resets the allowance",
        "returns": {
          "value": "The amount of reward withdrawn by the user"
        }
      },
      "withdrawalRequest(uint256)": {
        "details": "Will give the user allowance for his funds and pulls the extra funds at the next rebalance",
        "params": {
          "_amount": "Amount to withdraw in vaultCurrency"
        },
        "returns": {
          "shares": "Amount of shares the user needs to supply in LPtoken decimals()"
        }
      }
    },
    "version": 1
  },
  "userdoc": {
    "kind": "user",
    "methods": {
      "addToWhitelist(address)": {
        "notice": "Setter to add an address to the whitelist"
      },
      "balanceUnderlying(uint256)": {
        "notice": "Get balance in VaultCurrency in underlying protocol"
      },
      "blacklistProtocol(uint256)": {
        "notice": "The DAO should be able to blacklist protocols, the funds should be sent to the vault."
      },
      "calcShares(uint256,uint256)": {
        "notice": "Calculates how many shares are equal to the amount in vault currency"
      },
      "calculateExchangeRate(uint256)": {
        "notice": "Function to calculate the exchangeRate (decimals = vaultCurrency decimals)"
      },
      "cancelDepositRequest()": {
        "notice": "Cancel the deposit request for the caller."
      },
      "claimAndSwapTokens(uint256,uint256,uint256)": {
        "notice": "Claims and swaps tokens from the underlying protocol"
      },
      "deposit(uint256)": {
        "notice": "function that enables direct deposits into the vault"
      },
      "depositRequest(uint256)": {
        "notice": "Enables a user to make a deposit into the Vault."
      },
      "getDao()": {
        "notice": "Getter for dao address"
      },
      "getDepositRequest()": {
        "notice": "Get the deposit request for a specific user."
      },
      "getGuardian()": {
        "notice": "Getter for guardian address"
      },
      "getRewardAllowance()": {
        "notice": "Returns the rewards the user is able to withdraw"
      },
      "getWithdrawalAllowance()": {
        "notice": "Returns the amount in vaultCurrency the user is able to withdraw"
      },
      "price(uint256)": {
        "notice": "Get price for underlying protocol"
      },
      "rebalance()": {
        "notice": "Vaults rebalanceRebalances i.e deposit or withdraw from all underlying protocols"
      },
      "rebalanceNeeded()": {
        "notice": "Checks if a rebalance is needed based on the set interval"
      },
      "receiveProtocolAllocations(int256[])": {
        "notice": "See receiveProtocolAllocations below"
      },
      "receiveProtocolAllocationsGuard(int256[])": {
        "notice": "Guardian function"
      },
      "redeemDeposit()": {
        "notice": "Redeems the pending deposit requests for the calling user."
      },
      "redeemRewardsGame(uint256,address)": {
        "notice": "Function for the game to set a withdrawalRequest for the rewards of the game user"
      },
      "sendRewardsToGame()": {
        "notice": "Vaults push rewardsPerLockedToken to game"
      },
      "setController(address)": {
        "notice": "Setter for controller address"
      },
      "setDao(address)": {
        "notice": "Set the governance address"
      },
      "setDaoToken(address)": {
        "notice": "Setter for derby token address"
      },
      "setGovernanceFee(uint16)": {
        "notice": "Setter for governance fee"
      },
      "setGuardian(address)": {
        "notice": "Setter for guardian address"
      },
      "setHomeChain(uint32)": {
        "notice": "Setter for new homeChain Id"
      },
      "setHomeXProvider(address)": {
        "notice": "Setter for xProvider address"
      },
      "setLiquidityPerc(uint256)": {
        "notice": "Set the liquidityPerc, the amount of liquidity which should be held in the vault after rebalancing."
      },
      "setMarginScale(int256)": {
        "notice": "Set the marginScale, the threshold used for deposits and withdrawals.If the threshold is not met the deposit/ withdrawal is not executed."
      },
      "setPerformanceFee(uint256)": {
        "notice": "Set the performanceFee, the percentage of the yield that goes to the game players."
      },
      "setRebalanceInterval(uint256)": {
        "notice": "Set minimum interval for the rebalance function"
      },
      "setTotalUnderlying()": {
        "notice": "Set total balance in VaultCurrency in all underlying protocols"
      },
      "setTraining(bool)": {
        "notice": "Setter to control the training state in de deposit function"
      },
      "setTrainingDeposit(uint256)": {
        "notice": "Setter for maximum amount to be able to deposit in training state"
      },
      "setminScale(uint256)": {
        "notice": "Setter for maximum divergence a user can get during a withdraw"
      },
      "withdraw(uint256)": {
        "notice": "function that enables direct withdrawals from the vault"
      },
      "withdrawAllowance()": {
        "notice": "Withdraw the allowance the user requested on the last rebalancing period"
      },
      "withdrawFromBlacklistedProtocol(uint256,uint256,uint256)": {
        "notice": "Withdraws the funds from a blacklisted protocol and updates the savedTotalUnderlying."
      },
      "withdrawRewards()": {
        "notice": "Withdraw the reward allowance set by the game using the redeemRewardsGame function"
      },
      "withdrawalRequest(uint256)": {
        "notice": "Withdrawal request for when the vault doesnt have enough funds available"
      }
    },
    "version": 1
  },
  "storageLayout": {
    "storage": [
      {
        "astId": 10,
        "contract": "contracts/Vault.sol:Vault",
        "label": "_status",
        "offset": 0,
        "slot": "0",
        "type": "t_uint256"
      },
      {
        "astId": 55,
        "contract": "contracts/Vault.sol:Vault",
        "label": "_balances",
        "offset": 0,
        "slot": "1",
        "type": "t_mapping(t_address,t_uint256)"
      },
      {
        "astId": 61,
        "contract": "contracts/Vault.sol:Vault",
        "label": "_allowances",
        "offset": 0,
        "slot": "2",
        "type": "t_mapping(t_address,t_mapping(t_address,t_uint256))"
      },
      {
        "astId": 63,
        "contract": "contracts/Vault.sol:Vault",
        "label": "_totalSupply",
        "offset": 0,
        "slot": "3",
        "type": "t_uint256"
      },
      {
        "astId": 65,
        "contract": "contracts/Vault.sol:Vault",
        "label": "_name",
        "offset": 0,
        "slot": "4",
        "type": "t_string_storage"
      },
      {
        "astId": 67,
        "contract": "contracts/Vault.sol:Vault",
        "label": "_symbol",
        "offset": 0,
        "slot": "5",
        "type": "t_string_storage"
      },
      {
        "astId": 4861,
        "contract": "contracts/Vault.sol:Vault",
        "label": "decimals_",
        "offset": 0,
        "slot": "6",
        "type": "t_uint8"
      },
      {
        "astId": 2141,
        "contract": "contracts/Vault.sol:Vault",
        "label": "vaultCurrency",
        "offset": 1,
        "slot": "6",
        "type": "t_contract(IERC20Metadata)728"
      },
      {
        "astId": 2144,
        "contract": "contracts/Vault.sol:Vault",
        "label": "controller",
        "offset": 0,
        "slot": "7",
        "type": "t_contract(IController)1586"
      },
      {
        "astId": 2146,
        "contract": "contracts/Vault.sol:Vault",
        "label": "deltaAllocationsReceived",
        "offset": 20,
        "slot": "7",
        "type": "t_bool"
      },
      {
        "astId": 2150,
        "contract": "contracts/Vault.sol:Vault",
        "label": "dao",
        "offset": 0,
        "slot": "8",
        "type": "t_address"
      },
      {
        "astId": 2152,
        "contract": "contracts/Vault.sol:Vault",
        "label": "guardian",
        "offset": 0,
        "slot": "9",
        "type": "t_address"
      },
      {
        "astId": 2154,
        "contract": "contracts/Vault.sol:Vault",
        "label": "vaultNumber",
        "offset": 0,
        "slot": "10",
        "type": "t_uint256"
      },
      {
        "astId": 2156,
        "contract": "contracts/Vault.sol:Vault",
        "label": "liquidityPerc",
        "offset": 0,
        "slot": "11",
        "type": "t_uint256"
      },
      {
        "astId": 2158,
        "contract": "contracts/Vault.sol:Vault",
        "label": "performanceFee",
        "offset": 0,
        "slot": "12",
        "type": "t_uint256"
      },
      {
        "astId": 2160,
        "contract": "contracts/Vault.sol:Vault",
        "label": "rebalancingPeriod",
        "offset": 0,
        "slot": "13",
        "type": "t_uint256"
      },
      {
        "astId": 2162,
        "contract": "contracts/Vault.sol:Vault",
        "label": "marginScale",
        "offset": 0,
        "slot": "14",
        "type": "t_int256"
      },
      {
        "astId": 2164,
        "contract": "contracts/Vault.sol:Vault",
        "label": "exchangeRate",
        "offset": 0,
        "slot": "15",
        "type": "t_uint256"
      },
      {
        "astId": 2167,
        "contract": "contracts/Vault.sol:Vault",
        "label": "BASE_SCALE",
        "offset": 0,
        "slot": "16",
        "type": "t_uint256"
      },
      {
        "astId": 2169,
        "contract": "contracts/Vault.sol:Vault",
        "label": "rebalanceInterval",
        "offset": 0,
        "slot": "17",
        "type": "t_uint256"
      },
      {
        "astId": 2171,
        "contract": "contracts/Vault.sol:Vault",
        "label": "lastTimeStamp",
        "offset": 0,
        "slot": "18",
        "type": "t_uint256"
      },
      {
        "astId": 2173,
        "contract": "contracts/Vault.sol:Vault",
        "label": "savedTotalUnderlying",
        "offset": 0,
        "slot": "19",
        "type": "t_uint256"
      },
      {
        "astId": 2175,
        "contract": "contracts/Vault.sol:Vault",
        "label": "totalWithdrawalRequests",
        "offset": 0,
        "slot": "20",
        "type": "t_uint256"
      },
      {
        "astId": 2177,
        "contract": "contracts/Vault.sol:Vault",
        "label": "totalDepositRequests",
        "offset": 0,
        "slot": "21",
        "type": "t_uint256"
      },
      {
        "astId": 2179,
        "contract": "contracts/Vault.sol:Vault",
        "label": "totalAllocatedTokens",
        "offset": 0,
        "slot": "22",
        "type": "t_uint256"
      },
      {
        "astId": 2181,
        "contract": "contracts/Vault.sol:Vault",
        "label": "deltaAllocatedTokens",
        "offset": 0,
        "slot": "23",
        "type": "t_int256"
      },
      {
        "astId": 2183,
        "contract": "contracts/Vault.sol:Vault",
        "label": "derbyToken",
        "offset": 0,
        "slot": "24",
        "type": "t_address"
      },
      {
        "astId": 2185,
        "contract": "contracts/Vault.sol:Vault",
        "label": "game",
        "offset": 0,
        "slot": "25",
        "type": "t_address"
      },
      {
        "astId": 2187,
        "contract": "contracts/Vault.sol:Vault",
        "label": "xProvider",
        "offset": 0,
        "slot": "26",
        "type": "t_address"
      },
      {
        "astId": 2189,
        "contract": "contracts/Vault.sol:Vault",
        "label": "vaultOff",
        "offset": 20,
        "slot": "26",
        "type": "t_bool"
      },
      {
        "astId": 2191,
        "contract": "contracts/Vault.sol:Vault",
        "label": "homeChain",
        "offset": 21,
        "slot": "26",
        "type": "t_uint32"
      },
      {
        "astId": 2193,
        "contract": "contracts/Vault.sol:Vault",
        "label": "governanceFee",
        "offset": 0,
        "slot": "27",
        "type": "t_uint256"
      },
      {
        "astId": 2195,
        "contract": "contracts/Vault.sol:Vault",
        "label": "minScale",
        "offset": 0,
        "slot": "28",
        "type": "t_uint256"
      },
      {
        "astId": 2197,
        "contract": "contracts/Vault.sol:Vault",
        "label": "minimumDeposit",
        "offset": 0,
        "slot": "29",
        "type": "t_uint256"
      },
      {
        "astId": 2199,
        "contract": "contracts/Vault.sol:Vault",
        "label": "lastRewardPeriod",
        "offset": 0,
        "slot": "30",
        "type": "t_uint256"
      },
      {
        "astId": 2202,
        "contract": "contracts/Vault.sol:Vault",
        "label": "allowanceError",
        "offset": 0,
        "slot": "31",
        "type": "t_string_storage"
      },
      {
        "astId": 2205,
        "contract": "contracts/Vault.sol:Vault",
        "label": "noFundsError",
        "offset": 0,
        "slot": "32",
        "type": "t_string_storage"
      },
      {
        "astId": 2207,
        "contract": "contracts/Vault.sol:Vault",
        "label": "training",
        "offset": 0,
        "slot": "33",
        "type": "t_bool"
      },
      {
        "astId": 2209,
        "contract": "contracts/Vault.sol:Vault",
        "label": "maxTrainingDeposit",
        "offset": 0,
        "slot": "34",
        "type": "t_uint256"
      },
      {
        "astId": 2213,
        "contract": "contracts/Vault.sol:Vault",
        "label": "whitelist",
        "offset": 0,
        "slot": "35",
        "type": "t_mapping(t_address,t_bool)"
      },
      {
        "astId": 2217,
        "contract": "contracts/Vault.sol:Vault",
        "label": "currentAllocations",
        "offset": 0,
        "slot": "36",
        "type": "t_mapping(t_uint256,t_uint256)"
      },
      {
        "astId": 2221,
        "contract": "contracts/Vault.sol:Vault",
        "label": "deltaAllocations",
        "offset": 0,
        "slot": "37",
        "type": "t_mapping(t_uint256,t_int256)"
      },
      {
        "astId": 2227,
        "contract": "contracts/Vault.sol:Vault",
        "label": "rewardPerLockedToken",
        "offset": 0,
        "slot": "38",
        "type": "t_mapping(t_uint256,t_mapping(t_uint256,t_int256))"
      },
      {
        "astId": 2231,
        "contract": "contracts/Vault.sol:Vault",
        "label": "lastPrices",
        "offset": 0,
        "slot": "39",
        "type": "t_mapping(t_uint256,t_uint256)"
      },
      {
        "astId": 2236,
        "contract": "contracts/Vault.sol:Vault",
        "label": "userInfo",
        "offset": 0,
        "slot": "40",
        "type": "t_mapping(t_address,t_struct(UserInfo)2138_storage)"
      }
    ],
    "types": {
      "t_address": {
        "encoding": "inplace",
        "label": "address",
        "numberOfBytes": "20"
      },
      "t_bool": {
        "encoding": "inplace",
        "label": "bool",
        "numberOfBytes": "1"
      },
      "t_contract(IController)1586": {
        "encoding": "inplace",
        "label": "contract IController",
        "numberOfBytes": "20"
      },
      "t_contract(IERC20Metadata)728": {
        "encoding": "inplace",
        "label": "contract IERC20Metadata",
        "numberOfBytes": "20"
      },
      "t_int256": {
        "encoding": "inplace",
        "label": "int256",
        "numberOfBytes": "32"
      },
      "t_mapping(t_address,t_bool)": {
        "encoding": "mapping",
        "key": "t_address",
        "label": "mapping(address => bool)",
        "numberOfBytes": "32",
        "value": "t_bool"
      },
      "t_mapping(t_address,t_mapping(t_address,t_uint256))": {
        "encoding": "mapping",
        "key": "t_address",
        "label": "mapping(address => mapping(address => uint256))",
        "numberOfBytes": "32",
        "value": "t_mapping(t_address,t_uint256)"
      },
      "t_mapping(t_address,t_struct(UserInfo)2138_storage)": {
        "encoding": "mapping",
        "key": "t_address",
        "label": "mapping(address => struct Vault.UserInfo)",
        "numberOfBytes": "32",
        "value": "t_struct(UserInfo)2138_storage"
      },
      "t_mapping(t_address,t_uint256)": {
        "encoding": "mapping",
        "key": "t_address",
        "label": "mapping(address => uint256)",
        "numberOfBytes": "32",
        "value": "t_uint256"
      },
      "t_mapping(t_uint256,t_int256)": {
        "encoding": "mapping",
        "key": "t_uint256",
        "label": "mapping(uint256 => int256)",
        "numberOfBytes": "32",
        "value": "t_int256"
      },
      "t_mapping(t_uint256,t_mapping(t_uint256,t_int256))": {
        "encoding": "mapping",
        "key": "t_uint256",
        "label": "mapping(uint256 => mapping(uint256 => int256))",
        "numberOfBytes": "32",
        "value": "t_mapping(t_uint256,t_int256)"
      },
      "t_mapping(t_uint256,t_uint256)": {
        "encoding": "mapping",
        "key": "t_uint256",
        "label": "mapping(uint256 => uint256)",
        "numberOfBytes": "32",
        "value": "t_uint256"
      },
      "t_string_storage": {
        "encoding": "bytes",
        "label": "string",
        "numberOfBytes": "32"
      },
      "t_struct(UserInfo)2138_storage": {
        "encoding": "inplace",
        "label": "struct Vault.UserInfo",
        "members": [
          {
            "astId": 2127,
            "contract": "contracts/Vault.sol:Vault",
            "label": "withdrawalAllowance",
            "offset": 0,
            "slot": "0",
            "type": "t_uint256"
          },
          {
            "astId": 2129,
            "contract": "contracts/Vault.sol:Vault",
            "label": "withdrawalRequestPeriod",
            "offset": 0,
            "slot": "1",
            "type": "t_uint256"
          },
          {
            "astId": 2131,
            "contract": "contracts/Vault.sol:Vault",
            "label": "rewardAllowance",
            "offset": 0,
            "slot": "2",
            "type": "t_uint256"
          },
          {
            "astId": 2133,
            "contract": "contracts/Vault.sol:Vault",
            "label": "rewardRequestPeriod",
            "offset": 0,
            "slot": "3",
            "type": "t_uint256"
          },
          {
            "astId": 2135,
            "contract": "contracts/Vault.sol:Vault",
            "label": "depositRequest",
            "offset": 0,
            "slot": "4",
            "type": "t_uint256"
          },
          {
            "astId": 2137,
            "contract": "contracts/Vault.sol:Vault",
            "label": "depositRequestPeriod",
            "offset": 0,
            "slot": "5",
            "type": "t_uint256"
          }
        ],
        "numberOfBytes": "192"
      },
      "t_uint256": {
        "encoding": "inplace",
        "label": "uint256",
        "numberOfBytes": "32"
      },
      "t_uint32": {
        "encoding": "inplace",
        "label": "uint32",
        "numberOfBytes": "4"
      },
      "t_uint8": {
        "encoding": "inplace",
        "label": "uint8",
        "numberOfBytes": "1"
      }
    }
  }
}